{
  "deployments": [
    {
      "transactions": [
        {
          "hash": "0x2426bfeadbaa78cfe5f0e68fdc663c59434cb54cb2b98c769c476c7cb7abcb8c",
          "transactionType": "CREATE",
          "contractName": "MockPerpDex",
          "contractAddress": "0x4c7B9CDD46E7a4dd94514418F942d25F646E9c98",
          "function": null,
          "arguments": null,
          "transaction": {
            "type": "0x00",
            "from": "0x08ca4dca530a7c02d7755455aeb24b63a41c8608",
            "gas": "0x873e4",
            "value": "0x0",
            "data": "0x608060405234801561001057600080fd5b506106bf806100206000396000f3fe608060405234801561001057600080fd5b506004361061004c5760003560e01c806316c19739146100515780632951f1b2146100c457806384e6afc1146100f2578063e93124341461011e575b600080fd5b6100a461005f366004610451565b6040805180820190915260008082526020820152506001600160a01b031660009081526020818152604091829020825180840190935280548352600101549082015290565b604080518251815260209283015192810192909252015b60405180910390f35b6100e46100d2366004610451565b60016020526000908152604090205481565b6040519081526020016100bb565b61011c610100366004610473565b6001600160a01b03909116600090815260016020526040902055565b005b61013161012c36600461049d565b61013e565b6040516100bb9190610503565b61019a60405180610100016040528060001515815260200160006001600160a01b0316815260200160006001600160a01b0316815260200160008152602001600081526020016000815260200160008152602001600081525090565b4282116101c857604051634e9b716960e01b8152600481018390524260248201526044015b60405180910390fd5b6001600160a01b038087166000818152600160209081526040808320548383528184208251610100810184528e1515815293840195909552948a1690820152606081018290526080810188905260a0810182905260c0810182905260e08101919091526103e8610239886002610582565b61024391906105b5565b60a082018190526000908190610259908a6105c9565b98508b1561030e57606461026e866062610582565b61027891906105b5565b60c08401526102896103e88a6105b5565b60e0840181905261029a908a6105c9565b91506305f5e1008360c00151836102b19190610582565b6102bb91906105b5565b60608401819052600185015485546102d391906105dc565b6102dd919061060c565b9050818460000160008282546102f3919061060c565b909155505083546103049082610633565b60018501556103b9565b606461031b866066610582565b61032591906105b5565b60c08401526103366103e88a6105b5565b60e08401819052610347908a6105c9565b60c084015190925061035d836305f5e100610582565b61036791906105b5565b606084015260018401548454839161037e916105dc565b6103889190610661565b905082606001518460000160008282546103a29190610661565b909155505083546103b39082610633565b60018501555b87836060015110156103ee5760608301516040516324f441dd60e11b81526101bf918a91600401918252602082015260400190565b7f8f85683c762329d9ff04dd6d786beeca74fee2789518bcdfe8993743f759c3888360405161041d9190610503565b60405180910390a150909a9950505050505050505050565b80356001600160a01b038116811461044c57600080fd5b919050565b60006020828403121561046357600080fd5b61046c82610435565b9392505050565b6000806040838503121561048657600080fd5b61048f83610435565b946020939093013593505050565b60008060008060008060c087890312156104b657600080fd5b863580151581146104c657600080fd5b95506104d460208801610435565b94506104e260408801610435565b9350606087013592506080870135915060a087013590509295509295509295565b600061010082019050825115158252602083015160018060a01b0380821660208501528060408601511660408501525050606083015160608301526080830151608083015260a083015160a083015260c083015160c083015260e083015160e083015292915050565b634e487b7160e01b600052601160045260246000fd5b80820281158282048414176105995761059961056c565b92915050565b634e487b7160e01b600052601260045260246000fd5b6000826105c4576105c461059f565b500490565b818103818111156105995761059961056c565b80820260008212600160ff1b841416156105f8576105f861056c565b81810583148215176105995761059961056c565b818103600083128015838313168383128216171561062c5761062c61056c565b5092915050565b6000826106425761064261059f565b600160ff1b82146000198414161561065c5761065c61056c565b500590565b80820182811260008312801582168215821617156106815761068161056c565b50509291505056fea26469706673582212202897ab59ed07a2372eb7374704a56cbdaea4e1798929c87c86b1593efc3edf3b64736f6c63430008160033",
            "nonce": "0x6c"
          },
          "additionalContracts": [],
          "isFixedGasLimit": false
        },
        {
          "hash": "0xaa4142b2a0647b874dfbd55beb9001d64af7dfdb8f235b35549695667d154376",
          "transactionType": "CALL",
          "contractName": "MockPerpDex",
          "contractAddress": "0x4c7B9CDD46E7a4dd94514418F942d25F646E9c98",
          "function": "changeOraclePrice(address,uint256)",
          "arguments": [
            "0x38BFBB31feFe187d29453fa44ac57cc9Ef31ac03",
            "80000000"
          ],
          "transaction": {
            "type": "0x00",
            "from": "0x08ca4dca530a7c02d7755455aeb24b63a41c8608",
            "to": "0x4c7b9cdd46e7a4dd94514418f942d25f646e9c98",
            "gas": "0xfc10",
            "value": "0x0",
            "data": "0x84e6afc100000000000000000000000038bfbb31fefe187d29453fa44ac57cc9ef31ac030000000000000000000000000000000000000000000000000000000004c4b400",
            "nonce": "0x6d"
          },
          "additionalContracts": [],
          "isFixedGasLimit": false
        },
        {
          "hash": "0xc2c88009800a37876ca954772da96c1f704022c170d44f9ec8964daabece383d",
          "transactionType": "CALL",
          "contractName": "MockPerpDex",
          "contractAddress": "0x4c7B9CDD46E7a4dd94514418F942d25F646E9c98",
          "function": "changeOraclePrice(address,uint256)",
          "arguments": [
            "0x347c715B762E7f8b79C1F584f24D0CD65f3bE7d4",
            "100000000"
          ],
          "transaction": {
            "type": "0x00",
            "from": "0x08ca4dca530a7c02d7755455aeb24b63a41c8608",
            "to": "0x4c7b9cdd46e7a4dd94514418f942d25f646e9c98",
            "gas": "0xfc10",
            "value": "0x0",
            "data": "0x84e6afc1000000000000000000000000347c715b762e7f8b79c1f584f24d0cd65f3be7d40000000000000000000000000000000000000000000000000000000005f5e100",
            "nonce": "0x6e"
          },
          "additionalContracts": [],
          "isFixedGasLimit": false
        },
        {
          "hash": "0xe7e0f0baf16aba1aa85b1228b4e0a80ff7e37c1a77de3416576c720f44e46cd1",
          "transactionType": "CALL",
          "contractName": "MockPerpDex",
          "contractAddress": "0x4c7B9CDD46E7a4dd94514418F942d25F646E9c98",
          "function": "changeOraclePrice(address,uint256)",
          "arguments": [
            "0xCBFB96860977942f8d8D3b1F8a9D34A2e6a92B69",
            "200000000000"
          ],
          "transaction": {
            "type": "0x00",
            "from": "0x08ca4dca530a7c02d7755455aeb24b63a41c8608",
            "to": "0x4c7b9cdd46e7a4dd94514418f942d25f646e9c98",
            "gas": "0xee1f",
            "value": "0x0",
            "data": "0x84e6afc1000000000000000000000000cbfb96860977942f8d8d3b1f8a9d34a2e6a92b690000000000000000000000000000000000000000000000000000002e90edd000",
            "nonce": "0x6f"
          },
          "additionalContracts": [],
          "isFixedGasLimit": false
        },
        {
          "hash": "0x7adb92297b21b683e46cb2ae28f8dd0d593e88200eed5324c2fbc21bb3b2ba25",
          "transactionType": "CREATE",
          "contractName": "MockPerpDexGateway",
          "contractAddress": "0xbB8977D0604ABe3FA3d368e15D96426Ed91a06C0",
          "function": null,
          "arguments": null,
          "transaction": {
            "type": "0x00",
            "from": "0x08ca4dca530a7c02d7755455aeb24b63a41c8608",
            "gas": "0x2b043d",
            "value": "0x0",
            "data": "0x60a06040523480156200001157600080fd5b50604051620026e6380380620026e683398101604081905262000034916200010a565b8133818082806200005f57604051631e4fbdf760e01b81526000600482015260240160405180910390fd5b6200006a816200009d565b506001600160a01b03908116608052600780546001600160a01b0319169590911694909417909355506200014292505050565b600080546001600160a01b038381166001600160a01b0319831681178455604051919092169283917f8be0079c531659141344cd1fd0a4f28419497f9722a3daafe3b4186f6b6457e09190a35050565b80516001600160a01b03811681146200010557600080fd5b919050565b600080604083850312156200011e57600080fd5b6200012983620000ed565b91506200013960208401620000ed565b90509250929050565b60805161255e62000188600039600081816104e80152818161084a0152818161093301528181610a5501528181610e600152818161121f01526116a7015261255e6000f3fe6080604052600436106101db5760003560e01c80638da5cb5b11610102578063d1deba1f11610095578063f2fde38b11610064578063f2fde38b146105f0578063f5e97c8514610610578063f5ecbdbc14610630578063f953cec71461065057600080fd5b8063d1deba1f14610560578063d6cfb12f14610573578063df2a5b3b146105b0578063eb8d72b7146105d057600080fd5b8063b353aaa7116100d1578063b353aaa7146104d6578063baf3292d1461050a578063c44618341461052a578063cbed8b9c1461054057600080fd5b80638da5cb5b14610458578063950c8a74146104765780639f38369a14610496578063a6c3d165146104b657600080fd5b80633f1f4fa41161017a578063715018a611610149578063715018a6146103b3578063734ff5f3146103c85780637533d788146103f35780638cfd8f5c1461042057600080fd5b80633f1f4fa4146102e957806342d65a8d146103245780635b8c41e61461034457806366ad5c8a1461039357600080fd5b80630df37483116101b65780630df374831461023c57806310ddb1371461025c578063123c549c1461027c5780633d8b38f6146102b957600080fd5b80621d3567146101e757806307e0db17146102095780630aad0ecc1461022957600080fd5b366101e257005b600080fd5b3480156101f357600080fd5b50610207610202366004611aa2565b610670565b005b34801561021557600080fd5b50610207610224366004611b35565b610829565b610207610237366004611c13565b6108b2565b34801561024857600080fd5b50610207610257366004611c6b565b6108f3565b34801561026857600080fd5b50610207610277366004611b35565b610912565b34801561028857600080fd5b5060075461029c906001600160a01b031681565b6040516001600160a01b0390911681526020015b60405180910390f35b3480156102c557600080fd5b506102d96102d4366004611c95565b61096a565b60405190151581526020016102b0565b3480156102f557600080fd5b50610316610304366004611b35565b60036020526000908152604090205481565b6040519081526020016102b0565b34801561033057600080fd5b5061020761033f366004611c95565b610a36565b34801561035057600080fd5b5061031661035f366004611ce7565b6005602090815260009384526040808520845180860184018051928152908401958401959095209452929052825290205481565b34801561039f57600080fd5b506102076103ae366004611aa2565b610abc565b3480156103bf57600080fd5b50610207610b98565b3480156103d457600080fd5b506103de6127d481565b60405163ffffffff90911681526020016102b0565b3480156103ff57600080fd5b5061041361040e366004611b35565b610bac565b6040516102b09190611d94565b34801561042c57600080fd5b5061031661043b366004611da7565b600260209081526000928352604080842090915290825290205481565b34801561046457600080fd5b506000546001600160a01b031661029c565b34801561048257600080fd5b5060045461029c906001600160a01b031681565b3480156104a257600080fd5b506104136104b1366004611b35565b610c46565b3480156104c257600080fd5b506102076104d1366004611c95565b610d5c565b3480156104e257600080fd5b5061029c7f000000000000000000000000000000000000000000000000000000000000000081565b34801561051657600080fd5b50610207610525366004611def565b610de5565b34801561053657600080fd5b5061031661271081565b34801561054c57600080fd5b5061020761055b366004611e0c565b610e41565b61020761056e366004611aa2565b610ed6565b34801561057f57600080fd5b5061020761058e366004611def565b600680546001600160a01b0319166001600160a01b0392909216919091179055565b3480156105bc57600080fd5b506102076105cb366004611e7a565b6110ec565b3480156105dc57600080fd5b506102076105eb366004611c95565b611156565b3480156105fc57600080fd5b5061020761060b366004611def565b6111b0565b34801561061c57600080fd5b5060065461029c906001600160a01b031681565b34801561063c57600080fd5b5061041361064b366004611eb6565b6111ee565b34801561065c57600080fd5b5061020761066b366004611f03565b61129f565b61ffff86166000908152600160205260408120805461068e90611f3f565b80601f01602080910402602001604051908101604052809291908181526020018280546106ba90611f3f565b80156107075780601f106106dc57610100808354040283529160200191610707565b820191906000526020600020905b8154815290600101906020018083116106ea57829003601f168201915b50505050509050805186869050148015610722575060008151115b801561074a5750805160208201206040516107409088908890611f79565b6040518091039020145b6107aa5760405162461bcd60e51b815260206004820152602660248201527f4c7a4170703a20696e76616c696420736f757263652073656e64696e6720636f6044820152651b9d1c9858dd60d21b60648201526084015b60405180910390fd5b6108208787878080601f01602080910402602001604051908101604052809392919081815260200183838082843760009201919091525050604080516020601f8a018190048102820181019092528881528a9350915088908890819084018382808284376000920191909152506114d892505050565b50505050505050565b610831611551565b6040516307e0db1760e01b815261ffff821660048201527f00000000000000000000000000000000000000000000000000000000000000006001600160a01b0316906307e0db17906024015b600060405180830381600087803b15801561089757600080fd5b505af11580156108ab573d6000803e3d6000fd5b5050505050565b604051600160f01b6020820152620557306022820181905260019160009060420160405160208183030381529060405290506108ab8585306000854761157e565b6108fb611551565b61ffff909116600090815260036020526040902055565b61091a611551565b6040516310ddb13760e01b815261ffff821660048201527f00000000000000000000000000000000000000000000000000000000000000006001600160a01b0316906310ddb1379060240161087d565b61ffff83166000908152600160205260408120805482919061098b90611f3f565b80601f01602080910402602001604051908101604052809291908181526020018280546109b790611f3f565b8015610a045780601f106109d957610100808354040283529160200191610a04565b820191906000526020600020905b8154815290600101906020018083116109e757829003601f168201915b505050505090508383604051610a1b929190611f79565b60405180910390208180519060200120149150509392505050565b610a3e611551565b6040516342d65a8d60e01b81526001600160a01b037f000000000000000000000000000000000000000000000000000000000000000016906342d65a8d90610a8e90869086908690600401611fb2565b600060405180830381600087803b158015610aa857600080fd5b505af1158015610820573d6000803e3d6000fd5b333014610b1a5760405162461bcd60e51b815260206004820152602660248201527f4e6f6e626c6f636b696e674c7a4170703a2063616c6c6572206d7573742062656044820152650204c7a4170760d41b60648201526084016107a1565b610b908686868080601f01602080910402602001604051908101604052809392919081815260200183838082843760009201919091525050604080516020601f89018190048102820181019092528781528993509150879087908190840183828082843760009201919091525061172392505050565b505050505050565b610ba0611551565b610baa6000611732565b565b60016020526000908152604090208054610bc590611f3f565b80601f0160208091040260200160405190810160405280929190818152602001828054610bf190611f3f565b8015610c3e5780601f10610c1357610100808354040283529160200191610c3e565b820191906000526020600020905b815481529060010190602001808311610c2157829003601f168201915b505050505081565b61ffff8116600090815260016020526040812080546060929190610c6990611f3f565b80601f0160208091040260200160405190810160405280929190818152602001828054610c9590611f3f565b8015610ce25780601f10610cb757610100808354040283529160200191610ce2565b820191906000526020600020905b815481529060010190602001808311610cc557829003601f168201915b505050505090508051600003610d3a5760405162461bcd60e51b815260206004820152601d60248201527f4c7a4170703a206e6f20747275737465642070617468207265636f726400000060448201526064016107a1565b610d55600060148351610d4d9190611fe6565b839190611782565b9392505050565b610d64611551565b818130604051602001610d7993929190611fff565b60408051601f1981840301815291815261ffff8516600090815260016020522090610da4908261206d565b507f8c0400cfe2d1199b1a725c78960bcc2a344d869b80590d0f2bd005db15a572ce838383604051610dd893929190611fb2565b60405180910390a1505050565b610ded611551565b600480546001600160a01b0319166001600160a01b0383169081179091556040519081527f5db758e995a17ec1ad84bdef7e8c3293a0bd6179bcce400dff5d4c3d87db726b9060200160405180910390a150565b610e49611551565b6040516332fb62e760e21b81526001600160a01b037f0000000000000000000000000000000000000000000000000000000000000000169063cbed8b9c90610e9d908890889088908890889060040161212c565b600060405180830381600087803b158015610eb757600080fd5b505af1158015610ecb573d6000803e3d6000fd5b505050505050505050565b61ffff86166000908152600560205260408082209051610ef99088908890611f79565b90815260408051602092819003830190206001600160401b03871660009081529252902054905080610f795760405162461bcd60e51b815260206004820152602360248201527f4e6f6e626c6f636b696e674c7a4170703a206e6f2073746f726564206d65737360448201526261676560e81b60648201526084016107a1565b808383604051610f8a929190611f79565b604051809103902014610fe95760405162461bcd60e51b815260206004820152602160248201527f4e6f6e626c6f636b696e674c7a4170703a20696e76616c6964207061796c6f616044820152601960fa1b60648201526084016107a1565b61ffff8716600090815260056020526040808220905161100c9089908990611f79565b90815260408051602092819003830181206001600160401b038916600090815290845282902093909355601f880182900482028301820190528682526110a4918991899089908190840183828082843760009201919091525050604080516020601f8a018190048102820181019092528881528a93509150889088908190840183828082843760009201919091525061172392505050565b7fc264d91f3adc5588250e1551f547752ca0cfa8f6b530d243b9f9f4cab10ea8e587878787856040516110db959493929190612165565b60405180910390a150505050505050565b6110f4611551565b61ffff83811660008181526002602090815260408083209487168084529482529182902085905581519283528201929092529081018290527f9d5c7c0b934da8fefa9c7760c98383778a12dfbfc0c3b3106518f43fb9508ac090606001610dd8565b61115e611551565b61ffff8316600090815260016020526040902061117c8284836121a0565b507ffa41487ad5d6728f0b19276fa1eddc16558578f5109fc39d2dc33c3230470dab838383604051610dd893929190611fb2565b6111b8611551565b6001600160a01b0381166111e257604051631e4fbdf760e01b8152600060048201526024016107a1565b6111eb81611732565b50565b604051633d7b2f6f60e21b815261ffff808616600483015284166024820152306044820152606481018290526060907f00000000000000000000000000000000000000000000000000000000000000006001600160a01b03169063f5ecbdbc90608401600060405180830381865afa15801561126e573d6000803e3d6000fd5b505050506040513d6000823e601f3d908101601f19168201604052611296919081019061225f565b95945050505050565b600080600080600080868060200190518101906112bc91906122dc565b95509550955095509550955061132460405180610100016040528060001515815260200160006001600160a01b0316815260200160006001600160a01b0316815260200160008152602001600081526020016000815260200160008152602001600081525090565b8615158082526001600160a01b038781166020840181905287821660408086018290526080860189905260075490516024810195909552604485019290925260648401526084830187905260a4830186905260c483018590526000928392919091169060e40160408051601f198184030181529181526020820180516001600160e01b0316633a4c490d60e21b179052516113bf9190612342565b6000604051808303816000865af19150503d80600081146113fc576040519150601f19603f3d011682016040523d82523d6000602084013e611401565b606091505b5091509150811561142357808060200190518101906114209190612369565b92505b600082846000015185602001518660400151876060015188608001518960a001518a60c001518b60e001516040516020016114ae99989796959493929190981515895296151560208901526001600160a01b039586166040890152939094166060870152608086019190915260a085015260c084019190915260e08301526101008201526101200190565b60405160208183030381529060405290506114cb6127d4826108b2565b5050505050505050505050565b60008061153b5a60966366ad5c8a60e01b898989896040516024016115009493929190612412565b60408051601f198184030181529190526020810180516001600160e01b03166001600160e01b0319909316929092179091523092919061188f565b9150915081610b9057610b908686868685611919565b6000546001600160a01b03163314610baa5760405163118cdaa760e01b81523360048201526024016107a1565b61ffff86166000908152600160205260408120805461159c90611f3f565b80601f01602080910402602001604051908101604052809291908181526020018280546115c890611f3f565b80156116155780601f106115ea57610100808354040283529160200191611615565b820191906000526020600020905b8154815290600101906020018083116115f857829003601f168201915b5050505050905080516000036116865760405162461bcd60e51b815260206004820152603060248201527f4c7a4170703a2064657374696e6174696f6e20636861696e206973206e6f742060448201526f61207472757374656420736f7572636560801b60648201526084016107a1565b6116918787516119b6565b60405162c5803160e81b81526001600160a01b037f0000000000000000000000000000000000000000000000000000000000000000169063c58031009084906116e8908b9086908c908c908c908c90600401612450565b6000604051808303818588803b15801561170157600080fd5b505af1158015611715573d6000803e3d6000fd5b505050505050505050505050565b61172c8161129f565b50505050565b600080546001600160a01b038381166001600160a01b0319831681178455604051919092169283917f8be0079c531659141344cd1fd0a4f28419497f9722a3daafe3b4186f6b6457e09190a35050565b60608161179081601f6124b7565b10156117cf5760405162461bcd60e51b815260206004820152600e60248201526d736c6963655f6f766572666c6f7760901b60448201526064016107a1565b6117d982846124b7565b8451101561181d5760405162461bcd60e51b8152602060048201526011602482015270736c6963655f6f75744f66426f756e647360781b60448201526064016107a1565b60608215801561183c5760405191506000825260208201604052611886565b6040519150601f8416801560200281840101858101878315602002848b0101015b8183101561187557805183526020928301920161185d565b5050858452601f01601f1916604052505b50949350505050565b6000606060008060008661ffff166001600160401b038111156118b4576118b4611b50565b6040519080825280601f01601f1916602001820160405280156118de576020820181803683370190505b50905060008087516020890160008d8df191503d925086831115611900578692505b828152826000602083013e909890975095505050505050565b8180519060200120600560008761ffff1661ffff1681526020019081526020016000208560405161194a9190612342565b9081526040805191829003602090810183206001600160401b0388166000908152915220919091557fe183f33de2837795525b4792ca4cd60535bd77c53b7e7030060bfcf5734d6b0c906119a790879087908790879087906124ca565b60405180910390a15050505050565b61ffff8216600090815260036020526040812054908190036119d757506127105b80821115611a275760405162461bcd60e51b815260206004820181905260248201527f4c7a4170703a207061796c6f61642073697a6520697320746f6f206c6172676560448201526064016107a1565b505050565b803561ffff81168114611a3e57600080fd5b919050565b60008083601f840112611a5557600080fd5b5081356001600160401b03811115611a6c57600080fd5b602083019150836020828501011115611a8457600080fd5b9250929050565b80356001600160401b0381168114611a3e57600080fd5b60008060008060008060808789031215611abb57600080fd5b611ac487611a2c565b955060208701356001600160401b0380821115611ae057600080fd5b611aec8a838b01611a43565b9097509550859150611b0060408a01611a8b565b94506060890135915080821115611b1657600080fd5b50611b2389828a01611a43565b979a9699509497509295939492505050565b600060208284031215611b4757600080fd5b610d5582611a2c565b634e487b7160e01b600052604160045260246000fd5b604051601f8201601f191681016001600160401b0381118282101715611b8e57611b8e611b50565b604052919050565b60006001600160401b03821115611baf57611baf611b50565b50601f01601f191660200190565b600082601f830112611bce57600080fd5b8135611be1611bdc82611b96565b611b66565b818152846020838601011115611bf657600080fd5b816020850160208301376000918101602001919091529392505050565b60008060408385031215611c2657600080fd5b823563ffffffff81168114611c3a57600080fd5b915060208301356001600160401b03811115611c5557600080fd5b611c6185828601611bbd565b9150509250929050565b60008060408385031215611c7e57600080fd5b611c8783611a2c565b946020939093013593505050565b600080600060408486031215611caa57600080fd5b611cb384611a2c565b925060208401356001600160401b03811115611cce57600080fd5b611cda86828701611a43565b9497909650939450505050565b600080600060608486031215611cfc57600080fd5b611d0584611a2c565b925060208401356001600160401b03811115611d2057600080fd5b611d2c86828701611bbd565b925050611d3b60408501611a8b565b90509250925092565b60005b83811015611d5f578181015183820152602001611d47565b50506000910152565b60008151808452611d80816020860160208601611d44565b601f01601f19169290920160200192915050565b602081526000610d556020830184611d68565b60008060408385031215611dba57600080fd5b611dc383611a2c565b9150611dd160208401611a2c565b90509250929050565b6001600160a01b03811681146111eb57600080fd5b600060208284031215611e0157600080fd5b8135610d5581611dda565b600080600080600060808688031215611e2457600080fd5b611e2d86611a2c565b9450611e3b60208701611a2c565b93506040860135925060608601356001600160401b03811115611e5d57600080fd5b611e6988828901611a43565b969995985093965092949392505050565b600080600060608486031215611e8f57600080fd5b611e9884611a2c565b9250611ea660208501611a2c565b9150604084013590509250925092565b60008060008060808587031215611ecc57600080fd5b611ed585611a2c565b9350611ee360208601611a2c565b92506040850135611ef381611dda565b9396929550929360600135925050565b600060208284031215611f1557600080fd5b81356001600160401b03811115611f2b57600080fd5b611f3784828501611bbd565b949350505050565b600181811c90821680611f5357607f821691505b602082108103611f7357634e487b7160e01b600052602260045260246000fd5b50919050565b8183823760009101908152919050565b81835281816020850137506000828201602090810191909152601f909101601f19169091010190565b61ffff84168152604060208201526000611296604083018486611f89565b634e487b7160e01b600052601160045260246000fd5b81810381811115611ff957611ff9611fd0565b92915050565b8284823760609190911b6bffffffffffffffffffffffff19169101908152601401919050565b601f821115611a27576000816000526020600020601f850160051c8101602086101561204e5750805b601f850160051c820191505b81811015610b905782815560010161205a565b81516001600160401b0381111561208657612086611b50565b61209a816120948454611f3f565b84612025565b602080601f8311600181146120cf57600084156120b75750858301515b600019600386901b1c1916600185901b178555610b90565b600085815260208120601f198616915b828110156120fe578886015182559484019460019091019084016120df565b508582101561211c5787850151600019600388901b60f8161c191681555b5050505050600190811b01905550565b600061ffff80881683528087166020840152508460408301526080606083015261215a608083018486611f89565b979650505050505050565b61ffff86168152608060208201526000612183608083018688611f89565b6001600160401b0394909416604083015250606001529392505050565b6001600160401b038311156121b7576121b7611b50565b6121cb836121c58354611f3f565b83612025565b6000601f8411600181146121ff57600085156121e75750838201355b600019600387901b1c1916600186901b1783556108ab565b600083815260209020601f19861690835b828110156122305786850135825560209485019460019092019101612210565b508682101561224d5760001960f88860031b161c19848701351681555b505060018560011b0183555050505050565b60006020828403121561227157600080fd5b81516001600160401b0381111561228757600080fd5b8201601f8101841361229857600080fd5b80516122a6611bdc82611b96565b8181528560208385010111156122bb57600080fd5b611296826020830160208601611d44565b80518015158114611a3e57600080fd5b60008060008060008060c087890312156122f557600080fd5b6122fe876122cc565b9550602087015161230e81611dda565b604088015190955061231f81611dda565b80945050606087015192506080870151915060a087015190509295509295509295565b60008251612354818460208701611d44565b9190910192915050565b8051611a3e81611dda565b600061010080838503121561237d57600080fd5b604051908101906001600160401b038211818310171561239f5761239f611b50565b816040526123ac846122cc565b8152602084015191506123be82611dda565b8160208201526123d06040850161235e565b6040820152606084015160608201526080840151608082015260a084015160a082015260c084015160c082015260e084015160e0820152809250505092915050565b61ffff8516815260806020820152600061242f6080830186611d68565b6001600160401b0385166040840152828103606084015261215a8185611d68565b61ffff8716815260c06020820152600061246d60c0830188611d68565b828103604084015261247f8188611d68565b6001600160a01b0387811660608601528616608085015283810360a085015290506124aa8185611d68565b9998505050505050505050565b80820180821115611ff957611ff9611fd0565b61ffff8616815260a0602082015260006124e760a0830187611d68565b6001600160401b038616604084015282810360608401526125088186611d68565b9050828103608084015261251c8185611d68565b9897505050505050505056fea264697066735822122006dae21435f680c9adfd6efba79e30e6044244f916762c30c8d23571b13e162864736f6c634300081600330000000000000000000000006098e96a28e02f27b1e6bd381f870f1c8bd169d30000000000000000000000004c7b9cdd46e7a4dd94514418f942d25f646e9c98",
            "nonce": "0x70"
          },
          "additionalContracts": [],
          "isFixedGasLimit": false
        },
        {
          "hash": "0x87af1f180658033934799bef0e8a80a892873e4d9f6c3df71e179994a7c7531f",
          "transactionType": "CALL",
          "contractName": null,
          "contractAddress": null,
          "function": null,
          "arguments": null,
          "transaction": {
            "type": "0x00",
            "from": "0x08ca4dca530a7c02d7755455aeb24b63a41c8608",
            "to": "0xbb8977d0604abe3fa3d368e15d96426ed91a06c0",
            "gas": "0x7199",
            "value": "0x2386f26fc10000",
            "data": "0x",
            "nonce": "0x71"
          },
          "additionalContracts": [],
          "isFixedGasLimit": false
        },
        {
          "hash": "0x55ecfcb30276806065df5f8a9250f2e8b8e2ce514d9bc9ae5ff93375ca7e79fa",
          "transactionType": "CALL",
          "contractName": "MockPerpDexGateway",
          "contractAddress": "0xbB8977D0604ABe3FA3d368e15D96426Ed91a06C0",
          "function": "setTrustedRemoteAddress(uint16,bytes)",
          "arguments": [
            "10196",
            "0xda9b004baad89244d8df27794f0ec3ab285b1902"
          ],
          "transaction": {
            "type": "0x00",
            "from": "0x08ca4dca530a7c02d7755455aeb24b63a41c8608",
            "to": "0xbb8977d0604abe3fa3d368e15d96426ed91a06c0",
            "gas": "0x21840",
            "value": "0x0",
            "data": "0xa6c3d16500000000000000000000000000000000000000000000000000000000000027d400000000000000000000000000000000000000000000000000000000000000400000000000000000000000000000000000000000000000000000000000000014da9b004baad89244d8df27794f0ec3ab285b1902000000000000000000000000",
            "nonce": "0x72"
          },
          "additionalContracts": [],
          "isFixedGasLimit": false
        }
      ],
      "receipts": [
        {
          "transactionHash": "0x2426bfeadbaa78cfe5f0e68fdc663c59434cb54cb2b98c769c476c7cb7abcb8c",
          "transactionIndex": "0x41",
          "blockHash": "0x9d030a58956a8d0fb802fce84217627c9afe7dd50adc365943f469f789b8daa0",
          "blockNumber": "0x4bd4be",
          "from": "0x08cA4DCa530A7c02d7755455AeB24B63A41C8608",
          "to": null,
          "cumulativeGasUsed": "0x4ce847",
          "gasUsed": "0x680f6",
          "contractAddress": "0x4c7B9CDD46E7a4dd94514418F942d25F646E9c98",
          "logs": [],
          "status": "0x1",
          "logsBloom": "0x00000000000000000000000000000000000000000000000000000000000000000000000000000000000000000000000000000000000000000000000000000000000000000000000000000000000000000000000000000000000000000000000000000000000000000000000000000000000000000000000000000000000000000000000000000000000000000000000000000000000000000000000000000000000000000000000000000000000000000000000000000000000000000000000000000000000000000000000000000000000000000000000000000000000000000000000000000000000000000000000000000000000000000000000000000000",
          "type": "0x0",
          "effectiveGasPrice": "0xab28ce34"
        },
        {
          "transactionHash": "0xaa4142b2a0647b874dfbd55beb9001d64af7dfdb8f235b35549695667d154376",
          "transactionIndex": "0x42",
          "blockHash": "0x9d030a58956a8d0fb802fce84217627c9afe7dd50adc365943f469f789b8daa0",
          "blockNumber": "0x4bd4be",
          "from": "0x08cA4DCa530A7c02d7755455AeB24B63A41C8608",
          "to": "0x4c7B9CDD46E7a4dd94514418F942d25F646E9c98",
          "cumulativeGasUsed": "0x4d94a1",
          "gasUsed": "0xac5a",
          "contractAddress": null,
          "logs": [],
          "status": "0x1",
          "logsBloom": "0x00000000000000000000000000000000000000000000000000000000000000000000000000000000000000000000000000000000000000000000000000000000000000000000000000000000000000000000000000000000000000000000000000000000000000000000000000000000000000000000000000000000000000000000000000000000000000000000000000000000000000000000000000000000000000000000000000000000000000000000000000000000000000000000000000000000000000000000000000000000000000000000000000000000000000000000000000000000000000000000000000000000000000000000000000000000",
          "type": "0x0",
          "effectiveGasPrice": "0xab28ce34"
        },
        {
          "transactionHash": "0xc2c88009800a37876ca954772da96c1f704022c170d44f9ec8964daabece383d",
          "transactionIndex": "0x43",
          "blockHash": "0x9d030a58956a8d0fb802fce84217627c9afe7dd50adc365943f469f789b8daa0",
          "blockNumber": "0x4bd4be",
          "from": "0x08cA4DCa530A7c02d7755455AeB24B63A41C8608",
          "to": "0x4c7B9CDD46E7a4dd94514418F942d25F646E9c98",
          "cumulativeGasUsed": "0x4e40fb",
          "gasUsed": "0xac5a",
          "contractAddress": null,
          "logs": [],
          "status": "0x1",
          "logsBloom": "0x00000000000000000000000000000000000000000000000000000000000000000000000000000000000000000000000000000000000000000000000000000000000000000000000000000000000000000000000000000000000000000000000000000000000000000000000000000000000000000000000000000000000000000000000000000000000000000000000000000000000000000000000000000000000000000000000000000000000000000000000000000000000000000000000000000000000000000000000000000000000000000000000000000000000000000000000000000000000000000000000000000000000000000000000000000000",
          "type": "0x0",
          "effectiveGasPrice": "0xab28ce34"
        },
        {
          "transactionHash": "0xe7e0f0baf16aba1aa85b1228b4e0a80ff7e37c1a77de3416576c720f44e46cd1",
          "transactionIndex": "0x44",
          "blockHash": "0x9d030a58956a8d0fb802fce84217627c9afe7dd50adc365943f469f789b8daa0",
          "blockNumber": "0x4bd4be",
          "from": "0x08cA4DCa530A7c02d7755455AeB24B63A41C8608",
          "to": "0x4c7B9CDD46E7a4dd94514418F942d25F646E9c98",
          "cumulativeGasUsed": "0x4eed61",
          "gasUsed": "0xac66",
          "contractAddress": null,
          "logs": [],
          "status": "0x1",
          "logsBloom": "0x00000000000000000000000000000000000000000000000000000000000000000000000000000000000000000000000000000000000000000000000000000000000000000000000000000000000000000000000000000000000000000000000000000000000000000000000000000000000000000000000000000000000000000000000000000000000000000000000000000000000000000000000000000000000000000000000000000000000000000000000000000000000000000000000000000000000000000000000000000000000000000000000000000000000000000000000000000000000000000000000000000000000000000000000000000000",
          "type": "0x0",
          "effectiveGasPrice": "0xab28ce34"
        },
        {
          "transactionHash": "0x7adb92297b21b683e46cb2ae28f8dd0d593e88200eed5324c2fbc21bb3b2ba25",
          "transactionIndex": "0x45",
          "blockHash": "0x9d030a58956a8d0fb802fce84217627c9afe7dd50adc365943f469f789b8daa0",
          "blockNumber": "0x4bd4be",
          "from": "0x08cA4DCa530A7c02d7755455AeB24B63A41C8608",
          "to": null,
          "cumulativeGasUsed": "0x7006c9",
          "gasUsed": "0x211968",
          "contractAddress": "0xbB8977D0604ABe3FA3d368e15D96426Ed91a06C0",
          "logs": [
            {
              "address": "0xbB8977D0604ABe3FA3d368e15D96426Ed91a06C0",
              "topics": [
                "0x8be0079c531659141344cd1fd0a4f28419497f9722a3daafe3b4186f6b6457e0",
                "0x0000000000000000000000000000000000000000000000000000000000000000",
                "0x00000000000000000000000008ca4dca530a7c02d7755455aeb24b63a41c8608"
              ],
              "data": "0x",
              "blockHash": "0x9d030a58956a8d0fb802fce84217627c9afe7dd50adc365943f469f789b8daa0",
              "blockNumber": "0x4bd4be",
              "transactionHash": "0x7adb92297b21b683e46cb2ae28f8dd0d593e88200eed5324c2fbc21bb3b2ba25",
              "transactionIndex": "0x45",
              "logIndex": "0x55",
              "removed": false
            }
          ],
          "status": "0x1",
          "logsBloom": "0x00000000000000000000800000000000000000000000000000800000000000000000000000000000000000000000000000000000000800000000000000000000000000000000000000000000000000000001000000000000000000000000000000000000020000000000000000000800000000000000000000000000000000400000000080000000000000000000000000000000000000000000000000000000000000000000000000000000000080000000000000000000000000000000000000000000000000000000000000000008000000020000000000000000000020000000000000000000000000000000000000000000000000000000000000000000",
          "type": "0x0",
          "effectiveGasPrice": "0xab28ce34"
        },
        {
          "transactionHash": "0x87af1f180658033934799bef0e8a80a892873e4d9f6c3df71e179994a7c7531f",
          "transactionIndex": "0x46",
          "blockHash": "0x9d030a58956a8d0fb802fce84217627c9afe7dd50adc365943f469f789b8daa0",
          "blockNumber": "0x4bd4be",
          "from": "0x08cA4DCa530A7c02d7755455AeB24B63A41C8608",
          "to": "0xbB8977D0604ABe3FA3d368e15D96426Ed91a06C0",
          "cumulativeGasUsed": "0x705908",
          "gasUsed": "0x523f",
          "contractAddress": null,
          "logs": [],
          "status": "0x1",
          "logsBloom": "0x00000000000000000000000000000000000000000000000000000000000000000000000000000000000000000000000000000000000000000000000000000000000000000000000000000000000000000000000000000000000000000000000000000000000000000000000000000000000000000000000000000000000000000000000000000000000000000000000000000000000000000000000000000000000000000000000000000000000000000000000000000000000000000000000000000000000000000000000000000000000000000000000000000000000000000000000000000000000000000000000000000000000000000000000000000000",
          "type": "0x0",
          "effectiveGasPrice": "0xab28ce34"
        },
        {
          "transactionHash": "0x55ecfcb30276806065df5f8a9250f2e8b8e2ce514d9bc9ae5ff93375ca7e79fa",
          "transactionIndex": "0x47",
          "blockHash": "0x9d030a58956a8d0fb802fce84217627c9afe7dd50adc365943f469f789b8daa0",
          "blockNumber": "0x4bd4be",
          "from": "0x08cA4DCa530A7c02d7755455AeB24B63A41C8608",
          "to": "0xbB8977D0604ABe3FA3d368e15D96426Ed91a06C0",
          "cumulativeGasUsed": "0x71c7b3",
          "gasUsed": "0x16eab",
          "contractAddress": null,
          "logs": [
            {
              "address": "0xbB8977D0604ABe3FA3d368e15D96426Ed91a06C0",
              "topics": [
                "0x8c0400cfe2d1199b1a725c78960bcc2a344d869b80590d0f2bd005db15a572ce"
              ],
              "data": "0x00000000000000000000000000000000000000000000000000000000000027d400000000000000000000000000000000000000000000000000000000000000400000000000000000000000000000000000000000000000000000000000000014da9b004baad89244d8df27794f0ec3ab285b1902000000000000000000000000",
              "blockHash": "0x9d030a58956a8d0fb802fce84217627c9afe7dd50adc365943f469f789b8daa0",
              "blockNumber": "0x4bd4be",
              "transactionHash": "0x55ecfcb30276806065df5f8a9250f2e8b8e2ce514d9bc9ae5ff93375ca7e79fa",
              "transactionIndex": "0x47",
              "logIndex": "0x56",
              "removed": false
            }
          ],
          "status": "0x1",
          "logsBloom": "0x00000000000000000000800000000000000000000000000000000000000000000000000000000000000000000000000000000000000000000000000000000000000000000000000000000000000000000000000000000000000000000000000000000000000000000000000000000000000000800000000000000000000000000000000080000000000000000000000000000000000000000000000000000000000000002000000000000000000080000000000000000000000000000000000000000000000000000000000000000000000000000000000000000000000000000000000000000000000000000000000000000000000000000000800000000000",
          "type": "0x0",
          "effectiveGasPrice": "0xab28ce34"
        }
      ],
      "libraries": [],
      "pending": [],
      "returns": {},
      "timestamp": 1703712080,
      "chain": 11155111,
      "multi": true,
      "commit": "15506eb4"
    },
    {
      "transactions": [
        {
          "hash": "0x36a7fe5a0718920ac64b7800f7224b1a2b26ddce80d9cda1f9ded557076e59a9",
          "transactionType": "CALL",
          "contractName": null,
          "contractAddress": "0xDa9b004bAAd89244D8df27794f0ec3Ab285b1902",
          "function": "setTrustedRemoteAddress(uint16,bytes)",
          "arguments": [
            "10161",
            "0xbb8977d0604abe3fa3d368e15d96426ed91a06c0"
          ],
          "transaction": {
            "type": "0x00",
            "from": "0x08ca4dca530a7c02d7755455aeb24b63a41c8608",
            "to": "0xda9b004baad89244d8df27794f0ec3ab285b1902",
            "gas": "0x1fa29",
            "value": "0x0",
            "data": "0xa6c3d16500000000000000000000000000000000000000000000000000000000000027b100000000000000000000000000000000000000000000000000000000000000400000000000000000000000000000000000000000000000000000000000000014bb8977d0604abe3fa3d368e15d96426ed91a06c0000000000000000000000000",
            "nonce": "0x6e"
          },
          "additionalContracts": [],
          "isFixedGasLimit": false
        },
        {
          "hash": "0xf34beb46b3a05e100e0547f924a7f3926ccd0e6d9d137bb4bb1a834426fc1a8a",
          "transactionType": "CALL",
          "contractName": null,
          "contractAddress": "0xa18fD67BD803AA58C84F1fA4907555888C2746b7",
          "function": null,
          "arguments": null,
          "transaction": {
            "type": "0x00",
            "from": "0x08ca4dca530a7c02d7755455aeb24b63a41c8608",
            "to": "0xa18fd67bd803aa58c84f1fa4907555888c2746b7",
            "gas": "0xfa8e",
            "value": "0x0",
            "data": "0x095ea7b3000000000000000000000000ca7897ee43e014bbaceacaea42618cc155ea0e9600000000000000000000000000000000000000000000000000000002540be400",
            "nonce": "0x6f"
          },
          "additionalContracts": [],
          "isFixedGasLimit": false
        },
        {
          "hash": "0x9a88be6f505c85d0957c814f9a70406230fc9b10c98467f6c3262b7be9203bf9",
          "transactionType": "CALL",
          "contractName": null,
          "contractAddress": null,
          "function": null,
          "arguments": null,
          "transaction": {
            "type": "0x00",
            "from": "0x08ca4dca530a7c02d7755455aeb24b63a41c8608",
            "to": "0xda9b004baad89244d8df27794f0ec3ab285b1902",
            "gas": "0x7199",
            "value": "0x8ac7230489e80000",
            "data": "0x",
            "nonce": "0x70"
          },
          "additionalContracts": [],
          "isFixedGasLimit": false
        },
        {
          "hash": "0x02cd1be1ac7ce4f2a69b3b39cc77458a66eeb7fa0ab7f13f579215068f460b66",
          "transactionType": "CALL",
          "contractName": null,
          "contractAddress": "0xcA7897Ee43e014bbAceAcaea42618cc155Ea0E96",
          "function": null,
          "arguments": null,
          "transaction": {
            "type": "0x00",
            "from": "0x08ca4dca530a7c02d7755455aeb24b63a41c8608",
            "to": "0xca7897ee43e014bbaceacaea42618cc155ea0e96",
            "gas": "0x67162",
            "value": "0x0",
            "data": "0x9ceeaca7000000000000000000000000a18fd67bd803aa58c84f1fa4907555888c2746b700000000000000000000000008ca4dca530a7c02d7755455aeb24b63a41c860800000000000000000000000000000000000000000000000000000002540be40000000000000000000000000000000000000000000000000000000000000000000000000000000000000000000000000000000000000000000000000005f5e100",
            "nonce": "0x71"
          },
          "additionalContracts": [],
          "isFixedGasLimit": false
        }
      ],
      "receipts": [
        {
          "transactionHash": "0x36a7fe5a0718920ac64b7800f7224b1a2b26ddce80d9cda1f9ded557076e59a9",
          "transactionIndex": "0x1",
          "blockHash": "0x5472ff8ee35d2ffcfc1145105ac24c8dbee4b089a8fdcbc4a42e4a6ddd4d1111",
          "blockNumber": "0x2e354b0",
          "from": "0x08cA4DCa530A7c02d7755455AeB24B63A41C8608",
          "to": "0xDa9b004bAAd89244D8df27794f0ec3Ab285b1902",
          "cumulativeGasUsed": "0x15994",
          "gasUsed": "0x15994",
          "contractAddress": null,
          "logs": [
            {
              "address": "0xDa9b004bAAd89244D8df27794f0ec3Ab285b1902",
              "topics": [
                "0x8c0400cfe2d1199b1a725c78960bcc2a344d869b80590d0f2bd005db15a572ce"
              ],
              "data": "0x00000000000000000000000000000000000000000000000000000000000027b100000000000000000000000000000000000000000000000000000000000000400000000000000000000000000000000000000000000000000000000000000014bb8977d0604abe3fa3d368e15d96426ed91a06c0000000000000000000000000",
              "blockHash": "0x5472ff8ee35d2ffcfc1145105ac24c8dbee4b089a8fdcbc4a42e4a6ddd4d1111",
              "blockNumber": "0x2e354b0",
              "transactionHash": "0x36a7fe5a0718920ac64b7800f7224b1a2b26ddce80d9cda1f9ded557076e59a9",
              "transactionIndex": "0x1",
              "logIndex": "0x1",
              "removed": false
            }
          ],
          "status": "0x1",
          "logsBloom": "0x00000000000000000000000000000000000000000000000000000000000000000000000000000000000000000000000080000000000000000000000000000000000000020000000000000000000000000000000000000000000000000000000000000000000000000000000000000000000000800000000000000000000000000000000000000000000000000000000000000000000000000000000000000000000000002000000000000000000000000000000000000000000000000000000002000000000000000000000000000000000000000000000000000000000000000000000000000000000000000000000000000000000000000000800000000000"
        },
        {
          "transactionHash": "0xf34beb46b3a05e100e0547f924a7f3926ccd0e6d9d137bb4bb1a834426fc1a8a",
          "transactionIndex": "0x2",
          "blockHash": "0x5472ff8ee35d2ffcfc1145105ac24c8dbee4b089a8fdcbc4a42e4a6ddd4d1111",
          "blockNumber": "0x2e354b0",
          "from": "0x08cA4DCa530A7c02d7755455AeB24B63A41C8608",
          "to": "0xa18fD67BD803AA58C84F1fA4907555888C2746b7",
          "cumulativeGasUsed": "0x20c76",
          "gasUsed": "0xb2e2",
          "contractAddress": null,
          "logs": [
            {
              "address": "0xa18fD67BD803AA58C84F1fA4907555888C2746b7",
              "topics": [
                "0x8c5be1e5ebec7d5bd14f71427d1e84f3dd0314c0f7b2291e5b200ac8c7c3b925",
                "0x00000000000000000000000008ca4dca530a7c02d7755455aeb24b63a41c8608",
                "0x000000000000000000000000ca7897ee43e014bbaceacaea42618cc155ea0e96"
              ],
              "data": "0x00000000000000000000000000000000000000000000000000000002540be400",
              "blockHash": "0x5472ff8ee35d2ffcfc1145105ac24c8dbee4b089a8fdcbc4a42e4a6ddd4d1111",
              "blockNumber": "0x2e354b0",
              "transactionHash": "0xf34beb46b3a05e100e0547f924a7f3926ccd0e6d9d137bb4bb1a834426fc1a8a",
              "transactionIndex": "0x2",
              "logIndex": "0x2",
              "removed": false
            }
          ],
          "status": "0x1",
          "logsBloom": "0x00000000000000000000000000000000000000000000000000000000000000000000000000001000000000000000000000000000000800000000000000200000000000000000000000000000000000000000000000000000400000000000000000040000000000000000000000000000000000000000000000000000000000000000000010000000000000000008000000000000000000000000000000000000020000000000000000002000000000000000000000000000000000000000000000000000000000000000000000000008000000020000000000000000000000000010000000000000000000000000000000000000000000000000000000000000"
        },
        {
          "transactionHash": "0x9a88be6f505c85d0957c814f9a70406230fc9b10c98467f6c3262b7be9203bf9",
          "transactionIndex": "0x3",
          "blockHash": "0x5472ff8ee35d2ffcfc1145105ac24c8dbee4b089a8fdcbc4a42e4a6ddd4d1111",
          "blockNumber": "0x2e354b0",
          "from": "0x08cA4DCa530A7c02d7755455AeB24B63A41C8608",
          "to": "0xDa9b004bAAd89244D8df27794f0ec3Ab285b1902",
          "cumulativeGasUsed": "0x25eb5",
          "gasUsed": "0x523f",
          "contractAddress": null,
          "logs": [],
          "status": "0x1",
          "logsBloom": "0x00000000000000000000000000000000000000000000000000000000000000000000000000000000000000000000000000000000000000000000000000000000000000000000000000000000000000000000000000000000000000000000000000000000000000000000000000000000000000000000000000000000000000000000000000000000000000000000000000000000000000000000000000000000000000000000000000000000000000000000000000000000000000000000000000000000000000000000000000000000000000000000000000000000000000000000000000000000000000000000000000000000000000000000000000000000"
        },
        {
          "transactionHash": "0x02cd1be1ac7ce4f2a69b3b39cc77458a66eeb7fa0ab7f13f579215068f460b66",
          "transactionIndex": "0x4",
          "blockHash": "0x5472ff8ee35d2ffcfc1145105ac24c8dbee4b089a8fdcbc4a42e4a6ddd4d1111",
          "blockNumber": "0x2e354b0",
          "from": "0x08cA4DCa530A7c02d7755455AeB24B63A41C8608",
          "to": "0xcA7897Ee43e014bbAceAcaea42618cc155Ea0E96",
          "cumulativeGasUsed": "0x61995",
          "gasUsed": "0x3bae0",
          "contractAddress": null,
          "logs": [
            {
              "address": "0xa18fD67BD803AA58C84F1fA4907555888C2746b7",
              "topics": [
                "0xddf252ad1be2c89b69c2b068fc378daa952ba7f163c4a11628f55a4df523b3ef",
                "0x00000000000000000000000008ca4dca530a7c02d7755455aeb24b63a41c8608",
                "0x000000000000000000000000347c715b762e7f8b79c1f584f24d0cd65f3be7d4"
              ],
              "data": "0x00000000000000000000000000000000000000000000000000000002540be400",
              "blockHash": "0x5472ff8ee35d2ffcfc1145105ac24c8dbee4b089a8fdcbc4a42e4a6ddd4d1111",
              "blockNumber": "0x2e354b0",
              "transactionHash": "0x02cd1be1ac7ce4f2a69b3b39cc77458a66eeb7fa0ab7f13f579215068f460b66",
              "transactionIndex": "0x4",
              "logIndex": "0x3",
              "removed": false
            },
            {
              "address": "0xa18fD67BD803AA58C84F1fA4907555888C2746b7",
              "topics": [
                "0x8c5be1e5ebec7d5bd14f71427d1e84f3dd0314c0f7b2291e5b200ac8c7c3b925",
                "0x000000000000000000000000347c715b762e7f8b79c1f584f24d0cd65f3be7d4",
                "0x000000000000000000000000da9b004baad89244d8df27794f0ec3ab285b1902"
              ],
              "data": "0x00000000000000000000000000000000000000000000000000000002540be400",
              "blockHash": "0x5472ff8ee35d2ffcfc1145105ac24c8dbee4b089a8fdcbc4a42e4a6ddd4d1111",
              "blockNumber": "0x2e354b0",
              "transactionHash": "0x02cd1be1ac7ce4f2a69b3b39cc77458a66eeb7fa0ab7f13f579215068f460b66",
              "transactionIndex": "0x4",
              "logIndex": "0x4",
              "removed": false
            },
            {
              "address": "0xa18fD67BD803AA58C84F1fA4907555888C2746b7",
              "topics": [
                "0xddf252ad1be2c89b69c2b068fc378daa952ba7f163c4a11628f55a4df523b3ef",
                "0x000000000000000000000000347c715b762e7f8b79c1f584f24d0cd65f3be7d4",
                "0x000000000000000000000000da9b004baad89244d8df27794f0ec3ab285b1902"
              ],
              "data": "0x00000000000000000000000000000000000000000000000000000002540be400",
              "blockHash": "0x5472ff8ee35d2ffcfc1145105ac24c8dbee4b089a8fdcbc4a42e4a6ddd4d1111",
              "blockNumber": "0x2e354b0",
              "transactionHash": "0x02cd1be1ac7ce4f2a69b3b39cc77458a66eeb7fa0ab7f13f579215068f460b66",
              "transactionIndex": "0x4",
              "logIndex": "0x5",
              "removed": false
            },
            {
              "address": "0x35AdD9321507A87471a11EBd4aE4f592d531e620",
              "topics": [
                "0xdf21c415b78ed2552cc9971249e32a053abce6087a0ae0fbf3f78db5174a3493"
              ],
              "data": "0x00000000000000000000000000000000000000000000000033442dd464288c56",
              "blockHash": "0x5472ff8ee35d2ffcfc1145105ac24c8dbee4b089a8fdcbc4a42e4a6ddd4d1111",
              "blockNumber": "0x2e354b0",
              "transactionHash": "0x02cd1be1ac7ce4f2a69b3b39cc77458a66eeb7fa0ab7f13f579215068f460b66",
              "transactionIndex": "0x4",
              "logIndex": "0x6",
              "removed": false
            },
            {
              "address": "0x4e08B1F1AC79898569CfB999FB92B5495FB18A2B",
              "topics": [
                "0xb0c632f55f1e1b3b2c3d82f41ee4716bb4c00f0f5d84cdafc141581bb8757a4f"
              ],
              "data": "0x00000000000000000000000000000000000000000000000000000000000000400000000000000000000000000000000000000000000000000000000000000002000000000000000000000000000000000000000000000000000000000000002200010000000000000000000000000000000000000000000000000000000000055730000000000000000000000000000000000000000000000000000000000000",
              "blockHash": "0x5472ff8ee35d2ffcfc1145105ac24c8dbee4b089a8fdcbc4a42e4a6ddd4d1111",
              "blockNumber": "0x2e354b0",
              "transactionHash": "0x02cd1be1ac7ce4f2a69b3b39cc77458a66eeb7fa0ab7f13f579215068f460b66",
              "transactionIndex": "0x4",
              "logIndex": "0x7",
              "removed": false
            },
            {
              "address": "0x6C7Ab2202C98C4227C5c46f1417D81144DA716Ff",
              "topics": [
                "0x4e41ee13e03cd5e0446487b524fdc48af6acf26c074dacdbdfb6b574b42c8146"
              ],
              "data": "0x00000000000000000000000000000000000000000000000000000000000027b100000000000000000000000000000000000000000000000000000000000000020000000000000000000000000000000000000000000000000000000000000001000000000000000000000000da9b004baad89244d8df27794f0ec3ab285b19020000000000000000000000000000000000000000000000000ed57a4016c56340",
              "blockHash": "0x5472ff8ee35d2ffcfc1145105ac24c8dbee4b089a8fdcbc4a42e4a6ddd4d1111",
              "blockNumber": "0x2e354b0",
              "transactionHash": "0x02cd1be1ac7ce4f2a69b3b39cc77458a66eeb7fa0ab7f13f579215068f460b66",
              "transactionIndex": "0x4",
              "logIndex": "0x8",
              "removed": false
            },
            {
              "address": "0x4e08B1F1AC79898569CfB999FB92B5495FB18A2B",
              "topics": [
                "0xe9bded5f24a4168e4f3bf44e00298c993b22376aad8c58c7dda9718a54cbea82"
              ],
              "data": "0x000000000000000000000000000000000000000000000000000000000000002000000000000000000000000000000000000000000000000000000000000000f4000000000000000127d4da9b004baad89244d8df27794f0ec3ab285b190227b1bb8977d0604abe3fa3d368e15d96426ed91a06c00000000000000000000000000000000000000000000000000000000000000001000000000000000000000000347c715b762e7f8b79c1f584f24d0cd65f3be7d400000000000000000000000008ca4dca530a7c02d7755455aeb24b63a41c860800000000000000000000000000000000000000000000000000000002540be40000000000000000000000000000000000000000000000000000000000000000000000000000000000000000000000000000000000000000000000000005f5e100000000000000000000000000",
              "blockHash": "0x5472ff8ee35d2ffcfc1145105ac24c8dbee4b089a8fdcbc4a42e4a6ddd4d1111",
              "blockNumber": "0x2e354b0",
              "transactionHash": "0x02cd1be1ac7ce4f2a69b3b39cc77458a66eeb7fa0ab7f13f579215068f460b66",
              "transactionIndex": "0x4",
              "logIndex": "0x9",
              "removed": false
            },
            {
              "address": "0x347c715B762E7f8b79C1F584f24D0CD65f3bE7d4",
              "topics": [
                "0xbfd3f01bfa9ba54caf7360c18654f398e905f95362eeff1805092b1d2ba1e9c0",
                "0x00000000000000000000000008ca4dca530a7c02d7755455aeb24b63a41c8608"
              ],
              "data": "0x00000000000000000000000000000000000000000000000000000002540be40000000000000000000000000000000000000000000000000000000000000000000000000000000000000000000000000000000000000000000000000005f5e1000000000000000000000000000000000000000000000000000000000000000001",
              "blockHash": "0x5472ff8ee35d2ffcfc1145105ac24c8dbee4b089a8fdcbc4a42e4a6ddd4d1111",
              "blockNumber": "0x2e354b0",
              "transactionHash": "0x02cd1be1ac7ce4f2a69b3b39cc77458a66eeb7fa0ab7f13f579215068f460b66",
              "transactionIndex": "0x4",
              "logIndex": "0xa",
              "removed": false
            }
          ],
          "status": "0x1",
          "logsBloom": "0x00000000000100000000000000210000000040000000000000100000000000100000000000000000000000000000000004100000000800000000000000200000005008000000000000000028020000000000000000000000400000000000000000040000000000000000000000010000000020000000000000000018001000000000000400000000000000000008000000000000280000000000002000000000020000004000020000002000000000000000000400000000000400000000000000001002000008000000000000020808000000020000000001000000000000001010000000001000000000000000000000000000000000000000000000000000"
        }
      ],
      "libraries": [],
      "pending": [],
      "returns": {},
      "timestamp": 1703712082,
      "chain": 89,
      "multi": true,
      "commit": "15506eb4"
    }
  ],
  "path": "C:/coding/hackathon/viction/delta-neutral-contract/broadcast\\multi\\DeployCross.s.sol-latest\\run.json",
  "timestamp": 1703712116
}