{
  "transactions": [
    {
      "hash": "0x9166e8f66025255ce0fcc23d1dbecb4003358cd37d99a0f1a4cc7f75ad2264db",
      "transactionType": "CREATE",
      "contractName": "MockVRC25",
      "contractAddress": "0x0f1DEDaA405ec39aa3dE8f36bf08b404F4A5D521",
      "function": null,
      "arguments": [
        "Test VRC25",
        "TVRC",
        "18"
      ],
      "transaction": {
        "type": "0x00",
        "from": "0x08ca4dca530a7c02d7755455aeb24b63a41c8608",
        "gas": "0x1f8948",
        "value": "0x0",
        "data": "0x6101406040523480156200001257600080fd5b506040516200161e3803806200161e833981016040819052620000359162000228565b60405180604001604052806005815260200164565243323560d81b815250604051806040016040528060018152602001603160f81b81525084848482828282600490816200008491906200033c565b5060056200009383826200033c565b506006805460ff90921660ff199092169190911790555050600280546001600160a01b031916331790555050825160208085019190912083519184019190912060e08290526101008190529091507f8b73c3c69bb8fe3d512ecc4cf759cc79239f7b179b0ffacaa9a75d522b39400f6200010a4690565b60a09081526040805160208082018590528183018790526060820186905246608083015230828501528251808303909401845260c090910190915281519101206080523060c05261012052506200040895505050505050565b634e487b7160e01b600052604160045260246000fd5b600082601f8301126200018b57600080fd5b81516001600160401b0380821115620001a857620001a862000163565b604051601f8301601f19908116603f01168101908282118183101715620001d357620001d362000163565b81604052838152602092508683858801011115620001f057600080fd5b600091505b83821015620002145785820183015181830184015290820190620001f5565b600093810190920192909252949350505050565b6000806000606084860312156200023e57600080fd5b83516001600160401b03808211156200025657600080fd5b620002648783880162000179565b945060208601519150808211156200027b57600080fd5b506200028a8682870162000179565b925050604084015160ff81168114620002a257600080fd5b809150509250925092565b600181811c90821680620002c257607f821691505b602082108103620002e357634e487b7160e01b600052602260045260246000fd5b50919050565b601f8211156200033757600081815260208120601f850160051c81016020861015620003125750805b601f850160051c820191505b8181101562000333578281556001016200031e565b5050505b505050565b81516001600160401b0381111562000358576200035862000163565b6200037081620003698454620002ad565b84620002e9565b602080601f831160018114620003a857600084156200038f5750858301515b600019600386901b1c1916600185901b17855562000333565b600085815260208120601f198616915b82811015620003d957888601518255948401946001909101908401620003b8565b5085821015620003f85787850151600019600388901b60f8161c191681555b5050505050600190811b01905550565b60805160a05160c05160e05161010051610120516111d8620004466000396000505060005050600050506000505060005050600050506111d86000f3fe608060405234801561001057600080fd5b50600436106101215760003560e01c806340c10f19116100ad5780638da5cb5b116100715780638da5cb5b1461019f57806395d89b4114610261578063a9059cbb14610269578063dd62ed3e1461027c578063f2fde38b146102b557600080fd5b806340c10f19146101ea57806342966c68146101fd57806369fe0e2d1461021057806370a082311461022557806371ee951c1461024e57600080fd5b806318160ddd116100f457806318160ddd146101975780631d1438481461019f57806323b872dd146101ba57806324ec7590146101cd578063313ce567146101d557600080fd5b806301ffc9a71461012657806306fdde031461014e578063095ea7b314610163578063127e8e4d14610176575b600080fd5b610139610134366004610f69565b6102c8565b60405190151581526020015b60405180910390f35b6101566102ff565b6040516101459190610f93565b610139610171366004610ff8565b610391565b610189610184366004611022565b610478565b604051908152602001610145565b600754610189565b6002546040516001600160a01b039091168152602001610145565b6101396101c836600461103b565b610497565b600154610189565b60065460405160ff9091168152602001610145565b6101396101f8366004610ff8565b610640565b61013961020b366004611022565b610680565b61022361021e366004611022565b61075b565b005b610189610233366004611077565b6001600160a01b031660009081526020819052604090205490565b61018961025c366004610ff8565b6107c0565b6101566108c1565b610139610277366004610ff8565b6108d0565b61018961028a366004611092565b6001600160a01b03918216600090815260036020908152604080832093909416825291909152205490565b6102236102c3366004611077565b6108e1565b60006001600160e01b03198216630861786560e01b14806102f95750630861786560e01b6001600160e01b03198316145b92915050565b60606004805461030e906110c5565b80601f016020809104026020016040519081016040528092919081815260200182805461033a906110c5565b80156103875780601f1061035c57610100808354040283529160200191610387565b820191906000526020600020905b81548152906001019060200180831161036a57829003601f168201915b5050505050905090565b6000805a90506103a233858561098f565b60019150600160005a6103b59084611115565b6002549091506000906103e2906001600160a01b03163a6103d861c35086611128565b61025c919061113b565b905060006103f08383611128565b905060006103fe3a8361113b565b9050600061040c868361113b565b6002549091506104279033906001600160a01b031683610ab4565b6002546040518281526001600160a01b039091169033907f29b8cd3b4433db59dcfbf8ab8ca612f43329533f0c89eb9a07510bf901d28d0e9060200160405180910390a35050505050505092915050565b6000333b1561048957506000919050565b6102f982610c81565b919050565b6000805a6001600160a01b03861660009081526003602090815260408083203384529091529020549091508311156105165760405162461bcd60e51b815260206004820152601e60248201527f56524332353a20616d6f756e742065786565647320616c6c6f77616e6365000060448201526064015b60405180910390fd5b6001600160a01b03851660009081526003602090815260408083203384529091529020546105449084610c8c565b6001600160a01b0386166000908152600360209081526040808320338452909152902055610573858585610ab4565b60019150600160005a6105869084611115565b6002549091506000906105a9906001600160a01b03163a6103d861c35086611128565b905060006105b78383611128565b905060006105c53a8361113b565b905060006105d3868361113b565b6002549091506105ee9033906001600160a01b031683610ab4565b6002546040518281526001600160a01b039091169033907f29b8cd3b4433db59dcfbf8ab8ca612f43329533f0c89eb9a07510bf901d28d0e9060200160405180910390a3505050505050509392505050565b6002546000906001600160a01b0316331461066d5760405162461bcd60e51b815260040161050d90611152565b6106778383610ce8565b50600192915050565b6000805a90506106903384610dc7565b60019150600160005a6106a39084611115565b6002549091506000906106c6906001600160a01b03163a6103d861c35086611128565b905060006106d48383611128565b905060006106e23a8361113b565b905060006106f0868361113b565b60025490915061070b9033906001600160a01b031683610ab4565b6002546040518281526001600160a01b039091169033907f29b8cd3b4433db59dcfbf8ab8ca612f43329533f0c89eb9a07510bf901d28d0e9060200160405180910390a350505050505050919050565b6002546001600160a01b031633146107855760405162461bcd60e51b815260040161050d90611152565b60018190556040518181527f8c4d35e54a3f2ef1134138fd8ea3daee6a3c89e10d2665996babdf70261e2c769060200160405180910390a150565b6040516370a0823160e01b81526001600160a01b038316600482015260009061c3509030906370a0823190602401602060405180830381865afa15801561080b573d6000803e3d6000fd5b505050506040513d601f19601f8201168201806040525081019061082f9190611189565b60000361084557610842613a9882611128565b90505b6040516370a0823160e01b8152336004820152839030906370a0823190602401602060405180830381865afa158015610882573d6000803e3d6000fd5b505050506040513d601f19601f820116820180604052508101906108a69190611189565b036108ba576108b7613a9882611115565b90505b9392505050565b60606005805461030e906110c5565b6000805a90506103a2338585610ab4565b6002546001600160a01b0316331461090b5760405162461bcd60e51b815260040161050d90611152565b6001600160a01b03811661096d5760405162461bcd60e51b8152602060048201526024808201527f56524332353a206e6577206f776e657220697320746865207a65726f206164646044820152637265737360e01b606482015260840161050d565b600280546001600160a01b0319166001600160a01b0392909216919091179055565b6001600160a01b0383166109f15760405162461bcd60e51b8152602060048201526024808201527f56524332353a20617070726f76652066726f6d20746865207a65726f206164646044820152637265737360e01b606482015260840161050d565b6001600160a01b038216610a525760405162461bcd60e51b815260206004820152602260248201527f56524332353a20617070726f766520746f20746865207a65726f206164647265604482015261737360f01b606482015260840161050d565b6001600160a01b0383811660008181526003602090815260408083209487168084529482529182902085905590518481527f8c5be1e5ebec7d5bd14f71427d1e84f3dd0314c0f7b2291e5b200ac8c7c3b92591015b60405180910390a3505050565b6001600160a01b038316610b185760405162461bcd60e51b815260206004820152602560248201527f56524332353a207472616e736665722066726f6d20746865207a65726f206164604482015264647265737360d81b606482015260840161050d565b6001600160a01b038216610b7a5760405162461bcd60e51b815260206004820152602360248201527f56524332353a207472616e7366657220746f20746865207a65726f206164647260448201526265737360e81b606482015260840161050d565b6001600160a01b038316600090815260208190526040902054811115610bde5760405162461bcd60e51b815260206004820152601960248201527856524332353a20696e7375666669656e742062616c616e636560381b604482015260640161050d565b6001600160a01b038316600090815260208190526040902054610c019082610c8c565b6001600160a01b038085166000908152602081905260408082209390935590841681522054610c309082610f0a565b6001600160a01b038381166000818152602081815260409182902094909455518481529092918616917fddf252ad1be2c89b69c2b068fc378daa952ba7f163c4a11628f55a4df523b3ef9101610aa7565b60006102f960015490565b600082821115610cde5760405162461bcd60e51b815260206004820152601e60248201527f536166654d6174683a207375627472616374696f6e206f766572666c6f770000604482015260640161050d565b6108ba8284611115565b6001600160a01b038216610d3e5760405162461bcd60e51b815260206004820152601f60248201527f56524332353a206d696e7420746f20746865207a65726f206164647265737300604482015260640161050d565b600754610d4b9082610f0a565b6007556001600160a01b038216600090815260208190526040902054610d719082610f0a565b6001600160a01b038316600081815260208181526040808320949094559251848152919290917fddf252ad1be2c89b69c2b068fc378daa952ba7f163c4a11628f55a4df523b3ef91015b60405180910390a35050565b6001600160a01b038216610e275760405162461bcd60e51b815260206004820152602160248201527f56524332353a206275726e2066726f6d20746865207a65726f206164647265736044820152607360f81b606482015260840161050d565b6001600160a01b038216600090815260208190526040902054811115610e8b5760405162461bcd60e51b815260206004820152601960248201527856524332353a20696e7375666669656e742062616c616e636560381b604482015260640161050d565b600754610e989082610c8c565b6007556001600160a01b038216600090815260208190526040902054610ebe9082610c8c565b6001600160a01b03831660008181526020818152604080832094909455925184815290927fddf252ad1be2c89b69c2b068fc378daa952ba7f163c4a11628f55a4df523b3ef9101610dbb565b600080610f178385611128565b9050838110156108ba5760405162461bcd60e51b815260206004820152601b60248201527f536166654d6174683a206164646974696f6e206f766572666c6f770000000000604482015260640161050d565b600060208284031215610f7b57600080fd5b81356001600160e01b0319811681146108ba57600080fd5b600060208083528351808285015260005b81811015610fc057858101830151858201604001528201610fa4565b506000604082860101526040601f19601f8301168501019250505092915050565b80356001600160a01b038116811461049257600080fd5b6000806040838503121561100b57600080fd5b61101483610fe1565b946020939093013593505050565b60006020828403121561103457600080fd5b5035919050565b60008060006060848603121561105057600080fd5b61105984610fe1565b925061106760208501610fe1565b9150604084013590509250925092565b60006020828403121561108957600080fd5b6108ba82610fe1565b600080604083850312156110a557600080fd5b6110ae83610fe1565b91506110bc60208401610fe1565b90509250929050565b600181811c908216806110d957607f821691505b6020821081036110f957634e487b7160e01b600052602260045260246000fd5b50919050565b634e487b7160e01b600052601160045260246000fd5b818103818111156102f9576102f96110ff565b808201808211156102f9576102f96110ff565b80820281158282048414176102f9576102f96110ff565b6020808252601e908201527f56524332353a2063616c6c6572206973206e6f7420746865206f776e65720000604082015260600190565b60006020828403121561119b57600080fd5b505191905056fea264697066735822122064614a858294721034c2095c98bf2b191b95d81b5bea19d14625eabf5b45f97164736f6c63430008140033000000000000000000000000000000000000000000000000000000000000006000000000000000000000000000000000000000000000000000000000000000a00000000000000000000000000000000000000000000000000000000000000012000000000000000000000000000000000000000000000000000000000000000a546573742056524332350000000000000000000000000000000000000000000000000000000000000000000000000000000000000000000000000000000000045456524300000000000000000000000000000000000000000000000000000000",
        "nonce": "0xac"
      },
      "additionalContracts": [],
      "isFixedGasLimit": false
    },
    {
      "hash": "0xcf1a8164b4d1130c4f71474b6ecc77d1683d5f31a170320a7e52710da25d1128",
      "transactionType": "CALL",
      "contractName": null,
      "contractAddress": "0x8c0faeb5C6bEd2129b8674F262Fd45c4e9468bee",
      "function": null,
      "arguments": null,
      "transaction": {
        "type": "0x00",
        "from": "0x08ca4dca530a7c02d7755455aeb24b63a41c8608",
        "to": "0x8c0faeb5c6bed2129b8674f262fd45c4e9468bee",
        "gas": "0x25c08",
        "value": "0x8ac7230489e80000",
        "data": "0xc6b32f340000000000000000000000000f1dedaa405ec39aa3de8f36bf08b404f4a5d521",
        "nonce": "0xad"
      },
      "additionalContracts": [],
      "isFixedGasLimit": false
    },
    {
      "hash": "0xe59754bbfd7e603ddba36b9cc26247d62562b0f565a462803c4e0e1c78347b7b",
      "transactionType": "CALL",
      "contractName": "MockVRC25",
      "contractAddress": "0x0f1DEDaA405ec39aa3dE8f36bf08b404F4A5D521",
      "function": "mint(address,uint256)",
      "arguments": [
        "0x09C48Ca286972F72B8290C4e1F01CB0eC6185Ca0",
        "20000000000000000000"
      ],
      "transaction": {
        "type": "0x00",
        "from": "0x08ca4dca530a7c02d7755455aeb24b63a41c8608",
        "to": "0x0f1dedaa405ec39aa3de8f36bf08b404f4a5d521",
        "gas": "0x22fff",
        "value": "0x0",
        "data": "0x40c10f1900000000000000000000000009c48ca286972f72b8290c4e1f01cb0ec6185ca0000000000000000000000000000000000000000000000001158e460913d00000",
        "nonce": "0xae"
      },
      "additionalContracts": [],
      "isFixedGasLimit": false
    },
    {
      "hash": "0x84684592cf632bb5ff2b54996df9c0426661627863ebbfdfb4e3655f00c64fa7",
      "transactionType": "CALL",
      "contractName": "MockVRC25",
      "contractAddress": "0x0f1DEDaA405ec39aa3dE8f36bf08b404F4A5D521",
      "function": "transfer(address,uint256)",
      "arguments": [
        "0xCb1d8DBBD067fF81B6083d0dFcE6eb2d968f943E",
        "1000000000000000000"
      ],
      "transaction": {
        "type": "0x00",
        "from": "0x09c48ca286972f72b8290c4e1f01cb0ec6185ca0",
        "to": "0x0f1dedaa405ec39aa3de8f36bf08b404f4a5d521",
        "gas": "0x1fb38",
        "value": "0x0",
        "data": "0xa9059cbb000000000000000000000000cb1d8dbbd067ff81b6083d0dfce6eb2d968f943e0000000000000000000000000000000000000000000000000de0b6b3a7640000",
        "nonce": "0x3e"
      },
      "additionalContracts": [],
      "isFixedGasLimit": false
    },
    {
      "hash": "0x53bdce92b72433cf12238e431d3e86dcb777539d03952091e3a4e7b97e5bd8bc",
      "transactionType": "CALL",
      "contractName": "MockVRC25",
      "contractAddress": "0x0f1DEDaA405ec39aa3dE8f36bf08b404F4A5D521",
      "function": "transfer(address,uint256)",
      "arguments": [
        "0xCb1d8DBBD067fF81B6083d0dFcE6eb2d968f943E",
        "1000000000000000000"
      ],
      "transaction": {
        "type": "0x00",
        "from": "0x09c48ca286972f72b8290c4e1f01cb0ec6185ca0",
        "to": "0x0f1dedaa405ec39aa3de8f36bf08b404f4a5d521",
        "gas": "0x15f49",
        "value": "0x0",
        "data": "0xa9059cbb000000000000000000000000cb1d8dbbd067ff81b6083d0dfce6eb2d968f943e0000000000000000000000000000000000000000000000000de0b6b3a7640000",
        "nonce": "0x3f"
      },
      "additionalContracts": [],
      "isFixedGasLimit": false
    },
    {
      "hash": "0x6197c0f99bde870ad7835f05fe56cb8bb98b5e049ab6ac2c79b5465214c7ea66",
      "transactionType": "CALL",
      "contractName": "MockVRC25",
      "contractAddress": "0x0f1DEDaA405ec39aa3dE8f36bf08b404F4A5D521",
      "function": "approve(address,uint256)",
      "arguments": [
        "0xCb1d8DBBD067fF81B6083d0dFcE6eb2d968f943E",
        "1000000000000000000"
      ],
      "transaction": {
        "type": "0x00",
        "from": "0x09c48ca286972f72b8290c4e1f01cb0ec6185ca0",
        "to": "0x0f1dedaa405ec39aa3de8f36bf08b404f4a5d521",
        "gas": "0x1c33b",
        "value": "0x0",
        "data": "0x095ea7b3000000000000000000000000cb1d8dbbd067ff81b6083d0dfce6eb2d968f943e0000000000000000000000000000000000000000000000000de0b6b3a7640000",
        "nonce": "0x40"
      },
      "additionalContracts": [],
      "isFixedGasLimit": false
    },
    {
      "hash": "0xc40d9dec6ac98cfa1e80bdffacc217785493757f71d8dbe9308172d5a52c5048",
      "transactionType": "CALL",
      "contractName": "MockVRC25",
      "contractAddress": "0x0f1DEDaA405ec39aa3dE8f36bf08b404F4A5D521",
      "function": "approve(address,uint256)",
      "arguments": [
        "0xCb1d8DBBD067fF81B6083d0dFcE6eb2d968f943E",
        "2000000000000000000"
      ],
      "transaction": {
        "type": "0x00",
        "from": "0x09c48ca286972f72b8290c4e1f01cb0ec6185ca0",
        "to": "0x0f1dedaa405ec39aa3de8f36bf08b404f4a5d521",
        "gas": "0x1437a",
        "value": "0x0",
        "data": "0x095ea7b3000000000000000000000000cb1d8dbbd067ff81b6083d0dfce6eb2d968f943e0000000000000000000000000000000000000000000000001bc16d674ec80000",
        "nonce": "0x41"
      },
      "additionalContracts": [],
      "isFixedGasLimit": false
    },
    {
      "hash": "0x706fe5107c05eb9ff78719dac92c79720c7e2d3dce74ff2a4d9daa5b8f6f30c9",
      "transactionType": "CALL",
      "contractName": "MockVRC25",
      "contractAddress": "0x0f1DEDaA405ec39aa3dE8f36bf08b404F4A5D521",
      "function": "burn(uint256)",
      "arguments": [
        "1000000000000000000"
      ],
      "transaction": {
        "type": "0x00",
        "from": "0x09c48ca286972f72b8290c4e1f01cb0ec6185ca0",
        "to": "0x0f1dedaa405ec39aa3de8f36bf08b404f4a5d521",
        "gas": "0x159f3",
        "value": "0x0",
        "data": "0x42966c680000000000000000000000000000000000000000000000000de0b6b3a7640000",
        "nonce": "0x42"
      },
      "additionalContracts": [],
      "isFixedGasLimit": false
    },
    {
      "hash": "0x0789c4b1868e2b933261abb92314e7aadba72b1e2795635a92dd765792d75b2d",
      "transactionType": "CALL",
      "contractName": "MockVRC25",
      "contractAddress": "0x0f1DEDaA405ec39aa3dE8f36bf08b404F4A5D521",
      "function": "burn(uint256)",
      "arguments": [
        "1000000000000000000"
      ],
      "transaction": {
        "type": "0x00",
        "from": "0x09c48ca286972f72b8290c4e1f01cb0ec6185ca0",
        "to": "0x0f1dedaa405ec39aa3de8f36bf08b404f4a5d521",
        "gas": "0x159f3",
        "value": "0x0",
        "data": "0x42966c680000000000000000000000000000000000000000000000000de0b6b3a7640000",
        "nonce": "0x43"
      },
      "additionalContracts": [],
      "isFixedGasLimit": false
    },
    {
      "hash": "0xcd0268642f4f5f287f289ad5018b9d05c7c6b899c0ca6f2d721fabc5bda9e495",
      "transactionType": "CALL",
      "contractName": "MockVRC25",
      "contractAddress": "0x0f1DEDaA405ec39aa3dE8f36bf08b404F4A5D521",
      "function": "transferFrom(address,address,uint256)",
      "arguments": [
        "0x09C48Ca286972F72B8290C4e1F01CB0eC6185Ca0",
        "0xc0A55e2205B289a967823662B841Bd67Aa362Aec",
        "1000000000000000000"
      ],
      "transaction": {
        "type": "0x00",
        "from": "0xcb1d8dbbd067ff81b6083d0dfce6eb2d968f943e",
        "to": "0x0f1dedaa405ec39aa3de8f36bf08b404f4a5d521",
        "gas": "0x21c81",
        "value": "0x0",
        "data": "0x23b872dd00000000000000000000000009c48ca286972f72b8290c4e1f01cb0ec6185ca0000000000000000000000000c0a55e2205b289a967823662b841bd67aa362aec0000000000000000000000000000000000000000000000000de0b6b3a7640000",
        "nonce": "0x9"
      },
      "additionalContracts": [],
      "isFixedGasLimit": false
    }
  ],
  "receipts": [
    {
      "transactionHash": "0x9166e8f66025255ce0fcc23d1dbecb4003358cd37d99a0f1a4cc7f75ad2264db",
      "transactionIndex": "0x1",
      "blockHash": "0xe2f90df14b94520f002df2bad3c60b41b5c94e69887c72695f5bb125b42d1043",
      "blockNumber": "0x444e3",
      "from": "0x08cA4DCa530A7c02d7755455AeB24B63A41C8608",
      "to": null,
      "cumulativeGasUsed": "0x15cda0",
      "gasUsed": "0x15cda0",
      "contractAddress": "0x0f1DEDaA405ec39aa3dE8f36bf08b404F4A5D521",
      "logs": [],
      "status": "0x1",
      "logsBloom": "0x00000000000000000000000000000000000000000000000000000000000000000000000000000000000000000000000000000000000000000000000000000000000000000000000000000000000000000000000000000000000000000000000000000000000000000000000000000000000000000000000000000000000000000000000000000000000000000000000000000000000000000000000000000000000000000000000000000000000000000000000000000000000000000000000000000000000000000000000000000000000000000000000000000000000000000000000000000000000000000000000000000000000000000000000000000000"
    },
    {
      "transactionHash": "0xcf1a8164b4d1130c4f71474b6ecc77d1683d5f31a170320a7e52710da25d1128",
      "transactionIndex": "0x1",
      "blockHash": "0x83d0434ad954d8951f664f58e9729671f6a76fe0bcbd22e49d99e75f833543c8",
      "blockNumber": "0x444e7",
      "from": "0x08cA4DCa530A7c02d7755455AeB24B63A41C8608",
      "to": "0x8c0faeb5C6bEd2129b8674F262Fd45c4e9468bee",
      "cumulativeGasUsed": "0x12a72",
      "gasUsed": "0x12a72",
      "contractAddress": null,
      "logs": [
        {
          "address": "0x8c0faeb5C6bEd2129b8674F262Fd45c4e9468bee",
          "topics": [
            "0x2d485624158277d5113a56388c3abf5c20e3511dd112123ba376d16b21e4d716",
            "0x00000000000000000000000008ca4dca530a7c02d7755455aeb24b63a41c8608",
            "0x0000000000000000000000000f1dedaa405ec39aa3de8f36bf08b404f4a5d521"
          ],
          "data": "0x0000000000000000000000000000000000000000000000008ac7230489e80000",
          "blockHash": "0x83d0434ad954d8951f664f58e9729671f6a76fe0bcbd22e49d99e75f833543c8",
          "blockNumber": "0x444e7",
          "transactionHash": "0xcf1a8164b4d1130c4f71474b6ecc77d1683d5f31a170320a7e52710da25d1128",
          "transactionIndex": "0x1",
          "logIndex": "0x1",
          "removed": false
        }
      ],
      "status": "0x1",
      "logsBloom": "0x00000000000000000000000000000000000000000000000000000000000000000000000000000000000000000000000000000000000800000000000000000000002000000000000000000000000000000000000000000000000008000000000000000000000000000000000000000000000000000000000000000000000000000000000000000000000010000000200000000000400000000000000000000000000000000000000000000000000000000000000000000000020000010000000000000000040000000000000000000008000000020000000000000000000000000000000000000000000000000000000002000000000000000000000000000000"
    },
    {
      "transactionHash": "0xe59754bbfd7e603ddba36b9cc26247d62562b0f565a462803c4e0e1c78347b7b",
      "transactionIndex": "0x1",
      "blockHash": "0x911b953dd21535201b9b0a2f1647d54aa1b3aa2901de50c31842e96886d9275f",
      "blockNumber": "0x444eb",
      "from": "0x08cA4DCa530A7c02d7755455AeB24B63A41C8608",
      "to": "0x0f1DEDaA405ec39aa3dE8f36bf08b404F4A5D521",
      "cumulativeGasUsed": "0x10b9b",
      "gasUsed": "0x10b9b",
      "contractAddress": null,
      "logs": [
        {
          "address": "0x0f1DEDaA405ec39aa3dE8f36bf08b404F4A5D521",
          "topics": [
            "0xddf252ad1be2c89b69c2b068fc378daa952ba7f163c4a11628f55a4df523b3ef",
            "0x0000000000000000000000000000000000000000000000000000000000000000",
            "0x00000000000000000000000009c48ca286972f72b8290c4e1f01cb0ec6185ca0"
          ],
          "data": "0x000000000000000000000000000000000000000000000001158e460913d00000",
          "blockHash": "0x8b250e181f880c98bc8f533b49abf7e6f79c9cd77c79438c966e8f293e7fc827",
          "blockNumber": "0x444eb",
          "transactionHash": "0xe59754bbfd7e603ddba36b9cc26247d62562b0f565a462803c4e0e1c78347b7b",
          "transactionIndex": "0x1",
          "logIndex": "0x1",
          "removed": false
        }
      ],
      "status": "0x1",
      "logsBloom": "0x00000000000000000000000008000000000000000000000000102000000000000000000000000000000000000000000000000000000000000000000000000000000000000000000000000008000000000000000000000000000000000000000000000000020000000000000000000c00000000000000000000000010000000000000000000000000000000000000000020000000000000000000000000000000000000000000000000000000000000000000000000000000000000000000000000000002000000000000000000000000000000000000000000000000000020000000000000000000000000000000000200000000000000000000000000000000"
    },
    {
      "transactionHash": "0x84684592cf632bb5ff2b54996df9c0426661627863ebbfdfb4e3655f00c64fa7",
      "transactionIndex": "0x1",
      "blockHash": "0x345db12abfb8ecbf6efc5a3c69a258b493c51072a8c328585dc1ea31cd188055",
      "blockNumber": "0x444ee",
      "from": "0x09C48Ca286972F72B8290C4e1F01CB0eC6185Ca0",
      "to": "0x0f1DEDaA405ec39aa3dE8f36bf08b404F4A5D521",
      "cumulativeGasUsed": "0x15cc3",
      "gasUsed": "0x15cc3",
      "contractAddress": null,
      "logs": [
        {
          "address": "0x0f1DEDaA405ec39aa3dE8f36bf08b404F4A5D521",
          "topics": [
            "0xddf252ad1be2c89b69c2b068fc378daa952ba7f163c4a11628f55a4df523b3ef",
            "0x00000000000000000000000009c48ca286972f72b8290c4e1f01cb0ec6185ca0",
            "0x000000000000000000000000cb1d8dbbd067ff81b6083d0dfce6eb2d968f943e"
          ],
          "data": "0x0000000000000000000000000000000000000000000000000de0b6b3a7640000",
          "blockHash": "0x37693237a2e0ae75ba798d48b0c42ac5356a371a7dfb978a0d376d405e1db34a",
          "blockNumber": "0x444ee",
          "transactionHash": "0x84684592cf632bb5ff2b54996df9c0426661627863ebbfdfb4e3655f00c64fa7",
          "transactionIndex": "0x1",
          "logIndex": "0x1",
          "removed": false
        },
        {
          "address": "0x0f1DEDaA405ec39aa3dE8f36bf08b404F4A5D521",
          "topics": [
            "0xddf252ad1be2c89b69c2b068fc378daa952ba7f163c4a11628f55a4df523b3ef",
            "0x00000000000000000000000009c48ca286972f72b8290c4e1f01cb0ec6185ca0",
            "0x00000000000000000000000008ca4dca530a7c02d7755455aeb24b63a41c8608"
          ],
          "data": "0x000000000000000000000000000000000000000000000000000015a22afb5680",
          "blockHash": "0x37693237a2e0ae75ba798d48b0c42ac5356a371a7dfb978a0d376d405e1db34a",
          "blockNumber": "0x444ee",
          "transactionHash": "0x84684592cf632bb5ff2b54996df9c0426661627863ebbfdfb4e3655f00c64fa7",
          "transactionIndex": "0x1",
          "logIndex": "0x2",
          "removed": false
        },
        {
          "address": "0x0f1DEDaA405ec39aa3dE8f36bf08b404F4A5D521",
          "topics": [
            "0x29b8cd3b4433db59dcfbf8ab8ca612f43329533f0c89eb9a07510bf901d28d0e",
            "0x00000000000000000000000009c48ca286972f72b8290c4e1f01cb0ec6185ca0",
            "0x00000000000000000000000008ca4dca530a7c02d7755455aeb24b63a41c8608"
          ],
          "data": "0x000000000000000000000000000000000000000000000000000015a22afb5680",
          "blockHash": "0x37693237a2e0ae75ba798d48b0c42ac5356a371a7dfb978a0d376d405e1db34a",
          "blockNumber": "0x444ee",
          "transactionHash": "0x84684592cf632bb5ff2b54996df9c0426661627863ebbfdfb4e3655f00c64fa7",
          "transactionIndex": "0x1",
          "logIndex": "0x3",
          "removed": false
        }
      ],
      "status": "0x1",
      "logsBloom": "0x00000000000000000000000008008000000100000000000000102000000000000000000000000000000000000000000000000000000800000000000000000000000000000020000000000008000000000000000000000000000000000000000000000000000000000000000000020400000000000000000000000010000000000000000000000000000000000000000020000000000000000000000000000000000000000000000000000000000000000000000000000020000000000000000000000002000000000000000000000008000000020000000000000000000000000000200000000000000000000000000200000000000000000000000000000000"
    },
    {
      "transactionHash": "0x53bdce92b72433cf12238e431d3e86dcb777539d03952091e3a4e7b97e5bd8bc",
      "transactionIndex": "0x1",
      "blockHash": "0xb0115e1702bf581b849d0d02c5fa657e3353be7f53d51bced652eb09cf17e866",
      "blockNumber": "0x444f2",
      "from": "0x09C48Ca286972F72B8290C4e1F01CB0eC6185Ca0",
      "to": "0x0f1DEDaA405ec39aa3dE8f36bf08b404F4A5D521",
      "cumulativeGasUsed": "0xe743",
      "gasUsed": "0xe743",
      "contractAddress": null,
      "logs": [
        {
          "address": "0x0f1DEDaA405ec39aa3dE8f36bf08b404F4A5D521",
          "topics": [
            "0xddf252ad1be2c89b69c2b068fc378daa952ba7f163c4a11628f55a4df523b3ef",
            "0x00000000000000000000000009c48ca286972f72b8290c4e1f01cb0ec6185ca0",
            "0x000000000000000000000000cb1d8dbbd067ff81b6083d0dfce6eb2d968f943e"
          ],
          "data": "0x0000000000000000000000000000000000000000000000000de0b6b3a7640000",
          "blockHash": "0xafee3d419b4ee70590a63c45676d0d19b40502e6157a2df8fdc4ac6f0ca355d6",
          "blockNumber": "0x444f2",
          "transactionHash": "0x53bdce92b72433cf12238e431d3e86dcb777539d03952091e3a4e7b97e5bd8bc",
          "transactionIndex": "0x1",
          "logIndex": "0x1",
          "removed": false
        },
        {
          "address": "0x0f1DEDaA405ec39aa3dE8f36bf08b404F4A5D521",
          "topics": [
            "0xddf252ad1be2c89b69c2b068fc378daa952ba7f163c4a11628f55a4df523b3ef",
            "0x00000000000000000000000009c48ca286972f72b8290c4e1f01cb0ec6185ca0",
            "0x00000000000000000000000008ca4dca530a7c02d7755455aeb24b63a41c8608"
          ],
          "data": "0x00000000000000000000000000000000000000000000000000000ecff0255e80",
          "blockHash": "0xafee3d419b4ee70590a63c45676d0d19b40502e6157a2df8fdc4ac6f0ca355d6",
          "blockNumber": "0x444f2",
          "transactionHash": "0x53bdce92b72433cf12238e431d3e86dcb777539d03952091e3a4e7b97e5bd8bc",
          "transactionIndex": "0x1",
          "logIndex": "0x2",
          "removed": false
        },
        {
          "address": "0x0f1DEDaA405ec39aa3dE8f36bf08b404F4A5D521",
          "topics": [
            "0x29b8cd3b4433db59dcfbf8ab8ca612f43329533f0c89eb9a07510bf901d28d0e",
            "0x00000000000000000000000009c48ca286972f72b8290c4e1f01cb0ec6185ca0",
            "0x00000000000000000000000008ca4dca530a7c02d7755455aeb24b63a41c8608"
          ],
          "data": "0x00000000000000000000000000000000000000000000000000000ecff0255e80",
          "blockHash": "0xafee3d419b4ee70590a63c45676d0d19b40502e6157a2df8fdc4ac6f0ca355d6",
          "blockNumber": "0x444f2",
          "transactionHash": "0x53bdce92b72433cf12238e431d3e86dcb777539d03952091e3a4e7b97e5bd8bc",
          "transactionIndex": "0x1",
          "logIndex": "0x3",
          "removed": false
        }
      ],
      "status": "0x1",
      "logsBloom": "0x00000000000000000000000008008000000100000000000000102000000000000000000000000000000000000000000000000000000800000000000000000000000000000020000000000008000000000000000000000000000000000000000000000000000000000000000000020400000000000000000000000010000000000000000000000000000000000000000020000000000000000000000000000000000000000000000000000000000000000000000000000020000000000000000000000002000000000000000000000008000000020000000000000000000000000000200000000000000000000000000200000000000000000000000000000000"
    },
    {
      "transactionHash": "0x6197c0f99bde870ad7835f05fe56cb8bb98b5e049ab6ac2c79b5465214c7ea66",
      "transactionIndex": "0x1",
      "blockHash": "0xb523e2d78f28f93d3eced0b08b96d1b928756caa20453ed0909424d04fdea9dc",
      "blockNumber": "0x444f6",
      "from": "0x09C48Ca286972F72B8290C4e1F01CB0eC6185Ca0",
      "to": "0x0f1DEDaA405ec39aa3dE8f36bf08b404F4A5D521",
      "cumulativeGasUsed": "0x112ec",
      "gasUsed": "0x112ec",
      "contractAddress": null,
      "logs": [
        {
          "address": "0x0f1DEDaA405ec39aa3dE8f36bf08b404F4A5D521",
          "topics": [
            "0x8c5be1e5ebec7d5bd14f71427d1e84f3dd0314c0f7b2291e5b200ac8c7c3b925",
            "0x00000000000000000000000009c48ca286972f72b8290c4e1f01cb0ec6185ca0",
            "0x000000000000000000000000cb1d8dbbd067ff81b6083d0dfce6eb2d968f943e"
          ],
          "data": "0x0000000000000000000000000000000000000000000000000de0b6b3a7640000",
          "blockHash": "0xa547202ba5b8c0aba582e8dfe979cc6750bed00894c986d752e38e68b37ebd25",
          "blockNumber": "0x444f6",
          "transactionHash": "0x6197c0f99bde870ad7835f05fe56cb8bb98b5e049ab6ac2c79b5465214c7ea66",
          "transactionIndex": "0x1",
          "logIndex": "0x1",
          "removed": false
        },
        {
          "address": "0x0f1DEDaA405ec39aa3dE8f36bf08b404F4A5D521",
          "topics": [
            "0xddf252ad1be2c89b69c2b068fc378daa952ba7f163c4a11628f55a4df523b3ef",
            "0x00000000000000000000000009c48ca286972f72b8290c4e1f01cb0ec6185ca0",
            "0x00000000000000000000000008ca4dca530a7c02d7755455aeb24b63a41c8608"
          ],
          "data": "0x00000000000000000000000000000000000000000000000000001065efbecc00",
          "blockHash": "0xa547202ba5b8c0aba582e8dfe979cc6750bed00894c986d752e38e68b37ebd25",
          "blockNumber": "0x444f6",
          "transactionHash": "0x6197c0f99bde870ad7835f05fe56cb8bb98b5e049ab6ac2c79b5465214c7ea66",
          "transactionIndex": "0x1",
          "logIndex": "0x2",
          "removed": false
        },
        {
          "address": "0x0f1DEDaA405ec39aa3dE8f36bf08b404F4A5D521",
          "topics": [
            "0x29b8cd3b4433db59dcfbf8ab8ca612f43329533f0c89eb9a07510bf901d28d0e",
            "0x00000000000000000000000009c48ca286972f72b8290c4e1f01cb0ec6185ca0",
            "0x00000000000000000000000008ca4dca530a7c02d7755455aeb24b63a41c8608"
          ],
          "data": "0x00000000000000000000000000000000000000000000000000001065efbecc00",
          "blockHash": "0xa547202ba5b8c0aba582e8dfe979cc6750bed00894c986d752e38e68b37ebd25",
          "blockNumber": "0x444f6",
          "transactionHash": "0x6197c0f99bde870ad7835f05fe56cb8bb98b5e049ab6ac2c79b5465214c7ea66",
          "transactionIndex": "0x1",
          "logIndex": "0x3",
          "removed": false
        }
      ],
      "status": "0x1",
      "logsBloom": "0x00000000000000000000000008008000000100000000000000102000000000000000000000000000000000000000000000000000000800000000000000200000000000000020000000000008000000000000000000000000000000000000000000000000000000000000000000020400000000000000000000000010000000000000000000000000000000000000000020000000000000000000000000000000020000000000000000000000000000000000000000000020000000000000000000000002000000000000000000000008000000020000000000000000000000000010200000000000000000000000000200000000000000000000000000000000"
    },
    {
      "transactionHash": "0xc40d9dec6ac98cfa1e80bdffacc217785493757f71d8dbe9308172d5a52c5048",
      "transactionIndex": "0x1",
      "blockHash": "0x26585cb49c6eb6231488f355727373ca2ec46d6cc370c3161ef38d0cfca0389d",
      "blockNumber": "0x444f9",
      "from": "0x09C48Ca286972F72B8290C4e1F01CB0eC6185Ca0",
      "to": "0x0f1DEDaA405ec39aa3dE8f36bf08b404F4A5D521",
      "cumulativeGasUsed": "0xd854",
      "gasUsed": "0xd854",
      "contractAddress": null,
      "logs": [
        {
          "address": "0x0f1DEDaA405ec39aa3dE8f36bf08b404F4A5D521",
          "topics": [
            "0x8c5be1e5ebec7d5bd14f71427d1e84f3dd0314c0f7b2291e5b200ac8c7c3b925",
            "0x00000000000000000000000009c48ca286972f72b8290c4e1f01cb0ec6185ca0",
            "0x000000000000000000000000cb1d8dbbd067ff81b6083d0dfce6eb2d968f943e"
          ],
          "data": "0x0000000000000000000000000000000000000000000000001bc16d674ec80000",
          "blockHash": "0x463a30fd3e5748cb577d0385e1f0c1588bca6f0e257ce29eb9048d55705e84e0",
          "blockNumber": "0x444f9",
          "transactionHash": "0xc40d9dec6ac98cfa1e80bdffacc217785493757f71d8dbe9308172d5a52c5048",
          "transactionIndex": "0x1",
          "logIndex": "0x1",
          "removed": false
        },
        {
          "address": "0x0f1DEDaA405ec39aa3dE8f36bf08b404F4A5D521",
          "topics": [
            "0xddf252ad1be2c89b69c2b068fc378daa952ba7f163c4a11628f55a4df523b3ef",
            "0x00000000000000000000000009c48ca286972f72b8290c4e1f01cb0ec6185ca0",
            "0x00000000000000000000000008ca4dca530a7c02d7755455aeb24b63a41c8608"
          ],
          "data": "0x00000000000000000000000000000000000000000000000000000cfcd253d000",
          "blockHash": "0x463a30fd3e5748cb577d0385e1f0c1588bca6f0e257ce29eb9048d55705e84e0",
          "blockNumber": "0x444f9",
          "transactionHash": "0xc40d9dec6ac98cfa1e80bdffacc217785493757f71d8dbe9308172d5a52c5048",
          "transactionIndex": "0x1",
          "logIndex": "0x2",
          "removed": false
        },
        {
          "address": "0x0f1DEDaA405ec39aa3dE8f36bf08b404F4A5D521",
          "topics": [
            "0x29b8cd3b4433db59dcfbf8ab8ca612f43329533f0c89eb9a07510bf901d28d0e",
            "0x00000000000000000000000009c48ca286972f72b8290c4e1f01cb0ec6185ca0",
            "0x00000000000000000000000008ca4dca530a7c02d7755455aeb24b63a41c8608"
          ],
          "data": "0x00000000000000000000000000000000000000000000000000000cfcd253d000",
          "blockHash": "0x463a30fd3e5748cb577d0385e1f0c1588bca6f0e257ce29eb9048d55705e84e0",
          "blockNumber": "0x444f9",
          "transactionHash": "0xc40d9dec6ac98cfa1e80bdffacc217785493757f71d8dbe9308172d5a52c5048",
          "transactionIndex": "0x1",
          "logIndex": "0x3",
          "removed": false
        }
      ],
      "status": "0x1",
      "logsBloom": "0x00000000000000000000000008008000000100000000000000102000000000000000000000000000000000000000000000000000000800000000000000200000000000000020000000000008000000000000000000000000000000000000000000000000000000000000000000020400000000000000000000000010000000000000000000000000000000000000000020000000000000000000000000000000020000000000000000000000000000000000000000000020000000000000000000000002000000000000000000000008000000020000000000000000000000000010200000000000000000000000000200000000000000000000000000000000"
    },
    {
      "transactionHash": "0x706fe5107c05eb9ff78719dac92c79720c7e2d3dce74ff2a4d9daa5b8f6f30c9",
      "transactionIndex": "0x1",
      "blockHash": "0x6a535a1d83cffab388a4a852d885628ded656e30fc909111e4a22f3021d31f95",
      "blockNumber": "0x444fd",
      "from": "0x09C48Ca286972F72B8290C4e1F01CB0eC6185Ca0",
      "to": "0x0f1DEDaA405ec39aa3dE8f36bf08b404F4A5D521",
      "cumulativeGasUsed": "0xe068",
      "gasUsed": "0xe068",
      "contractAddress": null,
      "logs": [
        {
          "address": "0x0f1DEDaA405ec39aa3dE8f36bf08b404F4A5D521",
          "topics": [
            "0xddf252ad1be2c89b69c2b068fc378daa952ba7f163c4a11628f55a4df523b3ef",
            "0x00000000000000000000000009c48ca286972f72b8290c4e1f01cb0ec6185ca0",
            "0x0000000000000000000000000000000000000000000000000000000000000000"
          ],
          "data": "0x0000000000000000000000000000000000000000000000000de0b6b3a7640000",
          "blockHash": "0x6a535a1d83cffab388a4a852d885628ded656e30fc909111e4a22f3021d31f95",
          "blockNumber": "0x444fd",
          "transactionHash": "0x706fe5107c05eb9ff78719dac92c79720c7e2d3dce74ff2a4d9daa5b8f6f30c9",
          "transactionIndex": "0x1",
          "logIndex": "0x1",
          "removed": false
        },
        {
          "address": "0x0f1DEDaA405ec39aa3dE8f36bf08b404F4A5D521",
          "topics": [
            "0xddf252ad1be2c89b69c2b068fc378daa952ba7f163c4a11628f55a4df523b3ef",
            "0x00000000000000000000000009c48ca286972f72b8290c4e1f01cb0ec6185ca0",
            "0x00000000000000000000000008ca4dca530a7c02d7755455aeb24b63a41c8608"
          ],
          "data": "0x00000000000000000000000000000000000000000000000000000ec304169380",
          "blockHash": "0x6a535a1d83cffab388a4a852d885628ded656e30fc909111e4a22f3021d31f95",
          "blockNumber": "0x444fd",
          "transactionHash": "0x706fe5107c05eb9ff78719dac92c79720c7e2d3dce74ff2a4d9daa5b8f6f30c9",
          "transactionIndex": "0x1",
          "logIndex": "0x2",
          "removed": false
        },
        {
          "address": "0x0f1DEDaA405ec39aa3dE8f36bf08b404F4A5D521",
          "topics": [
            "0x29b8cd3b4433db59dcfbf8ab8ca612f43329533f0c89eb9a07510bf901d28d0e",
            "0x00000000000000000000000009c48ca286972f72b8290c4e1f01cb0ec6185ca0",
            "0x00000000000000000000000008ca4dca530a7c02d7755455aeb24b63a41c8608"
          ],
          "data": "0x00000000000000000000000000000000000000000000000000000ec304169380",
          "blockHash": "0x6a535a1d83cffab388a4a852d885628ded656e30fc909111e4a22f3021d31f95",
          "blockNumber": "0x444fd",
          "transactionHash": "0x706fe5107c05eb9ff78719dac92c79720c7e2d3dce74ff2a4d9daa5b8f6f30c9",
          "transactionIndex": "0x1",
          "logIndex": "0x3",
          "removed": false
        }
      ],
      "status": "0x1",
      "logsBloom": "0x00000000000000000000000008008000000000000000000000102000000000000000000000000000000000000000000000000000000800000000000000000000000000000000000000000008000000000000000000000000000000000000000000000000020000000000000000020c00000000000000000000000010000000000000000000000000000000000000000020000000000000000000000000000000000000000000000000000000000000000000000000000000000000000000000000000002000000000000000000000008000000020000000000000000000020000000200000000000000000000000000200000000000000000000000000000000"
    },
    {
      "transactionHash": "0x0789c4b1868e2b933261abb92314e7aadba72b1e2795635a92dd765792d75b2d",
      "transactionIndex": "0x1",
      "blockHash": "0xf8169e13c532b74a871b3b2773b1a6a5af3158294b4a54a54fd19dc27ce1fd4e",
      "blockNumber": "0x44500",
      "from": "0x09C48Ca286972F72B8290C4e1F01CB0eC6185Ca0",
      "to": "0x0f1DEDaA405ec39aa3dE8f36bf08b404F4A5D521",
      "cumulativeGasUsed": "0xe068",
      "gasUsed": "0xe068",
      "contractAddress": null,
      "logs": [
        {
          "address": "0x0f1DEDaA405ec39aa3dE8f36bf08b404F4A5D521",
          "topics": [
            "0xddf252ad1be2c89b69c2b068fc378daa952ba7f163c4a11628f55a4df523b3ef",
            "0x00000000000000000000000009c48ca286972f72b8290c4e1f01cb0ec6185ca0",
            "0x0000000000000000000000000000000000000000000000000000000000000000"
          ],
          "data": "0x0000000000000000000000000000000000000000000000000de0b6b3a7640000",
          "blockHash": "0xf8169e13c532b74a871b3b2773b1a6a5af3158294b4a54a54fd19dc27ce1fd4e",
          "blockNumber": "0x44500",
          "transactionHash": "0x0789c4b1868e2b933261abb92314e7aadba72b1e2795635a92dd765792d75b2d",
          "transactionIndex": "0x1",
          "logIndex": "0x1",
          "removed": false
        },
        {
          "address": "0x0f1DEDaA405ec39aa3dE8f36bf08b404F4A5D521",
          "topics": [
            "0xddf252ad1be2c89b69c2b068fc378daa952ba7f163c4a11628f55a4df523b3ef",
            "0x00000000000000000000000009c48ca286972f72b8290c4e1f01cb0ec6185ca0",
            "0x00000000000000000000000008ca4dca530a7c02d7755455aeb24b63a41c8608"
          ],
          "data": "0x00000000000000000000000000000000000000000000000000000ec304169380",
          "blockHash": "0xf8169e13c532b74a871b3b2773b1a6a5af3158294b4a54a54fd19dc27ce1fd4e",
          "blockNumber": "0x44500",
          "transactionHash": "0x0789c4b1868e2b933261abb92314e7aadba72b1e2795635a92dd765792d75b2d",
          "transactionIndex": "0x1",
          "logIndex": "0x2",
          "removed": false
        },
        {
          "address": "0x0f1DEDaA405ec39aa3dE8f36bf08b404F4A5D521",
          "topics": [
            "0x29b8cd3b4433db59dcfbf8ab8ca612f43329533f0c89eb9a07510bf901d28d0e",
            "0x00000000000000000000000009c48ca286972f72b8290c4e1f01cb0ec6185ca0",
            "0x00000000000000000000000008ca4dca530a7c02d7755455aeb24b63a41c8608"
          ],
          "data": "0x00000000000000000000000000000000000000000000000000000ec304169380",
          "blockHash": "0xf8169e13c532b74a871b3b2773b1a6a5af3158294b4a54a54fd19dc27ce1fd4e",
          "blockNumber": "0x44500",
          "transactionHash": "0x0789c4b1868e2b933261abb92314e7aadba72b1e2795635a92dd765792d75b2d",
          "transactionIndex": "0x1",
          "logIndex": "0x3",
          "removed": false
        }
      ],
      "status": "0x1",
      "logsBloom": "0x00000000000000000000000008008000000000000000000000102000000000000000000000000000000000000000000000000000000800000000000000000000000000000000000000000008000000000000000000000000000000000000000000000000020000000000000000020c00000000000000000000000010000000000000000000000000000000000000000020000000000000000000000000000000000000000000000000000000000000000000000000000000000000000000000000000002000000000000000000000008000000020000000000000000000020000000200000000000000000000000000200000000000000000000000000000000"
    },
    {
      "transactionHash": "0xcd0268642f4f5f287f289ad5018b9d05c7c6b899c0ca6f2d721fabc5bda9e495",
      "transactionIndex": "0x1",
      "blockHash": "0x8cbbc195fd7e10510b7a8241657aaa226225ca151486cb9c5fa595145c121e87",
      "blockNumber": "0x44504",
      "from": "0xCb1d8DBBD067fF81B6083d0dFcE6eb2d968f943E",
      "to": "0x0f1DEDaA405ec39aa3dE8f36bf08b404F4A5D521",
      "cumulativeGasUsed": "0x15483",
      "gasUsed": "0x15483",
      "contractAddress": null,
      "logs": [
        {
          "address": "0x0f1DEDaA405ec39aa3dE8f36bf08b404F4A5D521",
          "topics": [
            "0xddf252ad1be2c89b69c2b068fc378daa952ba7f163c4a11628f55a4df523b3ef",
            "0x00000000000000000000000009c48ca286972f72b8290c4e1f01cb0ec6185ca0",
            "0x000000000000000000000000c0a55e2205b289a967823662b841bd67aa362aec"
          ],
          "data": "0x0000000000000000000000000000000000000000000000000de0b6b3a7640000",
          "blockHash": "0x0b82d990c6e0852208750b86c03ad54eb0e42702ac614ae5b5d5774be7253515",
          "blockNumber": "0x44504",
          "transactionHash": "0xcd0268642f4f5f287f289ad5018b9d05c7c6b899c0ca6f2d721fabc5bda9e495",
          "transactionIndex": "0x1",
          "logIndex": "0x1",
          "removed": false
        },
        {
          "address": "0x0f1DEDaA405ec39aa3dE8f36bf08b404F4A5D521",
          "topics": [
            "0xddf252ad1be2c89b69c2b068fc378daa952ba7f163c4a11628f55a4df523b3ef",
            "0x000000000000000000000000cb1d8dbbd067ff81b6083d0dfce6eb2d968f943e",
            "0x00000000000000000000000008ca4dca530a7c02d7755455aeb24b63a41c8608"
          ],
          "data": "0x000000000000000000000000000000000000000000000000000013df6863b680",
          "blockHash": "0x0b82d990c6e0852208750b86c03ad54eb0e42702ac614ae5b5d5774be7253515",
          "blockNumber": "0x44504",
          "transactionHash": "0xcd0268642f4f5f287f289ad5018b9d05c7c6b899c0ca6f2d721fabc5bda9e495",
          "transactionIndex": "0x1",
          "logIndex": "0x2",
          "removed": false
        },
        {
          "address": "0x0f1DEDaA405ec39aa3dE8f36bf08b404F4A5D521",
          "topics": [
            "0x29b8cd3b4433db59dcfbf8ab8ca612f43329533f0c89eb9a07510bf901d28d0e",
            "0x000000000000000000000000cb1d8dbbd067ff81b6083d0dfce6eb2d968f943e",
            "0x00000000000000000000000008ca4dca530a7c02d7755455aeb24b63a41c8608"
          ],
          "data": "0x000000000000000000000000000000000000000000000000000013df6863b680",
          "blockHash": "0x0b82d990c6e0852208750b86c03ad54eb0e42702ac614ae5b5d5774be7253515",
          "blockNumber": "0x44504",
          "transactionHash": "0xcd0268642f4f5f287f289ad5018b9d05c7c6b899c0ca6f2d721fabc5bda9e495",
          "transactionIndex": "0x1",
          "logIndex": "0x3",
          "removed": false
        }
      ],
      "status": "0x1",
      "logsBloom": "0x00000000000000000000000008008000000140000000000000102000000000000000000000000000000000000000000000000000000800000000000000000000000000000020000000000008000000000000000000000000000000000000000000000000000000000000000000020400000000000000000000000010000000000000000000000000000000000000000020000000000000000000080000000000000000000000000000000000000000000000000000000020000000000000000000000002000000000000000000000008000000020000000000000000000000000000200000000000000000000000000200000000000000000000000000000000"
    }
  ],
  "libraries": [],
  "pending": [],
  "returns": {},
  "timestamp": 1703551890,
  "chain": 89,
  "multi": false,
  "commit": "8d188c3e"
}