{
  "transactions": [
    {
      "hash": "0x5743f700ba9ee3849ece9ee803a6b8e3387e34254936b718625c694c45e22cfc",
      "transactionType": "CREATE",
      "contractName": "MockVRC25",
      "contractAddress": "0x64D31bffC434C64f694Fdae11f3144413356A636",
      "function": null,
      "arguments": [
        "Test VRC25",
        "TVRC",
        "18"
      ],
      "transaction": {
        "type": "0x00",
        "from": "0x08ca4dca530a7c02d7755455aeb24b63a41c8608",
        "gas": "0x18c3ab",
        "value": "0x0",
        "data": "0x6101406040523480156200001257600080fd5b50604051620017ee380380620017ee833981016040819052620000359162000228565b60405180604001604052806005815260200164565243323560d81b815250604051806040016040528060018152602001603160f81b81525084848482828282600590816200008491906200033c565b5060066200009383826200033c565b506007805460ff90921660ff199092169190911790555050600280546001600160a01b031916331790555050825160208085019190912083519184019190912060e08290526101008190529091507f8b73c3c69bb8fe3d512ecc4cf759cc79239f7b179b0ffacaa9a75d522b39400f6200010a4690565b60a09081526040805160208082018590528183018790526060820186905246608083015230828501528251808303909401845260c090910190915281519101206080523060c05261012052506200040895505050505050565b634e487b7160e01b600052604160045260246000fd5b600082601f8301126200018b57600080fd5b81516001600160401b0380821115620001a857620001a862000163565b604051601f8301601f19908116603f01168101908282118183101715620001d357620001d362000163565b81604052838152602092508683858801011115620001f057600080fd5b600091505b83821015620002145785820183015181830184015290820190620001f5565b600093810190920192909252949350505050565b6000806000606084860312156200023e57600080fd5b83516001600160401b03808211156200025657600080fd5b620002648783880162000179565b945060208601519150808211156200027b57600080fd5b506200028a8682870162000179565b925050604084015160ff81168114620002a257600080fd5b809150509250925092565b600181811c90821680620002c257607f821691505b602082108103620002e357634e487b7160e01b600052602260045260246000fd5b50919050565b601f8211156200033757600081815260208120601f850160051c81016020861015620003125750805b601f850160051c820191505b8181101562000333578281556001016200031e565b5050505b505050565b81516001600160401b0381111562000358576200035862000163565b6200037081620003698454620002ad565b84620002e9565b602080601f831160018114620003a857600084156200038f5750858301515b600019600386901b1c1916600185901b17855562000333565b600085815260208120601f198616915b82811015620003d957888601518255948401946001909101908401620003b8565b5085821015620003f85787850151600019600388901b60f8161c191681555b5050505050600190811b01905550565b60805160a05160c05160e05161010051610120516113a8620004466000396000505060005050600050506000505060005050600050506113a86000f3fe608060405234801561001057600080fd5b506004361061012c5760003560e01c806342966c68116100ad5780638da5cb5b116100715780638da5cb5b146101aa57806395d89b4114610274578063a9059cbb1461027c578063dd62ed3e1461028f578063f2fde38b146102c857600080fd5b806342966c681461020857806369fe0e2d1461021b57806370a082311461023057806371ee951c1461025957806379ba50971461026c57600080fd5b80631d143848116100f45780631d143848146101aa57806323b872dd146101c557806324ec7590146101d8578063313ce567146101e057806340c10f19146101f557600080fd5b806301ffc9a71461013157806306fdde0314610159578063095ea7b31461016e578063127e8e4d1461018157806318160ddd146101a2575b600080fd5b61014461013f366004611139565b6102db565b60405190151581526020015b60405180910390f35b610161610312565b6040516101509190611163565b61014461017c3660046111c8565b6103a4565b61019461018f3660046111f2565b6104a5565b604051908152602001610150565b600854610194565b6002546040516001600160a01b039091168152602001610150565b6101446101d336600461120b565b6104c4565b600154610194565b60075460405160ff9091168152602001610150565b6101446102033660046111c8565b61069a565b6101446102163660046111f2565b6106da565b61022e6102293660046111f2565b6107cf565b005b61019461023e366004611247565b6001600160a01b031660009081526020819052604090205490565b6101946102673660046111c8565b610834565b61022e610935565b6101616109ff565b61014461028a3660046111c8565b610a0e565b61019461029d366004611262565b6001600160a01b03918216600090815260046020908152604080832093909416825291909152205490565b61022e6102d6366004611247565b610a37565b60006001600160e01b03198216630861786560e01b148061030c5750630861786560e01b6001600160e01b03198316145b92915050565b60606005805461032190611295565b80601f016020809104026020016040519081016040528092919081815260200182805461034d90611295565b801561039a5780601f1061036f5761010080835404028352916020019161039a565b820191906000526020600020905b81548152906001019060200180831161037d57829003601f168201915b5050505050905090565b6000805a905060006103b660006104a5565b90506103c3338686610ae5565b6103ce333083610c0a565b6001925050600160005a6103e290846112e5565b60025490915060009061040f906001600160a01b03163a61040561a25e866112f8565b610267919061130b565b9050600061041d83836112f8565b9050600061042b3a8361130b565b90506000610439868361130b565b6002549091506104549033906001600160a01b031683610c84565b6002546040518281526001600160a01b039091169033907f29b8cd3b4433db59dcfbf8ab8ca612f43329533f0c89eb9a07510bf901d28d0e9060200160405180910390a35050505050505092915050565b6000333b156104b657506000919050565b61030c82610e51565b919050565b6000805a905060006104d5846104a5565b90506104e18482610e5c565b6001600160a01b038716600090815260046020908152604080832033845290915290205410156105585760405162461bcd60e51b815260206004820152601e60248201527f56524332353a20616d6f756e742065786565647320616c6c6f77616e6365000060448201526064015b60405180910390fd5b6001600160a01b038616600090815260046020908152604080832033845290915290205461059290829061058c9087610ebb565b90610ebb565b6001600160a01b03871660009081526004602090815260408083203384529091529020556105c1868686610c84565b6105cc868683610c0a565b6001925050600160005a6105e090846112e5565b600254909150600090610603906001600160a01b03163a61040561a25e866112f8565b9050600061061183836112f8565b9050600061061f3a8361130b565b9050600061062d868361130b565b6002549091506106489033906001600160a01b031683610c84565b6002546040518281526001600160a01b039091169033907f29b8cd3b4433db59dcfbf8ab8ca612f43329533f0c89eb9a07510bf901d28d0e9060200160405180910390a3505050505050509392505050565b6002546000906001600160a01b031633146106c75760405162461bcd60e51b815260040161054f90611322565b6106d18383610f17565b50600192915050565b6000805a905060006106ec60006104a5565b90506106f83385610ff6565b610703333083610c0a565b6001925050600160005a61071790846112e5565b60025490915060009061073a906001600160a01b03163a61040561a25e866112f8565b9050600061074883836112f8565b905060006107563a8361130b565b90506000610764868361130b565b60025490915061077f9033906001600160a01b031683610c84565b6002546040518281526001600160a01b039091169033907f29b8cd3b4433db59dcfbf8ab8ca612f43329533f0c89eb9a07510bf901d28d0e9060200160405180910390a350505050505050919050565b6002546001600160a01b031633146107f95760405162461bcd60e51b815260040161054f90611322565b60018190556040518181527f8c4d35e54a3f2ef1134138fd8ea3daee6a3c89e10d2665996babdf70261e2c769060200160405180910390a150565b6040516370a0823160e01b81526001600160a01b038316600482015260009061a25e9030906370a0823190602401602060405180830381865afa15801561087f573d6000803e3d6000fd5b505050506040513d601f19601f820116820180604052508101906108a39190611359565b6000036108b9576108b6613ae8826112f8565b90505b6040516370a0823160e01b8152336004820152839030906370a0823190602401602060405180830381865afa1580156108f6573d6000803e3d6000fd5b505050506040513d601f19601f8201168201806040525081019061091a9190611359565b0361092e5761092b613a48826112e5565b90505b9392505050565b6003546001600160a01b031633146109a25760405162461bcd60e51b815260206004820152602a60248201527f56524332353a206f6e6c79206e6577206f776e65722063616e206163636570746044820152690206f776e6572736869760b41b606482015260840161054f565b60028054600380546001600160a01b03198084166001600160a01b038381169182179096559116909155604051929091169182907f8be0079c531659141344cd1fd0a4f28419497f9722a3daafe3b4186f6b6457e090600090a350565b60606006805461032190611295565b6000805a90506000610a1f846104a5565b9050610a2c338686610c84565b6103ce338683610c0a565b6002546001600160a01b03163314610a615760405162461bcd60e51b815260040161054f90611322565b6001600160a01b038116610ac35760405162461bcd60e51b8152602060048201526024808201527f56524332353a206e6577206f776e657220697320746865207a65726f206164646044820152637265737360e01b606482015260840161054f565b600380546001600160a01b0319166001600160a01b0392909216919091179055565b6001600160a01b038316610b475760405162461bcd60e51b8152602060048201526024808201527f56524332353a20617070726f76652066726f6d20746865207a65726f206164646044820152637265737360e01b606482015260840161054f565b6001600160a01b038216610ba85760405162461bcd60e51b815260206004820152602260248201527f56524332353a20617070726f766520746f20746865207a65726f206164647265604482015261737360f01b606482015260840161054f565b6001600160a01b0383811660008181526004602090815260408083209487168084529482529182902085905590518481527f8c5be1e5ebec7d5bd14f71427d1e84f3dd0314c0f7b2291e5b200ac8c7c3b92591015b60405180910390a3505050565b333b15610c1657505050565b8015610c7f57600254610c349084906001600160a01b031683610c84565b6002546040518281526001600160a01b039182169184811691908616907ffcf5b3276434181e3c48bd3fe569b8939808f11e845d4b963693b9d7dbd6dd999060200160405180910390a45b505050565b6001600160a01b038316610ce85760405162461bcd60e51b815260206004820152602560248201527f56524332353a207472616e736665722066726f6d20746865207a65726f206164604482015264647265737360d81b606482015260840161054f565b6001600160a01b038216610d4a5760405162461bcd60e51b815260206004820152602360248201527f56524332353a207472616e7366657220746f20746865207a65726f206164647260448201526265737360e81b606482015260840161054f565b6001600160a01b038316600090815260208190526040902054811115610dae5760405162461bcd60e51b815260206004820152601960248201527856524332353a20696e7375666669656e742062616c616e636560381b604482015260640161054f565b6001600160a01b038316600090815260208190526040902054610dd19082610ebb565b6001600160a01b038085166000908152602081905260408082209390935590841681522054610e009082610e5c565b6001600160a01b038381166000818152602081815260409182902094909455518481529092918616917fddf252ad1be2c89b69c2b068fc378daa952ba7f163c4a11628f55a4df523b3ef9101610bfd565b600061030c60015490565b600080610e6983856112f8565b90508381101561092e5760405162461bcd60e51b815260206004820152601b60248201527f536166654d6174683a206164646974696f6e206f766572666c6f770000000000604482015260640161054f565b600082821115610f0d5760405162461bcd60e51b815260206004820152601e60248201527f536166654d6174683a207375627472616374696f6e206f766572666c6f770000604482015260640161054f565b61092e82846112e5565b6001600160a01b038216610f6d5760405162461bcd60e51b815260206004820152601f60248201527f56524332353a206d696e7420746f20746865207a65726f206164647265737300604482015260640161054f565b600854610f7a9082610e5c565b6008556001600160a01b038216600090815260208190526040902054610fa09082610e5c565b6001600160a01b038316600081815260208181526040808320949094559251848152919290917fddf252ad1be2c89b69c2b068fc378daa952ba7f163c4a11628f55a4df523b3ef91015b60405180910390a35050565b6001600160a01b0382166110565760405162461bcd60e51b815260206004820152602160248201527f56524332353a206275726e2066726f6d20746865207a65726f206164647265736044820152607360f81b606482015260840161054f565b6001600160a01b0382166000908152602081905260409020548111156110ba5760405162461bcd60e51b815260206004820152601960248201527856524332353a20696e7375666669656e742062616c616e636560381b604482015260640161054f565b6008546110c79082610ebb565b6008556001600160a01b0382166000908152602081905260409020546110ed9082610ebb565b6001600160a01b03831660008181526020818152604080832094909455925184815290927fddf252ad1be2c89b69c2b068fc378daa952ba7f163c4a11628f55a4df523b3ef9101610fea565b60006020828403121561114b57600080fd5b81356001600160e01b03198116811461092e57600080fd5b600060208083528351808285015260005b8181101561119057858101830151858201604001528201611174565b506000604082860101526040601f19601f8301168501019250505092915050565b80356001600160a01b03811681146104bf57600080fd5b600080604083850312156111db57600080fd5b6111e4836111b1565b946020939093013593505050565b60006020828403121561120457600080fd5b5035919050565b60008060006060848603121561122057600080fd5b611229846111b1565b9250611237602085016111b1565b9150604084013590509250925092565b60006020828403121561125957600080fd5b61092e826111b1565b6000806040838503121561127557600080fd5b61127e836111b1565b915061128c602084016111b1565b90509250929050565b600181811c908216806112a957607f821691505b6020821081036112c957634e487b7160e01b600052602260045260246000fd5b50919050565b634e487b7160e01b600052601160045260246000fd5b8181038181111561030c5761030c6112cf565b8082018082111561030c5761030c6112cf565b808202811582820484141761030c5761030c6112cf565b6020808252601e908201527f56524332353a2063616c6c6572206973206e6f7420746865206f776e65720000604082015260600190565b60006020828403121561136b57600080fd5b505191905056fea2646970667358221220f20ead9d5dd35d74860a2eb15bf6ce61b07c568b8c81a6951d109d9bc8f5c11864736f6c63430008110033000000000000000000000000000000000000000000000000000000000000006000000000000000000000000000000000000000000000000000000000000000a00000000000000000000000000000000000000000000000000000000000000012000000000000000000000000000000000000000000000000000000000000000a546573742056524332350000000000000000000000000000000000000000000000000000000000000000000000000000000000000000000000000000000000045456524300000000000000000000000000000000000000000000000000000000",
        "nonce": "0x8f"
      },
      "additionalContracts": [],
      "isFixedGasLimit": false
    },
    {
      "hash": "0x854de3762cca66369902e632d675d0e1bba4e74faeb69a95c0e59c832131d345",
      "transactionType": "CALL",
      "contractName": null,
      "contractAddress": "0x8c0faeb5C6bEd2129b8674F262Fd45c4e9468bee",
      "function": null,
      "arguments": null,
      "transaction": {
        "type": "0x00",
        "from": "0x08ca4dca530a7c02d7755455aeb24b63a41c8608",
        "to": "0x8c0faeb5c6bed2129b8674f262fd45c4e9468bee",
        "gas": "0x1b421",
        "value": "0x8ac7230489e80000",
        "data": "0xc6b32f3400000000000000000000000064d31bffc434c64f694fdae11f3144413356a636",
        "nonce": "0x90"
      },
      "additionalContracts": [],
      "isFixedGasLimit": false
    },
    {
      "hash": "0x2562854776d329255f4f725c3b316ce7e278b4674bb9c5c6335c3e52f7a2214d",
      "transactionType": "CALL",
      "contractName": "MockVRC25",
      "contractAddress": "0x64D31bffC434C64f694Fdae11f3144413356A636",
      "function": "mint(address,uint256)",
      "arguments": [
        "0x09C48Ca286972F72B8290C4e1F01CB0eC6185Ca0",
        "20000000000000000000"
      ],
      "transaction": {
        "type": "0x00",
        "from": "0x08ca4dca530a7c02d7755455aeb24b63a41c8608",
        "to": "0x64d31bffc434c64f694fdae11f3144413356a636",
        "gas": "0x194f1",
        "value": "0x0",
        "data": "0x40c10f1900000000000000000000000009c48ca286972f72b8290c4e1f01cb0ec6185ca0000000000000000000000000000000000000000000000001158e460913d00000",
        "nonce": "0x91"
      },
      "additionalContracts": [],
      "isFixedGasLimit": false
    },
    {
      "hash": "0x7759349b5d516a82ba82d16ba011accb45f51d5e5319c5e4e8b2234dc487e099",
      "transactionType": "CALL",
      "contractName": "MockVRC25",
      "contractAddress": "0x64D31bffC434C64f694Fdae11f3144413356A636",
      "function": "transfer(address,uint256)",
      "arguments": [
        "0xCb1d8DBBD067fF81B6083d0dFcE6eb2d968f943E",
        "1000000000000000000"
      ],
      "transaction": {
        "type": "0x00",
        "from": "0x09c48ca286972f72b8290c4e1f01cb0ec6185ca0",
        "to": "0x64d31bffc434c64f694fdae11f3144413356a636",
        "gas": "0x1673f",
        "value": "0x0",
        "data": "0xa9059cbb000000000000000000000000cb1d8dbbd067ff81b6083d0dfce6eb2d968f943e0000000000000000000000000000000000000000000000000de0b6b3a7640000",
        "nonce": "0x26"
      },
      "additionalContracts": [],
      "isFixedGasLimit": false
    },
    {
      "hash": "0xfb6287da5fe601d4cd6e02a5e57a4ccbe1b54abb9351a9cf705138534dae4af6",
      "transactionType": "CALL",
      "contractName": "MockVRC25",
      "contractAddress": "0x64D31bffC434C64f694Fdae11f3144413356A636",
      "function": "transfer(address,uint256)",
      "arguments": [
        "0xCb1d8DBBD067fF81B6083d0dFcE6eb2d968f943E",
        "1000000000000000000"
      ],
      "transaction": {
        "type": "0x00",
        "from": "0x09c48ca286972f72b8290c4e1f01cb0ec6185ca0",
        "to": "0x64d31bffc434c64f694fdae11f3144413356a636",
        "gas": "0x11ab0",
        "value": "0x0",
        "data": "0xa9059cbb000000000000000000000000cb1d8dbbd067ff81b6083d0dfce6eb2d968f943e0000000000000000000000000000000000000000000000000de0b6b3a7640000",
        "nonce": "0x27"
      },
      "additionalContracts": [],
      "isFixedGasLimit": false
    },
    {
      "hash": "0x59ffe0eada64cf828160c6cf38e9c46600af9e8b93290a68f3c99008eb28fe6c",
      "transactionType": "CALL",
      "contractName": "MockVRC25",
      "contractAddress": "0x64D31bffC434C64f694Fdae11f3144413356A636",
      "function": "approve(address,uint256)",
      "arguments": [
        "0xCb1d8DBBD067fF81B6083d0dFcE6eb2d968f943E",
        "1000000000000000000"
      ],
      "transaction": {
        "type": "0x00",
        "from": "0x09c48ca286972f72b8290c4e1f01cb0ec6185ca0",
        "to": "0x64d31bffc434c64f694fdae11f3144413356a636",
        "gas": "0x1671a",
        "value": "0x0",
        "data": "0x095ea7b3000000000000000000000000cb1d8dbbd067ff81b6083d0dfce6eb2d968f943e0000000000000000000000000000000000000000000000000de0b6b3a7640000",
        "nonce": "0x28"
      },
      "additionalContracts": [],
      "isFixedGasLimit": false
    },
    {
      "hash": "0xa0bf76b7b57a9051b15dc14a169423831e4276263b96d339bdee7289e951c5c2",
      "transactionType": "CALL",
      "contractName": "MockVRC25",
      "contractAddress": "0x64D31bffC434C64f694Fdae11f3144413356A636",
      "function": "approve(address,uint256)",
      "arguments": [
        "0xCb1d8DBBD067fF81B6083d0dFcE6eb2d968f943E",
        "2000000000000000000"
      ],
      "transaction": {
        "type": "0x00",
        "from": "0x09c48ca286972f72b8290c4e1f01cb0ec6185ca0",
        "to": "0x64d31bffc434c64f694fdae11f3144413356a636",
        "gas": "0xf6e3",
        "value": "0x0",
        "data": "0x095ea7b3000000000000000000000000cb1d8dbbd067ff81b6083d0dfce6eb2d968f943e0000000000000000000000000000000000000000000000001bc16d674ec80000",
        "nonce": "0x29"
      },
      "additionalContracts": [],
      "isFixedGasLimit": false
    },
    {
      "hash": "0xeb64fea0a28a8be9b04327369c7134bd62476f35b2fe6c39cabd43f653272fee",
      "transactionType": "CALL",
      "contractName": "MockVRC25",
      "contractAddress": "0x64D31bffC434C64f694Fdae11f3144413356A636",
      "function": "burn(uint256)",
      "arguments": [
        "1000000000000000000"
      ],
      "transaction": {
        "type": "0x00",
        "from": "0x09c48ca286972f72b8290c4e1f01cb0ec6185ca0",
        "to": "0x64d31bffc434c64f694fdae11f3144413356a636",
        "gas": "0x11679",
        "value": "0x0",
        "data": "0x42966c680000000000000000000000000000000000000000000000000de0b6b3a7640000",
        "nonce": "0x2a"
      },
      "additionalContracts": [],
      "isFixedGasLimit": false
    },
    {
      "hash": "0x3d145901bda769e4afc9212ceb39bd70edad6b7cfc7ebb1323e9e2f851dffb65",
      "transactionType": "CALL",
      "contractName": "MockVRC25",
      "contractAddress": "0x64D31bffC434C64f694Fdae11f3144413356A636",
      "function": "burn(uint256)",
      "arguments": [
        "1000000000000000000"
      ],
      "transaction": {
        "type": "0x00",
        "from": "0x09c48ca286972f72b8290c4e1f01cb0ec6185ca0",
        "to": "0x64d31bffc434c64f694fdae11f3144413356a636",
        "gas": "0x11679",
        "value": "0x0",
        "data": "0x42966c680000000000000000000000000000000000000000000000000de0b6b3a7640000",
        "nonce": "0x2b"
      },
      "additionalContracts": [],
      "isFixedGasLimit": false
    },
    {
      "hash": "0x878432dfb8d588cb59aa0ae9fe9575ea443fdd8c715942f48621f41d45115ea3",
      "transactionType": "CALL",
      "contractName": "MockVRC25",
      "contractAddress": "0x64D31bffC434C64f694Fdae11f3144413356A636",
      "function": "transferFrom(address,address,uint256)",
      "arguments": [
        "0x09C48Ca286972F72B8290C4e1F01CB0eC6185Ca0",
        "0xc0A55e2205B289a967823662B841Bd67Aa362Aec",
        "1000000000000000000"
      ],
      "transaction": {
        "type": "0x00",
        "from": "0xcb1d8dbbd067ff81b6083d0dfce6eb2d968f943e",
        "to": "0x64d31bffc434c64f694fdae11f3144413356a636",
        "gas": "0x1acfa",
        "value": "0x0",
        "data": "0x23b872dd00000000000000000000000009c48ca286972f72b8290c4e1f01cb0ec6185ca0000000000000000000000000c0a55e2205b289a967823662b841bd67aa362aec0000000000000000000000000000000000000000000000000de0b6b3a7640000",
        "nonce": "0x3"
      },
      "additionalContracts": [],
      "isFixedGasLimit": false
    },
    {
      "hash": "0xbc6397b9a6c7d0f7a6315f28dd43fc2f45db35c2ba94d72a25dde21d80f9e8f2",
      "transactionType": "CALL",
      "contractName": "MockVRC25",
      "contractAddress": "0x64D31bffC434C64f694Fdae11f3144413356A636",
      "function": "transferFrom(address,address,uint256)",
      "arguments": [
        "0x09C48Ca286972F72B8290C4e1F01CB0eC6185Ca0",
        "0xc0A55e2205B289a967823662B841Bd67Aa362Aec",
        "1000000000000000000"
      ],
      "transaction": {
        "type": "0x00",
        "from": "0xcb1d8dbbd067ff81b6083d0dfce6eb2d968f943e",
        "to": "0x64d31bffc434c64f694fdae11f3144413356a636",
        "gas": "0x11efc",
        "value": "0x0",
        "data": "0x23b872dd00000000000000000000000009c48ca286972f72b8290c4e1f01cb0ec6185ca0000000000000000000000000c0a55e2205b289a967823662b841bd67aa362aec0000000000000000000000000000000000000000000000000de0b6b3a7640000",
        "nonce": "0x4"
      },
      "additionalContracts": [],
      "isFixedGasLimit": false
    }
  ],
  "receipts": [
    {
      "transactionHash": "0x5743f700ba9ee3849ece9ee803a6b8e3387e34254936b718625c694c45e22cfc",
      "transactionIndex": "0x1",
      "blockHash": "0xae97930ba2e2bad30eb9e92ec1a7533e064034e6cce96ed7316a31a024ac4479",
      "blockNumber": "0x3bedf",
      "from": "0x08cA4DCa530A7c02d7755455AeB24B63A41C8608",
      "to": null,
      "cumulativeGasUsed": "0x17b1c3",
      "gasUsed": "0x17b1c3",
      "contractAddress": "0x64D31bffC434C64f694Fdae11f3144413356A636",
      "logs": [],
      "status": "0x1",
      "logsBloom": "0x00000000000000000000000000000000000000000000000000000000000000000000000000000000000000000000000000000000000000000000000000000000000000000000000000000000000000000000000000000000000000000000000000000000000000000000000000000000000000000000000000000000000000000000000000000000000000000000000000000000000000000000000000000000000000000000000000000000000000000000000000000000000000000000000000000000000000000000000000000000000000000000000000000000000000000000000000000000000000000000000000000000000000000000000000000000"
    },
    {
      "transactionHash": "0x854de3762cca66369902e632d675d0e1bba4e74faeb69a95c0e59c832131d345",
      "transactionIndex": "0x1",
      "blockHash": "0xa74cdd8dad46ce9cd9caba1ce15114a72f06233427669708c656e568aa3850c8",
      "blockNumber": "0x3bee3",
      "from": "0x08cA4DCa530A7c02d7755455AeB24B63A41C8608",
      "to": "0x8c0faeb5C6bEd2129b8674F262Fd45c4e9468bee",
      "cumulativeGasUsed": "0x12a5c",
      "gasUsed": "0x12a5c",
      "contractAddress": null,
      "logs": [
        {
          "address": "0x8c0faeb5C6bEd2129b8674F262Fd45c4e9468bee",
          "topics": [
            "0x2d485624158277d5113a56388c3abf5c20e3511dd112123ba376d16b21e4d716",
            "0x00000000000000000000000008ca4dca530a7c02d7755455aeb24b63a41c8608",
            "0x00000000000000000000000064d31bffc434c64f694fdae11f3144413356a636"
          ],
          "data": "0x0000000000000000000000000000000000000000000000008ac7230489e80000",
          "blockHash": "0xdd1f79f12153fc74d512aae17ebfcdaecf5a479ec2551b91e61afdc08472cb6b",
          "blockNumber": "0x3bee3",
          "transactionHash": "0x854de3762cca66369902e632d675d0e1bba4e74faeb69a95c0e59c832131d345",
          "transactionIndex": "0x1",
          "logIndex": "0x1",
          "removed": false
        }
      ],
      "status": "0x1",
      "logsBloom": "0x00000000000000000000000000000000000000000000000000000000000000000000000000000000000000000000000000000000000800000000000000000000002000000000000000000000000000000000000000000000000000000000000000000000000400000000000000000000000000000000000000000000000000000000000000000000000010000000200000000000400000000000000000000000000000000000000000000000000000000000000000000000020200010000000000000000004000000000000000000008000000020000000000000000000000000000000000000000000000000000000000000000000000000000000000000000"
    },
    {
      "transactionHash": "0x2562854776d329255f4f725c3b316ce7e278b4674bb9c5c6335c3e52f7a2214d",
      "transactionIndex": "0x1",
      "blockHash": "0x1d6308fb08527820c9138f2dc2674250bae7aedfd1916551ae1d6fad3bb5f8a9",
      "blockNumber": "0x3bee7",
      "from": "0x08cA4DCa530A7c02d7755455AeB24B63A41C8608",
      "to": "0x64D31bffC434C64f694Fdae11f3144413356A636",
      "cumulativeGasUsed": "0x10bf3",
      "gasUsed": "0x10bf3",
      "contractAddress": null,
      "logs": [
        {
          "address": "0x64D31bffC434C64f694Fdae11f3144413356A636",
          "topics": [
            "0xddf252ad1be2c89b69c2b068fc378daa952ba7f163c4a11628f55a4df523b3ef",
            "0x0000000000000000000000000000000000000000000000000000000000000000",
            "0x00000000000000000000000009c48ca286972f72b8290c4e1f01cb0ec6185ca0"
          ],
          "data": "0x000000000000000000000000000000000000000000000001158e460913d00000",
          "blockHash": "0x01f18524fcd1294e979074473a6a5a46e712455af0daf89cb4976e8b64539b40",
          "blockNumber": "0x3bee7",
          "transactionHash": "0x2562854776d329255f4f725c3b316ce7e278b4674bb9c5c6335c3e52f7a2214d",
          "transactionIndex": "0x1",
          "logIndex": "0x1",
          "removed": false
        }
      ],
      "status": "0x1",
      "logsBloom": "0x00000000000000000000000008000000000000000000000000000000000000000000000000000000000000000000000408000000000000000000000000000000000000000000000000000008000000000000000000000000000000000000000000000000020000000000000000000c00000000000000000000000010000000000000000000000000000000000000000000000000000000000000000000000000000000000000000000000000000000000000000000000000000000000000000000000002000000000000000000000000000000000000000000000000000020000000000000000000000000400000000200000000000000000000000000000000"
    },
    {
      "transactionHash": "0x7759349b5d516a82ba82d16ba011accb45f51d5e5319c5e4e8b2234dc487e099",
      "transactionIndex": "0x1",
      "blockHash": "0x46dd9922dbceb5decad4d641d9cb89fa55a60ddbbbf15ee2cc8aad706548d2ca",
      "blockNumber": "0x3beea",
      "from": "0x09C48Ca286972F72B8290C4e1F01CB0eC6185Ca0",
      "to": "0x64D31bffC434C64f694Fdae11f3144413356A636",
      "cumulativeGasUsed": "0x165fb",
      "gasUsed": "0x165fb",
      "contractAddress": null,
      "logs": [
        {
          "address": "0x64D31bffC434C64f694Fdae11f3144413356A636",
          "topics": [
            "0xddf252ad1be2c89b69c2b068fc378daa952ba7f163c4a11628f55a4df523b3ef",
            "0x00000000000000000000000009c48ca286972f72b8290c4e1f01cb0ec6185ca0",
            "0x000000000000000000000000cb1d8dbbd067ff81b6083d0dfce6eb2d968f943e"
          ],
          "data": "0x0000000000000000000000000000000000000000000000000de0b6b3a7640000",
          "blockHash": "0x6b58f9e93d38500ce7a4faba935b0df417647076a36c3d703145ec60b295c20c",
          "blockNumber": "0x3beea",
          "transactionHash": "0x7759349b5d516a82ba82d16ba011accb45f51d5e5319c5e4e8b2234dc487e099",
          "transactionIndex": "0x1",
          "logIndex": "0x1",
          "removed": false
        },
        {
          "address": "0x64D31bffC434C64f694Fdae11f3144413356A636",
          "topics": [
            "0xddf252ad1be2c89b69c2b068fc378daa952ba7f163c4a11628f55a4df523b3ef",
            "0x00000000000000000000000009c48ca286972f72b8290c4e1f01cb0ec6185ca0",
            "0x00000000000000000000000008ca4dca530a7c02d7755455aeb24b63a41c8608"
          ],
          "data": "0x00000000000000000000000000000000000000000000000000001447d5129b80",
          "blockHash": "0x6b58f9e93d38500ce7a4faba935b0df417647076a36c3d703145ec60b295c20c",
          "blockNumber": "0x3beea",
          "transactionHash": "0x7759349b5d516a82ba82d16ba011accb45f51d5e5319c5e4e8b2234dc487e099",
          "transactionIndex": "0x1",
          "logIndex": "0x2",
          "removed": false
        },
        {
          "address": "0x64D31bffC434C64f694Fdae11f3144413356A636",
          "topics": [
            "0x29b8cd3b4433db59dcfbf8ab8ca612f43329533f0c89eb9a07510bf901d28d0e",
            "0x00000000000000000000000009c48ca286972f72b8290c4e1f01cb0ec6185ca0",
            "0x00000000000000000000000008ca4dca530a7c02d7755455aeb24b63a41c8608"
          ],
          "data": "0x00000000000000000000000000000000000000000000000000001447d5129b80",
          "blockHash": "0x6b58f9e93d38500ce7a4faba935b0df417647076a36c3d703145ec60b295c20c",
          "blockNumber": "0x3beea",
          "transactionHash": "0x7759349b5d516a82ba82d16ba011accb45f51d5e5319c5e4e8b2234dc487e099",
          "transactionIndex": "0x1",
          "logIndex": "0x3",
          "removed": false
        }
      ],
      "status": "0x1",
      "logsBloom": "0x00000000000000000000000008008000000100000000000000000000000000000000000000000000000000000000000408000000000800000000000000000000000000000020000000000008000000000000000000000000000000000000000000000000000000000000000000020400000000000000000000000010000000000000000000000000000000000000000000000000000000000000000000000000000000000000000000000000000000000000000000000020000000000000000000000002000000000000000000000008000000020000000000000000000000000000200000000000000000400000000200000000000000000000000000000000"
    },
    {
      "transactionHash": "0xfb6287da5fe601d4cd6e02a5e57a4ccbe1b54abb9351a9cf705138534dae4af6",
      "transactionIndex": "0x1",
      "blockHash": "0x96e3675376df948bd33237cce632b45b7c02e06438834db341bff834df7620a9",
      "blockNumber": "0x3beee",
      "from": "0x09C48Ca286972F72B8290C4e1F01CB0eC6185Ca0",
      "to": "0x64D31bffC434C64f694Fdae11f3144413356A636",
      "cumulativeGasUsed": "0xf07b",
      "gasUsed": "0xf07b",
      "contractAddress": null,
      "logs": [
        {
          "address": "0x64D31bffC434C64f694Fdae11f3144413356A636",
          "topics": [
            "0xddf252ad1be2c89b69c2b068fc378daa952ba7f163c4a11628f55a4df523b3ef",
            "0x00000000000000000000000009c48ca286972f72b8290c4e1f01cb0ec6185ca0",
            "0x000000000000000000000000cb1d8dbbd067ff81b6083d0dfce6eb2d968f943e"
          ],
          "data": "0x0000000000000000000000000000000000000000000000000de0b6b3a7640000",
          "blockHash": "0x2459f3ad776e7741a0a74f4e6bab2b272add6fbf33edfe2c063be9381abd5363",
          "blockNumber": "0x3beee",
          "transactionHash": "0xfb6287da5fe601d4cd6e02a5e57a4ccbe1b54abb9351a9cf705138534dae4af6",
          "transactionIndex": "0x1",
          "logIndex": "0x1",
          "removed": false
        },
        {
          "address": "0x64D31bffC434C64f694Fdae11f3144413356A636",
          "topics": [
            "0xddf252ad1be2c89b69c2b068fc378daa952ba7f163c4a11628f55a4df523b3ef",
            "0x00000000000000000000000009c48ca286972f72b8290c4e1f01cb0ec6185ca0",
            "0x00000000000000000000000008ca4dca530a7c02d7755455aeb24b63a41c8608"
          ],
          "data": "0x00000000000000000000000000000000000000000000000000000d70f224db80",
          "blockHash": "0x2459f3ad776e7741a0a74f4e6bab2b272add6fbf33edfe2c063be9381abd5363",
          "blockNumber": "0x3beee",
          "transactionHash": "0xfb6287da5fe601d4cd6e02a5e57a4ccbe1b54abb9351a9cf705138534dae4af6",
          "transactionIndex": "0x1",
          "logIndex": "0x2",
          "removed": false
        },
        {
          "address": "0x64D31bffC434C64f694Fdae11f3144413356A636",
          "topics": [
            "0x29b8cd3b4433db59dcfbf8ab8ca612f43329533f0c89eb9a07510bf901d28d0e",
            "0x00000000000000000000000009c48ca286972f72b8290c4e1f01cb0ec6185ca0",
            "0x00000000000000000000000008ca4dca530a7c02d7755455aeb24b63a41c8608"
          ],
          "data": "0x00000000000000000000000000000000000000000000000000000d70f224db80",
          "blockHash": "0x2459f3ad776e7741a0a74f4e6bab2b272add6fbf33edfe2c063be9381abd5363",
          "blockNumber": "0x3beee",
          "transactionHash": "0xfb6287da5fe601d4cd6e02a5e57a4ccbe1b54abb9351a9cf705138534dae4af6",
          "transactionIndex": "0x1",
          "logIndex": "0x3",
          "removed": false
        }
      ],
      "status": "0x1",
      "logsBloom": "0x00000000000000000000000008008000000100000000000000000000000000000000000000000000000000000000000408000000000800000000000000000000000000000020000000000008000000000000000000000000000000000000000000000000000000000000000000020400000000000000000000000010000000000000000000000000000000000000000000000000000000000000000000000000000000000000000000000000000000000000000000000020000000000000000000000002000000000000000000000008000000020000000000000000000000000000200000000000000000400000000200000000000000000000000000000000"
    },
    {
      "transactionHash": "0x59ffe0eada64cf828160c6cf38e9c46600af9e8b93290a68f3c99008eb28fe6c",
      "transactionIndex": "0x1",
      "blockHash": "0x8e289f0870c32c87164866af1167d548996e8593fb190bb4b9e565f483dc7f12",
      "blockNumber": "0x3bef2",
      "from": "0x09C48Ca286972F72B8290C4e1F01CB0eC6185Ca0",
      "to": "0x64D31bffC434C64f694Fdae11f3144413356A636",
      "cumulativeGasUsed": "0x11c23",
      "gasUsed": "0x11c23",
      "contractAddress": null,
      "logs": [
        {
          "address": "0x64D31bffC434C64f694Fdae11f3144413356A636",
          "topics": [
            "0x8c5be1e5ebec7d5bd14f71427d1e84f3dd0314c0f7b2291e5b200ac8c7c3b925",
            "0x00000000000000000000000009c48ca286972f72b8290c4e1f01cb0ec6185ca0",
            "0x000000000000000000000000cb1d8dbbd067ff81b6083d0dfce6eb2d968f943e"
          ],
          "data": "0x0000000000000000000000000000000000000000000000000de0b6b3a7640000",
          "blockHash": "0xdd2339f8eb637e0c6765c72550a57f24a0339048175bef278ae018555da6fd6c",
          "blockNumber": "0x3bef2",
          "transactionHash": "0x59ffe0eada64cf828160c6cf38e9c46600af9e8b93290a68f3c99008eb28fe6c",
          "transactionIndex": "0x1",
          "logIndex": "0x1",
          "removed": false
        },
        {
          "address": "0x64D31bffC434C64f694Fdae11f3144413356A636",
          "topics": [
            "0xddf252ad1be2c89b69c2b068fc378daa952ba7f163c4a11628f55a4df523b3ef",
            "0x00000000000000000000000009c48ca286972f72b8290c4e1f01cb0ec6185ca0",
            "0x00000000000000000000000008ca4dca530a7c02d7755455aeb24b63a41c8608"
          ],
          "data": "0x00000000000000000000000000000000000000000000000000000f06e2d79680",
          "blockHash": "0xdd2339f8eb637e0c6765c72550a57f24a0339048175bef278ae018555da6fd6c",
          "blockNumber": "0x3bef2",
          "transactionHash": "0x59ffe0eada64cf828160c6cf38e9c46600af9e8b93290a68f3c99008eb28fe6c",
          "transactionIndex": "0x1",
          "logIndex": "0x2",
          "removed": false
        },
        {
          "address": "0x64D31bffC434C64f694Fdae11f3144413356A636",
          "topics": [
            "0x29b8cd3b4433db59dcfbf8ab8ca612f43329533f0c89eb9a07510bf901d28d0e",
            "0x00000000000000000000000009c48ca286972f72b8290c4e1f01cb0ec6185ca0",
            "0x00000000000000000000000008ca4dca530a7c02d7755455aeb24b63a41c8608"
          ],
          "data": "0x00000000000000000000000000000000000000000000000000000f06e2d79680",
          "blockHash": "0xdd2339f8eb637e0c6765c72550a57f24a0339048175bef278ae018555da6fd6c",
          "blockNumber": "0x3bef2",
          "transactionHash": "0x59ffe0eada64cf828160c6cf38e9c46600af9e8b93290a68f3c99008eb28fe6c",
          "transactionIndex": "0x1",
          "logIndex": "0x3",
          "removed": false
        }
      ],
      "status": "0x1",
      "logsBloom": "0x00000000000000000000000008008000000100000000000000000000000000000000000000000000000000000000000408000000000800000000000000200000000000000020000000000008000000000000000000000000000000000000000000000000000000000000000000020400000000000000000000000010000000000000000000000000000000000000000000000000000000000000000000000000020000000000000000000000000000000000000000000020000000000000000000000002000000000000000000000008000000020000000000000000000000000010200000000000000000400000000200000000000000000000000000000000"
    },
    {
      "transactionHash": "0xa0bf76b7b57a9051b15dc14a169423831e4276263b96d339bdee7289e951c5c2",
      "transactionIndex": "0x1",
      "blockHash": "0x74fc0e7a2b440fd9d9347ae7444f1fede5b321a623c5f232b1e748c776d652e2",
      "blockNumber": "0x3bef5",
      "from": "0x09C48Ca286972F72B8290C4e1F01CB0eC6185Ca0",
      "to": "0x64D31bffC434C64f694Fdae11f3144413356A636",
      "cumulativeGasUsed": "0xe18b",
      "gasUsed": "0xe18b",
      "contractAddress": null,
      "logs": [
        {
          "address": "0x64D31bffC434C64f694Fdae11f3144413356A636",
          "topics": [
            "0x8c5be1e5ebec7d5bd14f71427d1e84f3dd0314c0f7b2291e5b200ac8c7c3b925",
            "0x00000000000000000000000009c48ca286972f72b8290c4e1f01cb0ec6185ca0",
            "0x000000000000000000000000cb1d8dbbd067ff81b6083d0dfce6eb2d968f943e"
          ],
          "data": "0x0000000000000000000000000000000000000000000000001bc16d674ec80000",
          "blockHash": "0x74fc0e7a2b440fd9d9347ae7444f1fede5b321a623c5f232b1e748c776d652e2",
          "blockNumber": "0x3bef5",
          "transactionHash": "0xa0bf76b7b57a9051b15dc14a169423831e4276263b96d339bdee7289e951c5c2",
          "transactionIndex": "0x1",
          "logIndex": "0x1",
          "removed": false
        },
        {
          "address": "0x64D31bffC434C64f694Fdae11f3144413356A636",
          "topics": [
            "0xddf252ad1be2c89b69c2b068fc378daa952ba7f163c4a11628f55a4df523b3ef",
            "0x00000000000000000000000009c48ca286972f72b8290c4e1f01cb0ec6185ca0",
            "0x00000000000000000000000008ca4dca530a7c02d7755455aeb24b63a41c8608"
          ],
          "data": "0x00000000000000000000000000000000000000000000000000000b9dc56c9a80",
          "blockHash": "0x74fc0e7a2b440fd9d9347ae7444f1fede5b321a623c5f232b1e748c776d652e2",
          "blockNumber": "0x3bef5",
          "transactionHash": "0xa0bf76b7b57a9051b15dc14a169423831e4276263b96d339bdee7289e951c5c2",
          "transactionIndex": "0x1",
          "logIndex": "0x2",
          "removed": false
        },
        {
          "address": "0x64D31bffC434C64f694Fdae11f3144413356A636",
          "topics": [
            "0x29b8cd3b4433db59dcfbf8ab8ca612f43329533f0c89eb9a07510bf901d28d0e",
            "0x00000000000000000000000009c48ca286972f72b8290c4e1f01cb0ec6185ca0",
            "0x00000000000000000000000008ca4dca530a7c02d7755455aeb24b63a41c8608"
          ],
          "data": "0x00000000000000000000000000000000000000000000000000000b9dc56c9a80",
          "blockHash": "0x74fc0e7a2b440fd9d9347ae7444f1fede5b321a623c5f232b1e748c776d652e2",
          "blockNumber": "0x3bef5",
          "transactionHash": "0xa0bf76b7b57a9051b15dc14a169423831e4276263b96d339bdee7289e951c5c2",
          "transactionIndex": "0x1",
          "logIndex": "0x3",
          "removed": false
        }
      ],
      "status": "0x1",
      "logsBloom": "0x00000000000000000000000008008000000100000000000000000000000000000000000000000000000000000000000408000000000800000000000000200000000000000020000000000008000000000000000000000000000000000000000000000000000000000000000000020400000000000000000000000010000000000000000000000000000000000000000000000000000000000000000000000000020000000000000000000000000000000000000000000020000000000000000000000002000000000000000000000008000000020000000000000000000000000010200000000000000000400000000200000000000000000000000000000000"
    },
    {
      "transactionHash": "0xeb64fea0a28a8be9b04327369c7134bd62476f35b2fe6c39cabd43f653272fee",
      "transactionIndex": "0x1",
      "blockHash": "0xd430e771c389bb989e57a73fd93162cae86ae6c18e9ede368122bda8a58dcab4",
      "blockNumber": "0x3bef9",
      "from": "0x09C48Ca286972F72B8290C4e1F01CB0eC6185Ca0",
      "to": "0x64D31bffC434C64f694Fdae11f3144413356A636",
      "cumulativeGasUsed": "0xe989",
      "gasUsed": "0xe989",
      "contractAddress": null,
      "logs": [
        {
          "address": "0x64D31bffC434C64f694Fdae11f3144413356A636",
          "topics": [
            "0xddf252ad1be2c89b69c2b068fc378daa952ba7f163c4a11628f55a4df523b3ef",
            "0x00000000000000000000000009c48ca286972f72b8290c4e1f01cb0ec6185ca0",
            "0x0000000000000000000000000000000000000000000000000000000000000000"
          ],
          "data": "0x0000000000000000000000000000000000000000000000000de0b6b3a7640000",
          "blockHash": "0x62ee10efa4b685575dd72ce20b6e8de6fa0debf26e43409dac840c9dcfec1bc7",
          "blockNumber": "0x3bef9",
          "transactionHash": "0xeb64fea0a28a8be9b04327369c7134bd62476f35b2fe6c39cabd43f653272fee",
          "transactionIndex": "0x1",
          "logIndex": "0x1",
          "removed": false
        },
        {
          "address": "0x64D31bffC434C64f694Fdae11f3144413356A636",
          "topics": [
            "0xddf252ad1be2c89b69c2b068fc378daa952ba7f163c4a11628f55a4df523b3ef",
            "0x00000000000000000000000009c48ca286972f72b8290c4e1f01cb0ec6185ca0",
            "0x00000000000000000000000008ca4dca530a7c02d7755455aeb24b63a41c8608"
          ],
          "data": "0x00000000000000000000000000000000000000000000000000000d63f72f5e00",
          "blockHash": "0x62ee10efa4b685575dd72ce20b6e8de6fa0debf26e43409dac840c9dcfec1bc7",
          "blockNumber": "0x3bef9",
          "transactionHash": "0xeb64fea0a28a8be9b04327369c7134bd62476f35b2fe6c39cabd43f653272fee",
          "transactionIndex": "0x1",
          "logIndex": "0x2",
          "removed": false
        },
        {
          "address": "0x64D31bffC434C64f694Fdae11f3144413356A636",
          "topics": [
            "0x29b8cd3b4433db59dcfbf8ab8ca612f43329533f0c89eb9a07510bf901d28d0e",
            "0x00000000000000000000000009c48ca286972f72b8290c4e1f01cb0ec6185ca0",
            "0x00000000000000000000000008ca4dca530a7c02d7755455aeb24b63a41c8608"
          ],
          "data": "0x00000000000000000000000000000000000000000000000000000d63f72f5e00",
          "blockHash": "0x62ee10efa4b685575dd72ce20b6e8de6fa0debf26e43409dac840c9dcfec1bc7",
          "blockNumber": "0x3bef9",
          "transactionHash": "0xeb64fea0a28a8be9b04327369c7134bd62476f35b2fe6c39cabd43f653272fee",
          "transactionIndex": "0x1",
          "logIndex": "0x3",
          "removed": false
        }
      ],
      "status": "0x1",
      "logsBloom": "0x00000000000000000000000008008000000000000000000000000000000000000000000000000000000000000000000408000000000800000000000000000000000000000000000000000008000000000000000000000000000000000000000000000000020000000000000000020c00000000000000000000000010000000000000000000000000000000000000000000000000000000000000000000000000000000000000000000000000000000000000000000000000000000000000000000000002000000000000000000000008000000020000000000000000000020000000200000000000000000400000000200000000000000000000000000000000"
    },
    {
      "transactionHash": "0x3d145901bda769e4afc9212ceb39bd70edad6b7cfc7ebb1323e9e2f851dffb65",
      "transactionIndex": "0x1",
      "blockHash": "0xe5b76181dfc7a224b24142c9d9cbb3f47c73a9ceb57b99fc21a1c55619a9167f",
      "blockNumber": "0x3befd",
      "from": "0x09C48Ca286972F72B8290C4e1F01CB0eC6185Ca0",
      "to": "0x64D31bffC434C64f694Fdae11f3144413356A636",
      "cumulativeGasUsed": "0xe989",
      "gasUsed": "0xe989",
      "contractAddress": null,
      "logs": [
        {
          "address": "0x64D31bffC434C64f694Fdae11f3144413356A636",
          "topics": [
            "0xddf252ad1be2c89b69c2b068fc378daa952ba7f163c4a11628f55a4df523b3ef",
            "0x00000000000000000000000009c48ca286972f72b8290c4e1f01cb0ec6185ca0",
            "0x0000000000000000000000000000000000000000000000000000000000000000"
          ],
          "data": "0x0000000000000000000000000000000000000000000000000de0b6b3a7640000",
          "blockHash": "0x855ef3e6d2f9ec1598564bd6d58bfa2e501875ae0528bf1dfa04caaa2e16817f",
          "blockNumber": "0x3befd",
          "transactionHash": "0x3d145901bda769e4afc9212ceb39bd70edad6b7cfc7ebb1323e9e2f851dffb65",
          "transactionIndex": "0x1",
          "logIndex": "0x1",
          "removed": false
        },
        {
          "address": "0x64D31bffC434C64f694Fdae11f3144413356A636",
          "topics": [
            "0xddf252ad1be2c89b69c2b068fc378daa952ba7f163c4a11628f55a4df523b3ef",
            "0x00000000000000000000000009c48ca286972f72b8290c4e1f01cb0ec6185ca0",
            "0x00000000000000000000000008ca4dca530a7c02d7755455aeb24b63a41c8608"
          ],
          "data": "0x00000000000000000000000000000000000000000000000000000d63f72f5e00",
          "blockHash": "0x855ef3e6d2f9ec1598564bd6d58bfa2e501875ae0528bf1dfa04caaa2e16817f",
          "blockNumber": "0x3befd",
          "transactionHash": "0x3d145901bda769e4afc9212ceb39bd70edad6b7cfc7ebb1323e9e2f851dffb65",
          "transactionIndex": "0x1",
          "logIndex": "0x2",
          "removed": false
        },
        {
          "address": "0x64D31bffC434C64f694Fdae11f3144413356A636",
          "topics": [
            "0x29b8cd3b4433db59dcfbf8ab8ca612f43329533f0c89eb9a07510bf901d28d0e",
            "0x00000000000000000000000009c48ca286972f72b8290c4e1f01cb0ec6185ca0",
            "0x00000000000000000000000008ca4dca530a7c02d7755455aeb24b63a41c8608"
          ],
          "data": "0x00000000000000000000000000000000000000000000000000000d63f72f5e00",
          "blockHash": "0x855ef3e6d2f9ec1598564bd6d58bfa2e501875ae0528bf1dfa04caaa2e16817f",
          "blockNumber": "0x3befd",
          "transactionHash": "0x3d145901bda769e4afc9212ceb39bd70edad6b7cfc7ebb1323e9e2f851dffb65",
          "transactionIndex": "0x1",
          "logIndex": "0x3",
          "removed": false
        }
      ],
      "status": "0x1",
      "logsBloom": "0x00000000000000000000000008008000000000000000000000000000000000000000000000000000000000000000000408000000000800000000000000000000000000000000000000000008000000000000000000000000000000000000000000000000020000000000000000020c00000000000000000000000010000000000000000000000000000000000000000000000000000000000000000000000000000000000000000000000000000000000000000000000000000000000000000000000002000000000000000000000008000000020000000000000000000020000000200000000000000000400000000200000000000000000000000000000000"
    },
    {
      "transactionHash": "0x878432dfb8d588cb59aa0ae9fe9575ea443fdd8c715942f48621f41d45115ea3",
      "transactionIndex": "0x1",
      "blockHash": "0xcb5c60b6f70461014c1daeb123c4cd90541440c1601fde3129d316a81f13baae",
      "blockNumber": "0x3bf00",
      "from": "0xCb1d8DBBD067fF81B6083d0dFcE6eb2d968f943E",
      "to": "0x64D31bffC434C64f694Fdae11f3144413356A636",
      "cumulativeGasUsed": "0x15ed2",
      "gasUsed": "0x15ed2",
      "contractAddress": null,
      "logs": [
        {
          "address": "0x64D31bffC434C64f694Fdae11f3144413356A636",
          "topics": [
            "0xddf252ad1be2c89b69c2b068fc378daa952ba7f163c4a11628f55a4df523b3ef",
            "0x00000000000000000000000009c48ca286972f72b8290c4e1f01cb0ec6185ca0",
            "0x000000000000000000000000c0a55e2205b289a967823662b841bd67aa362aec"
          ],
          "data": "0x0000000000000000000000000000000000000000000000000de0b6b3a7640000",
          "blockHash": "0xe0cd0a3ab319c23f5b1ff995cd468fca48e1b28ed9b51bbe274031d20ef14b5b",
          "blockNumber": "0x3bf00",
          "transactionHash": "0x878432dfb8d588cb59aa0ae9fe9575ea443fdd8c715942f48621f41d45115ea3",
          "transactionIndex": "0x1",
          "logIndex": "0x1",
          "removed": false
        },
        {
          "address": "0x64D31bffC434C64f694Fdae11f3144413356A636",
          "topics": [
            "0xddf252ad1be2c89b69c2b068fc378daa952ba7f163c4a11628f55a4df523b3ef",
            "0x000000000000000000000000cb1d8dbbd067ff81b6083d0dfce6eb2d968f943e",
            "0x00000000000000000000000008ca4dca530a7c02d7755455aeb24b63a41c8608"
          ],
          "data": "0x00000000000000000000000000000000000000000000000000001291efa31400",
          "blockHash": "0xe0cd0a3ab319c23f5b1ff995cd468fca48e1b28ed9b51bbe274031d20ef14b5b",
          "blockNumber": "0x3bf00",
          "transactionHash": "0x878432dfb8d588cb59aa0ae9fe9575ea443fdd8c715942f48621f41d45115ea3",
          "transactionIndex": "0x1",
          "logIndex": "0x2",
          "removed": false
        },
        {
          "address": "0x64D31bffC434C64f694Fdae11f3144413356A636",
          "topics": [
            "0x29b8cd3b4433db59dcfbf8ab8ca612f43329533f0c89eb9a07510bf901d28d0e",
            "0x000000000000000000000000cb1d8dbbd067ff81b6083d0dfce6eb2d968f943e",
            "0x00000000000000000000000008ca4dca530a7c02d7755455aeb24b63a41c8608"
          ],
          "data": "0x00000000000000000000000000000000000000000000000000001291efa31400",
          "blockHash": "0xe0cd0a3ab319c23f5b1ff995cd468fca48e1b28ed9b51bbe274031d20ef14b5b",
          "blockNumber": "0x3bf00",
          "transactionHash": "0x878432dfb8d588cb59aa0ae9fe9575ea443fdd8c715942f48621f41d45115ea3",
          "transactionIndex": "0x1",
          "logIndex": "0x3",
          "removed": false
        }
      ],
      "status": "0x1",
      "logsBloom": "0x00000000000000000000000008008000000140000000000000000000000000000000000000000000000000000000000408000000000800000000000000000000000000000020000000000008000000000000000000000000000000000000000000000000000000000000000000020400000000000000000000000010000000000000000000000000000000000000000000000000000000000000080000000000000000000000000000000000000000000000000000000020000000000000000000000002000000000000000000000008000000020000000000000000000000000000200000000000000000400000000200000000000000000000000000000000"
    }
  ],
  "libraries": [],
  "pending": [],
  "returns": {},
  "timestamp": 1703483282,
  "chain": 89,
  "multi": false,
  "commit": "709cba2"
}