{
  "transactions": [
    {
      "hash": "0x7f4c522ec47d9a166878c8071e754b97bb334f36f5645270d3698a2cec37dcea",
      "transactionType": "CREATE",
      "contractName": "MockVRC25",
      "contractAddress": "0xF968FDE09Cd7B7F67e0B2252F232e189723fEF54",
      "function": null,
      "arguments": [
        "Test VRC25",
        "TVRC",
        "18"
      ],
      "transaction": {
        "type": "0x00",
        "from": "0x08ca4dca530a7c02d7755455aeb24b63a41c8608",
        "gas": "0x247f84",
        "value": "0x0",
        "data": "0x6101406040523480156200001257600080fd5b50604051620016fb380380620016fb833981016040819052620000359162000228565b60405180604001604052806005815260200164565243323560d81b815250604051806040016040528060018152602001603160f81b81525084848482828282600590816200008491906200033c565b5060066200009383826200033c565b506007805460ff90921660ff199092169190911790555050600280546001600160a01b031916331790555050825160208085019190912083519184019190912060e08290526101008190529091507f8b73c3c69bb8fe3d512ecc4cf759cc79239f7b179b0ffacaa9a75d522b39400f6200010a4690565b60a09081526040805160208082018590528183018790526060820186905246608083015230828501528251808303909401845260c090910190915281519101206080523060c05261012052506200040895505050505050565b634e487b7160e01b600052604160045260246000fd5b600082601f8301126200018b57600080fd5b81516001600160401b0380821115620001a857620001a862000163565b604051601f8301601f19908116603f01168101908282118183101715620001d357620001d362000163565b81604052838152602092508683858801011115620001f057600080fd5b600091505b83821015620002145785820183015181830184015290820190620001f5565b600093810190920192909252949350505050565b6000806000606084860312156200023e57600080fd5b83516001600160401b03808211156200025657600080fd5b620002648783880162000179565b945060208601519150808211156200027b57600080fd5b506200028a8682870162000179565b925050604084015160ff81168114620002a257600080fd5b809150509250925092565b600181811c90821680620002c257607f821691505b602082108103620002e357634e487b7160e01b600052602260045260246000fd5b50919050565b601f8211156200033757600081815260208120601f850160051c81016020861015620003125750805b601f850160051c820191505b8181101562000333578281556001016200031e565b5050505b505050565b81516001600160401b0381111562000358576200035862000163565b6200037081620003698454620002ad565b84620002e9565b602080601f831160018114620003a857600084156200038f5750858301515b600019600386901b1c1916600185901b17855562000333565b600085815260208120601f198616915b82811015620003d957888601518255948401946001909101908401620003b8565b5085821015620003f85787850151600019600388901b60f8161c191681555b5050505050600190811b01905550565b60805160a05160c05160e05161010051610120516112b5620004466000396000505060005050600050506000505060005050600050506112b56000f3fe608060405234801561001057600080fd5b506004361061012c5760003560e01c806342966c68116100ad5780638da5cb5b116100715780638da5cb5b146101aa57806395d89b4114610274578063a9059cbb1461027c578063dd62ed3e1461028f578063f2fde38b146102c857600080fd5b806342966c681461020857806369fe0e2d1461021b57806370a082311461023057806371ee951c1461025957806379ba50971461026c57600080fd5b80631d143848116100f45780631d143848146101aa57806323b872dd146101c557806324ec7590146101d8578063313ce567146101e057806340c10f19146101f557600080fd5b806301ffc9a71461013157806306fdde0314610159578063095ea7b31461016e578063127e8e4d1461018157806318160ddd146101a2575b600080fd5b61014461013f366004611046565b6102db565b60405190151581526020015b60405180910390f35b610161610312565b6040516101509190611070565b61014461017c3660046110d5565b6103a4565b61019461018f3660046110ff565b61048b565b604051908152602001610150565b600854610194565b6002546040516001600160a01b039091168152602001610150565b6101446101d3366004611118565b6104aa565b600154610194565b60075460405160ff9091168152602001610150565b6101446102033660046110d5565b610653565b6101446102163660046110ff565b610693565b61022e6102293660046110ff565b61076e565b005b61019461023e366004611154565b6001600160a01b031660009081526020819052604090205490565b6101946102673660046110d5565b6107d3565b61022e6108d4565b61016161099e565b61014461028a3660046110d5565b6109ad565b61019461029d36600461116f565b6001600160a01b03918216600090815260046020908152604080832093909416825291909152205490565b61022e6102d6366004611154565b6109be565b60006001600160e01b03198216630861786560e01b148061030c5750630861786560e01b6001600160e01b03198316145b92915050565b606060058054610321906111a2565b80601f016020809104026020016040519081016040528092919081815260200182805461034d906111a2565b801561039a5780601f1061036f5761010080835404028352916020019161039a565b820191906000526020600020905b81548152906001019060200180831161037d57829003601f168201915b5050505050905090565b6000805a90506103b5338585610a6c565b60019150600160005a6103c890846111f2565b6002549091506000906103f5906001600160a01b03163a6103eb61c21686611205565b6102679190611218565b905060006104038383611205565b905060006104113a83611218565b9050600061041f8683611218565b60025490915061043a9033906001600160a01b031683610b91565b6002546040518281526001600160a01b039091169033907f29b8cd3b4433db59dcfbf8ab8ca612f43329533f0c89eb9a07510bf901d28d0e9060200160405180910390a35050505050505092915050565b6000333b1561049c57506000919050565b61030c82610d5e565b919050565b6000805a6001600160a01b03861660009081526004602090815260408083203384529091529020549091508311156105295760405162461bcd60e51b815260206004820152601e60248201527f56524332353a20616d6f756e742065786565647320616c6c6f77616e6365000060448201526064015b60405180910390fd5b6001600160a01b03851660009081526004602090815260408083203384529091529020546105579084610d69565b6001600160a01b0386166000908152600460209081526040808320338452909152902055610586858585610b91565b60019150600160005a61059990846111f2565b6002549091506000906105bc906001600160a01b03163a6103eb61c21686611205565b905060006105ca8383611205565b905060006105d83a83611218565b905060006105e68683611218565b6002549091506106019033906001600160a01b031683610b91565b6002546040518281526001600160a01b039091169033907f29b8cd3b4433db59dcfbf8ab8ca612f43329533f0c89eb9a07510bf901d28d0e9060200160405180910390a3505050505050509392505050565b6002546000906001600160a01b031633146106805760405162461bcd60e51b81526004016105209061122f565b61068a8383610dc5565b50600192915050565b6000805a90506106a33384610ea4565b60019150600160005a6106b690846111f2565b6002549091506000906106d9906001600160a01b03163a6103eb61c21686611205565b905060006106e78383611205565b905060006106f53a83611218565b905060006107038683611218565b60025490915061071e9033906001600160a01b031683610b91565b6002546040518281526001600160a01b039091169033907f29b8cd3b4433db59dcfbf8ab8ca612f43329533f0c89eb9a07510bf901d28d0e9060200160405180910390a350505050505050919050565b6002546001600160a01b031633146107985760405162461bcd60e51b81526004016105209061122f565b60018190556040518181527f8c4d35e54a3f2ef1134138fd8ea3daee6a3c89e10d2665996babdf70261e2c769060200160405180910390a150565b6040516370a0823160e01b81526001600160a01b038316600482015260009061c2169030906370a0823190602401602060405180830381865afa15801561081e573d6000803e3d6000fd5b505050506040513d601f19601f820116820180604052508101906108429190611266565b60000361085857610855613ae882611205565b90505b6040516370a0823160e01b8152336004820152839030906370a0823190602401602060405180830381865afa158015610895573d6000803e3d6000fd5b505050506040513d601f19601f820116820180604052508101906108b99190611266565b036108cd576108ca613a48826111f2565b90505b9392505050565b6003546001600160a01b031633146109415760405162461bcd60e51b815260206004820152602a60248201527f56524332353a206f6e6c79206e6577206f776e65722063616e206163636570746044820152690206f776e6572736869760b41b6064820152608401610520565b60028054600380546001600160a01b03198084166001600160a01b038381169182179096559116909155604051929091169182907f8be0079c531659141344cd1fd0a4f28419497f9722a3daafe3b4186f6b6457e090600090a350565b606060068054610321906111a2565b6000805a90506103b5338585610b91565b6002546001600160a01b031633146109e85760405162461bcd60e51b81526004016105209061122f565b6001600160a01b038116610a4a5760405162461bcd60e51b8152602060048201526024808201527f56524332353a206e6577206f776e657220697320746865207a65726f206164646044820152637265737360e01b6064820152608401610520565b600380546001600160a01b0319166001600160a01b0392909216919091179055565b6001600160a01b038316610ace5760405162461bcd60e51b8152602060048201526024808201527f56524332353a20617070726f76652066726f6d20746865207a65726f206164646044820152637265737360e01b6064820152608401610520565b6001600160a01b038216610b2f5760405162461bcd60e51b815260206004820152602260248201527f56524332353a20617070726f766520746f20746865207a65726f206164647265604482015261737360f01b6064820152608401610520565b6001600160a01b0383811660008181526004602090815260408083209487168084529482529182902085905590518481527f8c5be1e5ebec7d5bd14f71427d1e84f3dd0314c0f7b2291e5b200ac8c7c3b92591015b60405180910390a3505050565b6001600160a01b038316610bf55760405162461bcd60e51b815260206004820152602560248201527f56524332353a207472616e736665722066726f6d20746865207a65726f206164604482015264647265737360d81b6064820152608401610520565b6001600160a01b038216610c575760405162461bcd60e51b815260206004820152602360248201527f56524332353a207472616e7366657220746f20746865207a65726f206164647260448201526265737360e81b6064820152608401610520565b6001600160a01b038316600090815260208190526040902054811115610cbb5760405162461bcd60e51b815260206004820152601960248201527856524332353a20696e7375666669656e742062616c616e636560381b6044820152606401610520565b6001600160a01b038316600090815260208190526040902054610cde9082610d69565b6001600160a01b038085166000908152602081905260408082209390935590841681522054610d0d9082610fe7565b6001600160a01b038381166000818152602081815260409182902094909455518481529092918616917fddf252ad1be2c89b69c2b068fc378daa952ba7f163c4a11628f55a4df523b3ef9101610b84565b600061030c60015490565b600082821115610dbb5760405162461bcd60e51b815260206004820152601e60248201527f536166654d6174683a207375627472616374696f6e206f766572666c6f7700006044820152606401610520565b6108cd82846111f2565b6001600160a01b038216610e1b5760405162461bcd60e51b815260206004820152601f60248201527f56524332353a206d696e7420746f20746865207a65726f2061646472657373006044820152606401610520565b600854610e289082610fe7565b6008556001600160a01b038216600090815260208190526040902054610e4e9082610fe7565b6001600160a01b038316600081815260208181526040808320949094559251848152919290917fddf252ad1be2c89b69c2b068fc378daa952ba7f163c4a11628f55a4df523b3ef91015b60405180910390a35050565b6001600160a01b038216610f045760405162461bcd60e51b815260206004820152602160248201527f56524332353a206275726e2066726f6d20746865207a65726f206164647265736044820152607360f81b6064820152608401610520565b6001600160a01b038216600090815260208190526040902054811115610f685760405162461bcd60e51b815260206004820152601960248201527856524332353a20696e7375666669656e742062616c616e636560381b6044820152606401610520565b600854610f759082610d69565b6008556001600160a01b038216600090815260208190526040902054610f9b9082610d69565b6001600160a01b03831660008181526020818152604080832094909455925184815290927fddf252ad1be2c89b69c2b068fc378daa952ba7f163c4a11628f55a4df523b3ef9101610e98565b600080610ff48385611205565b9050838110156108cd5760405162461bcd60e51b815260206004820152601b60248201527f536166654d6174683a206164646974696f6e206f766572666c6f7700000000006044820152606401610520565b60006020828403121561105857600080fd5b81356001600160e01b0319811681146108cd57600080fd5b600060208083528351808285015260005b8181101561109d57858101830151858201604001528201611081565b506000604082860101526040601f19601f8301168501019250505092915050565b80356001600160a01b03811681146104a557600080fd5b600080604083850312156110e857600080fd5b6110f1836110be565b946020939093013593505050565b60006020828403121561111157600080fd5b5035919050565b60008060006060848603121561112d57600080fd5b611136846110be565b9250611144602085016110be565b9150604084013590509250925092565b60006020828403121561116657600080fd5b6108cd826110be565b6000806040838503121561118257600080fd5b61118b836110be565b9150611199602084016110be565b90509250929050565b600181811c908216806111b657607f821691505b6020821081036111d657634e487b7160e01b600052602260045260246000fd5b50919050565b634e487b7160e01b600052601160045260246000fd5b8181038181111561030c5761030c6111dc565b8082018082111561030c5761030c6111dc565b808202811582820484141761030c5761030c6111dc565b6020808252601e908201527f56524332353a2063616c6c6572206973206e6f7420746865206f776e65720000604082015260600190565b60006020828403121561127857600080fd5b505191905056fea264697066735822122075b560c9f0095a6607c58b7e1d5af02e62ca395db9609d93f289e18f749d983064736f6c63430008140033000000000000000000000000000000000000000000000000000000000000006000000000000000000000000000000000000000000000000000000000000000a00000000000000000000000000000000000000000000000000000000000000012000000000000000000000000000000000000000000000000000000000000000a546573742056524332350000000000000000000000000000000000000000000000000000000000000000000000000000000000000000000000000000000000045456524300000000000000000000000000000000000000000000000000000000",
        "nonce": "0xa5"
      },
      "additionalContracts": [],
      "isFixedGasLimit": false
    },
    {
      "hash": "0xeb818f4805116bf9caafe9d09254c59f734ac5cd5b7373ce08a1628285aa2485",
      "transactionType": "CALL",
      "contractName": null,
      "contractAddress": "0x8c0faeb5C6bEd2129b8674F262Fd45c4e9468bee",
      "function": null,
      "arguments": null,
      "transaction": {
        "type": "0x00",
        "from": "0x08ca4dca530a7c02d7755455aeb24b63a41c8608",
        "to": "0x8c0faeb5c6bed2129b8674f262fd45c4e9468bee",
        "gas": "0x29ef8",
        "value": "0x8ac7230489e80000",
        "data": "0xc6b32f34000000000000000000000000f968fde09cd7b7f67e0b2252f232e189723fef54",
        "nonce": "0xa6"
      },
      "additionalContracts": [],
      "isFixedGasLimit": false
    },
    {
      "hash": "0xcc4d10d3c5f3968775f8930a01d8ff4eee60903e715e82f3eeb7a01755e504e0",
      "transactionType": "CALL",
      "contractName": "MockVRC25",
      "contractAddress": "0xF968FDE09Cd7B7F67e0B2252F232e189723fEF54",
      "function": "mint(address,uint256)",
      "arguments": [
        "0x09C48Ca286972F72B8290C4e1F01CB0eC6185Ca0",
        "20000000000000000000"
      ],
      "transaction": {
        "type": "0x00",
        "from": "0x08ca4dca530a7c02d7755455aeb24b63a41c8608",
        "to": "0xf968fde09cd7b7f67e0b2252f232e189723fef54",
        "gas": "0x26efe",
        "value": "0x0",
        "data": "0x40c10f1900000000000000000000000009c48ca286972f72b8290c4e1f01cb0ec6185ca0000000000000000000000000000000000000000000000001158e460913d00000",
        "nonce": "0xa7"
      },
      "additionalContracts": [],
      "isFixedGasLimit": false
    },
    {
      "hash": "0x99d93647bfe6cc8a93b78e8b06f4fab15419456cc2897e94ec05d0502094a2e7",
      "transactionType": "CALL",
      "contractName": "MockVRC25",
      "contractAddress": "0xF968FDE09Cd7B7F67e0B2252F232e189723fEF54",
      "function": "transfer(address,uint256)",
      "arguments": [
        "0xCb1d8DBBD067fF81B6083d0dFcE6eb2d968f943E",
        "1000000000000000000"
      ],
      "transaction": {
        "type": "0x00",
        "from": "0x09c48ca286972f72b8290c4e1f01cb0ec6185ca0",
        "to": "0xf968fde09cd7b7f67e0b2252f232e189723fef54",
        "gas": "0x213e6",
        "value": "0x0",
        "data": "0xa9059cbb000000000000000000000000cb1d8dbbd067ff81b6083d0dfce6eb2d968f943e0000000000000000000000000000000000000000000000000de0b6b3a7640000",
        "nonce": "0x38"
      },
      "additionalContracts": [],
      "isFixedGasLimit": false
    },
    {
      "hash": "0x4083b2975558ba4d12128b406dedac19183260a01494a5557ea977e1362e5f79",
      "transactionType": "CALL",
      "contractName": "MockVRC25",
      "contractAddress": "0xF968FDE09Cd7B7F67e0B2252F232e189723fEF54",
      "function": "transfer(address,uint256)",
      "arguments": [
        "0xCb1d8DBBD067fF81B6083d0dFcE6eb2d968f943E",
        "1000000000000000000"
      ],
      "transaction": {
        "type": "0x00",
        "from": "0x09c48ca286972f72b8290c4e1f01cb0ec6185ca0",
        "to": "0xf968fde09cd7b7f67e0b2252f232e189723fef54",
        "gas": "0x19ce6",
        "value": "0x0",
        "data": "0xa9059cbb000000000000000000000000cb1d8dbbd067ff81b6083d0dfce6eb2d968f943e0000000000000000000000000000000000000000000000000de0b6b3a7640000",
        "nonce": "0x39"
      },
      "additionalContracts": [],
      "isFixedGasLimit": false
    },
    {
      "hash": "0xe6a844b2fe7d94d6b4adaf846df479360b527de1a2f0567af5510d2d4ad12e09",
      "transactionType": "CALL",
      "contractName": "MockVRC25",
      "contractAddress": "0xF968FDE09Cd7B7F67e0B2252F232e189723fEF54",
      "function": "approve(address,uint256)",
      "arguments": [
        "0xCb1d8DBBD067fF81B6083d0dFcE6eb2d968f943E",
        "1000000000000000000"
      ],
      "transaction": {
        "type": "0x00",
        "from": "0x09c48ca286972f72b8290c4e1f01cb0ec6185ca0",
        "to": "0xf968fde09cd7b7f67e0b2252f232e189723fef54",
        "gas": "0x1f500",
        "value": "0x0",
        "data": "0x095ea7b3000000000000000000000000cb1d8dbbd067ff81b6083d0dfce6eb2d968f943e0000000000000000000000000000000000000000000000000de0b6b3a7640000",
        "nonce": "0x3a"
      },
      "additionalContracts": [],
      "isFixedGasLimit": false
    },
    {
      "hash": "0x444f67f1fc6b8bced5cc9700e2164aa8cdb747c453d9d16439edab764636f9d5",
      "transactionType": "CALL",
      "contractName": "MockVRC25",
      "contractAddress": "0xF968FDE09Cd7B7F67e0B2252F232e189723fEF54",
      "function": "approve(address,uint256)",
      "arguments": [
        "0xCb1d8DBBD067fF81B6083d0dFcE6eb2d968f943E",
        "2000000000000000000"
      ],
      "transaction": {
        "type": "0x00",
        "from": "0x09c48ca286972f72b8290c4e1f01cb0ec6185ca0",
        "to": "0xf968fde09cd7b7f67e0b2252f232e189723fef54",
        "gas": "0x1670e",
        "value": "0x0",
        "data": "0x095ea7b3000000000000000000000000cb1d8dbbd067ff81b6083d0dfce6eb2d968f943e0000000000000000000000000000000000000000000000001bc16d674ec80000",
        "nonce": "0x3b"
      },
      "additionalContracts": [],
      "isFixedGasLimit": false
    },
    {
      "hash": "0x88491a13fad7e079cd5ed53aa731b148561038fea657969830d3b908b0144278",
      "transactionType": "CALL",
      "contractName": "MockVRC25",
      "contractAddress": "0xF968FDE09Cd7B7F67e0B2252F232e189723fEF54",
      "function": "burn(uint256)",
      "arguments": [
        "1000000000000000000"
      ],
      "transaction": {
        "type": "0x00",
        "from": "0x09c48ca286972f72b8290c4e1f01cb0ec6185ca0",
        "to": "0xf968fde09cd7b7f67e0b2252f232e189723fef54",
        "gas": "0x1966c",
        "value": "0x0",
        "data": "0x42966c680000000000000000000000000000000000000000000000000de0b6b3a7640000",
        "nonce": "0x3c"
      },
      "additionalContracts": [],
      "isFixedGasLimit": false
    },
    {
      "hash": "0x0b923d75bdaae46828a5d30a07955f453701e8f166163e2442010398f714501a",
      "transactionType": "CALL",
      "contractName": "MockVRC25",
      "contractAddress": "0xF968FDE09Cd7B7F67e0B2252F232e189723fEF54",
      "function": "burn(uint256)",
      "arguments": [
        "1000000000000000000"
      ],
      "transaction": {
        "type": "0x00",
        "from": "0x09c48ca286972f72b8290c4e1f01cb0ec6185ca0",
        "to": "0xf968fde09cd7b7f67e0b2252f232e189723fef54",
        "gas": "0x1966c",
        "value": "0x0",
        "data": "0x42966c680000000000000000000000000000000000000000000000000de0b6b3a7640000",
        "nonce": "0x3d"
      },
      "additionalContracts": [],
      "isFixedGasLimit": false
    },
    {
      "hash": "0x5071f27fa0f2c1046369e0619d9aa82758ff88ddfd60b580ed8dbaf30ef42b2e",
      "transactionType": "CALL",
      "contractName": "MockVRC25",
      "contractAddress": "0xF968FDE09Cd7B7F67e0B2252F232e189723fEF54",
      "function": "transferFrom(address,address,uint256)",
      "arguments": [
        "0x09C48Ca286972F72B8290C4e1F01CB0eC6185Ca0",
        "0xc0A55e2205B289a967823662B841Bd67Aa362Aec",
        "1000000000000000000"
      ],
      "transaction": {
        "type": "0x00",
        "from": "0xcb1d8dbbd067ff81b6083d0dfce6eb2d968f943e",
        "to": "0xf968fde09cd7b7f67e0b2252f232e189723fef54",
        "gas": "0x25804",
        "value": "0x0",
        "data": "0x23b872dd00000000000000000000000009c48ca286972f72b8290c4e1f01cb0ec6185ca0000000000000000000000000c0a55e2205b289a967823662b841bd67aa362aec0000000000000000000000000000000000000000000000000de0b6b3a7640000",
        "nonce": "0x8"
      },
      "additionalContracts": [],
      "isFixedGasLimit": false
    }
  ],
  "receipts": [
    {
      "transactionHash": "0x7f4c522ec47d9a166878c8071e754b97bb334f36f5645270d3698a2cec37dcea",
      "transactionIndex": "0x1",
      "blockHash": "0x046ef00214d863943014032f95a465edadfe42a3e456ee3b11f32fb3f4ee24ab",
      "blockNumber": "0x40cb8",
      "from": "0x08cA4DCa530A7c02d7755455AeB24B63A41C8608",
      "to": null,
      "cumulativeGasUsed": "0x16b4ea",
      "gasUsed": "0x16b4ea",
      "contractAddress": "0xF968FDE09Cd7B7F67e0B2252F232e189723fEF54",
      "logs": [],
      "status": "0x1",
      "logsBloom": "0x00000000000000000000000000000000000000000000000000000000000000000000000000000000000000000000000000000000000000000000000000000000000000000000000000000000000000000000000000000000000000000000000000000000000000000000000000000000000000000000000000000000000000000000000000000000000000000000000000000000000000000000000000000000000000000000000000000000000000000000000000000000000000000000000000000000000000000000000000000000000000000000000000000000000000000000000000000000000000000000000000000000000000000000000000000000"
    },
    {
      "transactionHash": "0xeb818f4805116bf9caafe9d09254c59f734ac5cd5b7373ce08a1628285aa2485",
      "transactionIndex": "0x1",
      "blockHash": "0xc866a57706ff94ff5b25ce59d83ac38e2d8970e1f5a3cfbab1716275d1f14535",
      "blockNumber": "0x40cbc",
      "from": "0x08cA4DCa530A7c02d7755455AeB24B63A41C8608",
      "to": "0x8c0faeb5C6bEd2129b8674F262Fd45c4e9468bee",
      "cumulativeGasUsed": "0x12a5c",
      "gasUsed": "0x12a5c",
      "contractAddress": null,
      "logs": [
        {
          "address": "0x8c0faeb5C6bEd2129b8674F262Fd45c4e9468bee",
          "topics": [
            "0x2d485624158277d5113a56388c3abf5c20e3511dd112123ba376d16b21e4d716",
            "0x00000000000000000000000008ca4dca530a7c02d7755455aeb24b63a41c8608",
            "0x000000000000000000000000f968fde09cd7b7f67e0b2252f232e189723fef54"
          ],
          "data": "0x0000000000000000000000000000000000000000000000008ac7230489e80000",
          "blockHash": "0x7d6c1bb32a7432fd368c9235a093397aa18b684e2b040a6afb5af5a15e97ed4e",
          "blockNumber": "0x40cbc",
          "transactionHash": "0xeb818f4805116bf9caafe9d09254c59f734ac5cd5b7373ce08a1628285aa2485",
          "transactionIndex": "0x1",
          "logIndex": "0x1",
          "removed": false
        }
      ],
      "status": "0x1",
      "logsBloom": "0x00000000000000000000000000000000000000000000000000000000000000000000000000000000000000000000000000000000000800000000000000000000002000000000000000000000000000000000000000000000000000000000000000000000000000000000000000000000000004000000000000000000000000000000000000000000000010000000200000000000400000000000000000000000000000000000000000000000000000000000000000000100020000010000000000000000000000000000000000000008000000020000000000000000000000000000000000000000000000000000000000000000000000000000400000000000"
    },
    {
      "transactionHash": "0xcc4d10d3c5f3968775f8930a01d8ff4eee60903e715e82f3eeb7a01755e504e0",
      "transactionIndex": "0x1",
      "blockHash": "0x827dcbd97288b5050a90c8655c24f23ae0c68c46cbbb4d5092ceef5d6f1b0fd4",
      "blockNumber": "0x40cbf",
      "from": "0x08cA4DCa530A7c02d7755455AeB24B63A41C8608",
      "to": "0xF968FDE09Cd7B7F67e0B2252F232e189723fEF54",
      "cumulativeGasUsed": "0x10bf3",
      "gasUsed": "0x10bf3",
      "contractAddress": null,
      "logs": [
        {
          "address": "0xF968FDE09Cd7B7F67e0B2252F232e189723fEF54",
          "topics": [
            "0xddf252ad1be2c89b69c2b068fc378daa952ba7f163c4a11628f55a4df523b3ef",
            "0x0000000000000000000000000000000000000000000000000000000000000000",
            "0x00000000000000000000000009c48ca286972f72b8290c4e1f01cb0ec6185ca0"
          ],
          "data": "0x000000000000000000000000000000000000000000000001158e460913d00000",
          "blockHash": "0x34e0ac355b1dcb3cb0628ef08d1ac1834f3e16008aa176830eb251b7e1414a96",
          "blockNumber": "0x40cbf",
          "transactionHash": "0xcc4d10d3c5f3968775f8930a01d8ff4eee60903e715e82f3eeb7a01755e504e0",
          "transactionIndex": "0x1",
          "logIndex": "0x1",
          "removed": false
        }
      ],
      "status": "0x1",
      "logsBloom": "0x00000000000000000000000008000000000000000000800000000000000000000000000000000000000000000000000000000200000000000000010000000000000000000000000000000008000000000000000000000000000000000000000000000000020000000000000000000c00000000000000000000000010000000000000000000000000000000000000000000000000000000000000000000000000000000000000000000000000000000000000000000000000000000000000000000000002000000000000000000000000000000000000000000000000000020000000000000000000000000000000000200000000000000000000000000000000"
    },
    {
      "transactionHash": "0x99d93647bfe6cc8a93b78e8b06f4fab15419456cc2897e94ec05d0502094a2e7",
      "transactionIndex": "0x1",
      "blockHash": "0xbc784599be9690c0f43b161d19decc50a3f9b04bd73c4962d9c9986add2fed93",
      "blockNumber": "0x40cc3",
      "from": "0x09C48Ca286972F72B8290C4e1F01CB0eC6185Ca0",
      "to": "0xF968FDE09Cd7B7F67e0B2252F232e189723fEF54",
      "cumulativeGasUsed": "0x15c97",
      "gasUsed": "0x15c97",
      "contractAddress": null,
      "logs": [
        {
          "address": "0xF968FDE09Cd7B7F67e0B2252F232e189723fEF54",
          "topics": [
            "0xddf252ad1be2c89b69c2b068fc378daa952ba7f163c4a11628f55a4df523b3ef",
            "0x00000000000000000000000009c48ca286972f72b8290c4e1f01cb0ec6185ca0",
            "0x000000000000000000000000cb1d8dbbd067ff81b6083d0dfce6eb2d968f943e"
          ],
          "data": "0x0000000000000000000000000000000000000000000000000de0b6b3a7640000",
          "blockHash": "0x9d68c55475e6d74f489e8aa035c14c5589ee8a384174624b22ecdaac5baa11a1",
          "blockNumber": "0x40cc3",
          "transactionHash": "0x99d93647bfe6cc8a93b78e8b06f4fab15419456cc2897e94ec05d0502094a2e7",
          "transactionIndex": "0x1",
          "logIndex": "0x1",
          "removed": false
        },
        {
          "address": "0xF968FDE09Cd7B7F67e0B2252F232e189723fEF54",
          "topics": [
            "0xddf252ad1be2c89b69c2b068fc378daa952ba7f163c4a11628f55a4df523b3ef",
            "0x00000000000000000000000009c48ca286972f72b8290c4e1f01cb0ec6185ca0",
            "0x00000000000000000000000008ca4dca530a7c02d7755455aeb24b63a41c8608"
          ],
          "data": "0x000000000000000000000000000000000000000000000000000015948c1c2d80",
          "blockHash": "0x9d68c55475e6d74f489e8aa035c14c5589ee8a384174624b22ecdaac5baa11a1",
          "blockNumber": "0x40cc3",
          "transactionHash": "0x99d93647bfe6cc8a93b78e8b06f4fab15419456cc2897e94ec05d0502094a2e7",
          "transactionIndex": "0x1",
          "logIndex": "0x2",
          "removed": false
        },
        {
          "address": "0xF968FDE09Cd7B7F67e0B2252F232e189723fEF54",
          "topics": [
            "0x29b8cd3b4433db59dcfbf8ab8ca612f43329533f0c89eb9a07510bf901d28d0e",
            "0x00000000000000000000000009c48ca286972f72b8290c4e1f01cb0ec6185ca0",
            "0x00000000000000000000000008ca4dca530a7c02d7755455aeb24b63a41c8608"
          ],
          "data": "0x000000000000000000000000000000000000000000000000000015948c1c2d80",
          "blockHash": "0x9d68c55475e6d74f489e8aa035c14c5589ee8a384174624b22ecdaac5baa11a1",
          "blockNumber": "0x40cc3",
          "transactionHash": "0x99d93647bfe6cc8a93b78e8b06f4fab15419456cc2897e94ec05d0502094a2e7",
          "transactionIndex": "0x1",
          "logIndex": "0x3",
          "removed": false
        }
      ],
      "status": "0x1",
      "logsBloom": "0x00000000000000000000000008008000000100000000800000000000000000000000000000000000000000000000000000000200000800000000010000000000000000000020000000000008000000000000000000000000000000000000000000000000000000000000000000020400000000000000000000000010000000000000000000000000000000000000000000000000000000000000000000000000000000000000000000000000000000000000000000000020000000000000000000000002000000000000000000000008000000020000000000000000000000000000200000000000000000000000000200000000000000000000000000000000"
    },
    {
      "transactionHash": "0x4083b2975558ba4d12128b406dedac19183260a01494a5557ea977e1362e5f79",
      "transactionIndex": "0x1",
      "blockHash": "0xe48be2a416b74c8ccb2eab60a30031280d009b1a670cab3c859d00792c49d76b",
      "blockNumber": "0x40cc6",
      "from": "0x09C48Ca286972F72B8290C4e1F01CB0eC6185Ca0",
      "to": "0xF968FDE09Cd7B7F67e0B2252F232e189723fEF54",
      "cumulativeGasUsed": "0xe717",
      "gasUsed": "0xe717",
      "contractAddress": null,
      "logs": [
        {
          "address": "0xF968FDE09Cd7B7F67e0B2252F232e189723fEF54",
          "topics": [
            "0xddf252ad1be2c89b69c2b068fc378daa952ba7f163c4a11628f55a4df523b3ef",
            "0x00000000000000000000000009c48ca286972f72b8290c4e1f01cb0ec6185ca0",
            "0x000000000000000000000000cb1d8dbbd067ff81b6083d0dfce6eb2d968f943e"
          ],
          "data": "0x0000000000000000000000000000000000000000000000000de0b6b3a7640000",
          "blockHash": "0x8cae8a63a9f76a7cb9c296a62db6d6d59c745dd7cd51d03c1c498f7fbf73310b",
          "blockNumber": "0x40cc6",
          "transactionHash": "0x4083b2975558ba4d12128b406dedac19183260a01494a5557ea977e1362e5f79",
          "transactionIndex": "0x1",
          "logIndex": "0x1",
          "removed": false
        },
        {
          "address": "0xF968FDE09Cd7B7F67e0B2252F232e189723fEF54",
          "topics": [
            "0xddf252ad1be2c89b69c2b068fc378daa952ba7f163c4a11628f55a4df523b3ef",
            "0x00000000000000000000000009c48ca286972f72b8290c4e1f01cb0ec6185ca0",
            "0x00000000000000000000000008ca4dca530a7c02d7755455aeb24b63a41c8608"
          ],
          "data": "0x00000000000000000000000000000000000000000000000000000ebda92e6d80",
          "blockHash": "0x8cae8a63a9f76a7cb9c296a62db6d6d59c745dd7cd51d03c1c498f7fbf73310b",
          "blockNumber": "0x40cc6",
          "transactionHash": "0x4083b2975558ba4d12128b406dedac19183260a01494a5557ea977e1362e5f79",
          "transactionIndex": "0x1",
          "logIndex": "0x2",
          "removed": false
        },
        {
          "address": "0xF968FDE09Cd7B7F67e0B2252F232e189723fEF54",
          "topics": [
            "0x29b8cd3b4433db59dcfbf8ab8ca612f43329533f0c89eb9a07510bf901d28d0e",
            "0x00000000000000000000000009c48ca286972f72b8290c4e1f01cb0ec6185ca0",
            "0x00000000000000000000000008ca4dca530a7c02d7755455aeb24b63a41c8608"
          ],
          "data": "0x00000000000000000000000000000000000000000000000000000ebda92e6d80",
          "blockHash": "0x8cae8a63a9f76a7cb9c296a62db6d6d59c745dd7cd51d03c1c498f7fbf73310b",
          "blockNumber": "0x40cc6",
          "transactionHash": "0x4083b2975558ba4d12128b406dedac19183260a01494a5557ea977e1362e5f79",
          "transactionIndex": "0x1",
          "logIndex": "0x3",
          "removed": false
        }
      ],
      "status": "0x1",
      "logsBloom": "0x00000000000000000000000008008000000100000000800000000000000000000000000000000000000000000000000000000200000800000000010000000000000000000020000000000008000000000000000000000000000000000000000000000000000000000000000000020400000000000000000000000010000000000000000000000000000000000000000000000000000000000000000000000000000000000000000000000000000000000000000000000020000000000000000000000002000000000000000000000008000000020000000000000000000000000000200000000000000000000000000200000000000000000000000000000000"
    },
    {
      "transactionHash": "0xe6a844b2fe7d94d6b4adaf846df479360b527de1a2f0567af5510d2d4ad12e09",
      "transactionIndex": "0x1",
      "blockHash": "0x930faf8654ea1e50ff2dec87c59900d125d9ae0bf1a21dc794acc0698a957042",
      "blockNumber": "0x40cca",
      "from": "0x09C48Ca286972F72B8290C4e1F01CB0eC6185Ca0",
      "to": "0xF968FDE09Cd7B7F67e0B2252F232e189723fEF54",
      "cumulativeGasUsed": "0x112c0",
      "gasUsed": "0x112c0",
      "contractAddress": null,
      "logs": [
        {
          "address": "0xF968FDE09Cd7B7F67e0B2252F232e189723fEF54",
          "topics": [
            "0x8c5be1e5ebec7d5bd14f71427d1e84f3dd0314c0f7b2291e5b200ac8c7c3b925",
            "0x00000000000000000000000009c48ca286972f72b8290c4e1f01cb0ec6185ca0",
            "0x000000000000000000000000cb1d8dbbd067ff81b6083d0dfce6eb2d968f943e"
          ],
          "data": "0x0000000000000000000000000000000000000000000000000de0b6b3a7640000",
          "blockHash": "0xe10dd408e3ce19e3193fde886c307f52d4b0ead203d710cddec2c43f459a89f2",
          "blockNumber": "0x40cca",
          "transactionHash": "0xe6a844b2fe7d94d6b4adaf846df479360b527de1a2f0567af5510d2d4ad12e09",
          "transactionIndex": "0x1",
          "logIndex": "0x1",
          "removed": false
        },
        {
          "address": "0xF968FDE09Cd7B7F67e0B2252F232e189723fEF54",
          "topics": [
            "0xddf252ad1be2c89b69c2b068fc378daa952ba7f163c4a11628f55a4df523b3ef",
            "0x00000000000000000000000009c48ca286972f72b8290c4e1f01cb0ec6185ca0",
            "0x00000000000000000000000008ca4dca530a7c02d7755455aeb24b63a41c8608"
          ],
          "data": "0x00000000000000000000000000000000000000000000000000001053a8c7db00",
          "blockHash": "0xe10dd408e3ce19e3193fde886c307f52d4b0ead203d710cddec2c43f459a89f2",
          "blockNumber": "0x40cca",
          "transactionHash": "0xe6a844b2fe7d94d6b4adaf846df479360b527de1a2f0567af5510d2d4ad12e09",
          "transactionIndex": "0x1",
          "logIndex": "0x2",
          "removed": false
        },
        {
          "address": "0xF968FDE09Cd7B7F67e0B2252F232e189723fEF54",
          "topics": [
            "0x29b8cd3b4433db59dcfbf8ab8ca612f43329533f0c89eb9a07510bf901d28d0e",
            "0x00000000000000000000000009c48ca286972f72b8290c4e1f01cb0ec6185ca0",
            "0x00000000000000000000000008ca4dca530a7c02d7755455aeb24b63a41c8608"
          ],
          "data": "0x00000000000000000000000000000000000000000000000000001053a8c7db00",
          "blockHash": "0xe10dd408e3ce19e3193fde886c307f52d4b0ead203d710cddec2c43f459a89f2",
          "blockNumber": "0x40cca",
          "transactionHash": "0xe6a844b2fe7d94d6b4adaf846df479360b527de1a2f0567af5510d2d4ad12e09",
          "transactionIndex": "0x1",
          "logIndex": "0x3",
          "removed": false
        }
      ],
      "status": "0x1",
      "logsBloom": "0x00000000000000000000000008008000000100000000800000000000000000000000000000000000000000000000000000000200000800000000010000200000000000000020000000000008000000000000000000000000000000000000000000000000000000000000000000020400000000000000000000000010000000000000000000000000000000000000000000000000000000000000000000000000020000000000000000000000000000000000000000000020000000000000000000000002000000000000000000000008000000020000000000000000000000000010200000000000000000000000000200000000000000000000000000000000"
    },
    {
      "transactionHash": "0x444f67f1fc6b8bced5cc9700e2164aa8cdb747c453d9d16439edab764636f9d5",
      "transactionIndex": "0x1",
      "blockHash": "0x46e99b470cac4dbf188f9c2514ff801d63e873a128a1dfdecbe4efa672858ada",
      "blockNumber": "0x40cce",
      "from": "0x09C48Ca286972F72B8290C4e1F01CB0eC6185Ca0",
      "to": "0xF968FDE09Cd7B7F67e0B2252F232e189723fEF54",
      "cumulativeGasUsed": "0xd828",
      "gasUsed": "0xd828",
      "contractAddress": null,
      "logs": [
        {
          "address": "0xF968FDE09Cd7B7F67e0B2252F232e189723fEF54",
          "topics": [
            "0x8c5be1e5ebec7d5bd14f71427d1e84f3dd0314c0f7b2291e5b200ac8c7c3b925",
            "0x00000000000000000000000009c48ca286972f72b8290c4e1f01cb0ec6185ca0",
            "0x000000000000000000000000cb1d8dbbd067ff81b6083d0dfce6eb2d968f943e"
          ],
          "data": "0x0000000000000000000000000000000000000000000000001bc16d674ec80000",
          "blockHash": "0x6908e904fea640599f120397592596792d7962b1e7858569b429cb97db872179",
          "blockNumber": "0x40cce",
          "transactionHash": "0x444f67f1fc6b8bced5cc9700e2164aa8cdb747c453d9d16439edab764636f9d5",
          "transactionIndex": "0x1",
          "logIndex": "0x1",
          "removed": false
        },
        {
          "address": "0xF968FDE09Cd7B7F67e0B2252F232e189723fEF54",
          "topics": [
            "0xddf252ad1be2c89b69c2b068fc378daa952ba7f163c4a11628f55a4df523b3ef",
            "0x00000000000000000000000009c48ca286972f72b8290c4e1f01cb0ec6185ca0",
            "0x00000000000000000000000008ca4dca530a7c02d7755455aeb24b63a41c8608"
          ],
          "data": "0x00000000000000000000000000000000000000000000000000000cea8b5cdf00",
          "blockHash": "0x6908e904fea640599f120397592596792d7962b1e7858569b429cb97db872179",
          "blockNumber": "0x40cce",
          "transactionHash": "0x444f67f1fc6b8bced5cc9700e2164aa8cdb747c453d9d16439edab764636f9d5",
          "transactionIndex": "0x1",
          "logIndex": "0x2",
          "removed": false
        },
        {
          "address": "0xF968FDE09Cd7B7F67e0B2252F232e189723fEF54",
          "topics": [
            "0x29b8cd3b4433db59dcfbf8ab8ca612f43329533f0c89eb9a07510bf901d28d0e",
            "0x00000000000000000000000009c48ca286972f72b8290c4e1f01cb0ec6185ca0",
            "0x00000000000000000000000008ca4dca530a7c02d7755455aeb24b63a41c8608"
          ],
          "data": "0x00000000000000000000000000000000000000000000000000000cea8b5cdf00",
          "blockHash": "0x6908e904fea640599f120397592596792d7962b1e7858569b429cb97db872179",
          "blockNumber": "0x40cce",
          "transactionHash": "0x444f67f1fc6b8bced5cc9700e2164aa8cdb747c453d9d16439edab764636f9d5",
          "transactionIndex": "0x1",
          "logIndex": "0x3",
          "removed": false
        }
      ],
      "status": "0x1",
      "logsBloom": "0x00000000000000000000000008008000000100000000800000000000000000000000000000000000000000000000000000000200000800000000010000200000000000000020000000000008000000000000000000000000000000000000000000000000000000000000000000020400000000000000000000000010000000000000000000000000000000000000000000000000000000000000000000000000020000000000000000000000000000000000000000000020000000000000000000000002000000000000000000000008000000020000000000000000000000000010200000000000000000000000000200000000000000000000000000000000"
    },
    {
      "transactionHash": "0x88491a13fad7e079cd5ed53aa731b148561038fea657969830d3b908b0144278",
      "transactionIndex": "0x1",
      "blockHash": "0x81ba5e76f49bea3664122c0badb98a68884fa42b937389a95287e496896e9180",
      "blockNumber": "0x40cd1",
      "from": "0x09C48Ca286972F72B8290C4e1F01CB0eC6185Ca0",
      "to": "0xF968FDE09Cd7B7F67e0B2252F232e189723fEF54",
      "cumulativeGasUsed": "0xe026",
      "gasUsed": "0xe026",
      "contractAddress": null,
      "logs": [
        {
          "address": "0xF968FDE09Cd7B7F67e0B2252F232e189723fEF54",
          "topics": [
            "0xddf252ad1be2c89b69c2b068fc378daa952ba7f163c4a11628f55a4df523b3ef",
            "0x00000000000000000000000009c48ca286972f72b8290c4e1f01cb0ec6185ca0",
            "0x0000000000000000000000000000000000000000000000000000000000000000"
          ],
          "data": "0x0000000000000000000000000000000000000000000000000de0b6b3a7640000",
          "blockHash": "0x2f402a381ccecca2234b8e3a3e1d337b296fab4e9d5e6de11364491721e01e83",
          "blockNumber": "0x40cd1",
          "transactionHash": "0x88491a13fad7e079cd5ed53aa731b148561038fea657969830d3b908b0144278",
          "transactionIndex": "0x1",
          "logIndex": "0x1",
          "removed": false
        },
        {
          "address": "0xF968FDE09Cd7B7F67e0B2252F232e189723fEF54",
          "topics": [
            "0xddf252ad1be2c89b69c2b068fc378daa952ba7f163c4a11628f55a4df523b3ef",
            "0x00000000000000000000000009c48ca286972f72b8290c4e1f01cb0ec6185ca0",
            "0x00000000000000000000000008ca4dca530a7c02d7755455aeb24b63a41c8608"
          ],
          "data": "0x00000000000000000000000000000000000000000000000000000eb0bd1fa280",
          "blockHash": "0x2f402a381ccecca2234b8e3a3e1d337b296fab4e9d5e6de11364491721e01e83",
          "blockNumber": "0x40cd1",
          "transactionHash": "0x88491a13fad7e079cd5ed53aa731b148561038fea657969830d3b908b0144278",
          "transactionIndex": "0x1",
          "logIndex": "0x2",
          "removed": false
        },
        {
          "address": "0xF968FDE09Cd7B7F67e0B2252F232e189723fEF54",
          "topics": [
            "0x29b8cd3b4433db59dcfbf8ab8ca612f43329533f0c89eb9a07510bf901d28d0e",
            "0x00000000000000000000000009c48ca286972f72b8290c4e1f01cb0ec6185ca0",
            "0x00000000000000000000000008ca4dca530a7c02d7755455aeb24b63a41c8608"
          ],
          "data": "0x00000000000000000000000000000000000000000000000000000eb0bd1fa280",
          "blockHash": "0x2f402a381ccecca2234b8e3a3e1d337b296fab4e9d5e6de11364491721e01e83",
          "blockNumber": "0x40cd1",
          "transactionHash": "0x88491a13fad7e079cd5ed53aa731b148561038fea657969830d3b908b0144278",
          "transactionIndex": "0x1",
          "logIndex": "0x3",
          "removed": false
        }
      ],
      "status": "0x1",
      "logsBloom": "0x00000000000000000000000008008000000000000000800000000000000000000000000000000000000000000000000000000200000800000000010000000000000000000000000000000008000000000000000000000000000000000000000000000000020000000000000000020c00000000000000000000000010000000000000000000000000000000000000000000000000000000000000000000000000000000000000000000000000000000000000000000000000000000000000000000000002000000000000000000000008000000020000000000000000000020000000200000000000000000000000000200000000000000000000000000000000"
    },
    {
      "transactionHash": "0x0b923d75bdaae46828a5d30a07955f453701e8f166163e2442010398f714501a",
      "transactionIndex": "0x1",
      "blockHash": "0x7eb020425dc7433e37176d8021d0a93f5a9119a92cde6b4c6e0873d66b65e999",
      "blockNumber": "0x40cd5",
      "from": "0x09C48Ca286972F72B8290C4e1F01CB0eC6185Ca0",
      "to": "0xF968FDE09Cd7B7F67e0B2252F232e189723fEF54",
      "cumulativeGasUsed": "0xe026",
      "gasUsed": "0xe026",
      "contractAddress": null,
      "logs": [
        {
          "address": "0xF968FDE09Cd7B7F67e0B2252F232e189723fEF54",
          "topics": [
            "0xddf252ad1be2c89b69c2b068fc378daa952ba7f163c4a11628f55a4df523b3ef",
            "0x00000000000000000000000009c48ca286972f72b8290c4e1f01cb0ec6185ca0",
            "0x0000000000000000000000000000000000000000000000000000000000000000"
          ],
          "data": "0x0000000000000000000000000000000000000000000000000de0b6b3a7640000",
          "blockHash": "0xd038e9ccdbc48fb19f107ca2124e7fef142d6d6f4bf40120f79e32a22359394f",
          "blockNumber": "0x40cd5",
          "transactionHash": "0x0b923d75bdaae46828a5d30a07955f453701e8f166163e2442010398f714501a",
          "transactionIndex": "0x1",
          "logIndex": "0x1",
          "removed": false
        },
        {
          "address": "0xF968FDE09Cd7B7F67e0B2252F232e189723fEF54",
          "topics": [
            "0xddf252ad1be2c89b69c2b068fc378daa952ba7f163c4a11628f55a4df523b3ef",
            "0x00000000000000000000000009c48ca286972f72b8290c4e1f01cb0ec6185ca0",
            "0x00000000000000000000000008ca4dca530a7c02d7755455aeb24b63a41c8608"
          ],
          "data": "0x00000000000000000000000000000000000000000000000000000eb0bd1fa280",
          "blockHash": "0xd038e9ccdbc48fb19f107ca2124e7fef142d6d6f4bf40120f79e32a22359394f",
          "blockNumber": "0x40cd5",
          "transactionHash": "0x0b923d75bdaae46828a5d30a07955f453701e8f166163e2442010398f714501a",
          "transactionIndex": "0x1",
          "logIndex": "0x2",
          "removed": false
        },
        {
          "address": "0xF968FDE09Cd7B7F67e0B2252F232e189723fEF54",
          "topics": [
            "0x29b8cd3b4433db59dcfbf8ab8ca612f43329533f0c89eb9a07510bf901d28d0e",
            "0x00000000000000000000000009c48ca286972f72b8290c4e1f01cb0ec6185ca0",
            "0x00000000000000000000000008ca4dca530a7c02d7755455aeb24b63a41c8608"
          ],
          "data": "0x00000000000000000000000000000000000000000000000000000eb0bd1fa280",
          "blockHash": "0xd038e9ccdbc48fb19f107ca2124e7fef142d6d6f4bf40120f79e32a22359394f",
          "blockNumber": "0x40cd5",
          "transactionHash": "0x0b923d75bdaae46828a5d30a07955f453701e8f166163e2442010398f714501a",
          "transactionIndex": "0x1",
          "logIndex": "0x3",
          "removed": false
        }
      ],
      "status": "0x1",
      "logsBloom": "0x00000000000000000000000008008000000000000000800000000000000000000000000000000000000000000000000000000200000800000000010000000000000000000000000000000008000000000000000000000000000000000000000000000000020000000000000000020c00000000000000000000000010000000000000000000000000000000000000000000000000000000000000000000000000000000000000000000000000000000000000000000000000000000000000000000000002000000000000000000000008000000020000000000000000000020000000200000000000000000000000000200000000000000000000000000000000"
    },
    {
      "transactionHash": "0x5071f27fa0f2c1046369e0619d9aa82758ff88ddfd60b580ed8dbaf30ef42b2e",
      "transactionIndex": "0x1",
      "blockHash": "0xeeeaf599a708b82f85373745bc29c4356842e68ef808b9e24544cd2e4bef31a5",
      "blockNumber": "0x40cd9",
      "from": "0xCb1d8DBBD067fF81B6083d0dFcE6eb2d968f943E",
      "to": "0xF968FDE09Cd7B7F67e0B2252F232e189723fEF54",
      "cumulativeGasUsed": "0x15441",
      "gasUsed": "0x15441",
      "contractAddress": null,
      "logs": [
        {
          "address": "0xF968FDE09Cd7B7F67e0B2252F232e189723fEF54",
          "topics": [
            "0xddf252ad1be2c89b69c2b068fc378daa952ba7f163c4a11628f55a4df523b3ef",
            "0x00000000000000000000000009c48ca286972f72b8290c4e1f01cb0ec6185ca0",
            "0x000000000000000000000000c0a55e2205b289a967823662b841bd67aa362aec"
          ],
          "data": "0x0000000000000000000000000000000000000000000000000de0b6b3a7640000",
          "blockHash": "0x52d9249b03c4320bc22c4d5c760758563c41394a0e724d933087d7b72720de90",
          "blockNumber": "0x40cd9",
          "transactionHash": "0x5071f27fa0f2c1046369e0619d9aa82758ff88ddfd60b580ed8dbaf30ef42b2e",
          "transactionIndex": "0x1",
          "logIndex": "0x1",
          "removed": false
        },
        {
          "address": "0xF968FDE09Cd7B7F67e0B2252F232e189723fEF54",
          "topics": [
            "0xddf252ad1be2c89b69c2b068fc378daa952ba7f163c4a11628f55a4df523b3ef",
            "0x000000000000000000000000cb1d8dbbd067ff81b6083d0dfce6eb2d968f943e",
            "0x00000000000000000000000008ca4dca530a7c02d7755455aeb24b63a41c8608"
          ],
          "data": "0x000000000000000000000000000000000000000000000000000013cd216cc580",
          "blockHash": "0x52d9249b03c4320bc22c4d5c760758563c41394a0e724d933087d7b72720de90",
          "blockNumber": "0x40cd9",
          "transactionHash": "0x5071f27fa0f2c1046369e0619d9aa82758ff88ddfd60b580ed8dbaf30ef42b2e",
          "transactionIndex": "0x1",
          "logIndex": "0x2",
          "removed": false
        },
        {
          "address": "0xF968FDE09Cd7B7F67e0B2252F232e189723fEF54",
          "topics": [
            "0x29b8cd3b4433db59dcfbf8ab8ca612f43329533f0c89eb9a07510bf901d28d0e",
            "0x000000000000000000000000cb1d8dbbd067ff81b6083d0dfce6eb2d968f943e",
            "0x00000000000000000000000008ca4dca530a7c02d7755455aeb24b63a41c8608"
          ],
          "data": "0x000000000000000000000000000000000000000000000000000013cd216cc580",
          "blockHash": "0x52d9249b03c4320bc22c4d5c760758563c41394a0e724d933087d7b72720de90",
          "blockNumber": "0x40cd9",
          "transactionHash": "0x5071f27fa0f2c1046369e0619d9aa82758ff88ddfd60b580ed8dbaf30ef42b2e",
          "transactionIndex": "0x1",
          "logIndex": "0x3",
          "removed": false
        }
      ],
      "status": "0x1",
      "logsBloom": "0x00000000000000000000000008008000000140000000800000000000000000000000000000000000000000000000000000000200000800000000010000000000000000000020000000000008000000000000000000000000000000000000000000000000000000000000000000020400000000000000000000000010000000000000000000000000000000000000000000000000000000000000080000000000000000000000000000000000000000000000000000000020000000000000000000000002000000000000000000000008000000020000000000000000000000000000200000000000000000000000000200000000000000000000000000000000"
    }
  ],
  "libraries": [],
  "pending": [],
  "returns": {},
  "timestamp": 1703523130,
  "chain": 89,
  "multi": false,
  "commit": "be95494"
}