{
  "transactions": [
    {
      "hash": "0x833c1109596087dbfb869ba95889c5ff5c636a5fdedf5e488e4a2c510073c020",
      "transactionType": "CREATE",
      "contractName": "MockVRC25",
      "contractAddress": "0x8BE86967A1818EbCd76b5da12EAA45fa76CA40F3",
      "function": null,
      "arguments": [
        "Test VRC25",
        "TVRC",
        "0"
      ],
      "transaction": {
        "type": "0x00",
        "from": "0x08ca4dca530a7c02d7755455aeb24b63a41c8608",
        "gas": "0x162a1a",
        "value": "0x0",
        "data": "0x6101406040523480156200001257600080fd5b50604051620015eb380380620015eb833981016040819052620000359162000228565b60405180604001604052806005815260200164565243323560d81b815250604051806040016040528060018152602001603160f81b81525084848482828282600590816200008491906200033c565b5060066200009383826200033c565b506007805460ff90921660ff199092169190911790555050600280546001600160a01b031916331790555050825160208085019190912083519184019190912060e08290526101008190529091507f8b73c3c69bb8fe3d512ecc4cf759cc79239f7b179b0ffacaa9a75d522b39400f6200010a4690565b60a09081526040805160208082018590528183018790526060820186905246608083015230828501528251808303909401845260c090910190915281519101206080523060c05261012052506200040895505050505050565b634e487b7160e01b600052604160045260246000fd5b600082601f8301126200018b57600080fd5b81516001600160401b0380821115620001a857620001a862000163565b604051601f8301601f19908116603f01168101908282118183101715620001d357620001d362000163565b81604052838152602092508683858801011115620001f057600080fd5b600091505b83821015620002145785820183015181830184015290820190620001f5565b600093810190920192909252949350505050565b6000806000606084860312156200023e57600080fd5b83516001600160401b03808211156200025657600080fd5b620002648783880162000179565b945060208601519150808211156200027b57600080fd5b506200028a8682870162000179565b925050604084015160ff81168114620002a257600080fd5b809150509250925092565b600181811c90821680620002c257607f821691505b602082108103620002e357634e487b7160e01b600052602260045260246000fd5b50919050565b601f8211156200033757600081815260208120601f850160051c81016020861015620003125750805b601f850160051c820191505b8181101562000333578281556001016200031e565b5050505b505050565b81516001600160401b0381111562000358576200035862000163565b6200037081620003698454620002ad565b84620002e9565b602080601f831160018114620003a857600084156200038f5750858301515b600019600386901b1c1916600185901b17855562000333565b600085815260208120601f198616915b82811015620003d957888601518255948401946001909101908401620003b8565b5085821015620003f85787850151600019600388901b60f8161c191681555b5050505050600190811b01905550565b60805160a05160c05160e05161010051610120516111a5620004466000396000505060005050600050506000505060005050600050506111a56000f3fe608060405234801561001057600080fd5b50600436106101375760003560e01c806340c10f19116100b857806379ba50971161007c57806379ba50971461028a5780638da5cb5b146101b557806395d89b4114610292578063a9059cbb1461029a578063dd62ed3e146102ad578063f2fde38b146102e657600080fd5b806340c10f191461021557806342966c681461022857806369fe0e2d1461023b57806370a082311461024e57806371ee951c1461027757600080fd5b80631d143848116100ff5780631d143848146101b557806323b872dd146101d057806324ec7590146101e357806330e0789e146101eb578063313ce5671461020057600080fd5b806301ffc9a71461013c57806306fdde0314610164578063095ea7b314610179578063127e8e4d1461018c57806318160ddd146101ad575b600080fd5b61014f61014a366004610f36565b6102f9565b60405190151581526020015b60405180910390f35b61016c610330565b60405161015b9190610f60565b61014f610187366004610fc5565b6103c2565b61019f61019a366004610fef565b6103f1565b60405190815260200161015b565b60085461019f565b6002546040516001600160a01b03909116815260200161015b565b61014f6101de366004611008565b610410565b60015461019f565b6101fe6101f9366004611008565b61051e565b005b60075460405160ff909116815260200161015b565b61014f610223366004610fc5565b6106f4565b61014f610236366004610fef565b610734565b6101fe610249366004610fef565b610758565b61019f61025c366004611044565b6001600160a01b031660009081526020819052604090205490565b61019f610285366004610fc5565b6107bd565b6101fe61084c565b61016c610916565b61014f6102a8366004610fc5565b610925565b61019f6102bb36600461105f565b6001600160a01b03918216600090815260046020908152604080832093909416825291909152205490565b6101fe6102f4366004611044565b610a0a565b60006001600160e01b03198216630861786560e01b148061032a5750630861786560e01b6001600160e01b03198316145b92915050565b60606005805461033f90611092565b80601f016020809104026020016040519081016040528092919081815260200182805461036b90611092565b80156103b85780601f1061038d576101008083540402835291602001916103b8565b820191906000526020600020905b81548152906001019060200180831161039b57829003601f168201915b5050505050905090565b6000806103cf60006103f1565b90506103dc338585610ab8565b6103e7333083610bd4565b5060019392505050565b6000333b1561040257506000919050565b61032a82610c4e565b919050565b60008061041c836103f1565b90506104288382610c59565b6001600160a01b0386166000908152600460209081526040808320338452909152902054101561049f5760405162461bcd60e51b815260206004820152601e60248201527f56524332353a20616d6f756e742065786565647320616c6c6f77616e6365000060448201526064015b60405180910390fd5b6001600160a01b03851660009081526004602090815260408083203384529091529020546104d99082906104d39086610cb8565b90610cb8565b6001600160a01b038616600090815260046020908152604080832033845290915290205561050885858561051e565b610513858583610bd4565b506001949350505050565b6001600160a01b0383166105825760405162461bcd60e51b815260206004820152602560248201527f56524332353a207472616e736665722066726f6d20746865207a65726f206164604482015264647265737360d81b6064820152608401610496565b6001600160a01b0382166105e45760405162461bcd60e51b815260206004820152602360248201527f56524332353a207472616e7366657220746f20746865207a65726f206164647260448201526265737360e81b6064820152608401610496565b6001600160a01b0383166000908152602081905260409020548111156106485760405162461bcd60e51b815260206004820152601960248201527856524332353a20696e7375666669656e742062616c616e636560381b6044820152606401610496565b6001600160a01b03831660009081526020819052604090205461066b9082610cb8565b6001600160a01b03808516600090815260208190526040808220939093559084168152205461069a9082610c59565b6001600160a01b038381166000818152602081815260409182902094909455518481529092918616917fddf252ad1be2c89b69c2b068fc378daa952ba7f163c4a11628f55a4df523b3ef91015b60405180910390a3505050565b6002546000906001600160a01b031633146107215760405162461bcd60e51b8152600401610496906110cc565b61072b8383610d14565b50600192915050565b60008061074160006103f1565b905061074d3384610df3565b61072b333083610bd4565b6002546001600160a01b031633146107825760405162461bcd60e51b8152600401610496906110cc565b60018190556040518181527f8c4d35e54a3f2ef1134138fd8ea3daee6a3c89e10d2665996babdf70261e2c769060200160405180910390a150565b6040516370a0823160e01b8152336004820152600090610e6e90839030906370a0823190602401602060405180830381865afa158015610801573d6000803e3d6000fd5b505050506040513d601f19601f820116820180604052508101906108259190611103565b0361084557610838610b8c610e6e611132565b6108429082611132565b90505b9392505050565b6003546001600160a01b031633146108b95760405162461bcd60e51b815260206004820152602a60248201527f56524332353a206f6e6c79206e6577206f776e65722063616e206163636570746044820152690206f776e6572736869760b41b6064820152608401610496565b60028054600380546001600160a01b03198084166001600160a01b038381169182179096559116909155604051929091169182907f8be0079c531659141344cd1fd0a4f28419497f9722a3daafe3b4186f6b6457e090600090a350565b60606006805461033f90611092565b6000805a90506000610936846103f1565b905061094333868661051e565b61094e338683610bd4565b600192505060005a6109609083611132565b905060006109766002546001600160a01b031690565b90506000610988826102853a86611145565b9050600061025f610999858461115c565b6109a3919061115c565b905060006109b13a83611145565b90506109be33858361051e565b6040518181526001600160a01b0385169033907f29b8cd3b4433db59dcfbf8ab8ca612f43329533f0c89eb9a07510bf901d28d0e9060200160405180910390a350505050505092915050565b6002546001600160a01b03163314610a345760405162461bcd60e51b8152600401610496906110cc565b6001600160a01b038116610a965760405162461bcd60e51b8152602060048201526024808201527f56524332353a206e6577206f776e657220697320746865207a65726f206164646044820152637265737360e01b6064820152608401610496565b600380546001600160a01b0319166001600160a01b0392909216919091179055565b6001600160a01b038316610b1a5760405162461bcd60e51b8152602060048201526024808201527f56524332353a20617070726f76652066726f6d20746865207a65726f206164646044820152637265737360e01b6064820152608401610496565b6001600160a01b038216610b7b5760405162461bcd60e51b815260206004820152602260248201527f56524332353a20617070726f766520746f20746865207a65726f206164647265604482015261737360f01b6064820152608401610496565b6001600160a01b0383811660008181526004602090815260408083209487168084529482529182902085905590518481527f8c5be1e5ebec7d5bd14f71427d1e84f3dd0314c0f7b2291e5b200ac8c7c3b92591016106e7565b333b15610be057505050565b8015610c4957600254610bfe9084906001600160a01b03168361051e565b6002546040518281526001600160a01b039182169184811691908616907ffcf5b3276434181e3c48bd3fe569b8939808f11e845d4b963693b9d7dbd6dd999060200160405180910390a45b505050565b600061032a60015490565b600080610c66838561115c565b9050838110156108455760405162461bcd60e51b815260206004820152601b60248201527f536166654d6174683a206164646974696f6e206f766572666c6f7700000000006044820152606401610496565b600082821115610d0a5760405162461bcd60e51b815260206004820152601e60248201527f536166654d6174683a207375627472616374696f6e206f766572666c6f7700006044820152606401610496565b6108458284611132565b6001600160a01b038216610d6a5760405162461bcd60e51b815260206004820152601f60248201527f56524332353a206d696e7420746f20746865207a65726f2061646472657373006044820152606401610496565b600854610d779082610c59565b6008556001600160a01b038216600090815260208190526040902054610d9d9082610c59565b6001600160a01b038316600081815260208181526040808320949094559251848152919290917fddf252ad1be2c89b69c2b068fc378daa952ba7f163c4a11628f55a4df523b3ef91015b60405180910390a35050565b6001600160a01b038216610e535760405162461bcd60e51b815260206004820152602160248201527f56524332353a206275726e2066726f6d20746865207a65726f206164647265736044820152607360f81b6064820152608401610496565b6001600160a01b038216600090815260208190526040902054811115610eb75760405162461bcd60e51b815260206004820152601960248201527856524332353a20696e7375666669656e742062616c616e636560381b6044820152606401610496565b600854610ec49082610cb8565b6008556001600160a01b038216600090815260208190526040902054610eea9082610cb8565b6001600160a01b03831660008181526020818152604080832094909455925184815290927fddf252ad1be2c89b69c2b068fc378daa952ba7f163c4a11628f55a4df523b3ef9101610de7565b600060208284031215610f4857600080fd5b81356001600160e01b03198116811461084557600080fd5b600060208083528351808285015260005b81811015610f8d57858101830151858201604001528201610f71565b506000604082860101526040601f19601f8301168501019250505092915050565b80356001600160a01b038116811461040b57600080fd5b60008060408385031215610fd857600080fd5b610fe183610fae565b946020939093013593505050565b60006020828403121561100157600080fd5b5035919050565b60008060006060848603121561101d57600080fd5b61102684610fae565b925061103460208501610fae565b9150604084013590509250925092565b60006020828403121561105657600080fd5b61084582610fae565b6000806040838503121561107257600080fd5b61107b83610fae565b915061108960208401610fae565b90509250929050565b600181811c908216806110a657607f821691505b6020821081036110c657634e487b7160e01b600052602260045260246000fd5b50919050565b6020808252601e908201527f56524332353a2063616c6c6572206973206e6f7420746865206f776e65720000604082015260600190565b60006020828403121561111557600080fd5b5051919050565b634e487b7160e01b600052601160045260246000fd5b8181038181111561032a5761032a61111c565b808202811582820484141761032a5761032a61111c565b8082018082111561032a5761032a61111c56fea264697066735822122094666e3d52b36a3c4ddd09a30699aadcc6293e62b5f205e275f1eacf7d44aa0164736f6c63430008110033000000000000000000000000000000000000000000000000000000000000006000000000000000000000000000000000000000000000000000000000000000a00000000000000000000000000000000000000000000000000000000000000000000000000000000000000000000000000000000000000000000000000000000a546573742056524332350000000000000000000000000000000000000000000000000000000000000000000000000000000000000000000000000000000000045456524300000000000000000000000000000000000000000000000000000000",
        "nonce": "0x2e"
      },
      "additionalContracts": [],
      "isFixedGasLimit": false
    },
    {
      "hash": "0xdb71cf01ba3ef2ed05c6f650ef4f78d93ce8e83c0dbce5866ba9f16b41ed3f3b",
      "transactionType": "CALL",
      "contractName": "MockVRC25",
      "contractAddress": "0x8BE86967A1818EbCd76b5da12EAA45fa76CA40F3",
      "function": "mint(address,uint256)",
      "arguments": [
        "0x09C48Ca286972F72B8290C4e1F01CB0eC6185Ca0",
        "100"
      ],
      "transaction": {
        "type": "0x00",
        "from": "0x08ca4dca530a7c02d7755455aeb24b63a41c8608",
        "to": "0x8be86967a1818ebcd76b5da12eaa45fa76ca40f3",
        "gas": "0x19407",
        "value": "0x0",
        "data": "0x40c10f1900000000000000000000000009c48ca286972f72b8290c4e1f01cb0ec6185ca00000000000000000000000000000000000000000000000000000000000000064",
        "nonce": "0x2f"
      },
      "additionalContracts": [],
      "isFixedGasLimit": false
    },
    {
      "hash": "0x1f4b4690df5dbcb4aaebdce23eddda634bc3bfe9c1e87e54854a1a34ca6757f1",
      "transactionType": "CALL",
      "contractName": "MockVRC25",
      "contractAddress": "0x8BE86967A1818EbCd76b5da12EAA45fa76CA40F3",
      "function": "mint(address,uint256)",
      "arguments": [
        "0x08cA4DCa530A7c02d7755455AeB24B63A41C8608",
        "100"
      ],
      "transaction": {
        "type": "0x00",
        "from": "0x08ca4dca530a7c02d7755455aeb24b63a41c8608",
        "to": "0x8be86967a1818ebcd76b5da12eaa45fa76ca40f3",
        "gas": "0x12152",
        "value": "0x0",
        "data": "0x40c10f1900000000000000000000000008ca4dca530a7c02d7755455aeb24b63a41c86080000000000000000000000000000000000000000000000000000000000000064",
        "nonce": "0x30"
      },
      "additionalContracts": [],
      "isFixedGasLimit": false
    },
    {
      "hash": "0xc5e849f435b7980eefbf2c68ae39bde7f56b261eb22185fd107c6642c2178dcc",
      "transactionType": "CALL",
      "contractName": "MockVRC25",
      "contractAddress": "0x8BE86967A1818EbCd76b5da12EAA45fa76CA40F3",
      "function": "mint(address,uint256)",
      "arguments": [
        "0x90561e5Cd8025FA6F52d849e8867C14A77C94BA0",
        "100"
      ],
      "transaction": {
        "type": "0x00",
        "from": "0x08ca4dca530a7c02d7755455aeb24b63a41c8608",
        "to": "0x8be86967a1818ebcd76b5da12eaa45fa76ca40f3",
        "gas": "0x12152",
        "value": "0x0",
        "data": "0x40c10f1900000000000000000000000090561e5cd8025fa6f52d849e8867c14a77c94ba00000000000000000000000000000000000000000000000000000000000000064",
        "nonce": "0x31"
      },
      "additionalContracts": [],
      "isFixedGasLimit": false
    },
    {
      "hash": "0xcfa9fb69e791fc383c546d6319466d0839ca6106c56bdbfc1cd2c011c7721800",
      "transactionType": "CALL",
      "contractName": "MockVRC25",
      "contractAddress": "0x8BE86967A1818EbCd76b5da12EAA45fa76CA40F3",
      "function": "_transfer(address,address,uint256)",
      "arguments": [
        "0x09C48Ca286972F72B8290C4e1F01CB0eC6185Ca0",
        "0xCb1d8DBBD067fF81B6083d0dFcE6eb2d968f943E",
        "5"
      ],
      "transaction": {
        "type": "0x00",
        "from": "0x08ca4dca530a7c02d7755455aeb24b63a41c8608",
        "to": "0x8be86967a1818ebcd76b5da12eaa45fa76ca40f3",
        "gas": "0x11a5d",
        "value": "0x0",
        "data": "0x30e0789e00000000000000000000000009c48ca286972f72b8290c4e1f01cb0ec6185ca0000000000000000000000000cb1d8dbbd067ff81b6083d0dfce6eb2d968f943e0000000000000000000000000000000000000000000000000000000000000005",
        "nonce": "0x32"
      },
      "additionalContracts": [],
      "isFixedGasLimit": false
    },
    {
      "hash": "0x40d979431ff0960a08a619622db327a8ec4356c50dd778c43e56be1e506bdf0a",
      "transactionType": "CALL",
      "contractName": "MockVRC25",
      "contractAddress": "0x8BE86967A1818EbCd76b5da12EAA45fa76CA40F3",
      "function": "_transfer(address,address,uint256)",
      "arguments": [
        "0x09C48Ca286972F72B8290C4e1F01CB0eC6185Ca0",
        "0xCb1d8DBBD067fF81B6083d0dFcE6eb2d968f943E",
        "10"
      ],
      "transaction": {
        "type": "0x00",
        "from": "0x08ca4dca530a7c02d7755455aeb24b63a41c8608",
        "to": "0x8be86967a1818ebcd76b5da12eaa45fa76ca40f3",
        "gas": "0xc949",
        "value": "0x0",
        "data": "0x30e0789e00000000000000000000000009c48ca286972f72b8290c4e1f01cb0ec6185ca0000000000000000000000000cb1d8dbbd067ff81b6083d0dfce6eb2d968f943e000000000000000000000000000000000000000000000000000000000000000a",
        "nonce": "0x33"
      },
      "additionalContracts": [],
      "isFixedGasLimit": false
    },
    {
      "hash": "0xfe42ff69b79f9a4cfc899df8c272e031ae4c058cb462e8de7830d142f9b2b92b",
      "transactionType": "CALL",
      "contractName": "MockVRC25",
      "contractAddress": "0x8BE86967A1818EbCd76b5da12EAA45fa76CA40F3",
      "function": "_transfer(address,address,uint256)",
      "arguments": [
        "0x09C48Ca286972F72B8290C4e1F01CB0eC6185Ca0",
        "0xc0A55e2205B289a967823662B841Bd67Aa362Aec",
        "85"
      ],
      "transaction": {
        "type": "0x00",
        "from": "0x08ca4dca530a7c02d7755455aeb24b63a41c8608",
        "to": "0x8be86967a1818ebcd76b5da12eaa45fa76ca40f3",
        "gas": "0x10077",
        "value": "0x0",
        "data": "0x30e0789e00000000000000000000000009c48ca286972f72b8290c4e1f01cb0ec6185ca0000000000000000000000000c0a55e2205b289a967823662b841bd67aa362aec0000000000000000000000000000000000000000000000000000000000000055",
        "nonce": "0x34"
      },
      "additionalContracts": [],
      "isFixedGasLimit": false
    },
    {
      "hash": "0x4a4a1d6fed74d9d537d12efc32cd2fefc1c84213198064d8696323a116eee0d1",
      "transactionType": "CALL",
      "contractName": "MockVRC25",
      "contractAddress": "0x8BE86967A1818EbCd76b5da12EAA45fa76CA40F3",
      "function": "_transfer(address,address,uint256)",
      "arguments": [
        "0x08cA4DCa530A7c02d7755455AeB24B63A41C8608",
        "0x09C48Ca286972F72B8290C4e1F01CB0eC6185Ca0",
        "10"
      ],
      "transaction": {
        "type": "0x00",
        "from": "0x08ca4dca530a7c02d7755455aeb24b63a41c8608",
        "to": "0x8be86967a1818ebcd76b5da12eaa45fa76ca40f3",
        "gas": "0x11a5d",
        "value": "0x0",
        "data": "0x30e0789e00000000000000000000000008ca4dca530a7c02d7755455aeb24b63a41c860800000000000000000000000009c48ca286972f72b8290c4e1f01cb0ec6185ca0000000000000000000000000000000000000000000000000000000000000000a",
        "nonce": "0x35"
      },
      "additionalContracts": [],
      "isFixedGasLimit": false
    },
    {
      "hash": "0x776d7c64d7e8196c12ef7fd51b2832473ccc0425ee4b6a78fef33c4cbfb1c492",
      "transactionType": "CALL",
      "contractName": "MockVRC25",
      "contractAddress": "0x8BE86967A1818EbCd76b5da12EAA45fa76CA40F3",
      "function": "_transfer(address,address,uint256)",
      "arguments": [
        "0x08cA4DCa530A7c02d7755455AeB24B63A41C8608",
        "0x09C48Ca286972F72B8290C4e1F01CB0eC6185Ca0",
        "90"
      ],
      "transaction": {
        "type": "0x00",
        "from": "0x08ca4dca530a7c02d7755455aeb24b63a41c8608",
        "to": "0x8be86967a1818ebcd76b5da12eaa45fa76ca40f3",
        "gas": "0xaddd",
        "value": "0x0",
        "data": "0x30e0789e00000000000000000000000008ca4dca530a7c02d7755455aeb24b63a41c860800000000000000000000000009c48ca286972f72b8290c4e1f01cb0ec6185ca0000000000000000000000000000000000000000000000000000000000000005a",
        "nonce": "0x36"
      },
      "additionalContracts": [],
      "isFixedGasLimit": false
    },
    {
      "hash": "0x7b4844dfd20871ca4613110cde25bfb6cda3b82f60a5cdd90ca0100c5b4fbedf",
      "transactionType": "CALL",
      "contractName": "MockVRC25",
      "contractAddress": "0x8BE86967A1818EbCd76b5da12EAA45fa76CA40F3",
      "function": "_transfer(address,address,uint256)",
      "arguments": [
        "0x90561e5Cd8025FA6F52d849e8867C14A77C94BA0",
        "0x08cA4DCa530A7c02d7755455AeB24B63A41C8608",
        "100"
      ],
      "transaction": {
        "type": "0x00",
        "from": "0x08ca4dca530a7c02d7755455aeb24b63a41c8608",
        "to": "0x8be86967a1818ebcd76b5da12eaa45fa76ca40f3",
        "gas": "0x10077",
        "value": "0x0",
        "data": "0x30e0789e00000000000000000000000090561e5cd8025fa6f52d849e8867c14a77c94ba000000000000000000000000008ca4dca530a7c02d7755455aeb24b63a41c86080000000000000000000000000000000000000000000000000000000000000064",
        "nonce": "0x37"
      },
      "additionalContracts": [],
      "isFixedGasLimit": false
    }
  ],
  "receipts": [
    {
      "transactionHash": "0x833c1109596087dbfb869ba95889c5ff5c636a5fdedf5e488e4a2c510073c020",
      "transactionIndex": "0x1",
      "blockHash": "0x4b717c73a4f5d8d89d64660c1459ff221e494e0b9026d2a36665a12d040ca977",
      "blockNumber": "0x36b53",
      "from": "0x08cA4DCa530A7c02d7755455AeB24B63A41C8608",
      "to": null,
      "cumulativeGasUsed": "0x154ef6",
      "gasUsed": "0x154ef6",
      "contractAddress": "0x8BE86967A1818EbCd76b5da12EAA45fa76CA40F3",
      "logs": [],
      "status": "0x1",
      "logsBloom": "0x00000000000000000000000000000000000000000000000000000000000000000000000000000000000000000000000000000000000000000000000000000000000000000000000000000000000000000000000000000000000000000000000000000000000000000000000000000000000000000000000000000000000000000000000000000000000000000000000000000000000000000000000000000000000000000000000000000000000000000000000000000000000000000000000000000000000000000000000000000000000000000000000000000000000000000000000000000000000000000000000000000000000000000000000000000000"
    },
    {
      "transactionHash": "0xdb71cf01ba3ef2ed05c6f650ef4f78d93ce8e83c0dbce5866ba9f16b41ed3f3b",
      "transactionIndex": "0x2",
      "blockHash": "0x4b717c73a4f5d8d89d64660c1459ff221e494e0b9026d2a36665a12d040ca977",
      "blockNumber": "0x36b53",
      "from": "0x08cA4DCa530A7c02d7755455AeB24B63A41C8608",
      "to": "0x8BE86967A1818EbCd76b5da12EAA45fa76CA40F3",
      "cumulativeGasUsed": "0x165911",
      "gasUsed": "0x10a1b",
      "contractAddress": null,
      "logs": [
        {
          "address": "0x8BE86967A1818EbCd76b5da12EAA45fa76CA40F3",
          "topics": [
            "0xddf252ad1be2c89b69c2b068fc378daa952ba7f163c4a11628f55a4df523b3ef",
            "0x0000000000000000000000000000000000000000000000000000000000000000",
            "0x00000000000000000000000009c48ca286972f72b8290c4e1f01cb0ec6185ca0"
          ],
          "data": "0x0000000000000000000000000000000000000000000000000000000000000064",
          "blockHash": "0x513e79e01caa787cba8c0b95d61559f5c75b9040ec76f299458f285357b0d2a9",
          "blockNumber": "0x36b53",
          "transactionHash": "0xdb71cf01ba3ef2ed05c6f650ef4f78d93ce8e83c0dbce5866ba9f16b41ed3f3b",
          "transactionIndex": "0x2",
          "logIndex": "0x1",
          "removed": false
        }
      ],
      "status": "0x1",
      "logsBloom": "0x00000000020000000000000008000000000000000000000000000000000000000000000000000000000000000000010000000000000000000000000000000000000000000000000000000008000000000000000000000000000000000000000000000000020000000000000000000c00000000000000000000000010000000000000000000000000000000000000000000000000000000000000000000000000000000000000000000000000000000000000000000000000000000000000000000000002000000000004000000000000000000000000000000000000000020000000000000000000000000000000000200000000000000000000000000000000"
    },
    {
      "transactionHash": "0x1f4b4690df5dbcb4aaebdce23eddda634bc3bfe9c1e87e54854a1a34ca6757f1",
      "transactionIndex": "0x3",
      "blockHash": "0x4b717c73a4f5d8d89d64660c1459ff221e494e0b9026d2a36665a12d040ca977",
      "blockNumber": "0x36b53",
      "from": "0x08cA4DCa530A7c02d7755455AeB24B63A41C8608",
      "to": "0x8BE86967A1818EbCd76b5da12EAA45fa76CA40F3",
      "cumulativeGasUsed": "0x172894",
      "gasUsed": "0xcf83",
      "contractAddress": null,
      "logs": [
        {
          "address": "0x8BE86967A1818EbCd76b5da12EAA45fa76CA40F3",
          "topics": [
            "0xddf252ad1be2c89b69c2b068fc378daa952ba7f163c4a11628f55a4df523b3ef",
            "0x0000000000000000000000000000000000000000000000000000000000000000",
            "0x00000000000000000000000008ca4dca530a7c02d7755455aeb24b63a41c8608"
          ],
          "data": "0x0000000000000000000000000000000000000000000000000000000000000064",
          "blockHash": "0x513e79e01caa787cba8c0b95d61559f5c75b9040ec76f299458f285357b0d2a9",
          "blockNumber": "0x36b53",
          "transactionHash": "0x1f4b4690df5dbcb4aaebdce23eddda634bc3bfe9c1e87e54854a1a34ca6757f1",
          "transactionIndex": "0x3",
          "logIndex": "0x2",
          "removed": false
        }
      ],
      "status": "0x1",
      "logsBloom": "0x00000000020000000000000000000000000000000000000000000000000000000000000000000000000000000000010000000000000800000000000000000000000000000000000000000008000000000000000000000000000000000000000000000000020000000000000000000800000000000000000000000010000000000000000000000000000000000000000000000000000000000000000000000000000000000000000000000000000000000000000000000000000000000000000000000002000000000004000000000008000000020000000000000000000020000000000000000000000000000000000000000000000000000000000000000000"
    },
    {
      "transactionHash": "0xc5e849f435b7980eefbf2c68ae39bde7f56b261eb22185fd107c6642c2178dcc",
      "transactionIndex": "0x4",
      "blockHash": "0x4b717c73a4f5d8d89d64660c1459ff221e494e0b9026d2a36665a12d040ca977",
      "blockNumber": "0x36b53",
      "from": "0x08cA4DCa530A7c02d7755455AeB24B63A41C8608",
      "to": "0x8BE86967A1818EbCd76b5da12EAA45fa76CA40F3",
      "cumulativeGasUsed": "0x17f817",
      "gasUsed": "0xcf83",
      "contractAddress": null,
      "logs": [
        {
          "address": "0x8BE86967A1818EbCd76b5da12EAA45fa76CA40F3",
          "topics": [
            "0xddf252ad1be2c89b69c2b068fc378daa952ba7f163c4a11628f55a4df523b3ef",
            "0x0000000000000000000000000000000000000000000000000000000000000000",
            "0x00000000000000000000000090561e5cd8025fa6f52d849e8867c14a77c94ba0"
          ],
          "data": "0x0000000000000000000000000000000000000000000000000000000000000064",
          "blockHash": "0x513e79e01caa787cba8c0b95d61559f5c75b9040ec76f299458f285357b0d2a9",
          "blockNumber": "0x36b53",
          "transactionHash": "0xc5e849f435b7980eefbf2c68ae39bde7f56b261eb22185fd107c6642c2178dcc",
          "transactionIndex": "0x4",
          "logIndex": "0x3",
          "removed": false
        }
      ],
      "status": "0x1",
      "logsBloom": "0x00000000020000000000000000000000000000000000000000000000000000000000000000000000000000000000010000000000000000000000000000000000000000000000000000000008000000000000000000000000000000000000000000000000020000000000000000000800000000000000000000000010000000004000000000000000000000000000000000000000000000000000000000000000000000000000000000000000000040000000000000000000000000000000000000000002000000000004000000000000000000000000000000000000000020000000000000000000000000000000000000000000000000000000000000000080"
    },
    {
      "transactionHash": "0xcfa9fb69e791fc383c546d6319466d0839ca6106c56bdbfc1cd2c011c7721800",
      "transactionIndex": "0x5",
      "blockHash": "0x4b717c73a4f5d8d89d64660c1459ff221e494e0b9026d2a36665a12d040ca977",
      "blockNumber": "0x36b53",
      "from": "0x08cA4DCa530A7c02d7755455AeB24B63A41C8608",
      "to": "0x8BE86967A1818EbCd76b5da12EAA45fa76CA40F3",
      "cumulativeGasUsed": "0x18ce71",
      "gasUsed": "0xd65a",
      "contractAddress": null,
      "logs": [
        {
          "address": "0x8BE86967A1818EbCd76b5da12EAA45fa76CA40F3",
          "topics": [
            "0xddf252ad1be2c89b69c2b068fc378daa952ba7f163c4a11628f55a4df523b3ef",
            "0x00000000000000000000000009c48ca286972f72b8290c4e1f01cb0ec6185ca0",
            "0x000000000000000000000000cb1d8dbbd067ff81b6083d0dfce6eb2d968f943e"
          ],
          "data": "0x0000000000000000000000000000000000000000000000000000000000000005",
          "blockHash": "0x513e79e01caa787cba8c0b95d61559f5c75b9040ec76f299458f285357b0d2a9",
          "blockNumber": "0x36b53",
          "transactionHash": "0xcfa9fb69e791fc383c546d6319466d0839ca6106c56bdbfc1cd2c011c7721800",
          "transactionIndex": "0x5",
          "logIndex": "0x4",
          "removed": false
        }
      ],
      "status": "0x1",
      "logsBloom": "0x00000000020000000000000008000000000100000000000000000000000000000000000000000000000000000000010000000000000000000000000000000000000000000020000000000008000000000000000000000000000000000000000000000000000000000000000000000400000000000000000000000010000000000000000000000000000000000000000000000000000000000000000000000000000000000000000000000000000000000000000000000020000000000000000000000002000000000004000000000000000000000000000000000000000000000000000000000000000000000000000200000000000000000000000000000000"
    },
    {
      "transactionHash": "0x40d979431ff0960a08a619622db327a8ec4356c50dd778c43e56be1e506bdf0a",
      "transactionIndex": "0x6",
      "blockHash": "0x4b717c73a4f5d8d89d64660c1459ff221e494e0b9026d2a36665a12d040ca977",
      "blockNumber": "0x36b53",
      "from": "0x08cA4DCa530A7c02d7755455AeB24B63A41C8608",
      "to": "0x8BE86967A1818EbCd76b5da12EAA45fa76CA40F3",
      "cumulativeGasUsed": "0x196a33",
      "gasUsed": "0x9bc2",
      "contractAddress": null,
      "logs": [
        {
          "address": "0x8BE86967A1818EbCd76b5da12EAA45fa76CA40F3",
          "topics": [
            "0xddf252ad1be2c89b69c2b068fc378daa952ba7f163c4a11628f55a4df523b3ef",
            "0x00000000000000000000000009c48ca286972f72b8290c4e1f01cb0ec6185ca0",
            "0x000000000000000000000000cb1d8dbbd067ff81b6083d0dfce6eb2d968f943e"
          ],
          "data": "0x000000000000000000000000000000000000000000000000000000000000000a",
          "blockHash": "0x513e79e01caa787cba8c0b95d61559f5c75b9040ec76f299458f285357b0d2a9",
          "blockNumber": "0x36b53",
          "transactionHash": "0x40d979431ff0960a08a619622db327a8ec4356c50dd778c43e56be1e506bdf0a",
          "transactionIndex": "0x6",
          "logIndex": "0x5",
          "removed": false
        }
      ],
      "status": "0x1",
      "logsBloom": "0x00000000020000000000000008000000000100000000000000000000000000000000000000000000000000000000010000000000000000000000000000000000000000000020000000000008000000000000000000000000000000000000000000000000000000000000000000000400000000000000000000000010000000000000000000000000000000000000000000000000000000000000000000000000000000000000000000000000000000000000000000000020000000000000000000000002000000000004000000000000000000000000000000000000000000000000000000000000000000000000000200000000000000000000000000000000"
    },
    {
      "transactionHash": "0xfe42ff69b79f9a4cfc899df8c272e031ae4c058cb462e8de7830d142f9b2b92b",
      "transactionIndex": "0x7",
      "blockHash": "0x4b717c73a4f5d8d89d64660c1459ff221e494e0b9026d2a36665a12d040ca977",
      "blockNumber": "0x36b53",
      "from": "0x08cA4DCa530A7c02d7755455AeB24B63A41C8608",
      "to": "0x8BE86967A1818EbCd76b5da12EAA45fa76CA40F3",
      "cumulativeGasUsed": "0x1a05f5",
      "gasUsed": "0x9bc2",
      "contractAddress": null,
      "logs": [
        {
          "address": "0x8BE86967A1818EbCd76b5da12EAA45fa76CA40F3",
          "topics": [
            "0xddf252ad1be2c89b69c2b068fc378daa952ba7f163c4a11628f55a4df523b3ef",
            "0x00000000000000000000000009c48ca286972f72b8290c4e1f01cb0ec6185ca0",
            "0x000000000000000000000000c0a55e2205b289a967823662b841bd67aa362aec"
          ],
          "data": "0x0000000000000000000000000000000000000000000000000000000000000055",
          "blockHash": "0x513e79e01caa787cba8c0b95d61559f5c75b9040ec76f299458f285357b0d2a9",
          "blockNumber": "0x36b53",
          "transactionHash": "0xfe42ff69b79f9a4cfc899df8c272e031ae4c058cb462e8de7830d142f9b2b92b",
          "transactionIndex": "0x7",
          "logIndex": "0x6",
          "removed": false
        }
      ],
      "status": "0x1",
      "logsBloom": "0x00000000020000000000000008000000000040000000000000000000000000000000000000000000000000000000010000000000000800000000000000000000000000000000000000000008000000000000000000000000000000000000000000000000000000000000000000000400000000000000000000000010000000000000000000000000000000000000000000000000000000000000080000000000000000000000000000000000000000000000000000000000000000000000000000000002000000000004000000000000000000000000000000000000000000000000000000000000000000000000000200000000000000000000000000000000"
    },
    {
      "transactionHash": "0x4a4a1d6fed74d9d537d12efc32cd2fefc1c84213198064d8696323a116eee0d1",
      "transactionIndex": "0x8",
      "blockHash": "0x4b717c73a4f5d8d89d64660c1459ff221e494e0b9026d2a36665a12d040ca977",
      "blockNumber": "0x36b53",
      "from": "0x08cA4DCa530A7c02d7755455AeB24B63A41C8608",
      "to": "0x8BE86967A1818EbCd76b5da12EAA45fa76CA40F3",
      "cumulativeGasUsed": "0x1adc4f",
      "gasUsed": "0xd65a",
      "contractAddress": null,
      "logs": [
        {
          "address": "0x8BE86967A1818EbCd76b5da12EAA45fa76CA40F3",
          "topics": [
            "0xddf252ad1be2c89b69c2b068fc378daa952ba7f163c4a11628f55a4df523b3ef",
            "0x00000000000000000000000008ca4dca530a7c02d7755455aeb24b63a41c8608",
            "0x00000000000000000000000009c48ca286972f72b8290c4e1f01cb0ec6185ca0"
          ],
          "data": "0x000000000000000000000000000000000000000000000000000000000000000a",
          "blockHash": "0x513e79e01caa787cba8c0b95d61559f5c75b9040ec76f299458f285357b0d2a9",
          "blockNumber": "0x36b53",
          "transactionHash": "0x4a4a1d6fed74d9d537d12efc32cd2fefc1c84213198064d8696323a116eee0d1",
          "transactionIndex": "0x8",
          "logIndex": "0x7",
          "removed": false
        }
      ],
      "status": "0x1",
      "logsBloom": "0x00000000020000000000000008000000000000000000000000000000000000000000000000000000000000000000010000000000000800000000000000000000000000000000000000000008000000000000000000000000000000000000000000000000000000000000000000000400000000000000000000000010000000000000000000000000000000000000000000000000000000000000000000000000000000000000000000000000000000000000000000000000000000000000000000000002000000000004000000000008000000020000000000000000000000000000000000000000000000000000000200000000000000000000000000000000"
    },
    {
      "transactionHash": "0x776d7c64d7e8196c12ef7fd51b2832473ccc0425ee4b6a78fef33c4cbfb1c492",
      "transactionIndex": "0x9",
      "blockHash": "0x4b717c73a4f5d8d89d64660c1459ff221e494e0b9026d2a36665a12d040ca977",
      "blockNumber": "0x36b53",
      "from": "0x08cA4DCa530A7c02d7755455AeB24B63A41C8608",
      "to": "0x8BE86967A1818EbCd76b5da12EAA45fa76CA40F3",
      "cumulativeGasUsed": "0x1b3d79",
      "gasUsed": "0x612a",
      "contractAddress": null,
      "logs": [
        {
          "address": "0x8BE86967A1818EbCd76b5da12EAA45fa76CA40F3",
          "topics": [
            "0xddf252ad1be2c89b69c2b068fc378daa952ba7f163c4a11628f55a4df523b3ef",
            "0x00000000000000000000000008ca4dca530a7c02d7755455aeb24b63a41c8608",
            "0x00000000000000000000000009c48ca286972f72b8290c4e1f01cb0ec6185ca0"
          ],
          "data": "0x000000000000000000000000000000000000000000000000000000000000005a",
          "blockHash": "0x513e79e01caa787cba8c0b95d61559f5c75b9040ec76f299458f285357b0d2a9",
          "blockNumber": "0x36b53",
          "transactionHash": "0x776d7c64d7e8196c12ef7fd51b2832473ccc0425ee4b6a78fef33c4cbfb1c492",
          "transactionIndex": "0x9",
          "logIndex": "0x8",
          "removed": false
        }
      ],
      "status": "0x1",
      "logsBloom": "0x00000000020000000000000008000000000000000000000000000000000000000000000000000000000000000000010000000000000800000000000000000000000000000000000000000008000000000000000000000000000000000000000000000000000000000000000000000400000000000000000000000010000000000000000000000000000000000000000000000000000000000000000000000000000000000000000000000000000000000000000000000000000000000000000000000002000000000004000000000008000000020000000000000000000000000000000000000000000000000000000200000000000000000000000000000000"
    },
    {
      "transactionHash": "0x7b4844dfd20871ca4613110cde25bfb6cda3b82f60a5cdd90ca0100c5b4fbedf",
      "transactionIndex": "0xa",
      "blockHash": "0x4b717c73a4f5d8d89d64660c1459ff221e494e0b9026d2a36665a12d040ca977",
      "blockNumber": "0x36b53",
      "from": "0x08cA4DCa530A7c02d7755455AeB24B63A41C8608",
      "to": "0x8BE86967A1818EbCd76b5da12EAA45fa76CA40F3",
      "cumulativeGasUsed": "0x1bd93b",
      "gasUsed": "0x9bc2",
      "contractAddress": null,
      "logs": [
        {
          "address": "0x8BE86967A1818EbCd76b5da12EAA45fa76CA40F3",
          "topics": [
            "0xddf252ad1be2c89b69c2b068fc378daa952ba7f163c4a11628f55a4df523b3ef",
            "0x00000000000000000000000090561e5cd8025fa6f52d849e8867c14a77c94ba0",
            "0x00000000000000000000000008ca4dca530a7c02d7755455aeb24b63a41c8608"
          ],
          "data": "0x0000000000000000000000000000000000000000000000000000000000000064",
          "blockHash": "0x513e79e01caa787cba8c0b95d61559f5c75b9040ec76f299458f285357b0d2a9",
          "blockNumber": "0x36b53",
          "transactionHash": "0x7b4844dfd20871ca4613110cde25bfb6cda3b82f60a5cdd90ca0100c5b4fbedf",
          "transactionIndex": "0xa",
          "logIndex": "0x9",
          "removed": false
        }
      ],
      "status": "0x1",
      "logsBloom": "0x00000000020000000000000000000000000000000000000000000000000000000000000000000000000000000000010000000000000800000000000000000000000000000000000000000008000000000000000000000000000000000000000000000000000000000000000000000000000000000000000000000010000000004000000000000000000000000000000000000000000000000000000000000000000000000000000000000000000040000000000000000000000000000000000000000002000000000004000000000008000000020000000000000000000000000000000000000000000000000000000000000000000000000000000000000080"
    }
  ],
  "libraries": [],
  "pending": [],
  "returns": {},
  "timestamp": 1703440432,
  "chain": 89,
  "multi": false,
  "commit": "709cba2"
}