{
  "transactions": [
    {
      "hash": "0x76d8990519320641d06f242965da33cbed5dab6c6daa772a6a93e5bb39ef5946",
      "transactionType": "CREATE",
      "contractName": "MockVRC25",
      "contractAddress": "0x07DCBBd3dD79AD8adA931b184Ba3e5e61366588B",
      "function": null,
      "arguments": [
        "Test VRC25",
        "TVRC",
        "18"
      ],
      "transaction": {
        "type": "0x00",
        "from": "0x08ca4dca530a7c02d7755455aeb24b63a41c8608",
        "gas": "0x17da1a",
        "value": "0x0",
        "data": "0x6101406040523480156200001257600080fd5b506040516200171938038062001719833981016040819052620000359162000228565b60405180604001604052806005815260200164565243323560d81b815250604051806040016040528060018152602001603160f81b81525084848482828282600590816200008491906200033c565b5060066200009383826200033c565b506007805460ff90921660ff199092169190911790555050600280546001600160a01b031916331790555050825160208085019190912083519184019190912060e08290526101008190529091507f8b73c3c69bb8fe3d512ecc4cf759cc79239f7b179b0ffacaa9a75d522b39400f6200010a4690565b60a09081526040805160208082018590528183018790526060820186905246608083015230828501528251808303909401845260c090910190915281519101206080523060c05261012052506200040895505050505050565b634e487b7160e01b600052604160045260246000fd5b600082601f8301126200018b57600080fd5b81516001600160401b0380821115620001a857620001a862000163565b604051601f8301601f19908116603f01168101908282118183101715620001d357620001d362000163565b81604052838152602092508683858801011115620001f057600080fd5b600091505b83821015620002145785820183015181830184015290820190620001f5565b600093810190920192909252949350505050565b6000806000606084860312156200023e57600080fd5b83516001600160401b03808211156200025657600080fd5b620002648783880162000179565b945060208601519150808211156200027b57600080fd5b506200028a8682870162000179565b925050604084015160ff81168114620002a257600080fd5b809150509250925092565b600181811c90821680620002c257607f821691505b602082108103620002e357634e487b7160e01b600052602260045260246000fd5b50919050565b601f8211156200033757600081815260208120601f850160051c81016020861015620003125750805b601f850160051c820191505b8181101562000333578281556001016200031e565b5050505b505050565b81516001600160401b0381111562000358576200035862000163565b6200037081620003698454620002ad565b84620002e9565b602080601f831160018114620003a857600084156200038f5750858301515b600019600386901b1c1916600185901b17855562000333565b600085815260208120601f198616915b82811015620003d957888601518255948401946001909101908401620003b8565b5085821015620003f85787850151600019600388901b60f8161c191681555b5050505050600190811b01905550565b60805160a05160c05160e05161010051610120516112d3620004466000396000505060005050600050506000505060005050600050506112d36000f3fe608060405234801561001057600080fd5b506004361061012c5760003560e01c806342966c68116100ad5780638da5cb5b116100715780638da5cb5b146101aa57806395d89b4114610274578063a9059cbb1461027c578063dd62ed3e1461028f578063f2fde38b146102c857600080fd5b806342966c681461020857806369fe0e2d1461021b57806370a082311461023057806371ee951c1461025957806379ba50971461026c57600080fd5b80631d143848116100f45780631d143848146101aa57806323b872dd146101c557806324ec7590146101d8578063313ce567146101e057806340c10f19146101f557600080fd5b806301ffc9a71461013157806306fdde0314610159578063095ea7b31461016e578063127e8e4d1461018157806318160ddd146101a2575b600080fd5b61014461013f366004611064565b6102db565b60405190151581526020015b60405180910390f35b610161610312565b604051610150919061108e565b61014461017c3660046110f3565b6103a4565b61019461018f36600461111d565b6103d3565b604051908152602001610150565b600854610194565b6002546040516001600160a01b039091168152602001610150565b6101446101d3366004611136565b6103f2565b600154610194565b60075460405160ff9091168152602001610150565b6101446102033660046110f3565b610500565b61014461021636600461111d565b610540565b61022e61022936600461111d565b610636565b005b61019461023e366004611172565b6001600160a01b031660009081526020819052604090205490565b6101946102673660046110f3565b61069b565b61022e61079c565b610161610866565b61014461028a3660046110f3565b610875565b61019461029d36600461118d565b6001600160a01b03918216600090815260046020908152604080832093909416825291909152205490565b61022e6102d6366004611172565b610962565b60006001600160e01b03198216630861786560e01b148061030c5750630861786560e01b6001600160e01b03198316145b92915050565b606060058054610321906111c0565b80601f016020809104026020016040519081016040528092919081815260200182805461034d906111c0565b801561039a5780601f1061036f5761010080835404028352916020019161039a565b820191906000526020600020905b81548152906001019060200180831161037d57829003601f168201915b5050505050905090565b6000806103b160006103d3565b90506103be338585610a10565b6103c9333083610b35565b5060019392505050565b6000333b156103e457506000919050565b61030c82610baf565b919050565b6000806103fe836103d3565b905061040a8382610bba565b6001600160a01b038616600090815260046020908152604080832033845290915290205410156104815760405162461bcd60e51b815260206004820152601e60248201527f56524332353a20616d6f756e742065786565647320616c6c6f77616e6365000060448201526064015b60405180910390fd5b6001600160a01b03851660009081526004602090815260408083203384529091529020546104bb9082906104b59086610c19565b90610c19565b6001600160a01b03861660009081526004602090815260408083203384529091529020556104ea858585610c75565b6104f5858583610b35565b506001949350505050565b6002546000906001600160a01b0316331461052d5760405162461bcd60e51b8152600401610478906111fa565b6105378383610e42565b50600192915050565b6000805a9050600061055260006103d3565b905061055e3385610f21565b610569333083610b35565b6001925050600160006105846002546001600160a01b031690565b905060005a6105939085611247565b905060006105b2833a6105a861a25e8661125a565b610267919061126d565b905060006105c0838361125a565b905060006105ce3a8361126d565b905060006105dc878361126d565b90506105e9338783610c75565b6040518181526001600160a01b0387169033907f29b8cd3b4433db59dcfbf8ab8ca612f43329533f0c89eb9a07510bf901d28d0e9060200160405180910390a35050505050505050919050565b6002546001600160a01b031633146106605760405162461bcd60e51b8152600401610478906111fa565b60018190556040518181527f8c4d35e54a3f2ef1134138fd8ea3daee6a3c89e10d2665996babdf70261e2c769060200160405180910390a150565b6040516370a0823160e01b81526001600160a01b038316600482015260009061a25e9030906370a0823190602401602060405180830381865afa1580156106e6573d6000803e3d6000fd5b505050506040513d601f19601f8201168201806040525081019061070a9190611284565b6000036107205761071d613ae88261125a565b90505b6040516370a0823160e01b8152336004820152839030906370a0823190602401602060405180830381865afa15801561075d573d6000803e3d6000fd5b505050506040513d601f19601f820116820180604052508101906107819190611284565b0361079557610792613a4882611247565b90505b9392505050565b6003546001600160a01b031633146108095760405162461bcd60e51b815260206004820152602a60248201527f56524332353a206f6e6c79206e6577206f776e65722063616e206163636570746044820152690206f776e6572736869760b41b6064820152608401610478565b60028054600380546001600160a01b03198084166001600160a01b038381169182179096559116909155604051929091169182907f8be0079c531659141344cd1fd0a4f28419497f9722a3daafe3b4186f6b6457e090600090a350565b606060068054610321906111c0565b6000805a90506000610886846103d3565b9050610893338686610c75565b61089e338683610b35565b6001925050600160006108b96002546001600160a01b031690565b905060005a6108c89085611247565b905060006108dd833a6105a861a25e8661125a565b905060006108eb838361125a565b905060006108f93a8361126d565b90506000610907878361126d565b9050610914338783610c75565b6040518181526001600160a01b0387169033907f29b8cd3b4433db59dcfbf8ab8ca612f43329533f0c89eb9a07510bf901d28d0e9060200160405180910390a3505050505050505092915050565b6002546001600160a01b0316331461098c5760405162461bcd60e51b8152600401610478906111fa565b6001600160a01b0381166109ee5760405162461bcd60e51b8152602060048201526024808201527f56524332353a206e6577206f776e657220697320746865207a65726f206164646044820152637265737360e01b6064820152608401610478565b600380546001600160a01b0319166001600160a01b0392909216919091179055565b6001600160a01b038316610a725760405162461bcd60e51b8152602060048201526024808201527f56524332353a20617070726f76652066726f6d20746865207a65726f206164646044820152637265737360e01b6064820152608401610478565b6001600160a01b038216610ad35760405162461bcd60e51b815260206004820152602260248201527f56524332353a20617070726f766520746f20746865207a65726f206164647265604482015261737360f01b6064820152608401610478565b6001600160a01b0383811660008181526004602090815260408083209487168084529482529182902085905590518481527f8c5be1e5ebec7d5bd14f71427d1e84f3dd0314c0f7b2291e5b200ac8c7c3b92591015b60405180910390a3505050565b333b15610b4157505050565b8015610baa57600254610b5f9084906001600160a01b031683610c75565b6002546040518281526001600160a01b039182169184811691908616907ffcf5b3276434181e3c48bd3fe569b8939808f11e845d4b963693b9d7dbd6dd999060200160405180910390a45b505050565b600061030c60015490565b600080610bc7838561125a565b9050838110156107955760405162461bcd60e51b815260206004820152601b60248201527f536166654d6174683a206164646974696f6e206f766572666c6f7700000000006044820152606401610478565b600082821115610c6b5760405162461bcd60e51b815260206004820152601e60248201527f536166654d6174683a207375627472616374696f6e206f766572666c6f7700006044820152606401610478565b6107958284611247565b6001600160a01b038316610cd95760405162461bcd60e51b815260206004820152602560248201527f56524332353a207472616e736665722066726f6d20746865207a65726f206164604482015264647265737360d81b6064820152608401610478565b6001600160a01b038216610d3b5760405162461bcd60e51b815260206004820152602360248201527f56524332353a207472616e7366657220746f20746865207a65726f206164647260448201526265737360e81b6064820152608401610478565b6001600160a01b038316600090815260208190526040902054811115610d9f5760405162461bcd60e51b815260206004820152601960248201527856524332353a20696e7375666669656e742062616c616e636560381b6044820152606401610478565b6001600160a01b038316600090815260208190526040902054610dc29082610c19565b6001600160a01b038085166000908152602081905260408082209390935590841681522054610df19082610bba565b6001600160a01b038381166000818152602081815260409182902094909455518481529092918616917fddf252ad1be2c89b69c2b068fc378daa952ba7f163c4a11628f55a4df523b3ef9101610b28565b6001600160a01b038216610e985760405162461bcd60e51b815260206004820152601f60248201527f56524332353a206d696e7420746f20746865207a65726f2061646472657373006044820152606401610478565b600854610ea59082610bba565b6008556001600160a01b038216600090815260208190526040902054610ecb9082610bba565b6001600160a01b038316600081815260208181526040808320949094559251848152919290917fddf252ad1be2c89b69c2b068fc378daa952ba7f163c4a11628f55a4df523b3ef91015b60405180910390a35050565b6001600160a01b038216610f815760405162461bcd60e51b815260206004820152602160248201527f56524332353a206275726e2066726f6d20746865207a65726f206164647265736044820152607360f81b6064820152608401610478565b6001600160a01b038216600090815260208190526040902054811115610fe55760405162461bcd60e51b815260206004820152601960248201527856524332353a20696e7375666669656e742062616c616e636560381b6044820152606401610478565b600854610ff29082610c19565b6008556001600160a01b0382166000908152602081905260409020546110189082610c19565b6001600160a01b03831660008181526020818152604080832094909455925184815290927fddf252ad1be2c89b69c2b068fc378daa952ba7f163c4a11628f55a4df523b3ef9101610f15565b60006020828403121561107657600080fd5b81356001600160e01b03198116811461079557600080fd5b600060208083528351808285015260005b818110156110bb5785810183015185820160400152820161109f565b506000604082860101526040601f19601f8301168501019250505092915050565b80356001600160a01b03811681146103ed57600080fd5b6000806040838503121561110657600080fd5b61110f836110dc565b946020939093013593505050565b60006020828403121561112f57600080fd5b5035919050565b60008060006060848603121561114b57600080fd5b611154846110dc565b9250611162602085016110dc565b9150604084013590509250925092565b60006020828403121561118457600080fd5b610795826110dc565b600080604083850312156111a057600080fd5b6111a9836110dc565b91506111b7602084016110dc565b90509250929050565b600181811c908216806111d457607f821691505b6020821081036111f457634e487b7160e01b600052602260045260246000fd5b50919050565b6020808252601e908201527f56524332353a2063616c6c6572206973206e6f7420746865206f776e65720000604082015260600190565b634e487b7160e01b600052601160045260246000fd5b8181038181111561030c5761030c611231565b8082018082111561030c5761030c611231565b808202811582820484141761030c5761030c611231565b60006020828403121561129657600080fd5b505191905056fea2646970667358221220cfdde079444323be5bb3a876705f1603985c29802284c980546efb0dc2be1ecf64736f6c63430008110033000000000000000000000000000000000000000000000000000000000000006000000000000000000000000000000000000000000000000000000000000000a00000000000000000000000000000000000000000000000000000000000000012000000000000000000000000000000000000000000000000000000000000000a546573742056524332350000000000000000000000000000000000000000000000000000000000000000000000000000000000000000000000000000000000045456524300000000000000000000000000000000000000000000000000000000",
        "nonce": "0x81"
      },
      "additionalContracts": [],
      "isFixedGasLimit": false
    },
    {
      "hash": "0xb91ae1136050bd61dfdc55323a319f010daffa2c084e8ae91ab0a0083c3c6a99",
      "transactionType": "CALL",
      "contractName": null,
      "contractAddress": "0x8c0faeb5C6bEd2129b8674F262Fd45c4e9468bee",
      "function": null,
      "arguments": null,
      "transaction": {
        "type": "0x00",
        "from": "0x08ca4dca530a7c02d7755455aeb24b63a41c8608",
        "to": "0x8c0faeb5c6bed2129b8674f262fd45c4e9468bee",
        "gas": "0x1b421",
        "value": "0x8ac7230489e80000",
        "data": "0xc6b32f3400000000000000000000000007dcbbd3dd79ad8ada931b184ba3e5e61366588b",
        "nonce": "0x82"
      },
      "additionalContracts": [],
      "isFixedGasLimit": false
    },
    {
      "hash": "0x7c41a6666e5d501961fd735a0d452393e8729723b4842a1d9d71cdc3a0947073",
      "transactionType": "CALL",
      "contractName": "MockVRC25",
      "contractAddress": "0x07DCBBd3dD79AD8adA931b184Ba3e5e61366588B",
      "function": "mint(address,uint256)",
      "arguments": [
        "0x09C48Ca286972F72B8290C4e1F01CB0eC6185Ca0",
        "20000000000000000000"
      ],
      "transaction": {
        "type": "0x00",
        "from": "0x08ca4dca530a7c02d7755455aeb24b63a41c8608",
        "to": "0x07dcbbd3dd79ad8ada931b184ba3e5e61366588b",
        "gas": "0x194f1",
        "value": "0x0",
        "data": "0x40c10f1900000000000000000000000009c48ca286972f72b8290c4e1f01cb0ec6185ca0000000000000000000000000000000000000000000000001158e460913d00000",
        "nonce": "0x83"
      },
      "additionalContracts": [],
      "isFixedGasLimit": false
    },
    {
      "hash": "0xe2118abe9dce6f835c9304bedec5ddbc9dc9350a0fd542861916b668bfa1565f",
      "transactionType": "CALL",
      "contractName": "MockVRC25",
      "contractAddress": "0x07DCBBd3dD79AD8adA931b184Ba3e5e61366588B",
      "function": "transfer(address,uint256)",
      "arguments": [
        "0xCb1d8DBBD067fF81B6083d0dFcE6eb2d968f943E",
        "5000000000000000000"
      ],
      "transaction": {
        "type": "0x00",
        "from": "0x09c48ca286972f72b8290c4e1f01cb0ec6185ca0",
        "to": "0x07dcbbd3dd79ad8ada931b184ba3e5e61366588b",
        "gas": "0x17b28",
        "value": "0x0",
        "data": "0xa9059cbb000000000000000000000000cb1d8dbbd067ff81b6083d0dfce6eb2d968f943e0000000000000000000000000000000000000000000000004563918244f40000",
        "nonce": "0x1c"
      },
      "additionalContracts": [],
      "isFixedGasLimit": false
    },
    {
      "hash": "0x2c1b416a4f3632768f32184b8de2bebf54ac377075feceedd10e2eb9ad76982b",
      "transactionType": "CALL",
      "contractName": "MockVRC25",
      "contractAddress": "0x07DCBBd3dD79AD8adA931b184Ba3e5e61366588B",
      "function": "transfer(address,uint256)",
      "arguments": [
        "0xCb1d8DBBD067fF81B6083d0dFcE6eb2d968f943E",
        "3000000000000000000"
      ],
      "transaction": {
        "type": "0x00",
        "from": "0x09c48ca286972f72b8290c4e1f01cb0ec6185ca0",
        "to": "0x07dcbbd3dd79ad8ada931b184ba3e5e61366588b",
        "gas": "0x109d4",
        "value": "0x0",
        "data": "0xa9059cbb000000000000000000000000cb1d8dbbd067ff81b6083d0dfce6eb2d968f943e00000000000000000000000000000000000000000000000029a2241af62c0000",
        "nonce": "0x1d"
      },
      "additionalContracts": [],
      "isFixedGasLimit": false
    },
    {
      "hash": "0x9769a456945416174e325cbc5cc54bdb9277217dc3354824599c78989293bff0",
      "transactionType": "CALL",
      "contractName": "MockVRC25",
      "contractAddress": "0x07DCBBd3dD79AD8adA931b184Ba3e5e61366588B",
      "function": "burn(uint256)",
      "arguments": [
        "5000000000000000000"
      ],
      "transaction": {
        "type": "0x00",
        "from": "0x09c48ca286972f72b8290c4e1f01cb0ec6185ca0",
        "to": "0x07dcbbd3dd79ad8ada931b184ba3e5e61366588b",
        "gas": "0x11540",
        "value": "0x0",
        "data": "0x42966c680000000000000000000000000000000000000000000000004563918244f40000",
        "nonce": "0x1e"
      },
      "additionalContracts": [],
      "isFixedGasLimit": false
    },
    {
      "hash": "0x054d4d4c6bcbc8f5dc458183b0c60b8f7194e99ef5cfb464970b9533825332ec",
      "transactionType": "CALL",
      "contractName": "MockVRC25",
      "contractAddress": "0x07DCBBd3dD79AD8adA931b184Ba3e5e61366588B",
      "function": "burn(uint256)",
      "arguments": [
        "3000000000000000000"
      ],
      "transaction": {
        "type": "0x00",
        "from": "0x09c48ca286972f72b8290c4e1f01cb0ec6185ca0",
        "to": "0x07dcbbd3dd79ad8ada931b184ba3e5e61366588b",
        "gas": "0x11540",
        "value": "0x0",
        "data": "0x42966c6800000000000000000000000000000000000000000000000029a2241af62c0000",
        "nonce": "0x1f"
      },
      "additionalContracts": [],
      "isFixedGasLimit": false
    }
  ],
  "receipts": [
    {
      "transactionHash": "0x76d8990519320641d06f242965da33cbed5dab6c6daa772a6a93e5bb39ef5946",
      "transactionIndex": "0x1",
      "blockHash": "0xcaa651a9311f33c6e74802efca71ebe00128c9e4a1122484168bd79b67ea25b9",
      "blockNumber": "0x3b1ef",
      "from": "0x08cA4DCa530A7c02d7755455AeB24B63A41C8608",
      "to": null,
      "cumulativeGasUsed": "0x16d3d9",
      "gasUsed": "0x16d3d9",
      "contractAddress": "0x07DCBBd3dD79AD8adA931b184Ba3e5e61366588B",
      "logs": [],
      "status": "0x1",
      "logsBloom": "0x00000000000000000000000000000000000000000000000000000000000000000000000000000000000000000000000000000000000000000000000000000000000000000000000000000000000000000000000000000000000000000000000000000000000000000000000000000000000000000000000000000000000000000000000000000000000000000000000000000000000000000000000000000000000000000000000000000000000000000000000000000000000000000000000000000000000000000000000000000000000000000000000000000000000000000000000000000000000000000000000000000000000000000000000000000000"
    },
    {
      "transactionHash": "0xb91ae1136050bd61dfdc55323a319f010daffa2c084e8ae91ab0a0083c3c6a99",
      "transactionIndex": "0x1",
      "blockHash": "0xd9ad78fbb2648574e7d776b0324290d07a43c6ca09740b54c65e0a65c4f7835c",
      "blockNumber": "0x3b1f3",
      "from": "0x08cA4DCa530A7c02d7755455AeB24B63A41C8608",
      "to": "0x8c0faeb5C6bEd2129b8674F262Fd45c4e9468bee",
      "cumulativeGasUsed": "0x12a5c",
      "gasUsed": "0x12a5c",
      "contractAddress": null,
      "logs": [
        {
          "address": "0x8c0faeb5C6bEd2129b8674F262Fd45c4e9468bee",
          "topics": [
            "0x2d485624158277d5113a56388c3abf5c20e3511dd112123ba376d16b21e4d716",
            "0x00000000000000000000000008ca4dca530a7c02d7755455aeb24b63a41c8608",
            "0x00000000000000000000000007dcbbd3dd79ad8ada931b184ba3e5e61366588b"
          ],
          "data": "0x0000000000000000000000000000000000000000000000008ac7230489e80000",
          "blockHash": "0x1f6621c3133d85622774f3b7c58cc5e31d9fb972962fb8f834ce19aa2d225ea7",
          "blockNumber": "0x3b1f3",
          "transactionHash": "0xb91ae1136050bd61dfdc55323a319f010daffa2c084e8ae91ab0a0083c3c6a99",
          "transactionIndex": "0x1",
          "logIndex": "0x1",
          "removed": false
        }
      ],
      "status": "0x1",
      "logsBloom": "0x00000000000000000000000000000000000000000000000000000000000000000000000000000000000000000000000000000000000800000000000000000000002000000000000000000000000000000000000000000000000000000000000000000000000000000000000000000000000000000000000000000000000000000000800000002000000010000000200000000000400000000000000000000000000000000000000000000000000000000000000000000000020000010000000000000000000000000000000000000008000000020000000000000000000000000000000000000000000000000000000000000000000000000000000000000000"
    },
    {
      "transactionHash": "0x7c41a6666e5d501961fd735a0d452393e8729723b4842a1d9d71cdc3a0947073",
      "transactionIndex": "0x1",
      "blockHash": "0xd21fe1f045c8c2e6ce170157fe4fb49c6b944f1a59eaefdf6bc883ba51053b5d",
      "blockNumber": "0x3b1f7",
      "from": "0x08cA4DCa530A7c02d7755455AeB24B63A41C8608",
      "to": "0x07DCBBd3dD79AD8adA931b184Ba3e5e61366588B",
      "cumulativeGasUsed": "0x10bf3",
      "gasUsed": "0x10bf3",
      "contractAddress": null,
      "logs": [
        {
          "address": "0x07DCBBd3dD79AD8adA931b184Ba3e5e61366588B",
          "topics": [
            "0xddf252ad1be2c89b69c2b068fc378daa952ba7f163c4a11628f55a4df523b3ef",
            "0x0000000000000000000000000000000000000000000000000000000000000000",
            "0x00000000000000000000000009c48ca286972f72b8290c4e1f01cb0ec6185ca0"
          ],
          "data": "0x000000000000000000000000000000000000000000000001158e460913d00000",
          "blockHash": "0xeae3bea0b594dadd527818d5e0c82b9cd23a0c1d4319562aa9e92b7c8e281e02",
          "blockNumber": "0x3b1f7",
          "transactionHash": "0x7c41a6666e5d501961fd735a0d452393e8729723b4842a1d9d71cdc3a0947073",
          "transactionIndex": "0x1",
          "logIndex": "0x1",
          "removed": false
        }
      ],
      "status": "0x1",
      "logsBloom": "0x00000000000000000000000008000000000000000000000000000200000000000000000000000000000000000000000000000000000000000000000000000000000000000000000000000008000000000000020000000000000000000000800000000000020000000000000000000c00000000000000000000000010000000000000000000000000000000000000000000000000000000000000000000000000000000000000000000000000000000000000000000000000000000000000000000000002000000000000000000000000000000000000000000000000000020000000000000000000000000000000000200000000000000000000000000000000"
    },
    {
      "transactionHash": "0xe2118abe9dce6f835c9304bedec5ddbc9dc9350a0fd542861916b668bfa1565f",
      "transactionIndex": "0x1",
      "blockHash": "0x6cc2ec53c7aab54ca83cc4c60708ee976c1276d865f5e7b091849b08bbab5946",
      "blockNumber": "0x3b1fb",
      "from": "0x09C48Ca286972F72B8290C4e1F01CB0eC6185Ca0",
      "to": "0x07DCBBd3dD79AD8adA931b184Ba3e5e61366588B",
      "cumulativeGasUsed": "0x15fad",
      "gasUsed": "0x15fad",
      "contractAddress": null,
      "logs": [
        {
          "address": "0x07DCBBd3dD79AD8adA931b184Ba3e5e61366588B",
          "topics": [
            "0xddf252ad1be2c89b69c2b068fc378daa952ba7f163c4a11628f55a4df523b3ef",
            "0x00000000000000000000000009c48ca286972f72b8290c4e1f01cb0ec6185ca0",
            "0x000000000000000000000000cb1d8dbbd067ff81b6083d0dfce6eb2d968f943e"
          ],
          "data": "0x0000000000000000000000000000000000000000000000004563918244f40000",
          "blockHash": "0x403731fd456cd0aafd5de2e81cdd02dc87a684971e5eadbf88f63901c9ea60b2",
          "blockNumber": "0x3b1fb",
          "transactionHash": "0xe2118abe9dce6f835c9304bedec5ddbc9dc9350a0fd542861916b668bfa1565f",
          "transactionIndex": "0x1",
          "logIndex": "0x1",
          "removed": false
        },
        {
          "address": "0x07DCBBd3dD79AD8adA931b184Ba3e5e61366588B",
          "topics": [
            "0xddf252ad1be2c89b69c2b068fc378daa952ba7f163c4a11628f55a4df523b3ef",
            "0x00000000000000000000000009c48ca286972f72b8290c4e1f01cb0ec6185ca0",
            "0x00000000000000000000000008ca4dca530a7c02d7755455aeb24b63a41c8608"
          ],
          "data": "0x00000000000000000000000000000000000000000000000000001478f5a71980",
          "blockHash": "0x403731fd456cd0aafd5de2e81cdd02dc87a684971e5eadbf88f63901c9ea60b2",
          "blockNumber": "0x3b1fb",
          "transactionHash": "0xe2118abe9dce6f835c9304bedec5ddbc9dc9350a0fd542861916b668bfa1565f",
          "transactionIndex": "0x1",
          "logIndex": "0x2",
          "removed": false
        },
        {
          "address": "0x07DCBBd3dD79AD8adA931b184Ba3e5e61366588B",
          "topics": [
            "0x29b8cd3b4433db59dcfbf8ab8ca612f43329533f0c89eb9a07510bf901d28d0e",
            "0x00000000000000000000000009c48ca286972f72b8290c4e1f01cb0ec6185ca0",
            "0x00000000000000000000000008ca4dca530a7c02d7755455aeb24b63a41c8608"
          ],
          "data": "0x00000000000000000000000000000000000000000000000000001478f5a71980",
          "blockHash": "0x403731fd456cd0aafd5de2e81cdd02dc87a684971e5eadbf88f63901c9ea60b2",
          "blockNumber": "0x3b1fb",
          "transactionHash": "0xe2118abe9dce6f835c9304bedec5ddbc9dc9350a0fd542861916b668bfa1565f",
          "transactionIndex": "0x1",
          "logIndex": "0x3",
          "removed": false
        }
      ],
      "status": "0x1",
      "logsBloom": "0x00000000000000000000000008008000000100000000000000000200000000000000000000000000000000000000000000000000000800000000000000000000000000000020000000000008000000000000020000000000000000000000800000000000000000000000000000020400000000000000000000000010000000000000000000000000000000000000000000000000000000000000000000000000000000000000000000000000000000000000000000000020000000000000000000000002000000000000000000000008000000020000000000000000000000000000200000000000000000000000000200000000000000000000000000000000"
    },
    {
      "transactionHash": "0x2c1b416a4f3632768f32184b8de2bebf54ac377075feceedd10e2eb9ad76982b",
      "transactionIndex": "0x1",
      "blockHash": "0x9311bb71e3c21b9a70af0490ebb20194f0560364e447bbdce4ceb53f82f4192f",
      "blockNumber": "0x3b1fe",
      "from": "0x09C48Ca286972F72B8290C4e1F01CB0eC6185Ca0",
      "to": "0x07DCBBd3dD79AD8adA931b184Ba3e5e61366588B",
      "cumulativeGasUsed": "0xea2d",
      "gasUsed": "0xea2d",
      "contractAddress": null,
      "logs": [
        {
          "address": "0x07DCBBd3dD79AD8adA931b184Ba3e5e61366588B",
          "topics": [
            "0xddf252ad1be2c89b69c2b068fc378daa952ba7f163c4a11628f55a4df523b3ef",
            "0x00000000000000000000000009c48ca286972f72b8290c4e1f01cb0ec6185ca0",
            "0x000000000000000000000000cb1d8dbbd067ff81b6083d0dfce6eb2d968f943e"
          ],
          "data": "0x00000000000000000000000000000000000000000000000029a2241af62c0000",
          "blockHash": "0xf71a704336580cec85ffb1676819038127ee5345ab999c71b034e3ded71453b0",
          "blockNumber": "0x3b1fe",
          "transactionHash": "0x2c1b416a4f3632768f32184b8de2bebf54ac377075feceedd10e2eb9ad76982b",
          "transactionIndex": "0x1",
          "logIndex": "0x1",
          "removed": false
        },
        {
          "address": "0x07DCBBd3dD79AD8adA931b184Ba3e5e61366588B",
          "topics": [
            "0xddf252ad1be2c89b69c2b068fc378daa952ba7f163c4a11628f55a4df523b3ef",
            "0x00000000000000000000000009c48ca286972f72b8290c4e1f01cb0ec6185ca0",
            "0x00000000000000000000000008ca4dca530a7c02d7755455aeb24b63a41c8608"
          ],
          "data": "0x00000000000000000000000000000000000000000000000000000da212b95980",
          "blockHash": "0xf71a704336580cec85ffb1676819038127ee5345ab999c71b034e3ded71453b0",
          "blockNumber": "0x3b1fe",
          "transactionHash": "0x2c1b416a4f3632768f32184b8de2bebf54ac377075feceedd10e2eb9ad76982b",
          "transactionIndex": "0x1",
          "logIndex": "0x2",
          "removed": false
        },
        {
          "address": "0x07DCBBd3dD79AD8adA931b184Ba3e5e61366588B",
          "topics": [
            "0x29b8cd3b4433db59dcfbf8ab8ca612f43329533f0c89eb9a07510bf901d28d0e",
            "0x00000000000000000000000009c48ca286972f72b8290c4e1f01cb0ec6185ca0",
            "0x00000000000000000000000008ca4dca530a7c02d7755455aeb24b63a41c8608"
          ],
          "data": "0x00000000000000000000000000000000000000000000000000000da212b95980",
          "blockHash": "0xf71a704336580cec85ffb1676819038127ee5345ab999c71b034e3ded71453b0",
          "blockNumber": "0x3b1fe",
          "transactionHash": "0x2c1b416a4f3632768f32184b8de2bebf54ac377075feceedd10e2eb9ad76982b",
          "transactionIndex": "0x1",
          "logIndex": "0x3",
          "removed": false
        }
      ],
      "status": "0x1",
      "logsBloom": "0x00000000000000000000000008008000000100000000000000000200000000000000000000000000000000000000000000000000000800000000000000000000000000000020000000000008000000000000020000000000000000000000800000000000000000000000000000020400000000000000000000000010000000000000000000000000000000000000000000000000000000000000000000000000000000000000000000000000000000000000000000000020000000000000000000000002000000000000000000000008000000020000000000000000000000000000200000000000000000000000000200000000000000000000000000000000"
    },
    {
      "transactionHash": "0x9769a456945416174e325cbc5cc54bdb9277217dc3354824599c78989293bff0",
      "transactionIndex": "0x1",
      "blockHash": "0xea1ae57e9d8c0bb73154dd6ec1c62f56871bb2ff7f74bcc8b5ef145284823039",
      "blockNumber": "0x3b202",
      "from": "0x09C48Ca286972F72B8290C4e1F01CB0eC6185Ca0",
      "to": "0x07DCBBd3dD79AD8adA931b184Ba3e5e61366588B",
      "cumulativeGasUsed": "0xe33b",
      "gasUsed": "0xe33b",
      "contractAddress": null,
      "logs": [
        {
          "address": "0x07DCBBd3dD79AD8adA931b184Ba3e5e61366588B",
          "topics": [
            "0xddf252ad1be2c89b69c2b068fc378daa952ba7f163c4a11628f55a4df523b3ef",
            "0x00000000000000000000000009c48ca286972f72b8290c4e1f01cb0ec6185ca0",
            "0x0000000000000000000000000000000000000000000000000000000000000000"
          ],
          "data": "0x0000000000000000000000000000000000000000000000004563918244f40000",
          "blockHash": "0x47b7d056b52d1d16db23510f556cc0ca02df68c96db444119271ace96293ce22",
          "blockNumber": "0x3b202",
          "transactionHash": "0x9769a456945416174e325cbc5cc54bdb9277217dc3354824599c78989293bff0",
          "transactionIndex": "0x1",
          "logIndex": "0x1",
          "removed": false
        },
        {
          "address": "0x07DCBBd3dD79AD8adA931b184Ba3e5e61366588B",
          "topics": [
            "0xddf252ad1be2c89b69c2b068fc378daa952ba7f163c4a11628f55a4df523b3ef",
            "0x00000000000000000000000009c48ca286972f72b8290c4e1f01cb0ec6185ca0",
            "0x00000000000000000000000008ca4dca530a7c02d7755455aeb24b63a41c8608"
          ],
          "data": "0x00000000000000000000000000000000000000000000000000000d9517c3dc00",
          "blockHash": "0x47b7d056b52d1d16db23510f556cc0ca02df68c96db444119271ace96293ce22",
          "blockNumber": "0x3b202",
          "transactionHash": "0x9769a456945416174e325cbc5cc54bdb9277217dc3354824599c78989293bff0",
          "transactionIndex": "0x1",
          "logIndex": "0x2",
          "removed": false
        },
        {
          "address": "0x07DCBBd3dD79AD8adA931b184Ba3e5e61366588B",
          "topics": [
            "0x29b8cd3b4433db59dcfbf8ab8ca612f43329533f0c89eb9a07510bf901d28d0e",
            "0x00000000000000000000000009c48ca286972f72b8290c4e1f01cb0ec6185ca0",
            "0x00000000000000000000000008ca4dca530a7c02d7755455aeb24b63a41c8608"
          ],
          "data": "0x00000000000000000000000000000000000000000000000000000d9517c3dc00",
          "blockHash": "0x47b7d056b52d1d16db23510f556cc0ca02df68c96db444119271ace96293ce22",
          "blockNumber": "0x3b202",
          "transactionHash": "0x9769a456945416174e325cbc5cc54bdb9277217dc3354824599c78989293bff0",
          "transactionIndex": "0x1",
          "logIndex": "0x3",
          "removed": false
        }
      ],
      "status": "0x1",
      "logsBloom": "0x00000000000000000000000008008000000000000000000000000200000000000000000000000000000000000000000000000000000800000000000000000000000000000000000000000008000000000000020000000000000000000000800000000000020000000000000000020c00000000000000000000000010000000000000000000000000000000000000000000000000000000000000000000000000000000000000000000000000000000000000000000000000000000000000000000000002000000000000000000000008000000020000000000000000000020000000200000000000000000000000000200000000000000000000000000000000"
    },
    {
      "transactionHash": "0x054d4d4c6bcbc8f5dc458183b0c60b8f7194e99ef5cfb464970b9533825332ec",
      "transactionIndex": "0x1",
      "blockHash": "0x0fac3a43b38b256a9b81cac49ae6b94e9db87a7778f76b93f5cc071f811e261f",
      "blockNumber": "0x3b206",
      "from": "0x09C48Ca286972F72B8290C4e1F01CB0eC6185Ca0",
      "to": "0x07DCBBd3dD79AD8adA931b184Ba3e5e61366588B",
      "cumulativeGasUsed": "0xe33b",
      "gasUsed": "0xe33b",
      "contractAddress": null,
      "logs": [
        {
          "address": "0x07DCBBd3dD79AD8adA931b184Ba3e5e61366588B",
          "topics": [
            "0xddf252ad1be2c89b69c2b068fc378daa952ba7f163c4a11628f55a4df523b3ef",
            "0x00000000000000000000000009c48ca286972f72b8290c4e1f01cb0ec6185ca0",
            "0x0000000000000000000000000000000000000000000000000000000000000000"
          ],
          "data": "0x00000000000000000000000000000000000000000000000029a2241af62c0000",
          "blockHash": "0xc7f0e0c633a422a6e9a3c4b1e765d3280757c25ce506a7eaf51db13a79fae499",
          "blockNumber": "0x3b206",
          "transactionHash": "0x054d4d4c6bcbc8f5dc458183b0c60b8f7194e99ef5cfb464970b9533825332ec",
          "transactionIndex": "0x1",
          "logIndex": "0x1",
          "removed": false
        },
        {
          "address": "0x07DCBBd3dD79AD8adA931b184Ba3e5e61366588B",
          "topics": [
            "0xddf252ad1be2c89b69c2b068fc378daa952ba7f163c4a11628f55a4df523b3ef",
            "0x00000000000000000000000009c48ca286972f72b8290c4e1f01cb0ec6185ca0",
            "0x00000000000000000000000008ca4dca530a7c02d7755455aeb24b63a41c8608"
          ],
          "data": "0x00000000000000000000000000000000000000000000000000000d9517c3dc00",
          "blockHash": "0xc7f0e0c633a422a6e9a3c4b1e765d3280757c25ce506a7eaf51db13a79fae499",
          "blockNumber": "0x3b206",
          "transactionHash": "0x054d4d4c6bcbc8f5dc458183b0c60b8f7194e99ef5cfb464970b9533825332ec",
          "transactionIndex": "0x1",
          "logIndex": "0x2",
          "removed": false
        },
        {
          "address": "0x07DCBBd3dD79AD8adA931b184Ba3e5e61366588B",
          "topics": [
            "0x29b8cd3b4433db59dcfbf8ab8ca612f43329533f0c89eb9a07510bf901d28d0e",
            "0x00000000000000000000000009c48ca286972f72b8290c4e1f01cb0ec6185ca0",
            "0x00000000000000000000000008ca4dca530a7c02d7755455aeb24b63a41c8608"
          ],
          "data": "0x00000000000000000000000000000000000000000000000000000d9517c3dc00",
          "blockHash": "0xc7f0e0c633a422a6e9a3c4b1e765d3280757c25ce506a7eaf51db13a79fae499",
          "blockNumber": "0x3b206",
          "transactionHash": "0x054d4d4c6bcbc8f5dc458183b0c60b8f7194e99ef5cfb464970b9533825332ec",
          "transactionIndex": "0x1",
          "logIndex": "0x3",
          "removed": false
        }
      ],
      "status": "0x1",
      "logsBloom": "0x00000000000000000000000008008000000000000000000000000200000000000000000000000000000000000000000000000000000800000000000000000000000000000000000000000008000000000000020000000000000000000000800000000000020000000000000000020c00000000000000000000000010000000000000000000000000000000000000000000000000000000000000000000000000000000000000000000000000000000000000000000000000000000000000000000000002000000000000000000000008000000020000000000000000000020000000200000000000000000000000000200000000000000000000000000000000"
    }
  ],
  "libraries": [],
  "pending": [],
  "returns": {},
  "timestamp": 1703476629,
  "chain": 89,
  "multi": false,
  "commit": "709cba2"
}