{
  "transactions": [
    {
      "hash": "0x3cff942320f22b0bad351e40bbc495467e2fc3f6b302a1e0d94fe658d04a94e1",
      "transactionType": "CREATE",
      "contractName": "MockVRC25",
      "contractAddress": "0x4c7B9CDD46E7a4dd94514418F942d25F646E9c98",
      "function": null,
      "arguments": [
        "Test VRC25",
        "TVRC",
        "18"
      ],
      "transaction": {
        "type": "0x00",
        "from": "0x08ca4dca530a7c02d7755455aeb24b63a41c8608",
        "gas": "0x16f0a9",
        "value": "0x0",
        "data": "0x6101406040523480156200001257600080fd5b506040516200164438038062001644833981016040819052620000359162000228565b60405180604001604052806005815260200164565243323560d81b815250604051806040016040528060018152602001603160f81b81525084848482828282600590816200008491906200033c565b5060066200009383826200033c565b506007805460ff90921660ff199092169190911790555050600280546001600160a01b031916331790555050825160208085019190912083519184019190912060e08290526101008190529091507f8b73c3c69bb8fe3d512ecc4cf759cc79239f7b179b0ffacaa9a75d522b39400f6200010a4690565b60a09081526040805160208082018590528183018790526060820186905246608083015230828501528251808303909401845260c090910190915281519101206080523060c05261012052506200040895505050505050565b634e487b7160e01b600052604160045260246000fd5b600082601f8301126200018b57600080fd5b81516001600160401b0380821115620001a857620001a862000163565b604051601f8301601f19908116603f01168101908282118183101715620001d357620001d362000163565b81604052838152602092508683858801011115620001f057600080fd5b600091505b83821015620002145785820183015181830184015290820190620001f5565b600093810190920192909252949350505050565b6000806000606084860312156200023e57600080fd5b83516001600160401b03808211156200025657600080fd5b620002648783880162000179565b945060208601519150808211156200027b57600080fd5b506200028a8682870162000179565b925050604084015160ff81168114620002a257600080fd5b809150509250925092565b600181811c90821680620002c257607f821691505b602082108103620002e357634e487b7160e01b600052602260045260246000fd5b50919050565b601f8211156200033757600081815260208120601f850160051c81016020861015620003125750805b601f850160051c820191505b8181101562000333578281556001016200031e565b5050505b505050565b81516001600160401b0381111562000358576200035862000163565b6200037081620003698454620002ad565b84620002e9565b602080601f831160018114620003a857600084156200038f5750858301515b600019600386901b1c1916600185901b17855562000333565b600085815260208120601f198616915b82811015620003d957888601518255948401946001909101908401620003b8565b5085821015620003f85787850151600019600388901b60f8161c191681555b5050505050600190811b01905550565b60805160a05160c05160e05161010051610120516111fe620004466000396000505060005050600050506000505060005050600050506111fe6000f3fe608060405234801561001057600080fd5b506004361061012c5760003560e01c806342966c68116100ad5780638da5cb5b116100715780638da5cb5b146101aa57806395d89b4114610274578063a9059cbb1461027c578063dd62ed3e1461028f578063f2fde38b146102c857600080fd5b806342966c681461020857806369fe0e2d1461021b57806370a082311461023057806371ee951c1461025957806379ba50971461026c57600080fd5b80631d143848116100f45780631d143848146101aa57806323b872dd146101c557806324ec7590146101d8578063313ce567146101e057806340c10f19146101f557600080fd5b806301ffc9a71461013157806306fdde0314610159578063095ea7b31461016e578063127e8e4d1461018157806318160ddd146101a2575b600080fd5b61014461013f366004610f8f565b6102db565b60405190151581526020015b60405180910390f35b610161610312565b6040516101509190610fb9565b61014461017c36600461101e565b6103a4565b61019461018f366004611048565b6103d3565b604051908152602001610150565b600854610194565b6002546040516001600160a01b039091168152602001610150565b6101446101d3366004611061565b6103f2565b600154610194565b60075460405160ff9091168152602001610150565b61014461020336600461101e565b610500565b610144610216366004611048565b610540565b61022e610229366004611048565b610564565b005b61019461023e36600461109d565b6001600160a01b031660009081526020819052604090205490565b61019461026736600461101e565b6105c9565b61022e6106ca565b610161610794565b61014461028a36600461101e565b6107a3565b61019461029d3660046110b8565b6001600160a01b03918216600090815260046020908152604080832093909416825291909152205490565b61022e6102d636600461109d565b61088d565b60006001600160e01b03198216630861786560e01b148061030c5750630861786560e01b6001600160e01b03198316145b92915050565b606060058054610321906110eb565b80601f016020809104026020016040519081016040528092919081815260200182805461034d906110eb565b801561039a5780601f1061036f5761010080835404028352916020019161039a565b820191906000526020600020905b81548152906001019060200180831161037d57829003601f168201915b5050505050905090565b6000806103b160006103d3565b90506103be33858561093b565b6103c9333083610a60565b5060019392505050565b6000333b156103e457506000919050565b61030c82610ada565b919050565b6000806103fe836103d3565b905061040a8382610ae5565b6001600160a01b038616600090815260046020908152604080832033845290915290205410156104815760405162461bcd60e51b815260206004820152601e60248201527f56524332353a20616d6f756e742065786565647320616c6c6f77616e6365000060448201526064015b60405180910390fd5b6001600160a01b03851660009081526004602090815260408083203384529091529020546104bb9082906104b59086610b44565b90610b44565b6001600160a01b03861660009081526004602090815260408083203384529091529020556104ea858585610ba0565b6104f5858583610a60565b506001949350505050565b6002546000906001600160a01b0316331461052d5760405162461bcd60e51b815260040161047890611125565b6105378383610d6d565b50600192915050565b60008061054d60006103d3565b90506105593384610e4c565b610537333083610a60565b6002546001600160a01b0316331461058e5760405162461bcd60e51b815260040161047890611125565b60018190556040518181527f8c4d35e54a3f2ef1134138fd8ea3daee6a3c89e10d2665996babdf70261e2c769060200160405180910390a150565b6040516370a0823160e01b81526001600160a01b038316600482015260009061447b9030906370a0823190602401602060405180830381865afa158015610614573d6000803e3d6000fd5b505050506040513d601f19601f82011682018060405250810190610638919061115c565b60000361064e5761064b613ae88261118b565b90505b6040516370a0823160e01b8152336004820152839030906370a0823190602401602060405180830381865afa15801561068b573d6000803e3d6000fd5b505050506040513d601f19601f820116820180604052508101906106af919061115c565b036106c3576106c0613a488261119e565b90505b9392505050565b6003546001600160a01b031633146107375760405162461bcd60e51b815260206004820152602a60248201527f56524332353a206f6e6c79206e6577206f776e65722063616e206163636570746044820152690206f776e6572736869760b41b6064820152608401610478565b60028054600380546001600160a01b03198084166001600160a01b038381169182179096559116909155604051929091169182907f8be0079c531659141344cd1fd0a4f28419497f9722a3daafe3b4186f6b6457e090600090a350565b606060068054610321906110eb565b6000805a905060006107b4846103d3565b90506107c1338686610ba0565b6107cc338683610a60565b6001925050600160005a6107e0908461119e565b905060006107f66002546001600160a01b031690565b90506000610808826102673a866111b1565b90506000610816848361118b565b905060006108243a836111b1565b9050600061083287836111b1565b905061083f338683610ba0565b6040518181526001600160a01b0386169033907f29b8cd3b4433db59dcfbf8ab8ca612f43329533f0c89eb9a07510bf901d28d0e9060200160405180910390a3505050505050505092915050565b6002546001600160a01b031633146108b75760405162461bcd60e51b815260040161047890611125565b6001600160a01b0381166109195760405162461bcd60e51b8152602060048201526024808201527f56524332353a206e6577206f776e657220697320746865207a65726f206164646044820152637265737360e01b6064820152608401610478565b600380546001600160a01b0319166001600160a01b0392909216919091179055565b6001600160a01b03831661099d5760405162461bcd60e51b8152602060048201526024808201527f56524332353a20617070726f76652066726f6d20746865207a65726f206164646044820152637265737360e01b6064820152608401610478565b6001600160a01b0382166109fe5760405162461bcd60e51b815260206004820152602260248201527f56524332353a20617070726f766520746f20746865207a65726f206164647265604482015261737360f01b6064820152608401610478565b6001600160a01b0383811660008181526004602090815260408083209487168084529482529182902085905590518481527f8c5be1e5ebec7d5bd14f71427d1e84f3dd0314c0f7b2291e5b200ac8c7c3b92591015b60405180910390a3505050565b333b15610a6c57505050565b8015610ad557600254610a8a9084906001600160a01b031683610ba0565b6002546040518281526001600160a01b039182169184811691908616907ffcf5b3276434181e3c48bd3fe569b8939808f11e845d4b963693b9d7dbd6dd999060200160405180910390a45b505050565b600061030c60015490565b600080610af2838561118b565b9050838110156106c35760405162461bcd60e51b815260206004820152601b60248201527f536166654d6174683a206164646974696f6e206f766572666c6f7700000000006044820152606401610478565b600082821115610b965760405162461bcd60e51b815260206004820152601e60248201527f536166654d6174683a207375627472616374696f6e206f766572666c6f7700006044820152606401610478565b6106c3828461119e565b6001600160a01b038316610c045760405162461bcd60e51b815260206004820152602560248201527f56524332353a207472616e736665722066726f6d20746865207a65726f206164604482015264647265737360d81b6064820152608401610478565b6001600160a01b038216610c665760405162461bcd60e51b815260206004820152602360248201527f56524332353a207472616e7366657220746f20746865207a65726f206164647260448201526265737360e81b6064820152608401610478565b6001600160a01b038316600090815260208190526040902054811115610cca5760405162461bcd60e51b815260206004820152601960248201527856524332353a20696e7375666669656e742062616c616e636560381b6044820152606401610478565b6001600160a01b038316600090815260208190526040902054610ced9082610b44565b6001600160a01b038085166000908152602081905260408082209390935590841681522054610d1c9082610ae5565b6001600160a01b038381166000818152602081815260409182902094909455518481529092918616917fddf252ad1be2c89b69c2b068fc378daa952ba7f163c4a11628f55a4df523b3ef9101610a53565b6001600160a01b038216610dc35760405162461bcd60e51b815260206004820152601f60248201527f56524332353a206d696e7420746f20746865207a65726f2061646472657373006044820152606401610478565b600854610dd09082610ae5565b6008556001600160a01b038216600090815260208190526040902054610df69082610ae5565b6001600160a01b038316600081815260208181526040808320949094559251848152919290917fddf252ad1be2c89b69c2b068fc378daa952ba7f163c4a11628f55a4df523b3ef91015b60405180910390a35050565b6001600160a01b038216610eac5760405162461bcd60e51b815260206004820152602160248201527f56524332353a206275726e2066726f6d20746865207a65726f206164647265736044820152607360f81b6064820152608401610478565b6001600160a01b038216600090815260208190526040902054811115610f105760405162461bcd60e51b815260206004820152601960248201527856524332353a20696e7375666669656e742062616c616e636560381b6044820152606401610478565b600854610f1d9082610b44565b6008556001600160a01b038216600090815260208190526040902054610f439082610b44565b6001600160a01b03831660008181526020818152604080832094909455925184815290927fddf252ad1be2c89b69c2b068fc378daa952ba7f163c4a11628f55a4df523b3ef9101610e40565b600060208284031215610fa157600080fd5b81356001600160e01b0319811681146106c357600080fd5b600060208083528351808285015260005b81811015610fe657858101830151858201604001528201610fca565b506000604082860101526040601f19601f8301168501019250505092915050565b80356001600160a01b03811681146103ed57600080fd5b6000806040838503121561103157600080fd5b61103a83611007565b946020939093013593505050565b60006020828403121561105a57600080fd5b5035919050565b60008060006060848603121561107657600080fd5b61107f84611007565b925061108d60208501611007565b9150604084013590509250925092565b6000602082840312156110af57600080fd5b6106c382611007565b600080604083850312156110cb57600080fd5b6110d483611007565b91506110e260208401611007565b90509250929050565b600181811c908216806110ff57607f821691505b60208210810361111f57634e487b7160e01b600052602260045260246000fd5b50919050565b6020808252601e908201527f56524332353a2063616c6c6572206973206e6f7420746865206f776e65720000604082015260600190565b60006020828403121561116e57600080fd5b5051919050565b634e487b7160e01b600052601160045260246000fd5b8082018082111561030c5761030c611175565b8181038181111561030c5761030c611175565b808202811582820484141761030c5761030c61117556fea2646970667358221220992a53faa273f65eec80f881d49b4f562dee9cc55d39a2b2223dfd7b26c9db0a64736f6c63430008110033000000000000000000000000000000000000000000000000000000000000006000000000000000000000000000000000000000000000000000000000000000a00000000000000000000000000000000000000000000000000000000000000012000000000000000000000000000000000000000000000000000000000000000a546573742056524332350000000000000000000000000000000000000000000000000000000000000000000000000000000000000000000000000000000000045456524300000000000000000000000000000000000000000000000000000000",
        "nonce": "0x6c"
      },
      "additionalContracts": [],
      "isFixedGasLimit": false
    },
    {
      "hash": "0xbef4b3c3318552532750101c5d486f7c0aecd14cd1ac77c52d0f1a167a5b294d",
      "transactionType": "CALL",
      "contractName": null,
      "contractAddress": "0x8c0faeb5C6bEd2129b8674F262Fd45c4e9468bee",
      "function": null,
      "arguments": null,
      "transaction": {
        "type": "0x00",
        "from": "0x08ca4dca530a7c02d7755455aeb24b63a41c8608",
        "to": "0x8c0faeb5c6bed2129b8674f262fd45c4e9468bee",
        "gas": "0x1b421",
        "value": "0x8ac7230489e80000",
        "data": "0xc6b32f340000000000000000000000004c7b9cdd46e7a4dd94514418f942d25f646e9c98",
        "nonce": "0x6d"
      },
      "additionalContracts": [],
      "isFixedGasLimit": false
    },
    {
      "hash": "0x5632c965fc3ea857d784196934778d7c75fb46ebae75f4771c62f32891bdc4f6",
      "transactionType": "CALL",
      "contractName": "MockVRC25",
      "contractAddress": "0x4c7B9CDD46E7a4dd94514418F942d25F646E9c98",
      "function": "mint(address,uint256)",
      "arguments": [
        "0x09C48Ca286972F72B8290C4e1F01CB0eC6185Ca0",
        "20000000000000000000"
      ],
      "transaction": {
        "type": "0x00",
        "from": "0x08ca4dca530a7c02d7755455aeb24b63a41c8608",
        "to": "0x4c7b9cdd46e7a4dd94514418f942d25f646e9c98",
        "gas": "0x194f1",
        "value": "0x0",
        "data": "0x40c10f1900000000000000000000000009c48ca286972f72b8290c4e1f01cb0ec6185ca0000000000000000000000000000000000000000000000001158e460913d00000",
        "nonce": "0x6e"
      },
      "additionalContracts": [],
      "isFixedGasLimit": false
    },
    {
      "hash": "0x8f6118421c4f527d9ac49628dba555caea9057e44ffc689fe353367a5d26b48a",
      "transactionType": "CALL",
      "contractName": "MockVRC25",
      "contractAddress": "0x4c7B9CDD46E7a4dd94514418F942d25F646E9c98",
      "function": "transfer(address,uint256)",
      "arguments": [
        "0xCb1d8DBBD067fF81B6083d0dFcE6eb2d968f943E",
        "5000000000000000000"
      ],
      "transaction": {
        "type": "0x00",
        "from": "0x09c48ca286972f72b8290c4e1f01cb0ec6185ca0",
        "to": "0x4c7b9cdd46e7a4dd94514418f942d25f646e9c98",
        "gas": "0x17ab6",
        "value": "0x0",
        "data": "0xa9059cbb000000000000000000000000cb1d8dbbd067ff81b6083d0dfce6eb2d968f943e0000000000000000000000000000000000000000000000004563918244f40000",
        "nonce": "0xd"
      },
      "additionalContracts": [],
      "isFixedGasLimit": false
    },
    {
      "hash": "0xca00d025fbb8f431e13f9d83da5a98669e1d967f14384a46ae0581b9cfa82b25",
      "transactionType": "CALL",
      "contractName": "MockVRC25",
      "contractAddress": "0x4c7B9CDD46E7a4dd94514418F942d25F646E9c98",
      "function": "transfer(address,uint256)",
      "arguments": [
        "0xCb1d8DBBD067fF81B6083d0dFcE6eb2d968f943E",
        "5000000000000000000"
      ],
      "transaction": {
        "type": "0x00",
        "from": "0x09c48ca286972f72b8290c4e1f01cb0ec6185ca0",
        "to": "0x4c7b9cdd46e7a4dd94514418f942d25f646e9c98",
        "gas": "0x10968",
        "value": "0x0",
        "data": "0xa9059cbb000000000000000000000000cb1d8dbbd067ff81b6083d0dfce6eb2d968f943e0000000000000000000000000000000000000000000000004563918244f40000",
        "nonce": "0xe"
      },
      "additionalContracts": [],
      "isFixedGasLimit": false
    }
  ],
  "receipts": [
    {
      "transactionHash": "0x3cff942320f22b0bad351e40bbc495467e2fc3f6b302a1e0d94fe658d04a94e1",
      "transactionIndex": "0x1",
      "blockHash": "0x2572f0e6e59379524bf27bdb509f428f4e69ff330c9f6a6ef92251073cb9d66d",
      "blockNumber": "0x37c95",
      "from": "0x08cA4DCa530A7c02d7755455AeB24B63A41C8608",
      "to": null,
      "cumulativeGasUsed": "0x15f66f",
      "gasUsed": "0x15f66f",
      "contractAddress": "0x4c7B9CDD46E7a4dd94514418F942d25F646E9c98",
      "logs": [],
      "status": "0x1",
      "logsBloom": "0x00000000000000000000000000000000000000000000000000000000000000000000000000000000000000000000000000000000000000000000000000000000000000000000000000000000000000000000000000000000000000000000000000000000000000000000000000000000000000000000000000000000000000000000000000000000000000000000000000000000000000000000000000000000000000000000000000000000000000000000000000000000000000000000000000000000000000000000000000000000000000000000000000000000000000000000000000000000000000000000000000000000000000000000000000000000"
    },
    {
      "transactionHash": "0xbef4b3c3318552532750101c5d486f7c0aecd14cd1ac77c52d0f1a167a5b294d",
      "transactionIndex": "0x1",
      "blockHash": "0xdd7fa10ecfa5cf01ed832fcd6442b60a1d5a1dc6f04893a38463808c509612a6",
      "blockNumber": "0x37c99",
      "from": "0x08cA4DCa530A7c02d7755455AeB24B63A41C8608",
      "to": "0x8c0faeb5C6bEd2129b8674F262Fd45c4e9468bee",
      "cumulativeGasUsed": "0x12a5c",
      "gasUsed": "0x12a5c",
      "contractAddress": null,
      "logs": [
        {
          "address": "0x8c0faeb5C6bEd2129b8674F262Fd45c4e9468bee",
          "topics": [
            "0x2d485624158277d5113a56388c3abf5c20e3511dd112123ba376d16b21e4d716",
            "0x00000000000000000000000008ca4dca530a7c02d7755455aeb24b63a41c8608",
            "0x0000000000000000000000004c7b9cdd46e7a4dd94514418f942d25f646e9c98"
          ],
          "data": "0x0000000000000000000000000000000000000000000000008ac7230489e80000",
          "blockHash": "0xdd7fa10ecfa5cf01ed832fcd6442b60a1d5a1dc6f04893a38463808c509612a6",
          "blockNumber": "0x37c99",
          "transactionHash": "0xbef4b3c3318552532750101c5d486f7c0aecd14cd1ac77c52d0f1a167a5b294d",
          "transactionIndex": "0x1",
          "logIndex": "0x1",
          "removed": false
        }
      ],
      "status": "0x1",
      "logsBloom": "0x00000000000000000000000000000000000000000000000000000000000000000000000000000000000000000000000000000000000800000000000000000000002000000000000000000000000000000000000000000000000000000000000000000000000000000000000000000000000000000000000000000000200000000001000002000000000010000000200000000000400000000000000000000000000000000000000000000000000000000000000000000000020000010000000000000000000000000000000000000008000000020000000000000000000000000000000000000000000000000000000000000000000000000000000000000000"
    },
    {
      "transactionHash": "0x5632c965fc3ea857d784196934778d7c75fb46ebae75f4771c62f32891bdc4f6",
      "transactionIndex": "0x1",
      "blockHash": "0xf5ee26977323af1c526d3979e10985888769f3a357a9ab688e8864d3e82816ef",
      "blockNumber": "0x37c9d",
      "from": "0x08cA4DCa530A7c02d7755455AeB24B63A41C8608",
      "to": "0x4c7B9CDD46E7a4dd94514418F942d25F646E9c98",
      "cumulativeGasUsed": "0x10bf3",
      "gasUsed": "0x10bf3",
      "contractAddress": null,
      "logs": [
        {
          "address": "0x4c7B9CDD46E7a4dd94514418F942d25F646E9c98",
          "topics": [
            "0xddf252ad1be2c89b69c2b068fc378daa952ba7f163c4a11628f55a4df523b3ef",
            "0x0000000000000000000000000000000000000000000000000000000000000000",
            "0x00000000000000000000000009c48ca286972f72b8290c4e1f01cb0ec6185ca0"
          ],
          "data": "0x000000000000000000000000000000000000000000000001158e460913d00000",
          "blockHash": "0xf5ee26977323af1c526d3979e10985888769f3a357a9ab688e8864d3e82816ef",
          "blockNumber": "0x37c9d",
          "transactionHash": "0x5632c965fc3ea857d784196934778d7c75fb46ebae75f4771c62f32891bdc4f6",
          "transactionIndex": "0x1",
          "logIndex": "0x1",
          "removed": false
        }
      ],
      "status": "0x1",
      "logsBloom": "0x00000000000000000000000008000000000000000000000000000000000000000002000000000000000000000000000000000000000000000000000000000000000000000000000000000008000000000000000000000000000000000000000000000000020000000000000000000c00000000000000000000000010000000000000000000000000000000000000000100000000000000000000000000000000000000000000000000000000000000000000000000000000800000000000000000000002000000000000000000000000000000000000000000000000000020000000000000000000000000000000000200000000000000000000000000000000"
    },
    {
      "transactionHash": "0x8f6118421c4f527d9ac49628dba555caea9057e44ffc689fe353367a5d26b48a",
      "transactionIndex": "0x1",
      "blockHash": "0x3937fe34a5cf1df8ea6da692d58c0b7fc9bf22e3a3b35a65a57748a9c0a81ccc",
      "blockNumber": "0x37ca0",
      "from": "0x09C48Ca286972F72B8290C4e1F01CB0eC6185Ca0",
      "to": "0x4c7B9CDD46E7a4dd94514418F942d25F646E9c98",
      "cumulativeGasUsed": "0x15f5f",
      "gasUsed": "0x15f5f",
      "contractAddress": null,
      "logs": [
        {
          "address": "0x4c7B9CDD46E7a4dd94514418F942d25F646E9c98",
          "topics": [
            "0xddf252ad1be2c89b69c2b068fc378daa952ba7f163c4a11628f55a4df523b3ef",
            "0x00000000000000000000000009c48ca286972f72b8290c4e1f01cb0ec6185ca0",
            "0x000000000000000000000000cb1d8dbbd067ff81b6083d0dfce6eb2d968f943e"
          ],
          "data": "0x0000000000000000000000000000000000000000000000004563918244f40000",
          "blockHash": "0xafda9f55d8e0ac8ae630b49b6a5ba6e05353db453c9c5ba362c6eed888c41851",
          "blockNumber": "0x37ca0",
          "transactionHash": "0x8f6118421c4f527d9ac49628dba555caea9057e44ffc689fe353367a5d26b48a",
          "transactionIndex": "0x1",
          "logIndex": "0x1",
          "removed": false
        },
        {
          "address": "0x4c7B9CDD46E7a4dd94514418F942d25F646E9c98",
          "topics": [
            "0xddf252ad1be2c89b69c2b068fc378daa952ba7f163c4a11628f55a4df523b3ef",
            "0x00000000000000000000000009c48ca286972f72b8290c4e1f01cb0ec6185ca0",
            "0x00000000000000000000000008ca4dca530a7c02d7755455aeb24b63a41c8608"
          ],
          "data": "0x00000000000000000000000000000000000000000000000000000ed0cfa9d400",
          "blockHash": "0xafda9f55d8e0ac8ae630b49b6a5ba6e05353db453c9c5ba362c6eed888c41851",
          "blockNumber": "0x37ca0",
          "transactionHash": "0x8f6118421c4f527d9ac49628dba555caea9057e44ffc689fe353367a5d26b48a",
          "transactionIndex": "0x1",
          "logIndex": "0x2",
          "removed": false
        },
        {
          "address": "0x4c7B9CDD46E7a4dd94514418F942d25F646E9c98",
          "topics": [
            "0x29b8cd3b4433db59dcfbf8ab8ca612f43329533f0c89eb9a07510bf901d28d0e",
            "0x00000000000000000000000009c48ca286972f72b8290c4e1f01cb0ec6185ca0",
            "0x00000000000000000000000008ca4dca530a7c02d7755455aeb24b63a41c8608"
          ],
          "data": "0x00000000000000000000000000000000000000000000000000000ed0cfa9d400",
          "blockHash": "0xafda9f55d8e0ac8ae630b49b6a5ba6e05353db453c9c5ba362c6eed888c41851",
          "blockNumber": "0x37ca0",
          "transactionHash": "0x8f6118421c4f527d9ac49628dba555caea9057e44ffc689fe353367a5d26b48a",
          "transactionIndex": "0x1",
          "logIndex": "0x3",
          "removed": false
        }
      ],
      "status": "0x1",
      "logsBloom": "0x00000000000000000000000008008000000100000000000000000000000000000002000000000000000000000000000000000000000800000000000000000000000000000020000000000008000000000000000000000000000000000000000000000000000000000000000000020400000000000000000000000010000000000000000000000000000000000000000100000000000000000000000000000000000000000000000000000000000000000000000000000020800000000000000000000002000000000000000000000008000000020000000000000000000000000000200000000000000000000000000200000000000000000000000000000000"
    },
    {
      "transactionHash": "0xca00d025fbb8f431e13f9d83da5a98669e1d967f14384a46ae0581b9cfa82b25",
      "transactionIndex": "0x1",
      "blockHash": "0xbdbc7e088b3a71984604a5de410b8ba41a0230dbc0d9c359f3e82e2a5318b35d",
      "blockNumber": "0x37ca4",
      "from": "0x09C48Ca286972F72B8290C4e1F01CB0eC6185Ca0",
      "to": "0x4c7B9CDD46E7a4dd94514418F942d25F646E9c98",
      "cumulativeGasUsed": "0xe9df",
      "gasUsed": "0xe9df",
      "contractAddress": null,
      "logs": [
        {
          "address": "0x4c7B9CDD46E7a4dd94514418F942d25F646E9c98",
          "topics": [
            "0xddf252ad1be2c89b69c2b068fc378daa952ba7f163c4a11628f55a4df523b3ef",
            "0x00000000000000000000000009c48ca286972f72b8290c4e1f01cb0ec6185ca0",
            "0x000000000000000000000000cb1d8dbbd067ff81b6083d0dfce6eb2d968f943e"
          ],
          "data": "0x0000000000000000000000000000000000000000000000004563918244f40000",
          "blockHash": "0x949db7a00e7a8f4af2c148012766a146cd8b3c861a08bf83731675e1b6ebd38c",
          "blockNumber": "0x37ca4",
          "transactionHash": "0xca00d025fbb8f431e13f9d83da5a98669e1d967f14384a46ae0581b9cfa82b25",
          "transactionIndex": "0x1",
          "logIndex": "0x1",
          "removed": false
        },
        {
          "address": "0x4c7B9CDD46E7a4dd94514418F942d25F646E9c98",
          "topics": [
            "0xddf252ad1be2c89b69c2b068fc378daa952ba7f163c4a11628f55a4df523b3ef",
            "0x00000000000000000000000009c48ca286972f72b8290c4e1f01cb0ec6185ca0",
            "0x00000000000000000000000008ca4dca530a7c02d7755455aeb24b63a41c8608"
          ],
          "data": "0x000000000000000000000000000000000000000000000000000007f9ecbc1400",
          "blockHash": "0x949db7a00e7a8f4af2c148012766a146cd8b3c861a08bf83731675e1b6ebd38c",
          "blockNumber": "0x37ca4",
          "transactionHash": "0xca00d025fbb8f431e13f9d83da5a98669e1d967f14384a46ae0581b9cfa82b25",
          "transactionIndex": "0x1",
          "logIndex": "0x2",
          "removed": false
        },
        {
          "address": "0x4c7B9CDD46E7a4dd94514418F942d25F646E9c98",
          "topics": [
            "0x29b8cd3b4433db59dcfbf8ab8ca612f43329533f0c89eb9a07510bf901d28d0e",
            "0x00000000000000000000000009c48ca286972f72b8290c4e1f01cb0ec6185ca0",
            "0x00000000000000000000000008ca4dca530a7c02d7755455aeb24b63a41c8608"
          ],
          "data": "0x000000000000000000000000000000000000000000000000000007f9ecbc1400",
          "blockHash": "0x949db7a00e7a8f4af2c148012766a146cd8b3c861a08bf83731675e1b6ebd38c",
          "blockNumber": "0x37ca4",
          "transactionHash": "0xca00d025fbb8f431e13f9d83da5a98669e1d967f14384a46ae0581b9cfa82b25",
          "transactionIndex": "0x1",
          "logIndex": "0x3",
          "removed": false
        }
      ],
      "status": "0x1",
      "logsBloom": "0x00000000000000000000000008008000000100000000000000000000000000000002000000000000000000000000000000000000000800000000000000000000000000000020000000000008000000000000000000000000000000000000000000000000000000000000000000020400000000000000000000000010000000000000000000000000000000000000000100000000000000000000000000000000000000000000000000000000000000000000000000000020800000000000000000000002000000000000000000000008000000020000000000000000000000000000200000000000000000000000000200000000000000000000000000000000"
    }
  ],
  "libraries": [],
  "pending": [],
  "returns": {},
  "timestamp": 1703449298,
  "chain": 89,
  "multi": false,
  "commit": "709cba2"
}