{
  "transactions": [
    {
      "hash": "0xba621b656ae6bcb2977222977b7692082ead2a189ada1032cf66f0c18ed6c56c",
      "transactionType": "CREATE",
      "contractName": "MockVRC25",
      "contractAddress": "0x8bD4C9da657Fada2c5eDB4a67a9AA6546d6BA3E1",
      "function": null,
      "arguments": [
        "Test VRC25",
        "TVRC",
        "0"
      ],
      "transaction": {
        "type": "0x00",
        "from": "0x08ca4dca530a7c02d7755455aeb24b63a41c8608",
        "gas": "0x145511",
        "value": "0x0",
        "data": "0x6101406040523480156200001257600080fd5b506040516200143838038062001438833981016040819052620000359162000220565b60405180604001604052806005815260200164565243323560d81b815250604051806040016040528060018152602001603160f81b815250848484826005908162000081919062000334565b50600662000090838262000334565b506007805460ff90921660ff199092169190911790555050600280546001600160a01b03191633179055815160208084019190912082519183019190912060e08290526101008190527f8b73c3c69bb8fe3d512ecc4cf759cc79239f7b179b0ffacaa9a75d522b39400f620001024690565b60a09081526040805160208082018590528183018790526060820186905246608083015230828501528251808303909401845260c090910190915281519101206080523060c05261012052506200040095505050505050565b634e487b7160e01b600052604160045260246000fd5b600082601f8301126200018357600080fd5b81516001600160401b0380821115620001a057620001a06200015b565b604051601f8301601f19908116603f01168101908282118183101715620001cb57620001cb6200015b565b81604052838152602092508683858801011115620001e857600080fd5b600091505b838210156200020c5785820183015181830184015290820190620001ed565b600093810190920192909252949350505050565b6000806000606084860312156200023657600080fd5b83516001600160401b03808211156200024e57600080fd5b6200025c8783880162000171565b945060208601519150808211156200027357600080fd5b50620002828682870162000171565b925050604084015160ff811681146200029a57600080fd5b809150509250925092565b600181811c90821680620002ba57607f821691505b602082108103620002db57634e487b7160e01b600052602260045260246000fd5b50919050565b601f8211156200032f57600081815260208120601f850160051c810160208610156200030a5750805b601f850160051c820191505b818110156200032b5782815560010162000316565b5050505b505050565b81516001600160401b038111156200035057620003506200015b565b6200036881620003618454620002a5565b84620002e1565b602080601f831160018114620003a05760008415620003875750858301515b600019600386901b1c1916600185901b1785556200032b565b600085815260208120601f198616915b82811015620003d157888601518255948401946001909101908401620003b0565b5085821015620003f05787850151600019600388901b60f8161c191681555b5050505050600190811b01905550565b60805160a05160c05160e0516101005161012051610ffa6200043e600039600050506000505060005050600050506000505060005050610ffa6000f3fe608060405234801561001057600080fd5b50600436106101215760003560e01c806340c10f19116100ad5780638da5cb5b116100715780638da5cb5b1461019f57806395d89b4114610256578063a9059cbb1461025e578063dd62ed3e14610271578063f2fde38b146102aa57600080fd5b806340c10f19146101ea57806342966c68146101fd57806369fe0e2d1461021057806370a082311461022557806379ba50971461024e57600080fd5b806318160ddd116100f457806318160ddd146101975780631d1438481461019f57806323b872dd146101ba57806324ec7590146101cd578063313ce567146101d557600080fd5b806301ffc9a71461012657806306fdde031461014e578063095ea7b314610163578063127e8e4d14610176575b600080fd5b610139610134366004610dbb565b6102bd565b60405190151581526020015b60405180910390f35b6101566102f4565b6040516101459190610de5565b610139610171366004610e4a565b610386565b610189610184366004610e74565b6103b5565b604051908152602001610145565b600854610189565b6002546040516001600160a01b039091168152602001610145565b6101396101c8366004610e8d565b6103d4565b600154610189565b60075460405160ff9091168152602001610145565b6101396101f8366004610e4a565b6104e2565b61013961020b366004610e74565b610522565b61022361021e366004610e74565b610546565b005b610189610233366004610ec9565b6001600160a01b031660009081526020819052604090205490565b6102236105ab565b610156610675565b61013961026c366004610e4a565b610684565b61018961027f366004610ee4565b6001600160a01b03918216600090815260046020908152604080832093909416825291909152205490565b6102236102b8366004610ec9565b6106a8565b60006001600160e01b03198216630861786560e01b14806102ee5750630861786560e01b6001600160e01b03198316145b92915050565b60606005805461030390610f17565b80601f016020809104026020016040519081016040528092919081815260200182805461032f90610f17565b801561037c5780601f106103515761010080835404028352916020019161037c565b820191906000526020600020905b81548152906001019060200180831161035f57829003601f168201915b5050505050905090565b60008061039360006103b5565b90506103a0338585610756565b6103ab33308361087b565b5060019392505050565b6000333b156103c657506000919050565b6102ee826108f5565b919050565b6000806103e0836103b5565b90506103ec838261090a565b6001600160a01b038616600090815260046020908152604080832033845290915290205410156104635760405162461bcd60e51b815260206004820152601e60248201527f56524332353a20616d6f756e742065786565647320616c6c6f77616e6365000060448201526064015b60405180910390fd5b6001600160a01b038516600090815260046020908152604080832033845290915290205461049d9082906104979086610970565b90610970565b6001600160a01b03861660009081526004602090815260408083203384529091529020556104cc8585856109cc565b6104d785858361087b565b506001949350505050565b6002546000906001600160a01b0316331461050f5760405162461bcd60e51b815260040161045a90610f51565b6105198383610b99565b50600192915050565b60008061052f60006103b5565b905061053b3384610c78565b61051933308361087b565b6002546001600160a01b031633146105705760405162461bcd60e51b815260040161045a90610f51565b60018190556040518181527f8c4d35e54a3f2ef1134138fd8ea3daee6a3c89e10d2665996babdf70261e2c769060200160405180910390a150565b6003546001600160a01b031633146106185760405162461bcd60e51b815260206004820152602a60248201527f56524332353a206f6e6c79206e6577206f776e65722063616e206163636570746044820152690206f776e6572736869760b41b606482015260840161045a565b60028054600380546001600160a01b03198084166001600160a01b038381169182179096559116909155604051929091169182907f8be0079c531659141344cd1fd0a4f28419497f9722a3daafe3b4186f6b6457e090600090a350565b60606006805461030390610f17565b600080610690836103b5565b905061069d3385856109cc565b6103ab33858361087b565b6002546001600160a01b031633146106d25760405162461bcd60e51b815260040161045a90610f51565b6001600160a01b0381166107345760405162461bcd60e51b8152602060048201526024808201527f56524332353a206e6577206f776e657220697320746865207a65726f206164646044820152637265737360e01b606482015260840161045a565b600380546001600160a01b0319166001600160a01b0392909216919091179055565b6001600160a01b0383166107b85760405162461bcd60e51b8152602060048201526024808201527f56524332353a20617070726f76652066726f6d20746865207a65726f206164646044820152637265737360e01b606482015260840161045a565b6001600160a01b0382166108195760405162461bcd60e51b815260206004820152602260248201527f56524332353a20617070726f766520746f20746865207a65726f206164647265604482015261737360f01b606482015260840161045a565b6001600160a01b0383811660008181526004602090815260408083209487168084529482529182902085905590518481527f8c5be1e5ebec7d5bd14f71427d1e84f3dd0314c0f7b2291e5b200ac8c7c3b92591015b60405180910390a3505050565b333b1561088757505050565b80156108f0576002546108a59084906001600160a01b0316836109cc565b6002546040518281526001600160a01b039182169184811691908616907ffcf5b3276434181e3c48bd3fe569b8939808f11e845d4b963693b9d7dbd6dd999060200160405180910390a45b505050565b600061090060015490565b6102ee9083610f9e565b6000806109178385610f9e565b9050838110156109695760405162461bcd60e51b815260206004820152601b60248201527f536166654d6174683a206164646974696f6e206f766572666c6f770000000000604482015260640161045a565b9392505050565b6000828211156109c25760405162461bcd60e51b815260206004820152601e60248201527f536166654d6174683a207375627472616374696f6e206f766572666c6f770000604482015260640161045a565b6109698284610fb1565b6001600160a01b038316610a305760405162461bcd60e51b815260206004820152602560248201527f56524332353a207472616e736665722066726f6d20746865207a65726f206164604482015264647265737360d81b606482015260840161045a565b6001600160a01b038216610a925760405162461bcd60e51b815260206004820152602360248201527f56524332353a207472616e7366657220746f20746865207a65726f206164647260448201526265737360e81b606482015260840161045a565b6001600160a01b038316600090815260208190526040902054811115610af65760405162461bcd60e51b815260206004820152601960248201527856524332353a20696e7375666669656e742062616c616e636560381b604482015260640161045a565b6001600160a01b038316600090815260208190526040902054610b199082610970565b6001600160a01b038085166000908152602081905260408082209390935590841681522054610b48908261090a565b6001600160a01b038381166000818152602081815260409182902094909455518481529092918616917fddf252ad1be2c89b69c2b068fc378daa952ba7f163c4a11628f55a4df523b3ef910161086e565b6001600160a01b038216610bef5760405162461bcd60e51b815260206004820152601f60248201527f56524332353a206d696e7420746f20746865207a65726f206164647265737300604482015260640161045a565b600854610bfc908261090a565b6008556001600160a01b038216600090815260208190526040902054610c22908261090a565b6001600160a01b038316600081815260208181526040808320949094559251848152919290917fddf252ad1be2c89b69c2b068fc378daa952ba7f163c4a11628f55a4df523b3ef91015b60405180910390a35050565b6001600160a01b038216610cd85760405162461bcd60e51b815260206004820152602160248201527f56524332353a206275726e2066726f6d20746865207a65726f206164647265736044820152607360f81b606482015260840161045a565b6001600160a01b038216600090815260208190526040902054811115610d3c5760405162461bcd60e51b815260206004820152601960248201527856524332353a20696e7375666669656e742062616c616e636560381b604482015260640161045a565b600854610d499082610970565b6008556001600160a01b038216600090815260208190526040902054610d6f9082610970565b6001600160a01b03831660008181526020818152604080832094909455925184815290927fddf252ad1be2c89b69c2b068fc378daa952ba7f163c4a11628f55a4df523b3ef9101610c6c565b600060208284031215610dcd57600080fd5b81356001600160e01b03198116811461096957600080fd5b600060208083528351808285015260005b81811015610e1257858101830151858201604001528201610df6565b506000604082860101526040601f19601f8301168501019250505092915050565b80356001600160a01b03811681146103cf57600080fd5b60008060408385031215610e5d57600080fd5b610e6683610e33565b946020939093013593505050565b600060208284031215610e8657600080fd5b5035919050565b600080600060608486031215610ea257600080fd5b610eab84610e33565b9250610eb960208501610e33565b9150604084013590509250925092565b600060208284031215610edb57600080fd5b61096982610e33565b60008060408385031215610ef757600080fd5b610f0083610e33565b9150610f0e60208401610e33565b90509250929050565b600181811c90821680610f2b57607f821691505b602082108103610f4b57634e487b7160e01b600052602260045260246000fd5b50919050565b6020808252601e908201527f56524332353a2063616c6c6572206973206e6f7420746865206f776e65720000604082015260600190565b634e487b7160e01b600052601160045260246000fd5b808201808211156102ee576102ee610f88565b818103818111156102ee576102ee610f8856fea264697066735822122071cf2c7b74e315f7f4046c2561ba217103dc5d72c878e55aaa2dd7154f20b29964736f6c63430008110033000000000000000000000000000000000000000000000000000000000000006000000000000000000000000000000000000000000000000000000000000000a00000000000000000000000000000000000000000000000000000000000000000000000000000000000000000000000000000000000000000000000000000000a546573742056524332350000000000000000000000000000000000000000000000000000000000000000000000000000000000000000000000000000000000045456524300000000000000000000000000000000000000000000000000000000",
        "nonce": "0x21"
      },
      "additionalContracts": [],
      "isFixedGasLimit": false
    },
    {
      "hash": "0xd291955b10699c0ac200b91726f3814f9a42af02fe2b0c0d992cd24b019d3588",
      "transactionType": "CALL",
      "contractName": null,
      "contractAddress": "0x8c0faeb5C6bEd2129b8674F262Fd45c4e9468bee",
      "function": null,
      "arguments": null,
      "transaction": {
        "type": "0x00",
        "from": "0x08ca4dca530a7c02d7755455aeb24b63a41c8608",
        "to": "0x8c0faeb5c6bed2129b8674f262fd45c4e9468bee",
        "gas": "0x1b43f",
        "value": "0x8ac7230489e80000",
        "data": "0xc6b32f340000000000000000000000008bd4c9da657fada2c5edb4a67a9aa6546d6ba3e1",
        "nonce": "0x22"
      },
      "additionalContracts": [],
      "isFixedGasLimit": false
    },
    {
      "hash": "0x69c2c6e353b7cd91a41594d74dc63beaec0c6a570fafa994289abc695f6fe686",
      "transactionType": "CALL",
      "contractName": "MockVRC25",
      "contractAddress": "0x8bD4C9da657Fada2c5eDB4a67a9AA6546d6BA3E1",
      "function": "mint(address,uint256)",
      "arguments": [
        "0x09C48Ca286972F72B8290C4e1F01CB0eC6185Ca0",
        "20"
      ],
      "transaction": {
        "type": "0x00",
        "from": "0x08ca4dca530a7c02d7755455aeb24b63a41c8608",
        "to": "0x8bd4c9da657fada2c5edb4a67a9aa6546d6ba3e1",
        "gas": "0x19407",
        "value": "0x0",
        "data": "0x40c10f1900000000000000000000000009c48ca286972f72b8290c4e1f01cb0ec6185ca00000000000000000000000000000000000000000000000000000000000000014",
        "nonce": "0x23"
      },
      "additionalContracts": [],
      "isFixedGasLimit": false
    },
    {
      "hash": "0xb1da0ea72f5d92799452396c8aa556606bac67bccb639e4a43ed3a10f3ecf809",
      "transactionType": "CALL",
      "contractName": "MockVRC25",
      "contractAddress": "0x8bD4C9da657Fada2c5eDB4a67a9AA6546d6BA3E1",
      "function": "transfer(address,uint256)",
      "arguments": [
        "0xCb1d8DBBD067fF81B6083d0dFcE6eb2d968f943E",
        "5"
      ],
      "transaction": {
        "type": "0x00",
        "from": "0x09c48ca286972f72b8290c4e1f01cb0ec6185ca0",
        "to": "0x8bd4c9da657fada2c5edb4a67a9aa6546d6ba3e1",
        "gas": "0x1c5c4",
        "value": "0x0",
        "data": "0xa9059cbb000000000000000000000000cb1d8dbbd067ff81b6083d0dfce6eb2d968f943e0000000000000000000000000000000000000000000000000000000000000005",
        "nonce": "0x5"
      },
      "additionalContracts": [],
      "isFixedGasLimit": false
    }
  ],
  "receipts": [
    {
      "transactionHash": "0xba621b656ae6bcb2977222977b7692082ead2a189ada1032cf66f0c18ed6c56c",
      "transactionIndex": "0x1",
      "blockHash": "0xa493f1449d9fe7ed1c9e00ae64f0d748d20c46b5a71ec7dd2b1bc215965d3ca8",
      "blockNumber": "0x35151",
      "from": "0x08cA4DCa530A7c02d7755455AeB24B63A41C8608",
      "to": null,
      "cumulativeGasUsed": "0x138fa2",
      "gasUsed": "0x138fa2",
      "contractAddress": "0x8bD4C9da657Fada2c5eDB4a67a9AA6546d6BA3E1",
      "logs": [],
      "status": "0x1",
      "logsBloom": "0x00000000000000000000000000000000000000000000000000000000000000000000000000000000000000000000000000000000000000000000000000000000000000000000000000000000000000000000000000000000000000000000000000000000000000000000000000000000000000000000000000000000000000000000000000000000000000000000000000000000000000000000000000000000000000000000000000000000000000000000000000000000000000000000000000000000000000000000000000000000000000000000000000000000000000000000000000000000000000000000000000000000000000000000000000000000"
    },
    {
      "transactionHash": "0xd291955b10699c0ac200b91726f3814f9a42af02fe2b0c0d992cd24b019d3588",
      "transactionIndex": "0x1",
      "blockHash": "0x53647cc37db799ccc38f0715fbd523d6133b4ea3c2dbda89f793efeef6cfd03b",
      "blockNumber": "0x35155",
      "from": "0x08cA4DCa530A7c02d7755455AeB24B63A41C8608",
      "to": "0x8c0faeb5C6bEd2129b8674F262Fd45c4e9468bee",
      "cumulativeGasUsed": "0x12a72",
      "gasUsed": "0x12a72",
      "contractAddress": null,
      "logs": [
        {
          "address": "0x8c0faeb5C6bEd2129b8674F262Fd45c4e9468bee",
          "topics": [
            "0x2d485624158277d5113a56388c3abf5c20e3511dd112123ba376d16b21e4d716",
            "0x00000000000000000000000008ca4dca530a7c02d7755455aeb24b63a41c8608",
            "0x0000000000000000000000008bd4c9da657fada2c5edb4a67a9aa6546d6ba3e1"
          ],
          "data": "0x0000000000000000000000000000000000000000000000008ac7230489e80000",
          "blockHash": "0xb6fd6223af2edf7a33bad78205f8af8a1050277a2eafcdb5a432ea13745ac541",
          "blockNumber": "0x35155",
          "transactionHash": "0xd291955b10699c0ac200b91726f3814f9a42af02fe2b0c0d992cd24b019d3588",
          "transactionIndex": "0x1",
          "logIndex": "0x1",
          "removed": false
        }
      ],
      "status": "0x1",
      "logsBloom": "0x00000000000000000000000000000000000000000000000000000000000000000000000000000000000000000000000000000000000800000000000000000000002000000000000000000000000000000000000000000000000000000000000000000000000000000000000000000000000000000000000000000000000000000000000000000000000010000000200000100000400040000000000000000000000000000000000000000000000000000000000000000000020000010000000000000000000000000000000000000008000000020000000000000000000000000000000000000000000000000000000000000000000000100000000000000000"
    },
    {
      "transactionHash": "0x69c2c6e353b7cd91a41594d74dc63beaec0c6a570fafa994289abc695f6fe686",
      "transactionIndex": "0x1",
      "blockHash": "0xe1062bd19796165a036974aa319885191dcf97f5b6796ff387adccef0642c90d",
      "blockNumber": "0x35158",
      "from": "0x08cA4DCa530A7c02d7755455AeB24B63A41C8608",
      "to": "0x8bD4C9da657Fada2c5eDB4a67a9AA6546d6BA3E1",
      "cumulativeGasUsed": "0x10a1b",
      "gasUsed": "0x10a1b",
      "contractAddress": null,
      "logs": [
        {
          "address": "0x8bD4C9da657Fada2c5eDB4a67a9AA6546d6BA3E1",
          "topics": [
            "0xddf252ad1be2c89b69c2b068fc378daa952ba7f163c4a11628f55a4df523b3ef",
            "0x0000000000000000000000000000000000000000000000000000000000000000",
            "0x00000000000000000000000009c48ca286972f72b8290c4e1f01cb0ec6185ca0"
          ],
          "data": "0x0000000000000000000000000000000000000000000000000000000000000014",
          "blockHash": "0x30c8f5ff4551e845cea06a6a13d67459e64a46861ae1fdd2fb6c06e17d0e0459",
          "blockNumber": "0x35158",
          "transactionHash": "0x69c2c6e353b7cd91a41594d74dc63beaec0c6a570fafa994289abc695f6fe686",
          "transactionIndex": "0x1",
          "logIndex": "0x1",
          "removed": false
        }
      ],
      "status": "0x1",
      "logsBloom": "0x00000000000000000000000008000000000000000000000000000000000000000000001000000000000000000000000000000000000000000000000000000000000000000000000000000008000000000000000000000000000000000000000000000000020000000000000000000c00000000000000000000000010000000000000000000000000000000000000000000000000000000000000000000000000000000000000000000000000000000000000000000000000000000000004000000000002000000000000000000000000000000000000000000000000000020000000000000000800000000000000000200000000000000000000000000000000"
    },
    {
      "transactionHash": "0xb1da0ea72f5d92799452396c8aa556606bac67bccb639e4a43ed3a10f3ecf809",
      "transactionIndex": "0x1",
      "blockHash": "0x82ca7e714281e557291daadf39684fee11cbe9648ef928159f7619fbeb0ec18d",
      "blockNumber": "0x3515b",
      "from": "0x09C48Ca286972F72B8290C4e1F01CB0eC6185Ca0",
      "to": "0x8bD4C9da657Fada2c5eDB4a67a9AA6546d6BA3E1",
      "cumulativeGasUsed": "0x14ec5",
      "gasUsed": "0x14ec5",
      "contractAddress": null,
      "logs": [
        {
          "address": "0x8bD4C9da657Fada2c5eDB4a67a9AA6546d6BA3E1",
          "topics": [
            "0xddf252ad1be2c89b69c2b068fc378daa952ba7f163c4a11628f55a4df523b3ef",
            "0x00000000000000000000000009c48ca286972f72b8290c4e1f01cb0ec6185ca0",
            "0x000000000000000000000000cb1d8dbbd067ff81b6083d0dfce6eb2d968f943e"
          ],
          "data": "0x0000000000000000000000000000000000000000000000000000000000000005",
          "blockHash": "0xa4cb314bea9c832f4f2733a94026259b3c64923f073a4314418f476b1fa25ecb",
          "blockNumber": "0x3515b",
          "transactionHash": "0xb1da0ea72f5d92799452396c8aa556606bac67bccb639e4a43ed3a10f3ecf809",
          "transactionIndex": "0x1",
          "logIndex": "0x1",
          "removed": false
        },
        {
          "address": "0x8bD4C9da657Fada2c5eDB4a67a9AA6546d6BA3E1",
          "topics": [
            "0xddf252ad1be2c89b69c2b068fc378daa952ba7f163c4a11628f55a4df523b3ef",
            "0x00000000000000000000000009c48ca286972f72b8290c4e1f01cb0ec6185ca0",
            "0x00000000000000000000000008ca4dca530a7c02d7755455aeb24b63a41c8608"
          ],
          "data": "0x0000000000000000000000000000000000000000000000000000000000000005",
          "blockHash": "0xa4cb314bea9c832f4f2733a94026259b3c64923f073a4314418f476b1fa25ecb",
          "blockNumber": "0x3515b",
          "transactionHash": "0xb1da0ea72f5d92799452396c8aa556606bac67bccb639e4a43ed3a10f3ecf809",
          "transactionIndex": "0x1",
          "logIndex": "0x2",
          "removed": false
        },
        {
          "address": "0x8bD4C9da657Fada2c5eDB4a67a9AA6546d6BA3E1",
          "topics": [
            "0xfcf5b3276434181e3c48bd3fe569b8939808f11e845d4b963693b9d7dbd6dd99",
            "0x00000000000000000000000009c48ca286972f72b8290c4e1f01cb0ec6185ca0",
            "0x000000000000000000000000cb1d8dbbd067ff81b6083d0dfce6eb2d968f943e",
            "0x00000000000000000000000008ca4dca530a7c02d7755455aeb24b63a41c8608"
          ],
          "data": "0x0000000000000000000000000000000000000000000000000000000000000005",
          "blockHash": "0xa4cb314bea9c832f4f2733a94026259b3c64923f073a4314418f476b1fa25ecb",
          "blockNumber": "0x3515b",
          "transactionHash": "0xb1da0ea72f5d92799452396c8aa556606bac67bccb639e4a43ed3a10f3ecf809",
          "transactionIndex": "0x1",
          "logIndex": "0x3",
          "removed": false
        }
      ],
      "status": "0x1",
      "logsBloom": "0x00000000000000000000000008000000000100000000000000000000000000000000001000000080000000000000000000000000000800000000000000000000000000000020000000000008000000000000000000000000000000000000000000000000000000000000000000000400000000000000000000000010000000000000000000000000000001000000000000000000000000000000000000000000000000000000000010000000000000000000000000000020000000000004000000000002000000000000000000000008000000020000000000000000000000000000000000000800000000000000000200000000000000000000000000000000"
    }
  ],
  "libraries": [],
  "pending": [],
  "returns": {},
  "timestamp": 1703427135,
  "chain": 89,
  "multi": false,
  "commit": "5bd3b97"
}