{
  "transactions": [
    {
      "hash": "0xbd858bd13790471ca40b76754f297656f6df4059df721a8fab1d0433d0b33886",
      "transactionType": "CREATE",
      "contractName": "MockVRC25",
      "contractAddress": "0xB2b230c9F60eFEf3F6a023f74a2966dC029fBd6B",
      "function": null,
      "arguments": [
        "Test VRC25",
        "TVRC",
        "18"
      ],
      "transaction": {
        "type": "0x00",
        "from": "0x08ca4dca530a7c02d7755455aeb24b63a41c8608",
        "gas": "0x16b8b0",
        "value": "0x0",
        "data": "0x6101406040523480156200001257600080fd5b506040516200161138038062001611833981016040819052620000359162000228565b60405180604001604052806005815260200164565243323560d81b815250604051806040016040528060018152602001603160f81b81525084848482828282600590816200008491906200033c565b5060066200009383826200033c565b506007805460ff90921660ff199092169190911790555050600280546001600160a01b031916331790555050825160208085019190912083519184019190912060e08290526101008190529091507f8b73c3c69bb8fe3d512ecc4cf759cc79239f7b179b0ffacaa9a75d522b39400f6200010a4690565b60a09081526040805160208082018590528183018790526060820186905246608083015230828501528251808303909401845260c090910190915281519101206080523060c05261012052506200040895505050505050565b634e487b7160e01b600052604160045260246000fd5b600082601f8301126200018b57600080fd5b81516001600160401b0380821115620001a857620001a862000163565b604051601f8301601f19908116603f01168101908282118183101715620001d357620001d362000163565b81604052838152602092508683858801011115620001f057600080fd5b600091505b83821015620002145785820183015181830184015290820190620001f5565b600093810190920192909252949350505050565b6000806000606084860312156200023e57600080fd5b83516001600160401b03808211156200025657600080fd5b620002648783880162000179565b945060208601519150808211156200027b57600080fd5b506200028a8682870162000179565b925050604084015160ff81168114620002a257600080fd5b809150509250925092565b600181811c90821680620002c257607f821691505b602082108103620002e357634e487b7160e01b600052602260045260246000fd5b50919050565b601f8211156200033757600081815260208120601f850160051c81016020861015620003125750805b601f850160051c820191505b8181101562000333578281556001016200031e565b5050505b505050565b81516001600160401b0381111562000358576200035862000163565b6200037081620003698454620002ad565b84620002e9565b602080601f831160018114620003a857600084156200038f5750858301515b600019600386901b1c1916600185901b17855562000333565b600085815260208120601f198616915b82811015620003d957888601518255948401946001909101908401620003b8565b5085821015620003f85787850151600019600388901b60f8161c191681555b5050505050600190811b01905550565b60805160a05160c05160e05161010051610120516111cb620004466000396000505060005050600050506000505060005050600050506111cb6000f3fe608060405234801561001057600080fd5b506004361061012c5760003560e01c806342966c68116100ad5780638da5cb5b116100715780638da5cb5b146101aa57806395d89b4114610274578063a9059cbb1461027c578063dd62ed3e1461028f578063f2fde38b146102c857600080fd5b806342966c681461020857806369fe0e2d1461021b57806370a082311461023057806371ee951c1461025957806379ba50971461026c57600080fd5b80631d143848116100f45780631d143848146101aa57806323b872dd146101c557806324ec7590146101d8578063313ce567146101e057806340c10f19146101f557600080fd5b806301ffc9a71461013157806306fdde0314610159578063095ea7b31461016e578063127e8e4d1461018157806318160ddd146101a2575b600080fd5b61014461013f366004610f5c565b6102db565b60405190151581526020015b60405180910390f35b610161610312565b6040516101509190610f86565b61014461017c366004610feb565b6103a4565b61019461018f366004611015565b6103d3565b604051908152602001610150565b600854610194565b6002546040516001600160a01b039091168152602001610150565b6101446101d336600461102e565b6103f2565b600154610194565b60075460405160ff9091168152602001610150565b610144610203366004610feb565b610500565b610144610216366004611015565b610540565b61022e610229366004611015565b610564565b005b61019461023e36600461106a565b6001600160a01b031660009081526020819052604090205490565b610194610267366004610feb565b6105c9565b61022e6106ca565b610161610794565b61014461028a366004610feb565b6107a3565b61019461029d366004611085565b6001600160a01b03918216600090815260046020908152604080832093909416825291909152205490565b61022e6102d636600461106a565b61085a565b60006001600160e01b03198216630861786560e01b148061030c5750630861786560e01b6001600160e01b03198316145b92915050565b606060058054610321906110b8565b80601f016020809104026020016040519081016040528092919081815260200182805461034d906110b8565b801561039a5780601f1061036f5761010080835404028352916020019161039a565b820191906000526020600020905b81548152906001019060200180831161037d57829003601f168201915b5050505050905090565b6000806103b160006103d3565b90506103be338585610908565b6103c9333083610a2d565b5060019392505050565b6000333b156103e457506000919050565b61030c82610aa7565b919050565b6000806103fe836103d3565b905061040a8382610ab2565b6001600160a01b038616600090815260046020908152604080832033845290915290205410156104815760405162461bcd60e51b815260206004820152601e60248201527f56524332353a20616d6f756e742065786565647320616c6c6f77616e6365000060448201526064015b60405180910390fd5b6001600160a01b03851660009081526004602090815260408083203384529091529020546104bb9082906104b59086610b11565b90610b11565b6001600160a01b03861660009081526004602090815260408083203384529091529020556104ea858585610b6d565b6104f5858583610a2d565b506001949350505050565b6002546000906001600160a01b0316331461052d5760405162461bcd60e51b8152600401610478906110f2565b6105378383610d3a565b50600192915050565b60008061054d60006103d3565b90506105593384610e19565b610537333083610a2d565b6002546001600160a01b0316331461058e5760405162461bcd60e51b8152600401610478906110f2565b60018190556040518181527f8c4d35e54a3f2ef1134138fd8ea3daee6a3c89e10d2665996babdf70261e2c769060200160405180910390a150565b6040516370a0823160e01b81526001600160a01b03831660048201526000906156359030906370a0823190602401602060405180830381865afa158015610614573d6000803e3d6000fd5b505050506040513d601f19601f820116820180604052508101906106389190611129565b60000361064e5761064b613ae882611158565b90505b6040516370a0823160e01b8152336004820152839030906370a0823190602401602060405180830381865afa15801561068b573d6000803e3d6000fd5b505050506040513d601f19601f820116820180604052508101906106af9190611129565b036106c3576106c0613a488261116b565b90505b9392505050565b6003546001600160a01b031633146107375760405162461bcd60e51b815260206004820152602a60248201527f56524332353a206f6e6c79206e6577206f776e65722063616e206163636570746044820152690206f776e6572736869760b41b6064820152608401610478565b60028054600380546001600160a01b03198084166001600160a01b038381169182179096559116909155604051929091169182907f8be0079c531659141344cd1fd0a4f28419497f9722a3daafe3b4186f6b6457e090600090a350565b606060068054610321906110b8565b6000805a905060006107b4846103d3565b90506107c1338686610b6d565b6107cc338683610a2d565b6001925050600160006107e76002546001600160a01b031690565b905060005a6107f6908561116b565b90506000610815833a61080b61563586611158565b610267919061117e565b905060006108238383611158565b905060006108313a8361117e565b9050600061083f878361117e565b905061084c338783610b6d565b505050505050505092915050565b6002546001600160a01b031633146108845760405162461bcd60e51b8152600401610478906110f2565b6001600160a01b0381166108e65760405162461bcd60e51b8152602060048201526024808201527f56524332353a206e6577206f776e657220697320746865207a65726f206164646044820152637265737360e01b6064820152608401610478565b600380546001600160a01b0319166001600160a01b0392909216919091179055565b6001600160a01b03831661096a5760405162461bcd60e51b8152602060048201526024808201527f56524332353a20617070726f76652066726f6d20746865207a65726f206164646044820152637265737360e01b6064820152608401610478565b6001600160a01b0382166109cb5760405162461bcd60e51b815260206004820152602260248201527f56524332353a20617070726f766520746f20746865207a65726f206164647265604482015261737360f01b6064820152608401610478565b6001600160a01b0383811660008181526004602090815260408083209487168084529482529182902085905590518481527f8c5be1e5ebec7d5bd14f71427d1e84f3dd0314c0f7b2291e5b200ac8c7c3b92591015b60405180910390a3505050565b333b15610a3957505050565b8015610aa257600254610a579084906001600160a01b031683610b6d565b6002546040518281526001600160a01b039182169184811691908616907ffcf5b3276434181e3c48bd3fe569b8939808f11e845d4b963693b9d7dbd6dd999060200160405180910390a45b505050565b600061030c60015490565b600080610abf8385611158565b9050838110156106c35760405162461bcd60e51b815260206004820152601b60248201527f536166654d6174683a206164646974696f6e206f766572666c6f7700000000006044820152606401610478565b600082821115610b635760405162461bcd60e51b815260206004820152601e60248201527f536166654d6174683a207375627472616374696f6e206f766572666c6f7700006044820152606401610478565b6106c3828461116b565b6001600160a01b038316610bd15760405162461bcd60e51b815260206004820152602560248201527f56524332353a207472616e736665722066726f6d20746865207a65726f206164604482015264647265737360d81b6064820152608401610478565b6001600160a01b038216610c335760405162461bcd60e51b815260206004820152602360248201527f56524332353a207472616e7366657220746f20746865207a65726f206164647260448201526265737360e81b6064820152608401610478565b6001600160a01b038316600090815260208190526040902054811115610c975760405162461bcd60e51b815260206004820152601960248201527856524332353a20696e7375666669656e742062616c616e636560381b6044820152606401610478565b6001600160a01b038316600090815260208190526040902054610cba9082610b11565b6001600160a01b038085166000908152602081905260408082209390935590841681522054610ce99082610ab2565b6001600160a01b038381166000818152602081815260409182902094909455518481529092918616917fddf252ad1be2c89b69c2b068fc378daa952ba7f163c4a11628f55a4df523b3ef9101610a20565b6001600160a01b038216610d905760405162461bcd60e51b815260206004820152601f60248201527f56524332353a206d696e7420746f20746865207a65726f2061646472657373006044820152606401610478565b600854610d9d9082610ab2565b6008556001600160a01b038216600090815260208190526040902054610dc39082610ab2565b6001600160a01b038316600081815260208181526040808320949094559251848152919290917fddf252ad1be2c89b69c2b068fc378daa952ba7f163c4a11628f55a4df523b3ef91015b60405180910390a35050565b6001600160a01b038216610e795760405162461bcd60e51b815260206004820152602160248201527f56524332353a206275726e2066726f6d20746865207a65726f206164647265736044820152607360f81b6064820152608401610478565b6001600160a01b038216600090815260208190526040902054811115610edd5760405162461bcd60e51b815260206004820152601960248201527856524332353a20696e7375666669656e742062616c616e636560381b6044820152606401610478565b600854610eea9082610b11565b6008556001600160a01b038216600090815260208190526040902054610f109082610b11565b6001600160a01b03831660008181526020818152604080832094909455925184815290927fddf252ad1be2c89b69c2b068fc378daa952ba7f163c4a11628f55a4df523b3ef9101610e0d565b600060208284031215610f6e57600080fd5b81356001600160e01b0319811681146106c357600080fd5b600060208083528351808285015260005b81811015610fb357858101830151858201604001528201610f97565b506000604082860101526040601f19601f8301168501019250505092915050565b80356001600160a01b03811681146103ed57600080fd5b60008060408385031215610ffe57600080fd5b61100783610fd4565b946020939093013593505050565b60006020828403121561102757600080fd5b5035919050565b60008060006060848603121561104357600080fd5b61104c84610fd4565b925061105a60208501610fd4565b9150604084013590509250925092565b60006020828403121561107c57600080fd5b6106c382610fd4565b6000806040838503121561109857600080fd5b6110a183610fd4565b91506110af60208401610fd4565b90509250929050565b600181811c908216806110cc57607f821691505b6020821081036110ec57634e487b7160e01b600052602260045260246000fd5b50919050565b6020808252601e908201527f56524332353a2063616c6c6572206973206e6f7420746865206f776e65720000604082015260600190565b60006020828403121561113b57600080fd5b5051919050565b634e487b7160e01b600052601160045260246000fd5b8082018082111561030c5761030c611142565b8181038181111561030c5761030c611142565b808202811582820484141761030c5761030c61114256fea2646970667358221220cbd3a5b68983973c5dc235b01d432f8ce8d50fb297546f48f52c36173b48ca6264736f6c63430008110033000000000000000000000000000000000000000000000000000000000000006000000000000000000000000000000000000000000000000000000000000000a00000000000000000000000000000000000000000000000000000000000000012000000000000000000000000000000000000000000000000000000000000000a546573742056524332350000000000000000000000000000000000000000000000000000000000000000000000000000000000000000000000000000000000045456524300000000000000000000000000000000000000000000000000000000",
        "nonce": "0x75"
      },
      "additionalContracts": [],
      "isFixedGasLimit": false
    },
    {
      "hash": "0xe7a94e555e8cab5a2c419d07ec80761bb44b5d613a0f396343dbba418fccd91e",
      "transactionType": "CALL",
      "contractName": null,
      "contractAddress": "0x8c0faeb5C6bEd2129b8674F262Fd45c4e9468bee",
      "function": null,
      "arguments": null,
      "transaction": {
        "type": "0x00",
        "from": "0x08ca4dca530a7c02d7755455aeb24b63a41c8608",
        "to": "0x8c0faeb5c6bed2129b8674f262fd45c4e9468bee",
        "gas": "0x1b421",
        "value": "0x8ac7230489e80000",
        "data": "0xc6b32f34000000000000000000000000b2b230c9f60efef3f6a023f74a2966dc029fbd6b",
        "nonce": "0x76"
      },
      "additionalContracts": [],
      "isFixedGasLimit": false
    },
    {
      "hash": "0x10f72e7aacdb16e5afde8662046c713f58be3736155792615bad5ea3f7d70054",
      "transactionType": "CALL",
      "contractName": "MockVRC25",
      "contractAddress": "0xB2b230c9F60eFEf3F6a023f74a2966dC029fBd6B",
      "function": "mint(address,uint256)",
      "arguments": [
        "0x09C48Ca286972F72B8290C4e1F01CB0eC6185Ca0",
        "20000000000000000000"
      ],
      "transaction": {
        "type": "0x00",
        "from": "0x08ca4dca530a7c02d7755455aeb24b63a41c8608",
        "to": "0xb2b230c9f60efef3f6a023f74a2966dc029fbd6b",
        "gas": "0x194f1",
        "value": "0x0",
        "data": "0x40c10f1900000000000000000000000009c48ca286972f72b8290c4e1f01cb0ec6185ca0000000000000000000000000000000000000000000000001158e460913d00000",
        "nonce": "0x77"
      },
      "additionalContracts": [],
      "isFixedGasLimit": false
    },
    {
      "hash": "0xc4d63db1764e8b75b81c41af321f772f8f87f1eb7a7dc1ebe22fe6f3f72ffd33",
      "transactionType": "CALL",
      "contractName": "MockVRC25",
      "contractAddress": "0xB2b230c9F60eFEf3F6a023f74a2966dC029fBd6B",
      "function": "transfer(address,uint256)",
      "arguments": [
        "0xCb1d8DBBD067fF81B6083d0dFcE6eb2d968f943E",
        "5000000000000000000"
      ],
      "transaction": {
        "type": "0x00",
        "from": "0x09c48ca286972f72b8290c4e1f01cb0ec6185ca0",
        "to": "0xb2b230c9f60efef3f6a023f74a2966dc029fbd6b",
        "gas": "0x170b3",
        "value": "0x0",
        "data": "0xa9059cbb000000000000000000000000cb1d8dbbd067ff81b6083d0dfce6eb2d968f943e0000000000000000000000000000000000000000000000004563918244f40000",
        "nonce": "0x13"
      },
      "additionalContracts": [],
      "isFixedGasLimit": false
    },
    {
      "hash": "0xde470ab8d24fd552eefc0460cb61af2f746cbc9ec42c8e696e9b4192732c5416",
      "transactionType": "CALL",
      "contractName": "MockVRC25",
      "contractAddress": "0xB2b230c9F60eFEf3F6a023f74a2966dC029fBd6B",
      "function": "transfer(address,uint256)",
      "arguments": [
        "0xCb1d8DBBD067fF81B6083d0dFcE6eb2d968f943E",
        "5000000000000000000"
      ],
      "transaction": {
        "type": "0x00",
        "from": "0x09c48ca286972f72b8290c4e1f01cb0ec6185ca0",
        "to": "0xb2b230c9f60efef3f6a023f74a2966dc029fbd6b",
        "gas": "0xfff3",
        "value": "0x0",
        "data": "0xa9059cbb000000000000000000000000cb1d8dbbd067ff81b6083d0dfce6eb2d968f943e0000000000000000000000000000000000000000000000004563918244f40000",
        "nonce": "0x14"
      },
      "additionalContracts": [],
      "isFixedGasLimit": false
    }
  ],
  "receipts": [
    {
      "transactionHash": "0xbd858bd13790471ca40b76754f297656f6df4059df721a8fab1d0433d0b33886",
      "transactionIndex": "0x1",
      "blockHash": "0xbb216dc07aad9203ec0a0c66261e2d86bbb4ee540fa59a6ed8a5073a94542bc8",
      "blockNumber": "0x3807d",
      "from": "0x08cA4DCa530A7c02d7755455AeB24B63A41C8608",
      "to": null,
      "cumulativeGasUsed": "0x15c104",
      "gasUsed": "0x15c104",
      "contractAddress": "0xB2b230c9F60eFEf3F6a023f74a2966dC029fBd6B",
      "logs": [],
      "status": "0x1",
      "logsBloom": "0x00000000000000000000000000000000000000000000000000000000000000000000000000000000000000000000000000000000000000000000000000000000000000000000000000000000000000000000000000000000000000000000000000000000000000000000000000000000000000000000000000000000000000000000000000000000000000000000000000000000000000000000000000000000000000000000000000000000000000000000000000000000000000000000000000000000000000000000000000000000000000000000000000000000000000000000000000000000000000000000000000000000000000000000000000000000"
    },
    {
      "transactionHash": "0xe7a94e555e8cab5a2c419d07ec80761bb44b5d613a0f396343dbba418fccd91e",
      "transactionIndex": "0x1",
      "blockHash": "0xc4d9077a5d70bab5989990412fe7c85a3b708105fe877bc8a2725bb58e494fb2",
      "blockNumber": "0x38080",
      "from": "0x08cA4DCa530A7c02d7755455AeB24B63A41C8608",
      "to": "0x8c0faeb5C6bEd2129b8674F262Fd45c4e9468bee",
      "cumulativeGasUsed": "0x12a5c",
      "gasUsed": "0x12a5c",
      "contractAddress": null,
      "logs": [
        {
          "address": "0x8c0faeb5C6bEd2129b8674F262Fd45c4e9468bee",
          "topics": [
            "0x2d485624158277d5113a56388c3abf5c20e3511dd112123ba376d16b21e4d716",
            "0x00000000000000000000000008ca4dca530a7c02d7755455aeb24b63a41c8608",
            "0x000000000000000000000000b2b230c9f60efef3f6a023f74a2966dc029fbd6b"
          ],
          "data": "0x0000000000000000000000000000000000000000000000008ac7230489e80000",
          "blockHash": "0x204423f58de67bec60cd644613f8af76207bce21e42da3daf676e7d2bc02eea1",
          "blockNumber": "0x38080",
          "transactionHash": "0xe7a94e555e8cab5a2c419d07ec80761bb44b5d613a0f396343dbba418fccd91e",
          "transactionIndex": "0x1",
          "logIndex": "0x1",
          "removed": false
        }
      ],
      "status": "0x1",
      "logsBloom": "0x00000000000000000000000000000000000000000000000000000000000000000000000000000000000000000000000000000000000800000000000000000000002000000000000000000000000000000000000000000000000000000000000000000000000000000000000000000000000000000000000000000000000000000000000000000000000010000000200000000000400004000000000000000000000000000000000000000000000000000000000000000000820000010000000000000000000000000000000000000008000000020000000000000000000000000000000000000000000000000000000000000000000004000000000000000000"
    },
    {
      "transactionHash": "0x10f72e7aacdb16e5afde8662046c713f58be3736155792615bad5ea3f7d70054",
      "transactionIndex": "0x1",
      "blockHash": "0xb07dfb7593ab0996ae8cda5f838a6c7f7d60b3b5c123664996eda9f9fcca62a7",
      "blockNumber": "0x38084",
      "from": "0x08cA4DCa530A7c02d7755455AeB24B63A41C8608",
      "to": "0xB2b230c9F60eFEf3F6a023f74a2966dC029fBd6B",
      "cumulativeGasUsed": "0x10bf3",
      "gasUsed": "0x10bf3",
      "contractAddress": null,
      "logs": [
        {
          "address": "0xB2b230c9F60eFEf3F6a023f74a2966dC029fBd6B",
          "topics": [
            "0xddf252ad1be2c89b69c2b068fc378daa952ba7f163c4a11628f55a4df523b3ef",
            "0x0000000000000000000000000000000000000000000000000000000000000000",
            "0x00000000000000000000000009c48ca286972f72b8290c4e1f01cb0ec6185ca0"
          ],
          "data": "0x000000000000000000000000000000000000000000000001158e460913d00000",
          "blockHash": "0x43253af4ff639e47f20fcd9260ee74050279a892ba6e9d6740f5cac97d2ca8c0",
          "blockNumber": "0x38084",
          "transactionHash": "0x10f72e7aacdb16e5afde8662046c713f58be3736155792615bad5ea3f7d70054",
          "transactionIndex": "0x1",
          "logIndex": "0x1",
          "removed": false
        }
      ],
      "status": "0x1",
      "logsBloom": "0x00000000000000000000000008000000000000000000000000000000000000000000000008000000000000000000000000000000000000000000000000000000000000000000000000000008000000000000000000000000000000000000000000000000020000000000000000000c00000000000000000000000010000000000000000000000000100000000000000000000000000000000000000000000000000000000000000000000000000000000000000000000000000000000000000000000002000000000000000000000000000000000000000000000000000020000000000000000000000004000000000200000000000000000000000000000000"
    },
    {
      "transactionHash": "0xc4d63db1764e8b75b81c41af321f772f8f87f1eb7a7dc1ebe22fe6f3f72ffd33",
      "transactionIndex": "0x1",
      "blockHash": "0xfd98ebf614dd92ce88845421a2d4c8d7b1fab93cbd2eb2cdc3cb2c2e47fb3dc2",
      "blockNumber": "0x38088",
      "from": "0x09C48Ca286972F72B8290C4e1F01CB0eC6185Ca0",
      "to": "0xB2b230c9F60eFEf3F6a023f74a2966dC029fBd6B",
      "cumulativeGasUsed": "0x15887",
      "gasUsed": "0x15887",
      "contractAddress": null,
      "logs": [
        {
          "address": "0xB2b230c9F60eFEf3F6a023f74a2966dC029fBd6B",
          "topics": [
            "0xddf252ad1be2c89b69c2b068fc378daa952ba7f163c4a11628f55a4df523b3ef",
            "0x00000000000000000000000009c48ca286972f72b8290c4e1f01cb0ec6185ca0",
            "0x000000000000000000000000cb1d8dbbd067ff81b6083d0dfce6eb2d968f943e"
          ],
          "data": "0x0000000000000000000000000000000000000000000000004563918244f40000",
          "blockHash": "0xddbbdfb05a74811bd9f7b738ad59c2334efc261d6a390ae044a6e7ac4ba66b77",
          "blockNumber": "0x38088",
          "transactionHash": "0xc4d63db1764e8b75b81c41af321f772f8f87f1eb7a7dc1ebe22fe6f3f72ffd33",
          "transactionIndex": "0x1",
          "logIndex": "0x1",
          "removed": false
        },
        {
          "address": "0xB2b230c9F60eFEf3F6a023f74a2966dC029fBd6B",
          "topics": [
            "0xddf252ad1be2c89b69c2b068fc378daa952ba7f163c4a11628f55a4df523b3ef",
            "0x00000000000000000000000009c48ca286972f72b8290c4e1f01cb0ec6185ca0",
            "0x00000000000000000000000008ca4dca530a7c02d7755455aeb24b63a41c8608"
          ],
          "data": "0x0000000000000000000000000000000000000000000000000000100a15b68300",
          "blockHash": "0xddbbdfb05a74811bd9f7b738ad59c2334efc261d6a390ae044a6e7ac4ba66b77",
          "blockNumber": "0x38088",
          "transactionHash": "0xc4d63db1764e8b75b81c41af321f772f8f87f1eb7a7dc1ebe22fe6f3f72ffd33",
          "transactionIndex": "0x1",
          "logIndex": "0x2",
          "removed": false
        }
      ],
      "status": "0x1",
      "logsBloom": "0x00000000000000000000000008000000000100000000000000000000000000000000000008000000000000000000000000000000000800000000000000000000000000000020000000000008000000000000000000000000000000000000000000000000000000000000000000000400000000000000000000000010000000000000000000000000100000000000000000000000000000000000000000000000000000000000000000000000000000000000000000000020000000000000000000000002000000000000000000000008000000020000000000000000000000000000000000000000000004000000000200000000000000000000000000000000"
    },
    {
      "transactionHash": "0xde470ab8d24fd552eefc0460cb61af2f746cbc9ec42c8e696e9b4192732c5416",
      "transactionIndex": "0x1",
      "blockHash": "0xf0b4f7e99ec7e0552fb0f4905daafced9e9a93d22c0f13b7258abc164e08a925",
      "blockNumber": "0x3808c",
      "from": "0x09C48Ca286972F72B8290C4e1F01CB0eC6185Ca0",
      "to": "0xB2b230c9F60eFEf3F6a023f74a2966dC029fBd6B",
      "cumulativeGasUsed": "0xe307",
      "gasUsed": "0xe307",
      "contractAddress": null,
      "logs": [
        {
          "address": "0xB2b230c9F60eFEf3F6a023f74a2966dC029fBd6B",
          "topics": [
            "0xddf252ad1be2c89b69c2b068fc378daa952ba7f163c4a11628f55a4df523b3ef",
            "0x00000000000000000000000009c48ca286972f72b8290c4e1f01cb0ec6185ca0",
            "0x000000000000000000000000cb1d8dbbd067ff81b6083d0dfce6eb2d968f943e"
          ],
          "data": "0x0000000000000000000000000000000000000000000000004563918244f40000",
          "blockHash": "0xbc2cfe2e2e372bf2b156fd74fdcf8fc82dadf4a580083ff708fc167b35284246",
          "blockNumber": "0x3808c",
          "transactionHash": "0xde470ab8d24fd552eefc0460cb61af2f746cbc9ec42c8e696e9b4192732c5416",
          "transactionIndex": "0x1",
          "logIndex": "0x1",
          "removed": false
        },
        {
          "address": "0xB2b230c9F60eFEf3F6a023f74a2966dC029fBd6B",
          "topics": [
            "0xddf252ad1be2c89b69c2b068fc378daa952ba7f163c4a11628f55a4df523b3ef",
            "0x00000000000000000000000009c48ca286972f72b8290c4e1f01cb0ec6185ca0",
            "0x00000000000000000000000008ca4dca530a7c02d7755455aeb24b63a41c8608"
          ],
          "data": "0x0000000000000000000000000000000000000000000000000000093332c8c300",
          "blockHash": "0xbc2cfe2e2e372bf2b156fd74fdcf8fc82dadf4a580083ff708fc167b35284246",
          "blockNumber": "0x3808c",
          "transactionHash": "0xde470ab8d24fd552eefc0460cb61af2f746cbc9ec42c8e696e9b4192732c5416",
          "transactionIndex": "0x1",
          "logIndex": "0x2",
          "removed": false
        }
      ],
      "status": "0x1",
      "logsBloom": "0x00000000000000000000000008000000000100000000000000000000000000000000000008000000000000000000000000000000000800000000000000000000000000000020000000000008000000000000000000000000000000000000000000000000000000000000000000000400000000000000000000000010000000000000000000000000100000000000000000000000000000000000000000000000000000000000000000000000000000000000000000000020000000000000000000000002000000000000000000000008000000020000000000000000000000000000000000000000000004000000000200000000000000000000000000000000"
    }
  ],
  "libraries": [],
  "pending": [],
  "returns": {},
  "timestamp": 1703451297,
  "chain": 89,
  "multi": false,
  "commit": "709cba2"
}