{
  "transactions": [
    {
      "hash": "0xbd93971849e4cecaa56407641ef6c35881d5212fffddfe8bc06392b85a94a864",
      "transactionType": "CREATE",
      "contractName": "MockVRC25",
      "contractAddress": "0xD7b084d7C708c6D83E221C8dD20A70EdB4938a7A",
      "function": null,
      "arguments": null,
      "transaction": {
        "type": "0x00",
        "from": "0x08ca4dca530a7c02d7755455aeb24b63a41c8608",
        "gas": "0x17a481",
        "value": "0x0",
        "data": "0x6101406040523480156200001257600080fd5b50604051620016e8380380620016e8833981016040819052620000359162000228565b60405180604001604052806005815260200164565243323560d81b815250604051806040016040528060018152602001603160f81b81525084848482828282600590816200008491906200033c565b5060066200009383826200033c565b506007805460ff90921660ff199092169190911790555050600280546001600160a01b031916331790555050825160208085019190912083519184019190912060e08290526101008190529091507f8b73c3c69bb8fe3d512ecc4cf759cc79239f7b179b0ffacaa9a75d522b39400f6200010a4690565b60a09081526040805160208082018590528183018790526060820186905246608083015230828501528251808303909401845260c090910190915281519101206080523060c05261012052506200040895505050505050565b634e487b7160e01b600052604160045260246000fd5b600082601f8301126200018b57600080fd5b81516001600160401b0380821115620001a857620001a862000163565b604051601f8301601f19908116603f01168101908282118183101715620001d357620001d362000163565b81604052838152602092508683858801011115620001f057600080fd5b600091505b83821015620002145785820183015181830184015290820190620001f5565b600093810190920192909252949350505050565b6000806000606084860312156200023e57600080fd5b83516001600160401b03808211156200025657600080fd5b620002648783880162000179565b945060208601519150808211156200027b57600080fd5b506200028a8682870162000179565b925050604084015160ff81168114620002a257600080fd5b809150509250925092565b600181811c90821680620002c257607f821691505b602082108103620002e357634e487b7160e01b600052602260045260246000fd5b50919050565b601f8211156200033757600081815260208120601f850160051c81016020861015620003125750805b601f850160051c820191505b8181101562000333578281556001016200031e565b5050505b505050565b81516001600160401b0381111562000358576200035862000163565b6200037081620003698454620002ad565b84620002e9565b602080601f831160018114620003a857600084156200038f5750858301515b600019600386901b1c1916600185901b17855562000333565b600085815260208120601f198616915b82811015620003d957888601518255948401946001909101908401620003b8565b5085821015620003f85787850151600019600388901b60f8161c191681555b5050505050600190811b01905550565b60805160a05160c05160e05161010051610120516112a2620004466000396000505060005050600050506000505060005050600050506112a26000f3fe608060405234801561001057600080fd5b506004361061012c5760003560e01c806342966c68116100ad5780638da5cb5b116100715780638da5cb5b146101aa57806395d89b4114610274578063a9059cbb1461027c578063dd62ed3e1461028f578063f2fde38b146102c857600080fd5b806342966c681461020857806369fe0e2d1461021b57806370a082311461023057806371ee951c1461025957806379ba50971461026c57600080fd5b80631d143848116100f45780631d143848146101aa57806323b872dd146101c557806324ec7590146101d8578063313ce567146101e057806340c10f19146101f557600080fd5b806301ffc9a71461013157806306fdde0314610159578063095ea7b31461016e578063127e8e4d1461018157806318160ddd146101a2575b600080fd5b61014461013f366004611013565b6102db565b60405190151581526020015b60405180910390f35b610161610312565b604051610150919061103d565b61014461017c3660046110a2565b6103a4565b61019461018f3660046110cc565b6103d3565b604051908152602001610150565b600854610194565b6002546040516001600160a01b039091168152602001610150565b6101446101d33660046110e5565b6103f2565b600154610194565b60075460405160ff9091168152602001610150565b6101446102033660046110a2565b610500565b6101446102163660046110cc565b610540565b61022e6102293660046110cc565b610564565b005b61019461023e366004611121565b6001600160a01b031660009081526020819052604090205490565b6101946102673660046110a2565b6105c9565b61022e6106ca565b610161610794565b61014461028a3660046110a2565b6107a3565b61019461029d36600461113c565b6001600160a01b03918216600090815260046020908152604080832093909416825291909152205490565b61022e6102d6366004611121565b610911565b60006001600160e01b03198216630861786560e01b148061030c5750630861786560e01b6001600160e01b03198316145b92915050565b6060600580546103219061116f565b80601f016020809104026020016040519081016040528092919081815260200182805461034d9061116f565b801561039a5780601f1061036f5761010080835404028352916020019161039a565b820191906000526020600020905b81548152906001019060200180831161037d57829003601f168201915b5050505050905090565b6000806103b160006103d3565b90506103be3385856109bf565b6103c9333083610ae4565b5060019392505050565b6000333b156103e457506000919050565b61030c82610b5e565b919050565b6000806103fe836103d3565b905061040a8382610b69565b6001600160a01b038616600090815260046020908152604080832033845290915290205410156104815760405162461bcd60e51b815260206004820152601e60248201527f56524332353a20616d6f756e742065786565647320616c6c6f77616e6365000060448201526064015b60405180910390fd5b6001600160a01b03851660009081526004602090815260408083203384529091529020546104bb9082906104b59086610bc8565b90610bc8565b6001600160a01b03861660009081526004602090815260408083203384529091529020556104ea858585610c24565b6104f5858583610ae4565b506001949350505050565b6002546000906001600160a01b0316331461052d5760405162461bcd60e51b8152600401610478906111a9565b6105378383610df1565b50600192915050565b60008061054d60006103d3565b90506105593384610ed0565b610537333083610ae4565b6002546001600160a01b0316331461058e5760405162461bcd60e51b8152600401610478906111a9565b60018190556040518181527f8c4d35e54a3f2ef1134138fd8ea3daee6a3c89e10d2665996babdf70261e2c769060200160405180910390a150565b6040516370a0823160e01b81526001600160a01b038316600482015260009061447b9030906370a0823190602401602060405180830381865afa158015610614573d6000803e3d6000fd5b505050506040513d601f19601f8201168201806040525081019061063891906111e0565b60000361064e5761064b613ae88261120f565b90505b6040516370a0823160e01b8152336004820152839030906370a0823190602401602060405180830381865afa15801561068b573d6000803e3d6000fd5b505050506040513d601f19601f820116820180604052508101906106af91906111e0565b036106c3576106c0613a4882611222565b90505b9392505050565b6003546001600160a01b031633146107375760405162461bcd60e51b815260206004820152602a60248201527f56524332353a206f6e6c79206e6577206f776e65722063616e206163636570746044820152690206f776e6572736869760b41b6064820152608401610478565b60028054600380546001600160a01b03198084166001600160a01b038381169182179096559116909155604051929091169182907f8be0079c531659141344cd1fd0a4f28419497f9722a3daafe3b4186f6b6457e090600090a350565b6060600680546103219061116f565b6000805a905060006107b4846103d3565b90506107c1338686610c24565b6107cc338683610ae4565b6001925050600160006107e76002546001600160a01b031690565b905060005a6107f69085611222565b905060008051602061124d8339815191525a60405190815260200160405180910390a160008051602061124d8339815191525a60405190815260200160405180910390a1600061084a836102673a85611235565b905060008051602061124d8339815191525a60405190815260200160405180910390a16000610879838361120f565b905060006108873a83611235565b905060006108958783611235565b90506108a2338783610c24565b6040518181526001600160a01b0387169033907f29b8cd3b4433db59dcfbf8ab8ca612f43329533f0c89eb9a07510bf901d28d0e9060200160405180910390a360008051602061124d8339815191525a60405190815260200160405180910390a1505050505050505092915050565b6002546001600160a01b0316331461093b5760405162461bcd60e51b8152600401610478906111a9565b6001600160a01b03811661099d5760405162461bcd60e51b8152602060048201526024808201527f56524332353a206e6577206f776e657220697320746865207a65726f206164646044820152637265737360e01b6064820152608401610478565b600380546001600160a01b0319166001600160a01b0392909216919091179055565b6001600160a01b038316610a215760405162461bcd60e51b8152602060048201526024808201527f56524332353a20617070726f76652066726f6d20746865207a65726f206164646044820152637265737360e01b6064820152608401610478565b6001600160a01b038216610a825760405162461bcd60e51b815260206004820152602260248201527f56524332353a20617070726f766520746f20746865207a65726f206164647265604482015261737360f01b6064820152608401610478565b6001600160a01b0383811660008181526004602090815260408083209487168084529482529182902085905590518481527f8c5be1e5ebec7d5bd14f71427d1e84f3dd0314c0f7b2291e5b200ac8c7c3b92591015b60405180910390a3505050565b333b15610af057505050565b8015610b5957600254610b0e9084906001600160a01b031683610c24565b6002546040518281526001600160a01b039182169184811691908616907ffcf5b3276434181e3c48bd3fe569b8939808f11e845d4b963693b9d7dbd6dd999060200160405180910390a45b505050565b600061030c60015490565b600080610b76838561120f565b9050838110156106c35760405162461bcd60e51b815260206004820152601b60248201527f536166654d6174683a206164646974696f6e206f766572666c6f7700000000006044820152606401610478565b600082821115610c1a5760405162461bcd60e51b815260206004820152601e60248201527f536166654d6174683a207375627472616374696f6e206f766572666c6f7700006044820152606401610478565b6106c38284611222565b6001600160a01b038316610c885760405162461bcd60e51b815260206004820152602560248201527f56524332353a207472616e736665722066726f6d20746865207a65726f206164604482015264647265737360d81b6064820152608401610478565b6001600160a01b038216610cea5760405162461bcd60e51b815260206004820152602360248201527f56524332353a207472616e7366657220746f20746865207a65726f206164647260448201526265737360e81b6064820152608401610478565b6001600160a01b038316600090815260208190526040902054811115610d4e5760405162461bcd60e51b815260206004820152601960248201527856524332353a20696e7375666669656e742062616c616e636560381b6044820152606401610478565b6001600160a01b038316600090815260208190526040902054610d719082610bc8565b6001600160a01b038085166000908152602081905260408082209390935590841681522054610da09082610b69565b6001600160a01b038381166000818152602081815260409182902094909455518481529092918616917fddf252ad1be2c89b69c2b068fc378daa952ba7f163c4a11628f55a4df523b3ef9101610ad7565b6001600160a01b038216610e475760405162461bcd60e51b815260206004820152601f60248201527f56524332353a206d696e7420746f20746865207a65726f2061646472657373006044820152606401610478565b600854610e549082610b69565b6008556001600160a01b038216600090815260208190526040902054610e7a9082610b69565b6001600160a01b038316600081815260208181526040808320949094559251848152919290917fddf252ad1be2c89b69c2b068fc378daa952ba7f163c4a11628f55a4df523b3ef91015b60405180910390a35050565b6001600160a01b038216610f305760405162461bcd60e51b815260206004820152602160248201527f56524332353a206275726e2066726f6d20746865207a65726f206164647265736044820152607360f81b6064820152608401610478565b6001600160a01b038216600090815260208190526040902054811115610f945760405162461bcd60e51b815260206004820152601960248201527856524332353a20696e7375666669656e742062616c616e636560381b6044820152606401610478565b600854610fa19082610bc8565b6008556001600160a01b038216600090815260208190526040902054610fc79082610bc8565b6001600160a01b03831660008181526020818152604080832094909455925184815290927fddf252ad1be2c89b69c2b068fc378daa952ba7f163c4a11628f55a4df523b3ef9101610ec4565b60006020828403121561102557600080fd5b81356001600160e01b0319811681146106c357600080fd5b600060208083528351808285015260005b8181101561106a5785810183015185820160400152820161104e565b506000604082860101526040601f19601f8301168501019250505092915050565b80356001600160a01b03811681146103ed57600080fd5b600080604083850312156110b557600080fd5b6110be8361108b565b946020939093013593505050565b6000602082840312156110de57600080fd5b5035919050565b6000806000606084860312156110fa57600080fd5b6111038461108b565b92506111116020850161108b565b9150604084013590509250925092565b60006020828403121561113357600080fd5b6106c38261108b565b6000806040838503121561114f57600080fd5b6111588361108b565b91506111666020840161108b565b90509250929050565b600181811c9082168061118357607f821691505b6020821081036111a357634e487b7160e01b600052602260045260246000fd5b50919050565b6020808252601e908201527f56524332353a2063616c6c6572206973206e6f7420746865206f776e65720000604082015260600190565b6000602082840312156111f257600080fd5b5051919050565b634e487b7160e01b600052601160045260246000fd5b8082018082111561030c5761030c6111f9565b8181038181111561030c5761030c6111f9565b808202811582820484141761030c5761030c6111f956fec655c9e658fa20c26ca4e095cb3e093e268995fd1afa326c26a839e20f160d5ca2646970667358221220b7a5144cec7d8265965a71f3e2d4ce4968bbb8f58bd6afe65f6c5c47e1224c2f64736f6c63430008110033000000000000000000000000000000000000000000000000000000000000006000000000000000000000000000000000000000000000000000000000000000a00000000000000000000000000000000000000000000000000000000000000012000000000000000000000000000000000000000000000000000000000000000a546573742056524332350000000000000000000000000000000000000000000000000000000000000000000000000000000000000000000000000000000000045456524300000000000000000000000000000000000000000000000000000000",
        "nonce": "0x72"
      },
      "additionalContracts": [],
      "isFixedGasLimit": false
    },
    {
      "hash": "0x965de60e0598a84d31ec5d2d09bfbb47201b4443d10c2ac8f1a851e027e70f74",
      "transactionType": "CALL",
      "contractName": null,
      "contractAddress": "0x8c0faeb5C6bEd2129b8674F262Fd45c4e9468bee",
      "function": null,
      "arguments": null,
      "transaction": {
        "type": "0x00",
        "from": "0x08ca4dca530a7c02d7755455aeb24b63a41c8608",
        "to": "0x8c0faeb5c6bed2129b8674f262fd45c4e9468bee",
        "gas": "0x1b421",
        "value": "0x8ac7230489e80000",
        "data": "0xc6b32f34000000000000000000000000d7b084d7c708c6d83e221c8dd20a70edb4938a7a",
        "nonce": "0x73"
      },
      "additionalContracts": [],
      "isFixedGasLimit": false
    },
    {
      "hash": "0xcb0af23c894701ab64b5c8fae3bdd77071040501c1969fce020becf9f0847533",
      "transactionType": "CALL",
      "contractName": "MockVRC25",
      "contractAddress": "0xD7b084d7C708c6D83E221C8dD20A70EdB4938a7A",
      "function": "mint(address,uint256)",
      "arguments": [
        "0x09C48Ca286972F72B8290C4e1F01CB0eC6185Ca0",
        "20000000000000000000"
      ],
      "transaction": {
        "type": "0x00",
        "from": "0x08ca4dca530a7c02d7755455aeb24b63a41c8608",
        "to": "0xd7b084d7c708c6d83e221c8dd20a70edb4938a7a",
        "gas": "0x194f1",
        "value": "0x0",
        "data": "0x40c10f1900000000000000000000000009c48ca286972f72b8290c4e1f01cb0ec6185ca0000000000000000000000000000000000000000000000001158e460913d00000",
        "nonce": "0x74"
      },
      "additionalContracts": [],
      "isFixedGasLimit": false
    },
    {
      "hash": "0x98000143d42771f93936ad305ae1f1f263fd0f3c5e4ab6e3989479c5fb64dfeb",
      "transactionType": "CALL",
      "contractName": "MockVRC25",
      "contractAddress": "0xD7b084d7C708c6D83E221C8dD20A70EdB4938a7A",
      "function": "transfer(address,uint256)",
      "arguments": [
        "0xCb1d8DBBD067fF81B6083d0dFcE6eb2d968f943E",
        "5000000000000000000"
      ],
      "transaction": {
        "type": "0x00",
        "from": "0x09c48ca286972f72b8290c4e1f01cb0ec6185ca0",
        "to": "0xd7b084d7c708c6d83e221c8dd20a70edb4938a7a",
        "gas": "0x17d0a",
        "value": "0x0",
        "data": "0xa9059cbb000000000000000000000000cb1d8dbbd067ff81b6083d0dfce6eb2d968f943e0000000000000000000000000000000000000000000000004563918244f40000",
        "nonce": "0x11"
      },
      "additionalContracts": [],
      "isFixedGasLimit": false
    },
    {
      "hash": "0x5cb221d342171111b94641ab3ad340529fe61fa3f6269c1b1595dcf22c0a0385",
      "transactionType": "CALL",
      "contractName": "MockVRC25",
      "contractAddress": "0xD7b084d7C708c6D83E221C8dD20A70EdB4938a7A",
      "function": "transfer(address,uint256)",
      "arguments": [
        "0xCb1d8DBBD067fF81B6083d0dFcE6eb2d968f943E",
        "5000000000000000000"
      ],
      "transaction": {
        "type": "0x00",
        "from": "0x09c48ca286972f72b8290c4e1f01cb0ec6185ca0",
        "to": "0xd7b084d7c708c6d83e221c8dd20a70edb4938a7a",
        "gas": "0x131c4",
        "value": "0x0",
        "data": "0xa9059cbb000000000000000000000000cb1d8dbbd067ff81b6083d0dfce6eb2d968f943e0000000000000000000000000000000000000000000000004563918244f40000",
        "nonce": "0x12"
      },
      "additionalContracts": [],
      "isFixedGasLimit": false
    }
  ],
  "receipts": [
    {
      "transactionHash": "0xbd93971849e4cecaa56407641ef6c35881d5212fffddfe8bc06392b85a94a864",
      "transactionIndex": "0x1",
      "blockHash": "0x8cf54c98348ae2b4b49c376df6522515f17d333d1975fa9410a8327b9008393f",
      "blockNumber": "0x37e6a",
      "from": "0x08cA4DCa530A7c02d7755455AeB24B63A41C8608",
      "to": null,
      "cumulativeGasUsed": "0x16a146",
      "gasUsed": "0x16a146",
      "contractAddress": "0xD7b084d7C708c6D83E221C8dD20A70EdB4938a7A",
      "logs": [],
      "status": "0x1",
      "logsBloom": "0x00000000000000000000000000000000000000000000000000000000000000000000000000000000000000000000000000000000000000000000000000000000000000000000000000000000000000000000000000000000000000000000000000000000000000000000000000000000000000000000000000000000000000000000000000000000000000000000000000000000000000000000000000000000000000000000000000000000000000000000000000000000000000000000000000000000000000000000000000000000000000000000000000000000000000000000000000000000000000000000000000000000000000000000000000000000"
    },
    {
      "transactionHash": "0x965de60e0598a84d31ec5d2d09bfbb47201b4443d10c2ac8f1a851e027e70f74",
      "transactionIndex": "0x1",
      "blockHash": "0xdbdf0aa8956973abe49bd97f5e4d691a65cd178e7dcdedd7a4fa6b15f4d208d2",
      "blockNumber": "0x37e6e",
      "from": "0x08cA4DCa530A7c02d7755455AeB24B63A41C8608",
      "to": "0x8c0faeb5C6bEd2129b8674F262Fd45c4e9468bee",
      "cumulativeGasUsed": "0x12a5c",
      "gasUsed": "0x12a5c",
      "contractAddress": null,
      "logs": [
        {
          "address": "0x8c0faeb5C6bEd2129b8674F262Fd45c4e9468bee",
          "topics": [
            "0x2d485624158277d5113a56388c3abf5c20e3511dd112123ba376d16b21e4d716",
            "0x00000000000000000000000008ca4dca530a7c02d7755455aeb24b63a41c8608",
            "0x000000000000000000000000d7b084d7c708c6d83e221c8dd20a70edb4938a7a"
          ],
          "data": "0x0000000000000000000000000000000000000000000000008ac7230489e80000",
          "blockHash": "0xdbdf0aa8956973abe49bd97f5e4d691a65cd178e7dcdedd7a4fa6b15f4d208d2",
          "blockNumber": "0x37e6e",
          "transactionHash": "0x965de60e0598a84d31ec5d2d09bfbb47201b4443d10c2ac8f1a851e027e70f74",
          "transactionIndex": "0x1",
          "logIndex": "0x1",
          "removed": false
        }
      ],
      "status": "0x1",
      "logsBloom": "0x00000000000000000000000000000000000000000000000000000000000000000000000000000000000000000000000000000001000800000000000000000000002000000000000000000000000000000000000000000008000000000000000000000000000000000000000000000000000000000000000000000000000000000000000000000000000010000000200000000000400000000000000000000000000000000000000000000000000000000000000000000000020000010000000002000000000000000000000000000008000000020000000000000000000000000000000000000000000000000000000000000000000000000000000000000000"
    },
    {
      "transactionHash": "0xcb0af23c894701ab64b5c8fae3bdd77071040501c1969fce020becf9f0847533",
      "transactionIndex": "0x1",
      "blockHash": "0x3a56922e2e159fccd1922739ac253648ef3c84b92d4cfb2c0f8c3a1f4048108c",
      "blockNumber": "0x37e71",
      "from": "0x08cA4DCa530A7c02d7755455AeB24B63A41C8608",
      "to": "0xD7b084d7C708c6D83E221C8dD20A70EdB4938a7A",
      "cumulativeGasUsed": "0x10bf3",
      "gasUsed": "0x10bf3",
      "contractAddress": null,
      "logs": [
        {
          "address": "0xD7b084d7C708c6D83E221C8dD20A70EdB4938a7A",
          "topics": [
            "0xddf252ad1be2c89b69c2b068fc378daa952ba7f163c4a11628f55a4df523b3ef",
            "0x0000000000000000000000000000000000000000000000000000000000000000",
            "0x00000000000000000000000009c48ca286972f72b8290c4e1f01cb0ec6185ca0"
          ],
          "data": "0x000000000000000000000000000000000000000000000001158e460913d00000",
          "blockHash": "0xc8a0be86dbb8dc89c6e41cf9e1d828ac6eecff88070b10bdecd0edeca63614a5",
          "blockNumber": "0x37e71",
          "transactionHash": "0xcb0af23c894701ab64b5c8fae3bdd77071040501c1969fce020becf9f0847533",
          "transactionIndex": "0x1",
          "logIndex": "0x1",
          "removed": false
        }
      ],
      "status": "0x1",
      "logsBloom": "0x00000000000000000000000008000008000000000000000000000000000000000000000000000000000000000000000000000000000000000000000000000000000000001000000000000008000000000000000000000000000000000000000000000000020000000000000000000c00000000000000000000000010000000000000000000000000000000000000000000000000000000000000000000000000000000000000000000000000000000000000000000000000000000000000000000000002000000000000000000000000000000000100000000000000000020000000000000000000000000000000000200000000000000000000000000000000"
    },
    {
      "transactionHash": "0x98000143d42771f93936ad305ae1f1f263fd0f3c5e4ab6e3989479c5fb64dfeb",
      "transactionIndex": "0x1",
      "blockHash": "0x2e9612980725e204ae583f4c9337515602d9685801f8ef6505f91c392f2087d9",
      "blockNumber": "0x37e75",
      "from": "0x09C48Ca286972F72B8290C4e1F01CB0eC6185Ca0",
      "to": "0xD7b084d7C708c6D83E221C8dD20A70EdB4938a7A",
      "cumulativeGasUsed": "0x1704b",
      "gasUsed": "0x1704b",
      "contractAddress": null,
      "logs": [
        {
          "address": "0xD7b084d7C708c6D83E221C8dD20A70EdB4938a7A",
          "topics": [
            "0xddf252ad1be2c89b69c2b068fc378daa952ba7f163c4a11628f55a4df523b3ef",
            "0x00000000000000000000000009c48ca286972f72b8290c4e1f01cb0ec6185ca0",
            "0x000000000000000000000000cb1d8dbbd067ff81b6083d0dfce6eb2d968f943e"
          ],
          "data": "0x0000000000000000000000000000000000000000000000004563918244f40000",
          "blockHash": "0x0acb3030c957da9a226785fcfd44d1e7ec23814cc010096d4a7eaff3627e18ac",
          "blockNumber": "0x37e75",
          "transactionHash": "0x98000143d42771f93936ad305ae1f1f263fd0f3c5e4ab6e3989479c5fb64dfeb",
          "transactionIndex": "0x1",
          "logIndex": "0x1",
          "removed": false
        },
        {
          "address": "0xD7b084d7C708c6D83E221C8dD20A70EdB4938a7A",
          "topics": [
            "0xc655c9e658fa20c26ca4e095cb3e093e268995fd1afa326c26a839e20f160d5c"
          ],
          "data": "0x0000000000000000000000000000000000000000000000000000000000009e07",
          "blockHash": "0x0acb3030c957da9a226785fcfd44d1e7ec23814cc010096d4a7eaff3627e18ac",
          "blockNumber": "0x37e75",
          "transactionHash": "0x98000143d42771f93936ad305ae1f1f263fd0f3c5e4ab6e3989479c5fb64dfeb",
          "transactionIndex": "0x1",
          "logIndex": "0x2",
          "removed": false
        },
        {
          "address": "0xD7b084d7C708c6D83E221C8dD20A70EdB4938a7A",
          "topics": [
            "0xc655c9e658fa20c26ca4e095cb3e093e268995fd1afa326c26a839e20f160d5c"
          ],
          "data": "0x00000000000000000000000000000000000000000000000000000000000099cc",
          "blockHash": "0x0acb3030c957da9a226785fcfd44d1e7ec23814cc010096d4a7eaff3627e18ac",
          "blockNumber": "0x37e75",
          "transactionHash": "0x98000143d42771f93936ad305ae1f1f263fd0f3c5e4ab6e3989479c5fb64dfeb",
          "transactionIndex": "0x1",
          "logIndex": "0x3",
          "removed": false
        },
        {
          "address": "0xD7b084d7C708c6D83E221C8dD20A70EdB4938a7A",
          "topics": [
            "0xc655c9e658fa20c26ca4e095cb3e093e268995fd1afa326c26a839e20f160d5c"
          ],
          "data": "0x00000000000000000000000000000000000000000000000000000000000082dc",
          "blockHash": "0x0acb3030c957da9a226785fcfd44d1e7ec23814cc010096d4a7eaff3627e18ac",
          "blockNumber": "0x37e75",
          "transactionHash": "0x98000143d42771f93936ad305ae1f1f263fd0f3c5e4ab6e3989479c5fb64dfeb",
          "transactionIndex": "0x1",
          "logIndex": "0x4",
          "removed": false
        },
        {
          "address": "0xD7b084d7C708c6D83E221C8dD20A70EdB4938a7A",
          "topics": [
            "0xddf252ad1be2c89b69c2b068fc378daa952ba7f163c4a11628f55a4df523b3ef",
            "0x00000000000000000000000009c48ca286972f72b8290c4e1f01cb0ec6185ca0",
            "0x00000000000000000000000008ca4dca530a7c02d7755455aeb24b63a41c8608"
          ],
          "data": "0x00000000000000000000000000000000000000000000000000000f01f03e5200",
          "blockHash": "0x0acb3030c957da9a226785fcfd44d1e7ec23814cc010096d4a7eaff3627e18ac",
          "blockNumber": "0x37e75",
          "transactionHash": "0x98000143d42771f93936ad305ae1f1f263fd0f3c5e4ab6e3989479c5fb64dfeb",
          "transactionIndex": "0x1",
          "logIndex": "0x5",
          "removed": false
        },
        {
          "address": "0xD7b084d7C708c6D83E221C8dD20A70EdB4938a7A",
          "topics": [
            "0x29b8cd3b4433db59dcfbf8ab8ca612f43329533f0c89eb9a07510bf901d28d0e",
            "0x00000000000000000000000009c48ca286972f72b8290c4e1f01cb0ec6185ca0",
            "0x00000000000000000000000008ca4dca530a7c02d7755455aeb24b63a41c8608"
          ],
          "data": "0x00000000000000000000000000000000000000000000000000000f01f03e5200",
          "blockHash": "0x0acb3030c957da9a226785fcfd44d1e7ec23814cc010096d4a7eaff3627e18ac",
          "blockNumber": "0x37e75",
          "transactionHash": "0x98000143d42771f93936ad305ae1f1f263fd0f3c5e4ab6e3989479c5fb64dfeb",
          "transactionIndex": "0x1",
          "logIndex": "0x6",
          "removed": false
        },
        {
          "address": "0xD7b084d7C708c6D83E221C8dD20A70EdB4938a7A",
          "topics": [
            "0xc655c9e658fa20c26ca4e095cb3e093e268995fd1afa326c26a839e20f160d5c"
          ],
          "data": "0x0000000000000000000000000000000000000000000000000000000000001125",
          "blockHash": "0x0acb3030c957da9a226785fcfd44d1e7ec23814cc010096d4a7eaff3627e18ac",
          "blockNumber": "0x37e75",
          "transactionHash": "0x98000143d42771f93936ad305ae1f1f263fd0f3c5e4ab6e3989479c5fb64dfeb",
          "transactionIndex": "0x1",
          "logIndex": "0x7",
          "removed": false
        }
      ],
      "status": "0x1",
      "logsBloom": "0x00000000000000000000000008008008000100000000000000000000000000000000000000000000000000000000000000000000000800000000000000000000000000001020000000000008000000000000000000000000000000000000000000000000000000000000000000020400000000000000000000000010000000000000000000000000000000000000001000000000000004000000000000000000000000000000000000000000000000000002000000000020000000000000000000000002000000000000000000000008000000020100000000000000000000000000200000000000000000000000000200000000000000000000000000000000"
    },
    {
      "transactionHash": "0x5cb221d342171111b94641ab3ad340529fe61fa3f6269c1b1595dcf22c0a0385",
      "transactionIndex": "0x1",
      "blockHash": "0x6b7fee1e6a64b5e38c8e6c98f57f55d5892bc80fc939f19538f50a812bdd1d31",
      "blockNumber": "0x37e79",
      "from": "0x09C48Ca286972F72B8290C4e1F01CB0eC6185Ca0",
      "to": "0xD7b084d7C708c6D83E221C8dD20A70EdB4938a7A",
      "cumulativeGasUsed": "0xfacb",
      "gasUsed": "0xfacb",
      "contractAddress": null,
      "logs": [
        {
          "address": "0xD7b084d7C708c6D83E221C8dD20A70EdB4938a7A",
          "topics": [
            "0xddf252ad1be2c89b69c2b068fc378daa952ba7f163c4a11628f55a4df523b3ef",
            "0x00000000000000000000000009c48ca286972f72b8290c4e1f01cb0ec6185ca0",
            "0x000000000000000000000000cb1d8dbbd067ff81b6083d0dfce6eb2d968f943e"
          ],
          "data": "0x0000000000000000000000000000000000000000000000004563918244f40000",
          "blockHash": "0x6b7fee1e6a64b5e38c8e6c98f57f55d5892bc80fc939f19538f50a812bdd1d31",
          "blockNumber": "0x37e79",
          "transactionHash": "0x5cb221d342171111b94641ab3ad340529fe61fa3f6269c1b1595dcf22c0a0385",
          "transactionIndex": "0x1",
          "logIndex": "0x1",
          "removed": false
        },
        {
          "address": "0xD7b084d7C708c6D83E221C8dD20A70EdB4938a7A",
          "topics": [
            "0xc655c9e658fa20c26ca4e095cb3e093e268995fd1afa326c26a839e20f160d5c"
          ],
          "data": "0x0000000000000000000000000000000000000000000000000000000000008d59",
          "blockHash": "0x6b7fee1e6a64b5e38c8e6c98f57f55d5892bc80fc939f19538f50a812bdd1d31",
          "blockNumber": "0x37e79",
          "transactionHash": "0x5cb221d342171111b94641ab3ad340529fe61fa3f6269c1b1595dcf22c0a0385",
          "transactionIndex": "0x1",
          "logIndex": "0x2",
          "removed": false
        },
        {
          "address": "0xD7b084d7C708c6D83E221C8dD20A70EdB4938a7A",
          "topics": [
            "0xc655c9e658fa20c26ca4e095cb3e093e268995fd1afa326c26a839e20f160d5c"
          ],
          "data": "0x000000000000000000000000000000000000000000000000000000000000891e",
          "blockHash": "0x6b7fee1e6a64b5e38c8e6c98f57f55d5892bc80fc939f19538f50a812bdd1d31",
          "blockNumber": "0x37e79",
          "transactionHash": "0x5cb221d342171111b94641ab3ad340529fe61fa3f6269c1b1595dcf22c0a0385",
          "transactionIndex": "0x1",
          "logIndex": "0x3",
          "removed": false
        },
        {
          "address": "0xD7b084d7C708c6D83E221C8dD20A70EdB4938a7A",
          "topics": [
            "0xc655c9e658fa20c26ca4e095cb3e093e268995fd1afa326c26a839e20f160d5c"
          ],
          "data": "0x000000000000000000000000000000000000000000000000000000000000727e",
          "blockHash": "0x6b7fee1e6a64b5e38c8e6c98f57f55d5892bc80fc939f19538f50a812bdd1d31",
          "blockNumber": "0x37e79",
          "transactionHash": "0x5cb221d342171111b94641ab3ad340529fe61fa3f6269c1b1595dcf22c0a0385",
          "transactionIndex": "0x1",
          "logIndex": "0x4",
          "removed": false
        },
        {
          "address": "0xD7b084d7C708c6D83E221C8dD20A70EdB4938a7A",
          "topics": [
            "0xddf252ad1be2c89b69c2b068fc378daa952ba7f163c4a11628f55a4df523b3ef",
            "0x00000000000000000000000009c48ca286972f72b8290c4e1f01cb0ec6185ca0",
            "0x00000000000000000000000008ca4dca530a7c02d7755455aeb24b63a41c8608"
          ],
          "data": "0x0000000000000000000000000000000000000000000000000000082b0d509200",
          "blockHash": "0x6b7fee1e6a64b5e38c8e6c98f57f55d5892bc80fc939f19538f50a812bdd1d31",
          "blockNumber": "0x37e79",
          "transactionHash": "0x5cb221d342171111b94641ab3ad340529fe61fa3f6269c1b1595dcf22c0a0385",
          "transactionIndex": "0x1",
          "logIndex": "0x5",
          "removed": false
        },
        {
          "address": "0xD7b084d7C708c6D83E221C8dD20A70EdB4938a7A",
          "topics": [
            "0x29b8cd3b4433db59dcfbf8ab8ca612f43329533f0c89eb9a07510bf901d28d0e",
            "0x00000000000000000000000009c48ca286972f72b8290c4e1f01cb0ec6185ca0",
            "0x00000000000000000000000008ca4dca530a7c02d7755455aeb24b63a41c8608"
          ],
          "data": "0x0000000000000000000000000000000000000000000000000000082b0d509200",
          "blockHash": "0x6b7fee1e6a64b5e38c8e6c98f57f55d5892bc80fc939f19538f50a812bdd1d31",
          "blockNumber": "0x37e79",
          "transactionHash": "0x5cb221d342171111b94641ab3ad340529fe61fa3f6269c1b1595dcf22c0a0385",
          "transactionIndex": "0x1",
          "logIndex": "0x6",
          "removed": false
        },
        {
          "address": "0xD7b084d7C708c6D83E221C8dD20A70EdB4938a7A",
          "topics": [
            "0xc655c9e658fa20c26ca4e095cb3e093e268995fd1afa326c26a839e20f160d5c"
          ],
          "data": "0x0000000000000000000000000000000000000000000000000000000000003b5f",
          "blockHash": "0x6b7fee1e6a64b5e38c8e6c98f57f55d5892bc80fc939f19538f50a812bdd1d31",
          "blockNumber": "0x37e79",
          "transactionHash": "0x5cb221d342171111b94641ab3ad340529fe61fa3f6269c1b1595dcf22c0a0385",
          "transactionIndex": "0x1",
          "logIndex": "0x7",
          "removed": false
        }
      ],
      "status": "0x1",
      "logsBloom": "0x00000000000000000000000008008008000100000000000000000000000000000000000000000000000000000000000000000000000800000000000000000000000000001020000000000008000000000000000000000000000000000000000000000000000000000000000000020400000000000000000000000010000000000000000000000000000000000000001000000000000004000000000000000000000000000000000000000000000000000002000000000020000000000000000000000002000000000000000000000008000000020100000000000000000000000000200000000000000000000000000200000000000000000000000000000000"
    }
  ],
  "libraries": [],
  "pending": [],
  "returns": {},
  "timestamp": 1703450235,
  "chain": 89,
  "multi": false,
  "commit": "709cba2"
}