{
  "transactions": [
    {
      "hash": "0x524f0eb3dc28d4a4c401e03c1c1ab551957d6afa260b19d9ec7f6d0f59cfddda",
      "transactionType": "CREATE",
      "contractName": "MockVRC25",
      "contractAddress": "0xe35E31012CDdd5B5f877B3B79f70622c9e42e0d8",
      "function": null,
      "arguments": [
        "Test VRC25",
        "TVRC",
        "18"
      ],
      "transaction": {
        "type": "0x00",
        "from": "0x08ca4dca530a7c02d7755455aeb24b63a41c8608",
        "gas": "0x18c3ab",
        "value": "0x0",
        "data": "0x6101406040523480156200001257600080fd5b50604051620017ee380380620017ee833981016040819052620000359162000228565b60405180604001604052806005815260200164565243323560d81b815250604051806040016040528060018152602001603160f81b81525084848482828282600590816200008491906200033c565b5060066200009383826200033c565b506007805460ff90921660ff199092169190911790555050600280546001600160a01b031916331790555050825160208085019190912083519184019190912060e08290526101008190529091507f8b73c3c69bb8fe3d512ecc4cf759cc79239f7b179b0ffacaa9a75d522b39400f6200010a4690565b60a09081526040805160208082018590528183018790526060820186905246608083015230828501528251808303909401845260c090910190915281519101206080523060c05261012052506200040895505050505050565b634e487b7160e01b600052604160045260246000fd5b600082601f8301126200018b57600080fd5b81516001600160401b0380821115620001a857620001a862000163565b604051601f8301601f19908116603f01168101908282118183101715620001d357620001d362000163565b81604052838152602092508683858801011115620001f057600080fd5b600091505b83821015620002145785820183015181830184015290820190620001f5565b600093810190920192909252949350505050565b6000806000606084860312156200023e57600080fd5b83516001600160401b03808211156200025657600080fd5b620002648783880162000179565b945060208601519150808211156200027b57600080fd5b506200028a8682870162000179565b925050604084015160ff81168114620002a257600080fd5b809150509250925092565b600181811c90821680620002c257607f821691505b602082108103620002e357634e487b7160e01b600052602260045260246000fd5b50919050565b601f8211156200033757600081815260208120601f850160051c81016020861015620003125750805b601f850160051c820191505b8181101562000333578281556001016200031e565b5050505b505050565b81516001600160401b0381111562000358576200035862000163565b6200037081620003698454620002ad565b84620002e9565b602080601f831160018114620003a857600084156200038f5750858301515b600019600386901b1c1916600185901b17855562000333565b600085815260208120601f198616915b82811015620003d957888601518255948401946001909101908401620003b8565b5085821015620003f85787850151600019600388901b60f8161c191681555b5050505050600190811b01905550565b60805160a05160c05160e05161010051610120516113a8620004466000396000505060005050600050506000505060005050600050506113a86000f3fe608060405234801561001057600080fd5b506004361061012c5760003560e01c806342966c68116100ad5780638da5cb5b116100715780638da5cb5b146101aa57806395d89b4114610274578063a9059cbb1461027c578063dd62ed3e1461028f578063f2fde38b146102c857600080fd5b806342966c681461020857806369fe0e2d1461021b57806370a082311461023057806371ee951c1461025957806379ba50971461026c57600080fd5b80631d143848116100f45780631d143848146101aa57806323b872dd146101c557806324ec7590146101d8578063313ce567146101e057806340c10f19146101f557600080fd5b806301ffc9a71461013157806306fdde0314610159578063095ea7b31461016e578063127e8e4d1461018157806318160ddd146101a2575b600080fd5b61014461013f366004611139565b6102db565b60405190151581526020015b60405180910390f35b610161610312565b6040516101509190611163565b61014461017c3660046111c8565b6103a4565b61019461018f3660046111f2565b6104a5565b604051908152602001610150565b600854610194565b6002546040516001600160a01b039091168152602001610150565b6101446101d336600461120b565b6104c4565b600154610194565b60075460405160ff9091168152602001610150565b6101446102033660046111c8565b61069a565b6101446102163660046111f2565b6106da565b61022e6102293660046111f2565b6107cf565b005b61019461023e366004611247565b6001600160a01b031660009081526020819052604090205490565b6101946102673660046111c8565b610834565b61022e610935565b6101616109ff565b61014461028a3660046111c8565b610a0e565b61019461029d366004611262565b6001600160a01b03918216600090815260046020908152604080832093909416825291909152205490565b61022e6102d6366004611247565b610a37565b60006001600160e01b03198216630861786560e01b148061030c5750630861786560e01b6001600160e01b03198316145b92915050565b60606005805461032190611295565b80601f016020809104026020016040519081016040528092919081815260200182805461034d90611295565b801561039a5780601f1061036f5761010080835404028352916020019161039a565b820191906000526020600020905b81548152906001019060200180831161037d57829003601f168201915b5050505050905090565b6000805a905060006103b660006104a5565b90506103c3338686610ae5565b6103ce333083610c0a565b6001925050600160005a6103e290846112e5565b60025490915060009061040f906001600160a01b03163a61040561c216866112f8565b610267919061130b565b9050600061041d83836112f8565b9050600061042b3a8361130b565b90506000610439868361130b565b6002549091506104549033906001600160a01b031683610c84565b6002546040518281526001600160a01b039091169033907f29b8cd3b4433db59dcfbf8ab8ca612f43329533f0c89eb9a07510bf901d28d0e9060200160405180910390a35050505050505092915050565b6000333b156104b657506000919050565b61030c82610e51565b919050565b6000805a905060006104d5846104a5565b90506104e18482610e5c565b6001600160a01b038716600090815260046020908152604080832033845290915290205410156105585760405162461bcd60e51b815260206004820152601e60248201527f56524332353a20616d6f756e742065786565647320616c6c6f77616e6365000060448201526064015b60405180910390fd5b6001600160a01b038616600090815260046020908152604080832033845290915290205461059290829061058c9087610ebb565b90610ebb565b6001600160a01b03871660009081526004602090815260408083203384529091529020556105c1868686610c84565b6105cc868683610c0a565b6001925050600160005a6105e090846112e5565b600254909150600090610603906001600160a01b03163a61040561c216866112f8565b9050600061061183836112f8565b9050600061061f3a8361130b565b9050600061062d868361130b565b6002549091506106489033906001600160a01b031683610c84565b6002546040518281526001600160a01b039091169033907f29b8cd3b4433db59dcfbf8ab8ca612f43329533f0c89eb9a07510bf901d28d0e9060200160405180910390a3505050505050509392505050565b6002546000906001600160a01b031633146106c75760405162461bcd60e51b815260040161054f90611322565b6106d18383610f17565b50600192915050565b6000805a905060006106ec60006104a5565b90506106f83385610ff6565b610703333083610c0a565b6001925050600160005a61071790846112e5565b60025490915060009061073a906001600160a01b03163a61040561c216866112f8565b9050600061074883836112f8565b905060006107563a8361130b565b90506000610764868361130b565b60025490915061077f9033906001600160a01b031683610c84565b6002546040518281526001600160a01b039091169033907f29b8cd3b4433db59dcfbf8ab8ca612f43329533f0c89eb9a07510bf901d28d0e9060200160405180910390a350505050505050919050565b6002546001600160a01b031633146107f95760405162461bcd60e51b815260040161054f90611322565b60018190556040518181527f8c4d35e54a3f2ef1134138fd8ea3daee6a3c89e10d2665996babdf70261e2c769060200160405180910390a150565b6040516370a0823160e01b81526001600160a01b038316600482015260009061c2169030906370a0823190602401602060405180830381865afa15801561087f573d6000803e3d6000fd5b505050506040513d601f19601f820116820180604052508101906108a39190611359565b6000036108b9576108b6613ae8826112f8565b90505b6040516370a0823160e01b8152336004820152839030906370a0823190602401602060405180830381865afa1580156108f6573d6000803e3d6000fd5b505050506040513d601f19601f8201168201806040525081019061091a9190611359565b0361092e5761092b613a48826112e5565b90505b9392505050565b6003546001600160a01b031633146109a25760405162461bcd60e51b815260206004820152602a60248201527f56524332353a206f6e6c79206e6577206f776e65722063616e206163636570746044820152690206f776e6572736869760b41b606482015260840161054f565b60028054600380546001600160a01b03198084166001600160a01b038381169182179096559116909155604051929091169182907f8be0079c531659141344cd1fd0a4f28419497f9722a3daafe3b4186f6b6457e090600090a350565b60606006805461032190611295565b6000805a90506000610a1f846104a5565b9050610a2c338686610c84565b6103ce338683610c0a565b6002546001600160a01b03163314610a615760405162461bcd60e51b815260040161054f90611322565b6001600160a01b038116610ac35760405162461bcd60e51b8152602060048201526024808201527f56524332353a206e6577206f776e657220697320746865207a65726f206164646044820152637265737360e01b606482015260840161054f565b600380546001600160a01b0319166001600160a01b0392909216919091179055565b6001600160a01b038316610b475760405162461bcd60e51b8152602060048201526024808201527f56524332353a20617070726f76652066726f6d20746865207a65726f206164646044820152637265737360e01b606482015260840161054f565b6001600160a01b038216610ba85760405162461bcd60e51b815260206004820152602260248201527f56524332353a20617070726f766520746f20746865207a65726f206164647265604482015261737360f01b606482015260840161054f565b6001600160a01b0383811660008181526004602090815260408083209487168084529482529182902085905590518481527f8c5be1e5ebec7d5bd14f71427d1e84f3dd0314c0f7b2291e5b200ac8c7c3b92591015b60405180910390a3505050565b333b15610c1657505050565b8015610c7f57600254610c349084906001600160a01b031683610c84565b6002546040518281526001600160a01b039182169184811691908616907ffcf5b3276434181e3c48bd3fe569b8939808f11e845d4b963693b9d7dbd6dd999060200160405180910390a45b505050565b6001600160a01b038316610ce85760405162461bcd60e51b815260206004820152602560248201527f56524332353a207472616e736665722066726f6d20746865207a65726f206164604482015264647265737360d81b606482015260840161054f565b6001600160a01b038216610d4a5760405162461bcd60e51b815260206004820152602360248201527f56524332353a207472616e7366657220746f20746865207a65726f206164647260448201526265737360e81b606482015260840161054f565b6001600160a01b038316600090815260208190526040902054811115610dae5760405162461bcd60e51b815260206004820152601960248201527856524332353a20696e7375666669656e742062616c616e636560381b604482015260640161054f565b6001600160a01b038316600090815260208190526040902054610dd19082610ebb565b6001600160a01b038085166000908152602081905260408082209390935590841681522054610e009082610e5c565b6001600160a01b038381166000818152602081815260409182902094909455518481529092918616917fddf252ad1be2c89b69c2b068fc378daa952ba7f163c4a11628f55a4df523b3ef9101610bfd565b600061030c60015490565b600080610e6983856112f8565b90508381101561092e5760405162461bcd60e51b815260206004820152601b60248201527f536166654d6174683a206164646974696f6e206f766572666c6f770000000000604482015260640161054f565b600082821115610f0d5760405162461bcd60e51b815260206004820152601e60248201527f536166654d6174683a207375627472616374696f6e206f766572666c6f770000604482015260640161054f565b61092e82846112e5565b6001600160a01b038216610f6d5760405162461bcd60e51b815260206004820152601f60248201527f56524332353a206d696e7420746f20746865207a65726f206164647265737300604482015260640161054f565b600854610f7a9082610e5c565b6008556001600160a01b038216600090815260208190526040902054610fa09082610e5c565b6001600160a01b038316600081815260208181526040808320949094559251848152919290917fddf252ad1be2c89b69c2b068fc378daa952ba7f163c4a11628f55a4df523b3ef91015b60405180910390a35050565b6001600160a01b0382166110565760405162461bcd60e51b815260206004820152602160248201527f56524332353a206275726e2066726f6d20746865207a65726f206164647265736044820152607360f81b606482015260840161054f565b6001600160a01b0382166000908152602081905260409020548111156110ba5760405162461bcd60e51b815260206004820152601960248201527856524332353a20696e7375666669656e742062616c616e636560381b604482015260640161054f565b6008546110c79082610ebb565b6008556001600160a01b0382166000908152602081905260409020546110ed9082610ebb565b6001600160a01b03831660008181526020818152604080832094909455925184815290927fddf252ad1be2c89b69c2b068fc378daa952ba7f163c4a11628f55a4df523b3ef9101610fea565b60006020828403121561114b57600080fd5b81356001600160e01b03198116811461092e57600080fd5b600060208083528351808285015260005b8181101561119057858101830151858201604001528201611174565b506000604082860101526040601f19601f8301168501019250505092915050565b80356001600160a01b03811681146104bf57600080fd5b600080604083850312156111db57600080fd5b6111e4836111b1565b946020939093013593505050565b60006020828403121561120457600080fd5b5035919050565b60008060006060848603121561122057600080fd5b611229846111b1565b9250611237602085016111b1565b9150604084013590509250925092565b60006020828403121561125957600080fd5b61092e826111b1565b6000806040838503121561127557600080fd5b61127e836111b1565b915061128c602084016111b1565b90509250929050565b600181811c908216806112a957607f821691505b6020821081036112c957634e487b7160e01b600052602260045260246000fd5b50919050565b634e487b7160e01b600052601160045260246000fd5b8181038181111561030c5761030c6112cf565b8082018082111561030c5761030c6112cf565b808202811582820484141761030c5761030c6112cf565b6020808252601e908201527f56524332353a2063616c6c6572206973206e6f7420746865206f776e65720000604082015260600190565b60006020828403121561136b57600080fd5b505191905056fea26469706673582212207b5c27c8c8ecafc201c1b02f3f869cb4fcfd0c79300d4b5bf8186e0272f7d58a64736f6c63430008110033000000000000000000000000000000000000000000000000000000000000006000000000000000000000000000000000000000000000000000000000000000a00000000000000000000000000000000000000000000000000000000000000012000000000000000000000000000000000000000000000000000000000000000a546573742056524332350000000000000000000000000000000000000000000000000000000000000000000000000000000000000000000000000000000000045456524300000000000000000000000000000000000000000000000000000000",
        "nonce": "0x92"
      },
      "additionalContracts": [],
      "isFixedGasLimit": false
    },
    {
      "hash": "0xb324a01f0a1f2cf5d1cc904198b2c0f73bcce327f9c7d0f58daffe4779ca5593",
      "transactionType": "CALL",
      "contractName": null,
      "contractAddress": "0x8c0faeb5C6bEd2129b8674F262Fd45c4e9468bee",
      "function": null,
      "arguments": null,
      "transaction": {
        "type": "0x00",
        "from": "0x08ca4dca530a7c02d7755455aeb24b63a41c8608",
        "to": "0x8c0faeb5c6bed2129b8674f262fd45c4e9468bee",
        "gas": "0x1b421",
        "value": "0x8ac7230489e80000",
        "data": "0xc6b32f34000000000000000000000000e35e31012cddd5b5f877b3b79f70622c9e42e0d8",
        "nonce": "0x93"
      },
      "additionalContracts": [],
      "isFixedGasLimit": false
    },
    {
      "hash": "0xbcebc3ea9cdc6885a56ab08ac0d37ab48d25f065f6f58c8c853238e578cdf90c",
      "transactionType": "CALL",
      "contractName": "MockVRC25",
      "contractAddress": "0xe35E31012CDdd5B5f877B3B79f70622c9e42e0d8",
      "function": "mint(address,uint256)",
      "arguments": [
        "0x09C48Ca286972F72B8290C4e1F01CB0eC6185Ca0",
        "20000000000000000000"
      ],
      "transaction": {
        "type": "0x00",
        "from": "0x08ca4dca530a7c02d7755455aeb24b63a41c8608",
        "to": "0xe35e31012cddd5b5f877b3b79f70622c9e42e0d8",
        "gas": "0x194f1",
        "value": "0x0",
        "data": "0x40c10f1900000000000000000000000009c48ca286972f72b8290c4e1f01cb0ec6185ca0000000000000000000000000000000000000000000000001158e460913d00000",
        "nonce": "0x94"
      },
      "additionalContracts": [],
      "isFixedGasLimit": false
    },
    {
      "hash": "0x4776905a9a4ff407efe9229c09044a825345bcf25bcba8d235df53516507c6e2",
      "transactionType": "CALL",
      "contractName": "MockVRC25",
      "contractAddress": "0xe35E31012CDdd5B5f877B3B79f70622c9e42e0d8",
      "function": "transfer(address,uint256)",
      "arguments": [
        "0xCb1d8DBBD067fF81B6083d0dFcE6eb2d968f943E",
        "1000000000000000000"
      ],
      "transaction": {
        "type": "0x00",
        "from": "0x09c48ca286972f72b8290c4e1f01cb0ec6185ca0",
        "to": "0xe35e31012cddd5b5f877b3b79f70622c9e42e0d8",
        "gas": "0x1673f",
        "value": "0x0",
        "data": "0xa9059cbb000000000000000000000000cb1d8dbbd067ff81b6083d0dfce6eb2d968f943e0000000000000000000000000000000000000000000000000de0b6b3a7640000",
        "nonce": "0x2c"
      },
      "additionalContracts": [],
      "isFixedGasLimit": false
    },
    {
      "hash": "0x7980b89126a70bfeb5e5f4731efcaa7dc25c6e5c33a074b4075fc3522d5353a2",
      "transactionType": "CALL",
      "contractName": "MockVRC25",
      "contractAddress": "0xe35E31012CDdd5B5f877B3B79f70622c9e42e0d8",
      "function": "transfer(address,uint256)",
      "arguments": [
        "0xCb1d8DBBD067fF81B6083d0dFcE6eb2d968f943E",
        "1000000000000000000"
      ],
      "transaction": {
        "type": "0x00",
        "from": "0x09c48ca286972f72b8290c4e1f01cb0ec6185ca0",
        "to": "0xe35e31012cddd5b5f877b3b79f70622c9e42e0d8",
        "gas": "0x11ab0",
        "value": "0x0",
        "data": "0xa9059cbb000000000000000000000000cb1d8dbbd067ff81b6083d0dfce6eb2d968f943e0000000000000000000000000000000000000000000000000de0b6b3a7640000",
        "nonce": "0x2d"
      },
      "additionalContracts": [],
      "isFixedGasLimit": false
    },
    {
      "hash": "0x1a28682c62407b875d1d299916bd732d66126f43ad57372186ba4ac409580693",
      "transactionType": "CALL",
      "contractName": "MockVRC25",
      "contractAddress": "0xe35E31012CDdd5B5f877B3B79f70622c9e42e0d8",
      "function": "approve(address,uint256)",
      "arguments": [
        "0xCb1d8DBBD067fF81B6083d0dFcE6eb2d968f943E",
        "1000000000000000000"
      ],
      "transaction": {
        "type": "0x00",
        "from": "0x09c48ca286972f72b8290c4e1f01cb0ec6185ca0",
        "to": "0xe35e31012cddd5b5f877b3b79f70622c9e42e0d8",
        "gas": "0x1671a",
        "value": "0x0",
        "data": "0x095ea7b3000000000000000000000000cb1d8dbbd067ff81b6083d0dfce6eb2d968f943e0000000000000000000000000000000000000000000000000de0b6b3a7640000",
        "nonce": "0x2e"
      },
      "additionalContracts": [],
      "isFixedGasLimit": false
    },
    {
      "hash": "0x100025865adf441d1fc5bf2592ac973b21930396809ad11634fc9d1d04b52a25",
      "transactionType": "CALL",
      "contractName": "MockVRC25",
      "contractAddress": "0xe35E31012CDdd5B5f877B3B79f70622c9e42e0d8",
      "function": "approve(address,uint256)",
      "arguments": [
        "0xCb1d8DBBD067fF81B6083d0dFcE6eb2d968f943E",
        "2000000000000000000"
      ],
      "transaction": {
        "type": "0x00",
        "from": "0x09c48ca286972f72b8290c4e1f01cb0ec6185ca0",
        "to": "0xe35e31012cddd5b5f877b3b79f70622c9e42e0d8",
        "gas": "0xf6e3",
        "value": "0x0",
        "data": "0x095ea7b3000000000000000000000000cb1d8dbbd067ff81b6083d0dfce6eb2d968f943e0000000000000000000000000000000000000000000000001bc16d674ec80000",
        "nonce": "0x2f"
      },
      "additionalContracts": [],
      "isFixedGasLimit": false
    },
    {
      "hash": "0xc717068770853ecd0bc746c5aef0d7d48a56fe834967d76be559bc73afb4956a",
      "transactionType": "CALL",
      "contractName": "MockVRC25",
      "contractAddress": "0xe35E31012CDdd5B5f877B3B79f70622c9e42e0d8",
      "function": "burn(uint256)",
      "arguments": [
        "1000000000000000000"
      ],
      "transaction": {
        "type": "0x00",
        "from": "0x09c48ca286972f72b8290c4e1f01cb0ec6185ca0",
        "to": "0xe35e31012cddd5b5f877b3b79f70622c9e42e0d8",
        "gas": "0x11679",
        "value": "0x0",
        "data": "0x42966c680000000000000000000000000000000000000000000000000de0b6b3a7640000",
        "nonce": "0x30"
      },
      "additionalContracts": [],
      "isFixedGasLimit": false
    },
    {
      "hash": "0x2760abcc16c55c19fa1ef26ff9acd1d5e89cbfcea934d722422073c9cc2da15f",
      "transactionType": "CALL",
      "contractName": "MockVRC25",
      "contractAddress": "0xe35E31012CDdd5B5f877B3B79f70622c9e42e0d8",
      "function": "burn(uint256)",
      "arguments": [
        "1000000000000000000"
      ],
      "transaction": {
        "type": "0x00",
        "from": "0x09c48ca286972f72b8290c4e1f01cb0ec6185ca0",
        "to": "0xe35e31012cddd5b5f877b3b79f70622c9e42e0d8",
        "gas": "0x11679",
        "value": "0x0",
        "data": "0x42966c680000000000000000000000000000000000000000000000000de0b6b3a7640000",
        "nonce": "0x31"
      },
      "additionalContracts": [],
      "isFixedGasLimit": false
    },
    {
      "hash": "0x9eb20fb928336826ed33f2933e8ed65f50f63ff890f753c8783cde2f21107679",
      "transactionType": "CALL",
      "contractName": "MockVRC25",
      "contractAddress": "0xe35E31012CDdd5B5f877B3B79f70622c9e42e0d8",
      "function": "transferFrom(address,address,uint256)",
      "arguments": [
        "0x09C48Ca286972F72B8290C4e1F01CB0eC6185Ca0",
        "0xc0A55e2205B289a967823662B841Bd67Aa362Aec",
        "1000000000000000000"
      ],
      "transaction": {
        "type": "0x00",
        "from": "0xcb1d8dbbd067ff81b6083d0dfce6eb2d968f943e",
        "to": "0xe35e31012cddd5b5f877b3b79f70622c9e42e0d8",
        "gas": "0x1acfa",
        "value": "0x0",
        "data": "0x23b872dd00000000000000000000000009c48ca286972f72b8290c4e1f01cb0ec6185ca0000000000000000000000000c0a55e2205b289a967823662b841bd67aa362aec0000000000000000000000000000000000000000000000000de0b6b3a7640000",
        "nonce": "0x5"
      },
      "additionalContracts": [],
      "isFixedGasLimit": false
    },
    {
      "hash": "0xdf3ccf290a83d7d2e6b59ca5dfc1cd2ae8c979252d2778efdc78822b89f954a0",
      "transactionType": "CALL",
      "contractName": "MockVRC25",
      "contractAddress": "0xe35E31012CDdd5B5f877B3B79f70622c9e42e0d8",
      "function": "transferFrom(address,address,uint256)",
      "arguments": [
        "0x09C48Ca286972F72B8290C4e1F01CB0eC6185Ca0",
        "0xc0A55e2205B289a967823662B841Bd67Aa362Aec",
        "1000000000000000000"
      ],
      "transaction": {
        "type": "0x00",
        "from": "0xcb1d8dbbd067ff81b6083d0dfce6eb2d968f943e",
        "to": "0xe35e31012cddd5b5f877b3b79f70622c9e42e0d8",
        "gas": "0x11efc",
        "value": "0x0",
        "data": "0x23b872dd00000000000000000000000009c48ca286972f72b8290c4e1f01cb0ec6185ca0000000000000000000000000c0a55e2205b289a967823662b841bd67aa362aec0000000000000000000000000000000000000000000000000de0b6b3a7640000",
        "nonce": "0x6"
      },
      "additionalContracts": [],
      "isFixedGasLimit": false
    }
  ],
  "receipts": [
    {
      "transactionHash": "0x524f0eb3dc28d4a4c401e03c1c1ab551957d6afa260b19d9ec7f6d0f59cfddda",
      "transactionIndex": "0x1",
      "blockHash": "0x96baa9508d75acaee3bc1db9495560d2f59e1ff15008bb387a1b2990742588a6",
      "blockNumber": "0x3c0b7",
      "from": "0x08cA4DCa530A7c02d7755455AeB24B63A41C8608",
      "to": null,
      "cumulativeGasUsed": "0x17b1c3",
      "gasUsed": "0x17b1c3",
      "contractAddress": "0xe35E31012CDdd5B5f877B3B79f70622c9e42e0d8",
      "logs": [],
      "status": "0x1",
      "logsBloom": "0x00000000000000000000000000000000000000000000000000000000000000000000000000000000000000000000000000000000000000000000000000000000000000000000000000000000000000000000000000000000000000000000000000000000000000000000000000000000000000000000000000000000000000000000000000000000000000000000000000000000000000000000000000000000000000000000000000000000000000000000000000000000000000000000000000000000000000000000000000000000000000000000000000000000000000000000000000000000000000000000000000000000000000000000000000000000"
    },
    {
      "transactionHash": "0xb324a01f0a1f2cf5d1cc904198b2c0f73bcce327f9c7d0f58daffe4779ca5593",
      "transactionIndex": "0x1",
      "blockHash": "0x3f1958c7ed492ace56e7bcb3a9e0b22103526623136f64352cd46fdc86b1876a",
      "blockNumber": "0x3c0bb",
      "from": "0x08cA4DCa530A7c02d7755455AeB24B63A41C8608",
      "to": "0x8c0faeb5C6bEd2129b8674F262Fd45c4e9468bee",
      "cumulativeGasUsed": "0x12a5c",
      "gasUsed": "0x12a5c",
      "contractAddress": null,
      "logs": [
        {
          "address": "0x8c0faeb5C6bEd2129b8674F262Fd45c4e9468bee",
          "topics": [
            "0x2d485624158277d5113a56388c3abf5c20e3511dd112123ba376d16b21e4d716",
            "0x00000000000000000000000008ca4dca530a7c02d7755455aeb24b63a41c8608",
            "0x000000000000000000000000e35e31012cddd5b5f877b3b79f70622c9e42e0d8"
          ],
          "data": "0x0000000000000000000000000000000000000000000000008ac7230489e80000",
          "blockHash": "0x3f1958c7ed492ace56e7bcb3a9e0b22103526623136f64352cd46fdc86b1876a",
          "blockNumber": "0x3c0bb",
          "transactionHash": "0xb324a01f0a1f2cf5d1cc904198b2c0f73bcce327f9c7d0f58daffe4779ca5593",
          "transactionIndex": "0x1",
          "logIndex": "0x1",
          "removed": false
        }
      ],
      "status": "0x1",
      "logsBloom": "0x00000000000000000000000000000000000000000000000000000000000000000000000000000000000000000000000000000000000800000000000000000000002000000000000000000000000000200000000000000000000000000000000000000000000000000000000000000000000000000000000000000000000000000000000000000000000010000000200000000000400008000000000002000000000000000000000000000000000000000000000000000000020000010000000000000000000000000000000000000008000000020000000000000000000000000000000000000000000000000000000000000000000000000000000000000000"
    },
    {
      "transactionHash": "0xbcebc3ea9cdc6885a56ab08ac0d37ab48d25f065f6f58c8c853238e578cdf90c",
      "transactionIndex": "0x1",
      "blockHash": "0x4fd308e86cea98189991112154ff64b245ece6125185c3c51d03b85a3867c637",
      "blockNumber": "0x3c0bf",
      "from": "0x08cA4DCa530A7c02d7755455AeB24B63A41C8608",
      "to": "0xe35E31012CDdd5B5f877B3B79f70622c9e42e0d8",
      "cumulativeGasUsed": "0x10bf3",
      "gasUsed": "0x10bf3",
      "contractAddress": null,
      "logs": [
        {
          "address": "0xe35E31012CDdd5B5f877B3B79f70622c9e42e0d8",
          "topics": [
            "0xddf252ad1be2c89b69c2b068fc378daa952ba7f163c4a11628f55a4df523b3ef",
            "0x0000000000000000000000000000000000000000000000000000000000000000",
            "0x00000000000000000000000009c48ca286972f72b8290c4e1f01cb0ec6185ca0"
          ],
          "data": "0x000000000000000000000000000000000000000000000001158e460913d00000",
          "blockHash": "0xeb7523658632b5a40633c27856b0acd09ad0d6be3331094496dff0b9fec16784",
          "blockNumber": "0x3c0bf",
          "transactionHash": "0xbcebc3ea9cdc6885a56ab08ac0d37ab48d25f065f6f58c8c853238e578cdf90c",
          "transactionIndex": "0x1",
          "logIndex": "0x1",
          "removed": false
        }
      ],
      "status": "0x1",
      "logsBloom": "0x00000000000000000000000008000000000000000000000000000000000000000000000000000000000000000000000040000000000000000000000400000000000000000000000000000008000000000000000000000000000000000000000000000000020000000000000000000c00000000000000000000000010000000000000000000000000000000000000000000000000000000000000000000004000000000000000000000000000000000000000000000000000000000000000000000000002000000000000000000000000000000000000000000000000000020000000000000000000000000000000000200000000000000000000000000000000"
    },
    {
      "transactionHash": "0x4776905a9a4ff407efe9229c09044a825345bcf25bcba8d235df53516507c6e2",
      "transactionIndex": "0x1",
      "blockHash": "0x33de755115c1cf12c1e691ebb137d43b212946a566f207b053ebce4029fb93d3",
      "blockNumber": "0x3c0c2",
      "from": "0x09C48Ca286972F72B8290C4e1F01CB0eC6185Ca0",
      "to": "0xe35E31012CDdd5B5f877B3B79f70622c9e42e0d8",
      "cumulativeGasUsed": "0x165fb",
      "gasUsed": "0x165fb",
      "contractAddress": null,
      "logs": [
        {
          "address": "0xe35E31012CDdd5B5f877B3B79f70622c9e42e0d8",
          "topics": [
            "0xddf252ad1be2c89b69c2b068fc378daa952ba7f163c4a11628f55a4df523b3ef",
            "0x00000000000000000000000009c48ca286972f72b8290c4e1f01cb0ec6185ca0",
            "0x000000000000000000000000cb1d8dbbd067ff81b6083d0dfce6eb2d968f943e"
          ],
          "data": "0x0000000000000000000000000000000000000000000000000de0b6b3a7640000",
          "blockHash": "0x5360a06693ef6641d99f5e821d6d4e8be1b31fd5cf5d85d88a53f3d42971bcfc",
          "blockNumber": "0x3c0c2",
          "transactionHash": "0x4776905a9a4ff407efe9229c09044a825345bcf25bcba8d235df53516507c6e2",
          "transactionIndex": "0x1",
          "logIndex": "0x1",
          "removed": false
        },
        {
          "address": "0xe35E31012CDdd5B5f877B3B79f70622c9e42e0d8",
          "topics": [
            "0xddf252ad1be2c89b69c2b068fc378daa952ba7f163c4a11628f55a4df523b3ef",
            "0x00000000000000000000000009c48ca286972f72b8290c4e1f01cb0ec6185ca0",
            "0x00000000000000000000000008ca4dca530a7c02d7755455aeb24b63a41c8608"
          ],
          "data": "0x000000000000000000000000000000000000000000000000000016207a806780",
          "blockHash": "0x5360a06693ef6641d99f5e821d6d4e8be1b31fd5cf5d85d88a53f3d42971bcfc",
          "blockNumber": "0x3c0c2",
          "transactionHash": "0x4776905a9a4ff407efe9229c09044a825345bcf25bcba8d235df53516507c6e2",
          "transactionIndex": "0x1",
          "logIndex": "0x2",
          "removed": false
        },
        {
          "address": "0xe35E31012CDdd5B5f877B3B79f70622c9e42e0d8",
          "topics": [
            "0x29b8cd3b4433db59dcfbf8ab8ca612f43329533f0c89eb9a07510bf901d28d0e",
            "0x00000000000000000000000009c48ca286972f72b8290c4e1f01cb0ec6185ca0",
            "0x00000000000000000000000008ca4dca530a7c02d7755455aeb24b63a41c8608"
          ],
          "data": "0x000000000000000000000000000000000000000000000000000016207a806780",
          "blockHash": "0x5360a06693ef6641d99f5e821d6d4e8be1b31fd5cf5d85d88a53f3d42971bcfc",
          "blockNumber": "0x3c0c2",
          "transactionHash": "0x4776905a9a4ff407efe9229c09044a825345bcf25bcba8d235df53516507c6e2",
          "transactionIndex": "0x1",
          "logIndex": "0x3",
          "removed": false
        }
      ],
      "status": "0x1",
      "logsBloom": "0x00000000000000000000000008008000000100000000000000000000000000000000000000000000000000000000000040000000000800000000000400000000000000000020000000000008000000000000000000000000000000000000000000000000000000000000000000020400000000000000000000000010000000000000000000000000000000000000000000000000000000000000000000004000000000000000000000000000000000000000000000000020000000000000000000000002000000000000000000000008000000020000000000000000000000000000200000000000000000000000000200000000000000000000000000000000"
    },
    {
      "transactionHash": "0x7980b89126a70bfeb5e5f4731efcaa7dc25c6e5c33a074b4075fc3522d5353a2",
      "transactionIndex": "0x1",
      "blockHash": "0xc264d882176dede810f07e7e2e659eae98b1e6536b83532c9f82558a4afc2b45",
      "blockNumber": "0x3c0c6",
      "from": "0x09C48Ca286972F72B8290C4e1F01CB0eC6185Ca0",
      "to": "0xe35E31012CDdd5B5f877B3B79f70622c9e42e0d8",
      "cumulativeGasUsed": "0xf07b",
      "gasUsed": "0xf07b",
      "contractAddress": null,
      "logs": [
        {
          "address": "0xe35E31012CDdd5B5f877B3B79f70622c9e42e0d8",
          "topics": [
            "0xddf252ad1be2c89b69c2b068fc378daa952ba7f163c4a11628f55a4df523b3ef",
            "0x00000000000000000000000009c48ca286972f72b8290c4e1f01cb0ec6185ca0",
            "0x000000000000000000000000cb1d8dbbd067ff81b6083d0dfce6eb2d968f943e"
          ],
          "data": "0x0000000000000000000000000000000000000000000000000de0b6b3a7640000",
          "blockHash": "0x0cfe7b9193d6c43e923e67b0f13b7359508c7c00885e40054b81c579f5342cb1",
          "blockNumber": "0x3c0c6",
          "transactionHash": "0x7980b89126a70bfeb5e5f4731efcaa7dc25c6e5c33a074b4075fc3522d5353a2",
          "transactionIndex": "0x1",
          "logIndex": "0x1",
          "removed": false
        },
        {
          "address": "0xe35E31012CDdd5B5f877B3B79f70622c9e42e0d8",
          "topics": [
            "0xddf252ad1be2c89b69c2b068fc378daa952ba7f163c4a11628f55a4df523b3ef",
            "0x00000000000000000000000009c48ca286972f72b8290c4e1f01cb0ec6185ca0",
            "0x00000000000000000000000008ca4dca530a7c02d7755455aeb24b63a41c8608"
          ],
          "data": "0x00000000000000000000000000000000000000000000000000000f499792a780",
          "blockHash": "0x0cfe7b9193d6c43e923e67b0f13b7359508c7c00885e40054b81c579f5342cb1",
          "blockNumber": "0x3c0c6",
          "transactionHash": "0x7980b89126a70bfeb5e5f4731efcaa7dc25c6e5c33a074b4075fc3522d5353a2",
          "transactionIndex": "0x1",
          "logIndex": "0x2",
          "removed": false
        },
        {
          "address": "0xe35E31012CDdd5B5f877B3B79f70622c9e42e0d8",
          "topics": [
            "0x29b8cd3b4433db59dcfbf8ab8ca612f43329533f0c89eb9a07510bf901d28d0e",
            "0x00000000000000000000000009c48ca286972f72b8290c4e1f01cb0ec6185ca0",
            "0x00000000000000000000000008ca4dca530a7c02d7755455aeb24b63a41c8608"
          ],
          "data": "0x00000000000000000000000000000000000000000000000000000f499792a780",
          "blockHash": "0x0cfe7b9193d6c43e923e67b0f13b7359508c7c00885e40054b81c579f5342cb1",
          "blockNumber": "0x3c0c6",
          "transactionHash": "0x7980b89126a70bfeb5e5f4731efcaa7dc25c6e5c33a074b4075fc3522d5353a2",
          "transactionIndex": "0x1",
          "logIndex": "0x3",
          "removed": false
        }
      ],
      "status": "0x1",
      "logsBloom": "0x00000000000000000000000008008000000100000000000000000000000000000000000000000000000000000000000040000000000800000000000400000000000000000020000000000008000000000000000000000000000000000000000000000000000000000000000000020400000000000000000000000010000000000000000000000000000000000000000000000000000000000000000000004000000000000000000000000000000000000000000000000020000000000000000000000002000000000000000000000008000000020000000000000000000000000000200000000000000000000000000200000000000000000000000000000000"
    },
    {
      "transactionHash": "0x1a28682c62407b875d1d299916bd732d66126f43ad57372186ba4ac409580693",
      "transactionIndex": "0x1",
      "blockHash": "0x5040acb3daca118addb7ab20e4c19dd6eea5eaf1c04f9adf7cf1f898cbc59c37",
      "blockNumber": "0x3c0ca",
      "from": "0x09C48Ca286972F72B8290C4e1F01CB0eC6185Ca0",
      "to": "0xe35E31012CDdd5B5f877B3B79f70622c9e42e0d8",
      "cumulativeGasUsed": "0x11c23",
      "gasUsed": "0x11c23",
      "contractAddress": null,
      "logs": [
        {
          "address": "0xe35E31012CDdd5B5f877B3B79f70622c9e42e0d8",
          "topics": [
            "0x8c5be1e5ebec7d5bd14f71427d1e84f3dd0314c0f7b2291e5b200ac8c7c3b925",
            "0x00000000000000000000000009c48ca286972f72b8290c4e1f01cb0ec6185ca0",
            "0x000000000000000000000000cb1d8dbbd067ff81b6083d0dfce6eb2d968f943e"
          ],
          "data": "0x0000000000000000000000000000000000000000000000000de0b6b3a7640000",
          "blockHash": "0xeff8d1616f3e87d5c8bd353166ebcb121446f00e7e95483152c764b5d26d46d9",
          "blockNumber": "0x3c0ca",
          "transactionHash": "0x1a28682c62407b875d1d299916bd732d66126f43ad57372186ba4ac409580693",
          "transactionIndex": "0x1",
          "logIndex": "0x1",
          "removed": false
        },
        {
          "address": "0xe35E31012CDdd5B5f877B3B79f70622c9e42e0d8",
          "topics": [
            "0xddf252ad1be2c89b69c2b068fc378daa952ba7f163c4a11628f55a4df523b3ef",
            "0x00000000000000000000000009c48ca286972f72b8290c4e1f01cb0ec6185ca0",
            "0x00000000000000000000000008ca4dca530a7c02d7755455aeb24b63a41c8608"
          ],
          "data": "0x000000000000000000000000000000000000000000000000000010df88456280",
          "blockHash": "0xeff8d1616f3e87d5c8bd353166ebcb121446f00e7e95483152c764b5d26d46d9",
          "blockNumber": "0x3c0ca",
          "transactionHash": "0x1a28682c62407b875d1d299916bd732d66126f43ad57372186ba4ac409580693",
          "transactionIndex": "0x1",
          "logIndex": "0x2",
          "removed": false
        },
        {
          "address": "0xe35E31012CDdd5B5f877B3B79f70622c9e42e0d8",
          "topics": [
            "0x29b8cd3b4433db59dcfbf8ab8ca612f43329533f0c89eb9a07510bf901d28d0e",
            "0x00000000000000000000000009c48ca286972f72b8290c4e1f01cb0ec6185ca0",
            "0x00000000000000000000000008ca4dca530a7c02d7755455aeb24b63a41c8608"
          ],
          "data": "0x000000000000000000000000000000000000000000000000000010df88456280",
          "blockHash": "0xeff8d1616f3e87d5c8bd353166ebcb121446f00e7e95483152c764b5d26d46d9",
          "blockNumber": "0x3c0ca",
          "transactionHash": "0x1a28682c62407b875d1d299916bd732d66126f43ad57372186ba4ac409580693",
          "transactionIndex": "0x1",
          "logIndex": "0x3",
          "removed": false
        }
      ],
      "status": "0x1",
      "logsBloom": "0x00000000000000000000000008008000000100000000000000000000000000000000000000000000000000000000000040000000000800000000000400200000000000000020000000000008000000000000000000000000000000000000000000000000000000000000000000020400000000000000000000000010000000000000000000000000000000000000000000000000000000000000000000004000020000000000000000000000000000000000000000000020000000000000000000000002000000000000000000000008000000020000000000000000000000000010200000000000000000000000000200000000000000000000000000000000"
    },
    {
      "transactionHash": "0x100025865adf441d1fc5bf2592ac973b21930396809ad11634fc9d1d04b52a25",
      "transactionIndex": "0x1",
      "blockHash": "0xb646012d2fad58f18c03244ee51da9ebcdc7e3c16299b183f3353d5cf66a86f9",
      "blockNumber": "0x3c0cd",
      "from": "0x09C48Ca286972F72B8290C4e1F01CB0eC6185Ca0",
      "to": "0xe35E31012CDdd5B5f877B3B79f70622c9e42e0d8",
      "cumulativeGasUsed": "0xe18b",
      "gasUsed": "0xe18b",
      "contractAddress": null,
      "logs": [
        {
          "address": "0xe35E31012CDdd5B5f877B3B79f70622c9e42e0d8",
          "topics": [
            "0x8c5be1e5ebec7d5bd14f71427d1e84f3dd0314c0f7b2291e5b200ac8c7c3b925",
            "0x00000000000000000000000009c48ca286972f72b8290c4e1f01cb0ec6185ca0",
            "0x000000000000000000000000cb1d8dbbd067ff81b6083d0dfce6eb2d968f943e"
          ],
          "data": "0x0000000000000000000000000000000000000000000000001bc16d674ec80000",
          "blockHash": "0x863dde1ddc2bf2f9eb90b55c9251da60bf0d4254621cb42c9e1e021c6aef8b67",
          "blockNumber": "0x3c0cd",
          "transactionHash": "0x100025865adf441d1fc5bf2592ac973b21930396809ad11634fc9d1d04b52a25",
          "transactionIndex": "0x1",
          "logIndex": "0x1",
          "removed": false
        },
        {
          "address": "0xe35E31012CDdd5B5f877B3B79f70622c9e42e0d8",
          "topics": [
            "0xddf252ad1be2c89b69c2b068fc378daa952ba7f163c4a11628f55a4df523b3ef",
            "0x00000000000000000000000009c48ca286972f72b8290c4e1f01cb0ec6185ca0",
            "0x00000000000000000000000008ca4dca530a7c02d7755455aeb24b63a41c8608"
          ],
          "data": "0x00000000000000000000000000000000000000000000000000000d766ada6680",
          "blockHash": "0x863dde1ddc2bf2f9eb90b55c9251da60bf0d4254621cb42c9e1e021c6aef8b67",
          "blockNumber": "0x3c0cd",
          "transactionHash": "0x100025865adf441d1fc5bf2592ac973b21930396809ad11634fc9d1d04b52a25",
          "transactionIndex": "0x1",
          "logIndex": "0x2",
          "removed": false
        },
        {
          "address": "0xe35E31012CDdd5B5f877B3B79f70622c9e42e0d8",
          "topics": [
            "0x29b8cd3b4433db59dcfbf8ab8ca612f43329533f0c89eb9a07510bf901d28d0e",
            "0x00000000000000000000000009c48ca286972f72b8290c4e1f01cb0ec6185ca0",
            "0x00000000000000000000000008ca4dca530a7c02d7755455aeb24b63a41c8608"
          ],
          "data": "0x00000000000000000000000000000000000000000000000000000d766ada6680",
          "blockHash": "0x863dde1ddc2bf2f9eb90b55c9251da60bf0d4254621cb42c9e1e021c6aef8b67",
          "blockNumber": "0x3c0cd",
          "transactionHash": "0x100025865adf441d1fc5bf2592ac973b21930396809ad11634fc9d1d04b52a25",
          "transactionIndex": "0x1",
          "logIndex": "0x3",
          "removed": false
        }
      ],
      "status": "0x1",
      "logsBloom": "0x00000000000000000000000008008000000100000000000000000000000000000000000000000000000000000000000040000000000800000000000400200000000000000020000000000008000000000000000000000000000000000000000000000000000000000000000000020400000000000000000000000010000000000000000000000000000000000000000000000000000000000000000000004000020000000000000000000000000000000000000000000020000000000000000000000002000000000000000000000008000000020000000000000000000000000010200000000000000000000000000200000000000000000000000000000000"
    },
    {
      "transactionHash": "0xc717068770853ecd0bc746c5aef0d7d48a56fe834967d76be559bc73afb4956a",
      "transactionIndex": "0x1",
      "blockHash": "0x92e578b325bc5478d738232a0b5eb632c1b9f202da0a0410a27c53dca0b50d1b",
      "blockNumber": "0x3c0d1",
      "from": "0x09C48Ca286972F72B8290C4e1F01CB0eC6185Ca0",
      "to": "0xe35E31012CDdd5B5f877B3B79f70622c9e42e0d8",
      "cumulativeGasUsed": "0xe989",
      "gasUsed": "0xe989",
      "contractAddress": null,
      "logs": [
        {
          "address": "0xe35E31012CDdd5B5f877B3B79f70622c9e42e0d8",
          "topics": [
            "0xddf252ad1be2c89b69c2b068fc378daa952ba7f163c4a11628f55a4df523b3ef",
            "0x00000000000000000000000009c48ca286972f72b8290c4e1f01cb0ec6185ca0",
            "0x0000000000000000000000000000000000000000000000000000000000000000"
          ],
          "data": "0x0000000000000000000000000000000000000000000000000de0b6b3a7640000",
          "blockHash": "0x40d75d9e82677945ea77063d444948295e7bfd8b7b5a47b991df0a675509cb2c",
          "blockNumber": "0x3c0d1",
          "transactionHash": "0xc717068770853ecd0bc746c5aef0d7d48a56fe834967d76be559bc73afb4956a",
          "transactionIndex": "0x1",
          "logIndex": "0x1",
          "removed": false
        },
        {
          "address": "0xe35E31012CDdd5B5f877B3B79f70622c9e42e0d8",
          "topics": [
            "0xddf252ad1be2c89b69c2b068fc378daa952ba7f163c4a11628f55a4df523b3ef",
            "0x00000000000000000000000009c48ca286972f72b8290c4e1f01cb0ec6185ca0",
            "0x00000000000000000000000008ca4dca530a7c02d7755455aeb24b63a41c8608"
          ],
          "data": "0x00000000000000000000000000000000000000000000000000000f3c9c9d2a00",
          "blockHash": "0x40d75d9e82677945ea77063d444948295e7bfd8b7b5a47b991df0a675509cb2c",
          "blockNumber": "0x3c0d1",
          "transactionHash": "0xc717068770853ecd0bc746c5aef0d7d48a56fe834967d76be559bc73afb4956a",
          "transactionIndex": "0x1",
          "logIndex": "0x2",
          "removed": false
        },
        {
          "address": "0xe35E31012CDdd5B5f877B3B79f70622c9e42e0d8",
          "topics": [
            "0x29b8cd3b4433db59dcfbf8ab8ca612f43329533f0c89eb9a07510bf901d28d0e",
            "0x00000000000000000000000009c48ca286972f72b8290c4e1f01cb0ec6185ca0",
            "0x00000000000000000000000008ca4dca530a7c02d7755455aeb24b63a41c8608"
          ],
          "data": "0x00000000000000000000000000000000000000000000000000000f3c9c9d2a00",
          "blockHash": "0x40d75d9e82677945ea77063d444948295e7bfd8b7b5a47b991df0a675509cb2c",
          "blockNumber": "0x3c0d1",
          "transactionHash": "0xc717068770853ecd0bc746c5aef0d7d48a56fe834967d76be559bc73afb4956a",
          "transactionIndex": "0x1",
          "logIndex": "0x3",
          "removed": false
        }
      ],
      "status": "0x1",
      "logsBloom": "0x00000000000000000000000008008000000000000000000000000000000000000000000000000000000000000000000040000000000800000000000400000000000000000000000000000008000000000000000000000000000000000000000000000000020000000000000000020c00000000000000000000000010000000000000000000000000000000000000000000000000000000000000000000004000000000000000000000000000000000000000000000000000000000000000000000000002000000000000000000000008000000020000000000000000000020000000200000000000000000000000000200000000000000000000000000000000"
    },
    {
      "transactionHash": "0x2760abcc16c55c19fa1ef26ff9acd1d5e89cbfcea934d722422073c9cc2da15f",
      "transactionIndex": "0x1",
      "blockHash": "0x1cc652429fdecb4bdf06ae3b89cbb825e42ce5299deaebce67bee266a4ccc7c1",
      "blockNumber": "0x3c0d5",
      "from": "0x09C48Ca286972F72B8290C4e1F01CB0eC6185Ca0",
      "to": "0xe35E31012CDdd5B5f877B3B79f70622c9e42e0d8",
      "cumulativeGasUsed": "0xe989",
      "gasUsed": "0xe989",
      "contractAddress": null,
      "logs": [
        {
          "address": "0xe35E31012CDdd5B5f877B3B79f70622c9e42e0d8",
          "topics": [
            "0xddf252ad1be2c89b69c2b068fc378daa952ba7f163c4a11628f55a4df523b3ef",
            "0x00000000000000000000000009c48ca286972f72b8290c4e1f01cb0ec6185ca0",
            "0x0000000000000000000000000000000000000000000000000000000000000000"
          ],
          "data": "0x0000000000000000000000000000000000000000000000000de0b6b3a7640000",
          "blockHash": "0x1cc652429fdecb4bdf06ae3b89cbb825e42ce5299deaebce67bee266a4ccc7c1",
          "blockNumber": "0x3c0d5",
          "transactionHash": "0x2760abcc16c55c19fa1ef26ff9acd1d5e89cbfcea934d722422073c9cc2da15f",
          "transactionIndex": "0x1",
          "logIndex": "0x1",
          "removed": false
        },
        {
          "address": "0xe35E31012CDdd5B5f877B3B79f70622c9e42e0d8",
          "topics": [
            "0xddf252ad1be2c89b69c2b068fc378daa952ba7f163c4a11628f55a4df523b3ef",
            "0x00000000000000000000000009c48ca286972f72b8290c4e1f01cb0ec6185ca0",
            "0x00000000000000000000000008ca4dca530a7c02d7755455aeb24b63a41c8608"
          ],
          "data": "0x00000000000000000000000000000000000000000000000000000f3c9c9d2a00",
          "blockHash": "0x1cc652429fdecb4bdf06ae3b89cbb825e42ce5299deaebce67bee266a4ccc7c1",
          "blockNumber": "0x3c0d5",
          "transactionHash": "0x2760abcc16c55c19fa1ef26ff9acd1d5e89cbfcea934d722422073c9cc2da15f",
          "transactionIndex": "0x1",
          "logIndex": "0x2",
          "removed": false
        },
        {
          "address": "0xe35E31012CDdd5B5f877B3B79f70622c9e42e0d8",
          "topics": [
            "0x29b8cd3b4433db59dcfbf8ab8ca612f43329533f0c89eb9a07510bf901d28d0e",
            "0x00000000000000000000000009c48ca286972f72b8290c4e1f01cb0ec6185ca0",
            "0x00000000000000000000000008ca4dca530a7c02d7755455aeb24b63a41c8608"
          ],
          "data": "0x00000000000000000000000000000000000000000000000000000f3c9c9d2a00",
          "blockHash": "0x1cc652429fdecb4bdf06ae3b89cbb825e42ce5299deaebce67bee266a4ccc7c1",
          "blockNumber": "0x3c0d5",
          "transactionHash": "0x2760abcc16c55c19fa1ef26ff9acd1d5e89cbfcea934d722422073c9cc2da15f",
          "transactionIndex": "0x1",
          "logIndex": "0x3",
          "removed": false
        }
      ],
      "status": "0x1",
      "logsBloom": "0x00000000000000000000000008008000000000000000000000000000000000000000000000000000000000000000000040000000000800000000000400000000000000000000000000000008000000000000000000000000000000000000000000000000020000000000000000020c00000000000000000000000010000000000000000000000000000000000000000000000000000000000000000000004000000000000000000000000000000000000000000000000000000000000000000000000002000000000000000000000008000000020000000000000000000020000000200000000000000000000000000200000000000000000000000000000000"
    },
    {
      "transactionHash": "0x9eb20fb928336826ed33f2933e8ed65f50f63ff890f753c8783cde2f21107679",
      "transactionIndex": "0x1",
      "blockHash": "0xe08a4de91dd69c60a51edc61bc30679eccfba8d5e563c67fecf8593383851d56",
      "blockNumber": "0x3c0d8",
      "from": "0xCb1d8DBBD067fF81B6083d0dFcE6eb2d968f943E",
      "to": "0xe35E31012CDdd5B5f877B3B79f70622c9e42e0d8",
      "cumulativeGasUsed": "0x15ed2",
      "gasUsed": "0x15ed2",
      "contractAddress": null,
      "logs": [
        {
          "address": "0xe35E31012CDdd5B5f877B3B79f70622c9e42e0d8",
          "topics": [
            "0xddf252ad1be2c89b69c2b068fc378daa952ba7f163c4a11628f55a4df523b3ef",
            "0x00000000000000000000000009c48ca286972f72b8290c4e1f01cb0ec6185ca0",
            "0x000000000000000000000000c0a55e2205b289a967823662b841bd67aa362aec"
          ],
          "data": "0x0000000000000000000000000000000000000000000000000de0b6b3a7640000",
          "blockHash": "0x1f1940ec1742e3388134bb8c64072b222d5fbdb228ecf26acb0bb799f0a7d06a",
          "blockNumber": "0x3c0d8",
          "transactionHash": "0x9eb20fb928336826ed33f2933e8ed65f50f63ff890f753c8783cde2f21107679",
          "transactionIndex": "0x1",
          "logIndex": "0x1",
          "removed": false
        },
        {
          "address": "0xe35E31012CDdd5B5f877B3B79f70622c9e42e0d8",
          "topics": [
            "0xddf252ad1be2c89b69c2b068fc378daa952ba7f163c4a11628f55a4df523b3ef",
            "0x000000000000000000000000cb1d8dbbd067ff81b6083d0dfce6eb2d968f943e",
            "0x00000000000000000000000008ca4dca530a7c02d7755455aeb24b63a41c8608"
          ],
          "data": "0x0000000000000000000000000000000000000000000000000000146a9510e000",
          "blockHash": "0x1f1940ec1742e3388134bb8c64072b222d5fbdb228ecf26acb0bb799f0a7d06a",
          "blockNumber": "0x3c0d8",
          "transactionHash": "0x9eb20fb928336826ed33f2933e8ed65f50f63ff890f753c8783cde2f21107679",
          "transactionIndex": "0x1",
          "logIndex": "0x2",
          "removed": false
        },
        {
          "address": "0xe35E31012CDdd5B5f877B3B79f70622c9e42e0d8",
          "topics": [
            "0x29b8cd3b4433db59dcfbf8ab8ca612f43329533f0c89eb9a07510bf901d28d0e",
            "0x000000000000000000000000cb1d8dbbd067ff81b6083d0dfce6eb2d968f943e",
            "0x00000000000000000000000008ca4dca530a7c02d7755455aeb24b63a41c8608"
          ],
          "data": "0x0000000000000000000000000000000000000000000000000000146a9510e000",
          "blockHash": "0x1f1940ec1742e3388134bb8c64072b222d5fbdb228ecf26acb0bb799f0a7d06a",
          "blockNumber": "0x3c0d8",
          "transactionHash": "0x9eb20fb928336826ed33f2933e8ed65f50f63ff890f753c8783cde2f21107679",
          "transactionIndex": "0x1",
          "logIndex": "0x3",
          "removed": false
        }
      ],
      "status": "0x1",
      "logsBloom": "0x00000000000000000000000008008000000140000000000000000000000000000000000000000000000000000000000040000000000800000000000400000000000000000020000000000008000000000000000000000000000000000000000000000000000000000000000000020400000000000000000000000010000000000000000000000000000000000000000000000000000000000000080000004000000000000000000000000000000000000000000000000020000000000000000000000002000000000000000000000008000000020000000000000000000000000000200000000000000000000000000200000000000000000000000000000000"
    }
  ],
  "libraries": [],
  "pending": [],
  "returns": {},
  "timestamp": 1703484226,
  "chain": 89,
  "multi": false,
  "commit": "709cba2"
}