{
  "transactions": [
    {
      "hash": "0xac879fa1bb77059ba8b72075b0bc6b29168bf6ea6129390fdf79820717063fdf",
      "transactionType": "CREATE",
      "contractName": "MockVRC25",
      "contractAddress": "0x98442AEE6fA0D6cfee1c946D05b237bB8235edec",
      "function": null,
      "arguments": [
        "Test VRC25",
        "TVRC",
        "18"
      ],
      "transaction": {
        "type": "0x00",
        "from": "0x08ca4dca530a7c02d7755455aeb24b63a41c8608",
        "gas": "0x196e56",
        "value": "0x0",
        "data": "0x6101406040523480156200001257600080fd5b506040516200188a3803806200188a833981016040819052620000359162000228565b60405180604001604052806005815260200164565243323560d81b815250604051806040016040528060018152602001603160f81b81525084848482828282600590816200008491906200033c565b5060066200009383826200033c565b506007805460ff90921660ff199092169190911790555050600280546001600160a01b031916331790555050825160208085019190912083519184019190912060e08290526101008190529091507f8b73c3c69bb8fe3d512ecc4cf759cc79239f7b179b0ffacaa9a75d522b39400f6200010a4690565b60a09081526040805160208082018590528183018790526060820186905246608083015230828501528251808303909401845260c090910190915281519101206080523060c05261012052506200040895505050505050565b634e487b7160e01b600052604160045260246000fd5b600082601f8301126200018b57600080fd5b81516001600160401b0380821115620001a857620001a862000163565b604051601f8301601f19908116603f01168101908282118183101715620001d357620001d362000163565b81604052838152602092508683858801011115620001f057600080fd5b600091505b83821015620002145785820183015181830184015290820190620001f5565b600093810190920192909252949350505050565b6000806000606084860312156200023e57600080fd5b83516001600160401b03808211156200025657600080fd5b620002648783880162000179565b945060208601519150808211156200027b57600080fd5b506200028a8682870162000179565b925050604084015160ff81168114620002a257600080fd5b809150509250925092565b600181811c90821680620002c257607f821691505b602082108103620002e357634e487b7160e01b600052602260045260246000fd5b50919050565b601f8211156200033757600081815260208120601f850160051c81016020861015620003125750805b601f850160051c820191505b8181101562000333578281556001016200031e565b5050505b505050565b81516001600160401b0381111562000358576200035862000163565b6200037081620003698454620002ad565b84620002e9565b602080601f831160018114620003a857600084156200038f5750858301515b600019600386901b1c1916600185901b17855562000333565b600085815260208120601f198616915b82811015620003d957888601518255948401946001909101908401620003b8565b5085821015620003f85787850151600019600388901b60f8161c191681555b5050505050600190811b01905550565b60805160a05160c05160e0516101005161012051611444620004466000396000505060005050600050506000505060005050600050506114446000f3fe608060405234801561001057600080fd5b506004361061012c5760003560e01c806342966c68116100ad5780638da5cb5b116100715780638da5cb5b146101aa57806395d89b4114610274578063a9059cbb1461027c578063dd62ed3e1461028f578063f2fde38b146102c857600080fd5b806342966c681461020857806369fe0e2d1461021b57806370a082311461023057806371ee951c1461025957806379ba50971461026c57600080fd5b80631d143848116100f45780631d143848146101aa57806323b872dd146101c557806324ec7590146101d8578063313ce567146101e057806340c10f19146101f557600080fd5b806301ffc9a71461013157806306fdde0314610159578063095ea7b31461016e578063127e8e4d1461018157806318160ddd146101a2575b600080fd5b61014461013f3660046111b5565b6102db565b60405190151581526020015b60405180910390f35b610161610312565b60405161015091906111df565b61014461017c366004611244565b6103a4565b61019461018f36600461126e565b610547565b604051908152602001610150565b600854610194565b6002546040516001600160a01b039091168152602001610150565b6101446101d3366004611287565b610566565b600154610194565b60075460405160ff9091168152602001610150565b610144610203366004611244565b610674565b61014461021636600461126e565b6106b4565b61022e61022936600461126e565b61084b565b005b61019461023e3660046112c3565b6001600160a01b031660009081526020819052604090205490565b610194610267366004611244565b6108b0565b61022e6109b1565b610161610a7b565b61014461028a366004611244565b610a8a565b61019461029d3660046112de565b6001600160a01b03918216600090815260046020908152604080832093909416825291909152205490565b61022e6102d63660046112c3565b610ab3565b60006001600160e01b03198216630861786560e01b148061030c5750630861786560e01b6001600160e01b03198316145b92915050565b60606005805461032190611311565b80601f016020809104026020016040519081016040528092919081815260200182805461034d90611311565b801561039a5780601f1061036f5761010080835404028352916020019161039a565b820191906000526020600020905b81548152906001019060200180831161037d57829003601f168201915b5050505050905090565b6000805a905060006103b66000610547565b90506103c3338686610b61565b6103ce333083610c86565b6001925050600160006103e96002546001600160a01b031690565b905060005a6103f89085611361565b90506000805160206113ef8339815191528160405161041991815260200190565b60405180910390a16000805160206113ef8339815191525a60405190815260200160405180910390a16000805160206113ef8339815191525a60405190815260200160405180910390a16000610480833a61047661a25e86611374565b6102679190611387565b90506000805160206113ef8339815191525a60405190815260200160405180910390a160006104af8383611374565b905060006104bd3a83611387565b905060006104cb8783611387565b90506104d8338783610d00565b6040518181526001600160a01b0387169033907f29b8cd3b4433db59dcfbf8ab8ca612f43329533f0c89eb9a07510bf901d28d0e9060200160405180910390a36000805160206113ef8339815191525a60405190815260200160405180910390a1505050505050505092915050565b6000333b1561055857506000919050565b61030c82610ecd565b919050565b60008061057283610547565b905061057e8382610ed8565b6001600160a01b038616600090815260046020908152604080832033845290915290205410156105f55760405162461bcd60e51b815260206004820152601e60248201527f56524332353a20616d6f756e742065786565647320616c6c6f77616e6365000060448201526064015b60405180910390fd5b6001600160a01b038516600090815260046020908152604080832033845290915290205461062f9082906106299086610f37565b90610f37565b6001600160a01b038616600090815260046020908152604080832033845290915290205561065e858585610d00565b610669858583610c86565b506001949350505050565b6002546000906001600160a01b031633146106a15760405162461bcd60e51b81526004016105ec9061139e565b6106ab8383610f93565b50600192915050565b6000805a905060006106c66000610547565b90506106d23385611072565b6106dd333083610c86565b6001925050600160006106f86002546001600160a01b031690565b905060005a6107079085611361565b90506000805160206113ef8339815191528160405161072891815260200190565b60405180910390a16000805160206113ef8339815191525a60405190815260200160405180910390a16000805160206113ef8339815191525a60405190815260200160405180910390a16000610785833a61047661a25e86611374565b90506000805160206113ef8339815191525a60405190815260200160405180910390a160006107b48383611374565b905060006107c23a83611387565b905060006107d08783611387565b90506107dd338783610d00565b6040518181526001600160a01b0387169033907f29b8cd3b4433db59dcfbf8ab8ca612f43329533f0c89eb9a07510bf901d28d0e9060200160405180910390a36000805160206113ef8339815191525a60405190815260200160405180910390a15050505050505050919050565b6002546001600160a01b031633146108755760405162461bcd60e51b81526004016105ec9061139e565b60018190556040518181527f8c4d35e54a3f2ef1134138fd8ea3daee6a3c89e10d2665996babdf70261e2c769060200160405180910390a150565b6040516370a0823160e01b81526001600160a01b038316600482015260009061a25e9030906370a0823190602401602060405180830381865afa1580156108fb573d6000803e3d6000fd5b505050506040513d601f19601f8201168201806040525081019061091f91906113d5565b60000361093557610932613ae882611374565b90505b6040516370a0823160e01b8152336004820152839030906370a0823190602401602060405180830381865afa158015610972573d6000803e3d6000fd5b505050506040513d601f19601f8201168201806040525081019061099691906113d5565b036109aa576109a7613a4882611361565b90505b9392505050565b6003546001600160a01b03163314610a1e5760405162461bcd60e51b815260206004820152602a60248201527f56524332353a206f6e6c79206e6577206f776e65722063616e206163636570746044820152690206f776e6572736869760b41b60648201526084016105ec565b60028054600380546001600160a01b03198084166001600160a01b038381169182179096559116909155604051929091169182907f8be0079c531659141344cd1fd0a4f28419497f9722a3daafe3b4186f6b6457e090600090a350565b60606006805461032190611311565b6000805a90506000610a9b84610547565b9050610aa8338686610d00565b6103ce338683610c86565b6002546001600160a01b03163314610add5760405162461bcd60e51b81526004016105ec9061139e565b6001600160a01b038116610b3f5760405162461bcd60e51b8152602060048201526024808201527f56524332353a206e6577206f776e657220697320746865207a65726f206164646044820152637265737360e01b60648201526084016105ec565b600380546001600160a01b0319166001600160a01b0392909216919091179055565b6001600160a01b038316610bc35760405162461bcd60e51b8152602060048201526024808201527f56524332353a20617070726f76652066726f6d20746865207a65726f206164646044820152637265737360e01b60648201526084016105ec565b6001600160a01b038216610c245760405162461bcd60e51b815260206004820152602260248201527f56524332353a20617070726f766520746f20746865207a65726f206164647265604482015261737360f01b60648201526084016105ec565b6001600160a01b0383811660008181526004602090815260408083209487168084529482529182902085905590518481527f8c5be1e5ebec7d5bd14f71427d1e84f3dd0314c0f7b2291e5b200ac8c7c3b92591015b60405180910390a3505050565b333b15610c9257505050565b8015610cfb57600254610cb09084906001600160a01b031683610d00565b6002546040518281526001600160a01b039182169184811691908616907ffcf5b3276434181e3c48bd3fe569b8939808f11e845d4b963693b9d7dbd6dd999060200160405180910390a45b505050565b6001600160a01b038316610d645760405162461bcd60e51b815260206004820152602560248201527f56524332353a207472616e736665722066726f6d20746865207a65726f206164604482015264647265737360d81b60648201526084016105ec565b6001600160a01b038216610dc65760405162461bcd60e51b815260206004820152602360248201527f56524332353a207472616e7366657220746f20746865207a65726f206164647260448201526265737360e81b60648201526084016105ec565b6001600160a01b038316600090815260208190526040902054811115610e2a5760405162461bcd60e51b815260206004820152601960248201527856524332353a20696e7375666669656e742062616c616e636560381b60448201526064016105ec565b6001600160a01b038316600090815260208190526040902054610e4d9082610f37565b6001600160a01b038085166000908152602081905260408082209390935590841681522054610e7c9082610ed8565b6001600160a01b038381166000818152602081815260409182902094909455518481529092918616917fddf252ad1be2c89b69c2b068fc378daa952ba7f163c4a11628f55a4df523b3ef9101610c79565b600061030c60015490565b600080610ee58385611374565b9050838110156109aa5760405162461bcd60e51b815260206004820152601b60248201527f536166654d6174683a206164646974696f6e206f766572666c6f77000000000060448201526064016105ec565b600082821115610f895760405162461bcd60e51b815260206004820152601e60248201527f536166654d6174683a207375627472616374696f6e206f766572666c6f77000060448201526064016105ec565b6109aa8284611361565b6001600160a01b038216610fe95760405162461bcd60e51b815260206004820152601f60248201527f56524332353a206d696e7420746f20746865207a65726f20616464726573730060448201526064016105ec565b600854610ff69082610ed8565b6008556001600160a01b03821660009081526020819052604090205461101c9082610ed8565b6001600160a01b038316600081815260208181526040808320949094559251848152919290917fddf252ad1be2c89b69c2b068fc378daa952ba7f163c4a11628f55a4df523b3ef91015b60405180910390a35050565b6001600160a01b0382166110d25760405162461bcd60e51b815260206004820152602160248201527f56524332353a206275726e2066726f6d20746865207a65726f206164647265736044820152607360f81b60648201526084016105ec565b6001600160a01b0382166000908152602081905260409020548111156111365760405162461bcd60e51b815260206004820152601960248201527856524332353a20696e7375666669656e742062616c616e636560381b60448201526064016105ec565b6008546111439082610f37565b6008556001600160a01b0382166000908152602081905260409020546111699082610f37565b6001600160a01b03831660008181526020818152604080832094909455925184815290927fddf252ad1be2c89b69c2b068fc378daa952ba7f163c4a11628f55a4df523b3ef9101611066565b6000602082840312156111c757600080fd5b81356001600160e01b0319811681146109aa57600080fd5b600060208083528351808285015260005b8181101561120c578581018301518582016040015282016111f0565b506000604082860101526040601f19601f8301168501019250505092915050565b80356001600160a01b038116811461056157600080fd5b6000806040838503121561125757600080fd5b6112608361122d565b946020939093013593505050565b60006020828403121561128057600080fd5b5035919050565b60008060006060848603121561129c57600080fd5b6112a58461122d565b92506112b36020850161122d565b9150604084013590509250925092565b6000602082840312156112d557600080fd5b6109aa8261122d565b600080604083850312156112f157600080fd5b6112fa8361122d565b91506113086020840161122d565b90509250929050565b600181811c9082168061132557607f821691505b60208210810361134557634e487b7160e01b600052602260045260246000fd5b50919050565b634e487b7160e01b600052601160045260246000fd5b8181038181111561030c5761030c61134b565b8082018082111561030c5761030c61134b565b808202811582820484141761030c5761030c61134b565b6020808252601e908201527f56524332353a2063616c6c6572206973206e6f7420746865206f776e65720000604082015260600190565b6000602082840312156113e757600080fd5b505191905056fec655c9e658fa20c26ca4e095cb3e093e268995fd1afa326c26a839e20f160d5ca264697066735822122086d9fbc4071362381696d90f38611dd949a90c66898c84393665f571b349edec64736f6c63430008110033000000000000000000000000000000000000000000000000000000000000006000000000000000000000000000000000000000000000000000000000000000a00000000000000000000000000000000000000000000000000000000000000012000000000000000000000000000000000000000000000000000000000000000a546573742056524332350000000000000000000000000000000000000000000000000000000000000000000000000000000000000000000000000000000000045456524300000000000000000000000000000000000000000000000000000000",
        "nonce": "0x60"
      },
      "additionalContracts": [],
      "isFixedGasLimit": false
    },
    {
      "hash": "0x4f958f066e9e50c986862ac3e5fe9018bd951d7fe3b29e3f6205c5643646fb34",
      "transactionType": "CALL",
      "contractName": "MockVRC25",
      "contractAddress": "0x98442AEE6fA0D6cfee1c946D05b237bB8235edec",
      "function": "mint(address,uint256)",
      "arguments": [
        "0x09C48Ca286972F72B8290C4e1F01CB0eC6185Ca0",
        "20000000000000000000"
      ],
      "transaction": {
        "type": "0x00",
        "from": "0x08ca4dca530a7c02d7755455aeb24b63a41c8608",
        "to": "0x98442aee6fa0d6cfee1c946d05b237bb8235edec",
        "gas": "0x194f1",
        "value": "0x0",
        "data": "0x40c10f1900000000000000000000000009c48ca286972f72b8290c4e1f01cb0ec6185ca0000000000000000000000000000000000000000000000001158e460913d00000",
        "nonce": "0x61"
      },
      "additionalContracts": [],
      "isFixedGasLimit": false
    },
    {
      "hash": "0x989767a2b407e6b0cc7f755dd0dba275e9135cf4e07e55ebfc1180af1b9452a5",
      "transactionType": "CALL",
      "contractName": "MockVRC25",
      "contractAddress": "0x98442AEE6fA0D6cfee1c946D05b237bB8235edec",
      "function": "transfer(address,uint256)",
      "arguments": [
        "0xCb1d8DBBD067fF81B6083d0dFcE6eb2d968f943E",
        "5000000000000000000"
      ],
      "transaction": {
        "type": "0x00",
        "from": "0x09c48ca286972f72b8290c4e1f01cb0ec6185ca0",
        "to": "0x98442aee6fa0d6cfee1c946d05b237bb8235edec",
        "gas": "0x18365",
        "value": "0x0",
        "data": "0xa9059cbb000000000000000000000000cb1d8dbbd067ff81b6083d0dfce6eb2d968f943e0000000000000000000000000000000000000000000000004563918244f40000",
        "nonce": "0x0"
      },
      "additionalContracts": [],
      "isFixedGasLimit": false
    },
    {
      "hash": "0xe27fac924aec8996ab9bfa69268b9eae7d7a748a0077e6c5b2c32d72b2a8eb32",
      "transactionType": "CALL",
      "contractName": "MockVRC25",
      "contractAddress": "0x98442AEE6fA0D6cfee1c946D05b237bB8235edec",
      "function": "transfer(address,uint256)",
      "arguments": [
        "0xCb1d8DBBD067fF81B6083d0dFcE6eb2d968f943E",
        "3000000000000000000"
      ],
      "transaction": {
        "type": "0x00",
        "from": "0x09c48ca286972f72b8290c4e1f01cb0ec6185ca0",
        "to": "0x98442aee6fa0d6cfee1c946d05b237bb8235edec",
        "gas": "0x12721",
        "value": "0x0",
        "data": "0xa9059cbb000000000000000000000000cb1d8dbbd067ff81b6083d0dfce6eb2d968f943e00000000000000000000000000000000000000000000000029a2241af62c0000",
        "nonce": "0x1"
      },
      "additionalContracts": [],
      "isFixedGasLimit": false
    },
    {
      "hash": "0xa3c569acf4b0cee04bad318da33ce3b855066112b5a3c91273b2e43bab73d58f",
      "transactionType": "CALL",
      "contractName": "MockVRC25",
      "contractAddress": "0x98442AEE6fA0D6cfee1c946D05b237bB8235edec",
      "function": "burn(uint256)",
      "arguments": [
        "5000000000000000000"
      ],
      "transaction": {
        "type": "0x00",
        "from": "0x09c48ca286972f72b8290c4e1f01cb0ec6185ca0",
        "to": "0x98442aee6fa0d6cfee1c946d05b237bb8235edec",
        "gas": "0x13447",
        "value": "0x0",
        "data": "0x42966c680000000000000000000000000000000000000000000000004563918244f40000",
        "nonce": "0x2"
      },
      "additionalContracts": [],
      "isFixedGasLimit": false
    },
    {
      "hash": "0x7c71e0c7193c128db8c08ff90fdeb7a42d1152b76821d32688682456d293e79c",
      "transactionType": "CALL",
      "contractName": "MockVRC25",
      "contractAddress": "0x98442AEE6fA0D6cfee1c946D05b237bB8235edec",
      "function": "burn(uint256)",
      "arguments": [
        "3000000000000000000"
      ],
      "transaction": {
        "type": "0x00",
        "from": "0x09c48ca286972f72b8290c4e1f01cb0ec6185ca0",
        "to": "0x98442aee6fa0d6cfee1c946d05b237bb8235edec",
        "gas": "0x13447",
        "value": "0x0",
        "data": "0x42966c6800000000000000000000000000000000000000000000000029a2241af62c0000",
        "nonce": "0x3"
      },
      "additionalContracts": [],
      "isFixedGasLimit": false
    },
    {
      "hash": "0xb2565a4c98f22df97ce0753fe173e66fb1a6cd17c28621afab967df479032e85",
      "transactionType": "CALL",
      "contractName": "MockVRC25",
      "contractAddress": "0x98442AEE6fA0D6cfee1c946D05b237bB8235edec",
      "function": "approve(address,uint256)",
      "arguments": [
        "0xCb1d8DBBD067fF81B6083d0dFcE6eb2d968f943E",
        "2000000000000000000"
      ],
      "transaction": {
        "type": "0x00",
        "from": "0x09c48ca286972f72b8290c4e1f01cb0ec6185ca0",
        "to": "0x98442aee6fa0d6cfee1c946d05b237bb8235edec",
        "gas": "0x16f4d",
        "value": "0x0",
        "data": "0x095ea7b3000000000000000000000000cb1d8dbbd067ff81b6083d0dfce6eb2d968f943e0000000000000000000000000000000000000000000000001bc16d674ec80000",
        "nonce": "0x4"
      },
      "additionalContracts": [],
      "isFixedGasLimit": false
    },
    {
      "hash": "0x7a211ecc80414f44fd8bb658add12d717c5a01f17abc16429b78e835aee7f171",
      "transactionType": "CALL",
      "contractName": "MockVRC25",
      "contractAddress": "0x98442AEE6fA0D6cfee1c946D05b237bB8235edec",
      "function": "approve(address,uint256)",
      "arguments": [
        "0xCb1d8DBBD067fF81B6083d0dFcE6eb2d968f943E",
        "1000000000000000000"
      ],
      "transaction": {
        "type": "0x00",
        "from": "0x09c48ca286972f72b8290c4e1f01cb0ec6185ca0",
        "to": "0x98442aee6fa0d6cfee1c946d05b237bb8235edec",
        "gas": "0x1130a",
        "value": "0x0",
        "data": "0x095ea7b3000000000000000000000000cb1d8dbbd067ff81b6083d0dfce6eb2d968f943e0000000000000000000000000000000000000000000000000de0b6b3a7640000",
        "nonce": "0x5"
      },
      "additionalContracts": [],
      "isFixedGasLimit": false
    }
  ],
  "receipts": [
    {
      "transactionHash": "0xac879fa1bb77059ba8b72075b0bc6b29168bf6ea6129390fdf79820717063fdf",
      "transactionIndex": "0x59",
      "blockHash": "0xee6d672c9f10e3de3de865a9221b1db6a42c860bccc930ac856281e280199040",
      "blockNumber": "0x4b93e1",
      "from": "0x08cA4DCa530A7c02d7755455AeB24B63A41C8608",
      "to": null,
      "cumulativeGasUsed": "0x7a20cb",
      "gasUsed": "0x13918c",
      "contractAddress": "0x98442AEE6fA0D6cfee1c946D05b237bB8235edec",
      "logs": [],
      "status": "0x1",
      "logsBloom": "0x00000000000000000000000000000000000000000000000000000000000000000000000000000000000000000000000000000000000000000000000000000000000000000000000000000000000000000000000000000000000000000000000000000000000000000000000000000000000000000000000000000000000000000000000000000000000000000000000000000000000000000000000000000000000000000000000000000000000000000000000000000000000000000000000000000000000000000000000000000000000000000000000000000000000000000000000000000000000000000000000000000000000000000000000000000000",
      "type": "0x0",
      "effectiveGasPrice": "0xb1877190"
    },
    {
      "transactionHash": "0x4f958f066e9e50c986862ac3e5fe9018bd951d7fe3b29e3f6205c5643646fb34",
      "transactionIndex": "0x5a",
      "blockHash": "0x9c30494fb43f540beba9d1f67682e405eb6efe19f9e69ef64001a4bf64f8925a",
      "blockNumber": "0x4b93e2",
      "from": "0x08cA4DCa530A7c02d7755455AeB24B63A41C8608",
      "to": "0x98442AEE6fA0D6cfee1c946D05b237bB8235edec",
      "cumulativeGasUsed": "0xa14a40",
      "gasUsed": "0x114e3",
      "contractAddress": null,
      "logs": [
        {
          "address": "0x98442AEE6fA0D6cfee1c946D05b237bB8235edec",
          "topics": [
            "0xddf252ad1be2c89b69c2b068fc378daa952ba7f163c4a11628f55a4df523b3ef",
            "0x0000000000000000000000000000000000000000000000000000000000000000",
            "0x00000000000000000000000009c48ca286972f72b8290c4e1f01cb0ec6185ca0"
          ],
          "data": "0x000000000000000000000000000000000000000000000001158e460913d00000",
          "blockHash": "0x9c30494fb43f540beba9d1f67682e405eb6efe19f9e69ef64001a4bf64f8925a",
          "blockNumber": "0x4b93e2",
          "transactionHash": "0x4f958f066e9e50c986862ac3e5fe9018bd951d7fe3b29e3f6205c5643646fb34",
          "transactionIndex": "0x5a",
          "logIndex": "0xb0",
          "removed": false
        }
      ],
      "status": "0x1",
      "logsBloom": "0x00000000000000000000000008000000000000000000000000000000000000000000000000000000000000000000000000000000000000000000000000100000000000000000000000000008000000000000000000000000000000000000040000000000020000000000008000000c00000000000000000000000010000000000000000000000000000000000000000000000000000000000000000000000000000000000000000000000000000000000000000000000000000000000000000000000002000000000000000000000000000000000000000000000000000020000000000000000000000000000000000200000000000000000000000000000000",
      "type": "0x0",
      "effectiveGasPrice": "0xb1877190"
    },
    {
      "transactionHash": "0x989767a2b407e6b0cc7f755dd0dba275e9135cf4e07e55ebfc1180af1b9452a5",
      "transactionIndex": "0x54",
      "blockHash": "0x986e5f265732afb18c94b904e7f9691ca7194e4c778deb9f8ba1f3b783991187",
      "blockNumber": "0x4b93e3",
      "from": "0x09C48Ca286972F72B8290C4e1F01CB0eC6185Ca0",
      "to": "0x98442AEE6fA0D6cfee1c946D05b237bB8235edec",
      "cumulativeGasUsed": "0xb30a3d",
      "gasUsed": "0x16634",
      "contractAddress": null,
      "logs": [
        {
          "address": "0x98442AEE6fA0D6cfee1c946D05b237bB8235edec",
          "topics": [
            "0xddf252ad1be2c89b69c2b068fc378daa952ba7f163c4a11628f55a4df523b3ef",
            "0x00000000000000000000000009c48ca286972f72b8290c4e1f01cb0ec6185ca0",
            "0x000000000000000000000000cb1d8dbbd067ff81b6083d0dfce6eb2d968f943e"
          ],
          "data": "0x0000000000000000000000000000000000000000000000004563918244f40000",
          "blockHash": "0x986e5f265732afb18c94b904e7f9691ca7194e4c778deb9f8ba1f3b783991187",
          "blockNumber": "0x4b93e3",
          "transactionHash": "0x989767a2b407e6b0cc7f755dd0dba275e9135cf4e07e55ebfc1180af1b9452a5",
          "transactionIndex": "0x54",
          "logIndex": "0xb1",
          "removed": false
        },
        {
          "address": "0x98442AEE6fA0D6cfee1c946D05b237bB8235edec",
          "topics": [
            "0xc655c9e658fa20c26ca4e095cb3e093e268995fd1afa326c26a839e20f160d5c"
          ],
          "data": "0x0000000000000000000000000000000000000000000000000000000000008721",
          "blockHash": "0x986e5f265732afb18c94b904e7f9691ca7194e4c778deb9f8ba1f3b783991187",
          "blockNumber": "0x4b93e3",
          "transactionHash": "0x989767a2b407e6b0cc7f755dd0dba275e9135cf4e07e55ebfc1180af1b9452a5",
          "transactionIndex": "0x54",
          "logIndex": "0xb2",
          "removed": false
        },
        {
          "address": "0x98442AEE6fA0D6cfee1c946D05b237bB8235edec",
          "topics": [
            "0xc655c9e658fa20c26ca4e095cb3e093e268995fd1afa326c26a839e20f160d5c"
          ],
          "data": "0x000000000000000000000000000000000000000000000000000000000000a17f",
          "blockHash": "0x986e5f265732afb18c94b904e7f9691ca7194e4c778deb9f8ba1f3b783991187",
          "blockNumber": "0x4b93e3",
          "transactionHash": "0x989767a2b407e6b0cc7f755dd0dba275e9135cf4e07e55ebfc1180af1b9452a5",
          "transactionIndex": "0x54",
          "logIndex": "0xb3",
          "removed": false
        },
        {
          "address": "0x98442AEE6fA0D6cfee1c946D05b237bB8235edec",
          "topics": [
            "0xc655c9e658fa20c26ca4e095cb3e093e268995fd1afa326c26a839e20f160d5c"
          ],
          "data": "0x0000000000000000000000000000000000000000000000000000000000009d44",
          "blockHash": "0x986e5f265732afb18c94b904e7f9691ca7194e4c778deb9f8ba1f3b783991187",
          "blockNumber": "0x4b93e3",
          "transactionHash": "0x989767a2b407e6b0cc7f755dd0dba275e9135cf4e07e55ebfc1180af1b9452a5",
          "transactionIndex": "0x54",
          "logIndex": "0xb4",
          "removed": false
        },
        {
          "address": "0x98442AEE6fA0D6cfee1c946D05b237bB8235edec",
          "topics": [
            "0xc655c9e658fa20c26ca4e095cb3e093e268995fd1afa326c26a839e20f160d5c"
          ],
          "data": "0x000000000000000000000000000000000000000000000000000000000000885e",
          "blockHash": "0x986e5f265732afb18c94b904e7f9691ca7194e4c778deb9f8ba1f3b783991187",
          "blockNumber": "0x4b93e3",
          "transactionHash": "0x989767a2b407e6b0cc7f755dd0dba275e9135cf4e07e55ebfc1180af1b9452a5",
          "transactionIndex": "0x54",
          "logIndex": "0xb5",
          "removed": false
        },
        {
          "address": "0x98442AEE6fA0D6cfee1c946D05b237bB8235edec",
          "topics": [
            "0xddf252ad1be2c89b69c2b068fc378daa952ba7f163c4a11628f55a4df523b3ef",
            "0x00000000000000000000000009c48ca286972f72b8290c4e1f01cb0ec6185ca0",
            "0x00000000000000000000000008ca4dca530a7c02d7755455aeb24b63a41c8608"
          ],
          "data": "0x0000000000000000000000000000000000000000000000000000f727c76af0f0",
          "blockHash": "0x986e5f265732afb18c94b904e7f9691ca7194e4c778deb9f8ba1f3b783991187",
          "blockNumber": "0x4b93e3",
          "transactionHash": "0x989767a2b407e6b0cc7f755dd0dba275e9135cf4e07e55ebfc1180af1b9452a5",
          "transactionIndex": "0x54",
          "logIndex": "0xb6",
          "removed": false
        },
        {
          "address": "0x98442AEE6fA0D6cfee1c946D05b237bB8235edec",
          "topics": [
            "0x29b8cd3b4433db59dcfbf8ab8ca612f43329533f0c89eb9a07510bf901d28d0e",
            "0x00000000000000000000000009c48ca286972f72b8290c4e1f01cb0ec6185ca0",
            "0x00000000000000000000000008ca4dca530a7c02d7755455aeb24b63a41c8608"
          ],
          "data": "0x0000000000000000000000000000000000000000000000000000f727c76af0f0",
          "blockHash": "0x986e5f265732afb18c94b904e7f9691ca7194e4c778deb9f8ba1f3b783991187",
          "blockNumber": "0x4b93e3",
          "transactionHash": "0x989767a2b407e6b0cc7f755dd0dba275e9135cf4e07e55ebfc1180af1b9452a5",
          "transactionIndex": "0x54",
          "logIndex": "0xb7",
          "removed": false
        },
        {
          "address": "0x98442AEE6fA0D6cfee1c946D05b237bB8235edec",
          "topics": [
            "0xc655c9e658fa20c26ca4e095cb3e093e268995fd1afa326c26a839e20f160d5c"
          ],
          "data": "0x0000000000000000000000000000000000000000000000000000000000002197",
          "blockHash": "0x986e5f265732afb18c94b904e7f9691ca7194e4c778deb9f8ba1f3b783991187",
          "blockNumber": "0x4b93e3",
          "transactionHash": "0x989767a2b407e6b0cc7f755dd0dba275e9135cf4e07e55ebfc1180af1b9452a5",
          "transactionIndex": "0x54",
          "logIndex": "0xb8",
          "removed": false
        }
      ],
      "status": "0x1",
      "logsBloom": "0x00000000000000000000000008008000000100000000000000000000000000000000000000000000000000000000000000000000000800000000000000100000000000000020000000000008000000000000000000000000000000000000040000000000000000000000008000020400000000000000000000000010000000000000000000000000000000000000001000000000000004000000000000000000000000000000000000000000000000000002000000000020000000000000000000000002000000000000000000000008000000020000000000000000000000000000200000000000000000000000000200000000000000000000000000000000",
      "type": "0x0",
      "effectiveGasPrice": "0xb1877190"
    },
    {
      "transactionHash": "0xe27fac924aec8996ab9bfa69268b9eae7d7a748a0077e6c5b2c32d72b2a8eb32",
      "transactionIndex": "0x3e",
      "blockHash": "0xc309e53a9add35583f3f9f58dbd405ed21908c741f5f81cd21a8894208e320a5",
      "blockNumber": "0x4b93e4",
      "from": "0x09C48Ca286972F72B8290C4e1F01CB0eC6185Ca0",
      "to": "0x98442AEE6fA0D6cfee1c946D05b237bB8235edec",
      "cumulativeGasUsed": "0x63e2a4",
      "gasUsed": "0xe04c",
      "contractAddress": null,
      "logs": [
        {
          "address": "0x98442AEE6fA0D6cfee1c946D05b237bB8235edec",
          "topics": [
            "0xddf252ad1be2c89b69c2b068fc378daa952ba7f163c4a11628f55a4df523b3ef",
            "0x00000000000000000000000009c48ca286972f72b8290c4e1f01cb0ec6185ca0",
            "0x000000000000000000000000cb1d8dbbd067ff81b6083d0dfce6eb2d968f943e"
          ],
          "data": "0x00000000000000000000000000000000000000000000000029a2241af62c0000",
          "blockHash": "0xc309e53a9add35583f3f9f58dbd405ed21908c741f5f81cd21a8894208e320a5",
          "blockNumber": "0x4b93e4",
          "transactionHash": "0xe27fac924aec8996ab9bfa69268b9eae7d7a748a0077e6c5b2c32d72b2a8eb32",
          "transactionIndex": "0x3e",
          "logIndex": "0x52",
          "removed": false
        },
        {
          "address": "0x98442AEE6fA0D6cfee1c946D05b237bB8235edec",
          "topics": [
            "0xc655c9e658fa20c26ca4e095cb3e093e268995fd1afa326c26a839e20f160d5c"
          ],
          "data": "0x0000000000000000000000000000000000000000000000000000000000004455",
          "blockHash": "0xc309e53a9add35583f3f9f58dbd405ed21908c741f5f81cd21a8894208e320a5",
          "blockNumber": "0x4b93e4",
          "transactionHash": "0xe27fac924aec8996ab9bfa69268b9eae7d7a748a0077e6c5b2c32d72b2a8eb32",
          "transactionIndex": "0x3e",
          "logIndex": "0x53",
          "removed": false
        },
        {
          "address": "0x98442AEE6fA0D6cfee1c946D05b237bB8235edec",
          "topics": [
            "0xc655c9e658fa20c26ca4e095cb3e093e268995fd1afa326c26a839e20f160d5c"
          ],
          "data": "0x0000000000000000000000000000000000000000000000000000000000008807",
          "blockHash": "0xc309e53a9add35583f3f9f58dbd405ed21908c741f5f81cd21a8894208e320a5",
          "blockNumber": "0x4b93e4",
          "transactionHash": "0xe27fac924aec8996ab9bfa69268b9eae7d7a748a0077e6c5b2c32d72b2a8eb32",
          "transactionIndex": "0x3e",
          "logIndex": "0x54",
          "removed": false
        },
        {
          "address": "0x98442AEE6fA0D6cfee1c946D05b237bB8235edec",
          "topics": [
            "0xc655c9e658fa20c26ca4e095cb3e093e268995fd1afa326c26a839e20f160d5c"
          ],
          "data": "0x00000000000000000000000000000000000000000000000000000000000083cc",
          "blockHash": "0xc309e53a9add35583f3f9f58dbd405ed21908c741f5f81cd21a8894208e320a5",
          "blockNumber": "0x4b93e4",
          "transactionHash": "0xe27fac924aec8996ab9bfa69268b9eae7d7a748a0077e6c5b2c32d72b2a8eb32",
          "transactionIndex": "0x3e",
          "logIndex": "0x55",
          "removed": false
        },
        {
          "address": "0x98442AEE6fA0D6cfee1c946D05b237bB8235edec",
          "topics": [
            "0xc655c9e658fa20c26ca4e095cb3e093e268995fd1afa326c26a839e20f160d5c"
          ],
          "data": "0x0000000000000000000000000000000000000000000000000000000000006f36",
          "blockHash": "0xc309e53a9add35583f3f9f58dbd405ed21908c741f5f81cd21a8894208e320a5",
          "blockNumber": "0x4b93e4",
          "transactionHash": "0xe27fac924aec8996ab9bfa69268b9eae7d7a748a0077e6c5b2c32d72b2a8eb32",
          "transactionIndex": "0x3e",
          "logIndex": "0x56",
          "removed": false
        },
        {
          "address": "0x98442AEE6fA0D6cfee1c946D05b237bB8235edec",
          "topics": [
            "0xddf252ad1be2c89b69c2b068fc378daa952ba7f163c4a11628f55a4df523b3ef",
            "0x00000000000000000000000009c48ca286972f72b8290c4e1f01cb0ec6185ca0",
            "0x00000000000000000000000008ca4dca530a7c02d7755455aeb24b63a41c8608"
          ],
          "data": "0x00000000000000000000000000000000000000000000000000009ffbd1bbc7b0",
          "blockHash": "0xc309e53a9add35583f3f9f58dbd405ed21908c741f5f81cd21a8894208e320a5",
          "blockNumber": "0x4b93e4",
          "transactionHash": "0xe27fac924aec8996ab9bfa69268b9eae7d7a748a0077e6c5b2c32d72b2a8eb32",
          "transactionIndex": "0x3e",
          "logIndex": "0x57",
          "removed": false
        },
        {
          "address": "0x98442AEE6fA0D6cfee1c946D05b237bB8235edec",
          "topics": [
            "0x29b8cd3b4433db59dcfbf8ab8ca612f43329533f0c89eb9a07510bf901d28d0e",
            "0x00000000000000000000000009c48ca286972f72b8290c4e1f01cb0ec6185ca0",
            "0x00000000000000000000000008ca4dca530a7c02d7755455aeb24b63a41c8608"
          ],
          "data": "0x00000000000000000000000000000000000000000000000000009ffbd1bbc7b0",
          "blockHash": "0xc309e53a9add35583f3f9f58dbd405ed21908c741f5f81cd21a8894208e320a5",
          "blockNumber": "0x4b93e4",
          "transactionHash": "0xe27fac924aec8996ab9bfa69268b9eae7d7a748a0077e6c5b2c32d72b2a8eb32",
          "transactionIndex": "0x3e",
          "logIndex": "0x58",
          "removed": false
        },
        {
          "address": "0x98442AEE6fA0D6cfee1c946D05b237bB8235edec",
          "topics": [
            "0xc655c9e658fa20c26ca4e095cb3e093e268995fd1afa326c26a839e20f160d5c"
          ],
          "data": "0x0000000000000000000000000000000000000000000000000000000000004b3b",
          "blockHash": "0xc309e53a9add35583f3f9f58dbd405ed21908c741f5f81cd21a8894208e320a5",
          "blockNumber": "0x4b93e4",
          "transactionHash": "0xe27fac924aec8996ab9bfa69268b9eae7d7a748a0077e6c5b2c32d72b2a8eb32",
          "transactionIndex": "0x3e",
          "logIndex": "0x59",
          "removed": false
        }
      ],
      "status": "0x1",
      "logsBloom": "0x00000000000000000000000008008000000100000000000000000000000000000000000000000000000000000000000000000000000800000000000000100000000000000020000000000008000000000000000000000000000000000000040000000000000000000000008000020400000000000000000000000010000000000000000000000000000000000000001000000000000004000000000000000000000000000000000000000000000000000002000000000020000000000000000000000002000000000000000000000008000000020000000000000000000000000000200000000000000000000000000200000000000000000000000000000000",
      "type": "0x0",
      "effectiveGasPrice": "0xb1877190"
    },
    {
      "transactionHash": "0xa3c569acf4b0cee04bad318da33ce3b855066112b5a3c91273b2e43bab73d58f",
      "transactionIndex": "0x5b",
      "blockHash": "0xd03bdbd85869ca3f2334b3547e7e1dabd4f0d2bb7e5a4999f82285fb8303ff0e",
      "blockNumber": "0x4b93e5",
      "from": "0x09C48Ca286972F72B8290C4e1F01CB0eC6185Ca0",
      "to": "0x98442AEE6fA0D6cfee1c946D05b237bB8235edec",
      "cumulativeGasUsed": "0x795b12",
      "gasUsed": "0xdd6a",
      "contractAddress": null,
      "logs": [
        {
          "address": "0x98442AEE6fA0D6cfee1c946D05b237bB8235edec",
          "topics": [
            "0xddf252ad1be2c89b69c2b068fc378daa952ba7f163c4a11628f55a4df523b3ef",
            "0x00000000000000000000000009c48ca286972f72b8290c4e1f01cb0ec6185ca0",
            "0x0000000000000000000000000000000000000000000000000000000000000000"
          ],
          "data": "0x0000000000000000000000000000000000000000000000004563918244f40000",
          "blockHash": "0xd03bdbd85869ca3f2334b3547e7e1dabd4f0d2bb7e5a4999f82285fb8303ff0e",
          "blockNumber": "0x4b93e5",
          "transactionHash": "0xa3c569acf4b0cee04bad318da33ce3b855066112b5a3c91273b2e43bab73d58f",
          "transactionIndex": "0x5b",
          "logIndex": "0x7f",
          "removed": false
        },
        {
          "address": "0x98442AEE6fA0D6cfee1c946D05b237bB8235edec",
          "topics": [
            "0xc655c9e658fa20c26ca4e095cb3e093e268995fd1afa326c26a839e20f160d5c"
          ],
          "data": "0x0000000000000000000000000000000000000000000000000000000000004376",
          "blockHash": "0xd03bdbd85869ca3f2334b3547e7e1dabd4f0d2bb7e5a4999f82285fb8303ff0e",
          "blockNumber": "0x4b93e5",
          "transactionHash": "0xa3c569acf4b0cee04bad318da33ce3b855066112b5a3c91273b2e43bab73d58f",
          "transactionIndex": "0x5b",
          "logIndex": "0x80",
          "removed": false
        },
        {
          "address": "0x98442AEE6fA0D6cfee1c946D05b237bB8235edec",
          "topics": [
            "0xc655c9e658fa20c26ca4e095cb3e093e268995fd1afa326c26a839e20f160d5c"
          ],
          "data": "0x000000000000000000000000000000000000000000000000000000000000980d",
          "blockHash": "0xd03bdbd85869ca3f2334b3547e7e1dabd4f0d2bb7e5a4999f82285fb8303ff0e",
          "blockNumber": "0x4b93e5",
          "transactionHash": "0xa3c569acf4b0cee04bad318da33ce3b855066112b5a3c91273b2e43bab73d58f",
          "transactionIndex": "0x5b",
          "logIndex": "0x81",
          "removed": false
        },
        {
          "address": "0x98442AEE6fA0D6cfee1c946D05b237bB8235edec",
          "topics": [
            "0xc655c9e658fa20c26ca4e095cb3e093e268995fd1afa326c26a839e20f160d5c"
          ],
          "data": "0x00000000000000000000000000000000000000000000000000000000000093d2",
          "blockHash": "0xd03bdbd85869ca3f2334b3547e7e1dabd4f0d2bb7e5a4999f82285fb8303ff0e",
          "blockNumber": "0x4b93e5",
          "transactionHash": "0xa3c569acf4b0cee04bad318da33ce3b855066112b5a3c91273b2e43bab73d58f",
          "transactionIndex": "0x5b",
          "logIndex": "0x82",
          "removed": false
        },
        {
          "address": "0x98442AEE6fA0D6cfee1c946D05b237bB8235edec",
          "topics": [
            "0xc655c9e658fa20c26ca4e095cb3e093e268995fd1afa326c26a839e20f160d5c"
          ],
          "data": "0x0000000000000000000000000000000000000000000000000000000000007f3c",
          "blockHash": "0xd03bdbd85869ca3f2334b3547e7e1dabd4f0d2bb7e5a4999f82285fb8303ff0e",
          "blockNumber": "0x4b93e5",
          "transactionHash": "0xa3c569acf4b0cee04bad318da33ce3b855066112b5a3c91273b2e43bab73d58f",
          "transactionIndex": "0x5b",
          "logIndex": "0x83",
          "removed": false
        },
        {
          "address": "0x98442AEE6fA0D6cfee1c946D05b237bB8235edec",
          "topics": [
            "0xddf252ad1be2c89b69c2b068fc378daa952ba7f163c4a11628f55a4df523b3ef",
            "0x00000000000000000000000009c48ca286972f72b8290c4e1f01cb0ec6185ca0",
            "0x00000000000000000000000008ca4dca530a7c02d7755455aeb24b63a41c8608"
          ],
          "data": "0x00000000000000000000000000000000000000000000000000009f612cbfdb40",
          "blockHash": "0xd03bdbd85869ca3f2334b3547e7e1dabd4f0d2bb7e5a4999f82285fb8303ff0e",
          "blockNumber": "0x4b93e5",
          "transactionHash": "0xa3c569acf4b0cee04bad318da33ce3b855066112b5a3c91273b2e43bab73d58f",
          "transactionIndex": "0x5b",
          "logIndex": "0x84",
          "removed": false
        },
        {
          "address": "0x98442AEE6fA0D6cfee1c946D05b237bB8235edec",
          "topics": [
            "0x29b8cd3b4433db59dcfbf8ab8ca612f43329533f0c89eb9a07510bf901d28d0e",
            "0x00000000000000000000000009c48ca286972f72b8290c4e1f01cb0ec6185ca0",
            "0x00000000000000000000000008ca4dca530a7c02d7755455aeb24b63a41c8608"
          ],
          "data": "0x00000000000000000000000000000000000000000000000000009f612cbfdb40",
          "blockHash": "0xd03bdbd85869ca3f2334b3547e7e1dabd4f0d2bb7e5a4999f82285fb8303ff0e",
          "blockNumber": "0x4b93e5",
          "transactionHash": "0xa3c569acf4b0cee04bad318da33ce3b855066112b5a3c91273b2e43bab73d58f",
          "transactionIndex": "0x5b",
          "logIndex": "0x85",
          "removed": false
        },
        {
          "address": "0x98442AEE6fA0D6cfee1c946D05b237bB8235edec",
          "topics": [
            "0xc655c9e658fa20c26ca4e095cb3e093e268995fd1afa326c26a839e20f160d5c"
          ],
          "data": "0x0000000000000000000000000000000000000000000000000000000000005b41",
          "blockHash": "0xd03bdbd85869ca3f2334b3547e7e1dabd4f0d2bb7e5a4999f82285fb8303ff0e",
          "blockNumber": "0x4b93e5",
          "transactionHash": "0xa3c569acf4b0cee04bad318da33ce3b855066112b5a3c91273b2e43bab73d58f",
          "transactionIndex": "0x5b",
          "logIndex": "0x86",
          "removed": false
        }
      ],
      "status": "0x1",
      "logsBloom": "0x00000000000000000000000008008000000000000000000000000000000000000000000000000000000000000000000000000000000800000000000000100000000000000000000000000008000000000000000000000000000000000000040000000000020000000000008000020c00000000000000000000000010000000000000000000000000000000000000001000000000000004000000000000000000000000000000000000000000000000000002000000000000000000000000000000000002000000000000000000000008000000020000000000000000000020000000200000000000000000000000000200000000000000000000000000000000",
      "type": "0x0",
      "effectiveGasPrice": "0xb1877190"
    },
    {
      "transactionHash": "0x7c71e0c7193c128db8c08ff90fdeb7a42d1152b76821d32688682456d293e79c",
      "transactionIndex": "0xa7",
      "blockHash": "0x7a9789cbf0a08ceb15a71d2ca0dbabe2c67e12081373d3d6a769d3a79b9f912a",
      "blockNumber": "0x4b93e6",
      "from": "0x09C48Ca286972F72B8290C4e1F01CB0eC6185Ca0",
      "to": "0x98442AEE6fA0D6cfee1c946D05b237bB8235edec",
      "cumulativeGasUsed": "0x16020d4",
      "gasUsed": "0xdd6a",
      "contractAddress": null,
      "logs": [
        {
          "address": "0x98442AEE6fA0D6cfee1c946D05b237bB8235edec",
          "topics": [
            "0xddf252ad1be2c89b69c2b068fc378daa952ba7f163c4a11628f55a4df523b3ef",
            "0x00000000000000000000000009c48ca286972f72b8290c4e1f01cb0ec6185ca0",
            "0x0000000000000000000000000000000000000000000000000000000000000000"
          ],
          "data": "0x00000000000000000000000000000000000000000000000029a2241af62c0000",
          "blockHash": "0x7a9789cbf0a08ceb15a71d2ca0dbabe2c67e12081373d3d6a769d3a79b9f912a",
          "blockNumber": "0x4b93e6",
          "transactionHash": "0x7c71e0c7193c128db8c08ff90fdeb7a42d1152b76821d32688682456d293e79c",
          "transactionIndex": "0xa7",
          "logIndex": "0x13a",
          "removed": false
        },
        {
          "address": "0x98442AEE6fA0D6cfee1c946D05b237bB8235edec",
          "topics": [
            "0xc655c9e658fa20c26ca4e095cb3e093e268995fd1afa326c26a839e20f160d5c"
          ],
          "data": "0x0000000000000000000000000000000000000000000000000000000000004376",
          "blockHash": "0x7a9789cbf0a08ceb15a71d2ca0dbabe2c67e12081373d3d6a769d3a79b9f912a",
          "blockNumber": "0x4b93e6",
          "transactionHash": "0x7c71e0c7193c128db8c08ff90fdeb7a42d1152b76821d32688682456d293e79c",
          "transactionIndex": "0xa7",
          "logIndex": "0x13b",
          "removed": false
        },
        {
          "address": "0x98442AEE6fA0D6cfee1c946D05b237bB8235edec",
          "topics": [
            "0xc655c9e658fa20c26ca4e095cb3e093e268995fd1afa326c26a839e20f160d5c"
          ],
          "data": "0x000000000000000000000000000000000000000000000000000000000000980d",
          "blockHash": "0x7a9789cbf0a08ceb15a71d2ca0dbabe2c67e12081373d3d6a769d3a79b9f912a",
          "blockNumber": "0x4b93e6",
          "transactionHash": "0x7c71e0c7193c128db8c08ff90fdeb7a42d1152b76821d32688682456d293e79c",
          "transactionIndex": "0xa7",
          "logIndex": "0x13c",
          "removed": false
        },
        {
          "address": "0x98442AEE6fA0D6cfee1c946D05b237bB8235edec",
          "topics": [
            "0xc655c9e658fa20c26ca4e095cb3e093e268995fd1afa326c26a839e20f160d5c"
          ],
          "data": "0x00000000000000000000000000000000000000000000000000000000000093d2",
          "blockHash": "0x7a9789cbf0a08ceb15a71d2ca0dbabe2c67e12081373d3d6a769d3a79b9f912a",
          "blockNumber": "0x4b93e6",
          "transactionHash": "0x7c71e0c7193c128db8c08ff90fdeb7a42d1152b76821d32688682456d293e79c",
          "transactionIndex": "0xa7",
          "logIndex": "0x13d",
          "removed": false
        },
        {
          "address": "0x98442AEE6fA0D6cfee1c946D05b237bB8235edec",
          "topics": [
            "0xc655c9e658fa20c26ca4e095cb3e093e268995fd1afa326c26a839e20f160d5c"
          ],
          "data": "0x0000000000000000000000000000000000000000000000000000000000007f3c",
          "blockHash": "0x7a9789cbf0a08ceb15a71d2ca0dbabe2c67e12081373d3d6a769d3a79b9f912a",
          "blockNumber": "0x4b93e6",
          "transactionHash": "0x7c71e0c7193c128db8c08ff90fdeb7a42d1152b76821d32688682456d293e79c",
          "transactionIndex": "0xa7",
          "logIndex": "0x13e",
          "removed": false
        },
        {
          "address": "0x98442AEE6fA0D6cfee1c946D05b237bB8235edec",
          "topics": [
            "0xddf252ad1be2c89b69c2b068fc378daa952ba7f163c4a11628f55a4df523b3ef",
            "0x00000000000000000000000009c48ca286972f72b8290c4e1f01cb0ec6185ca0",
            "0x00000000000000000000000008ca4dca530a7c02d7755455aeb24b63a41c8608"
          ],
          "data": "0x00000000000000000000000000000000000000000000000000009f612cbfdb40",
          "blockHash": "0x7a9789cbf0a08ceb15a71d2ca0dbabe2c67e12081373d3d6a769d3a79b9f912a",
          "blockNumber": "0x4b93e6",
          "transactionHash": "0x7c71e0c7193c128db8c08ff90fdeb7a42d1152b76821d32688682456d293e79c",
          "transactionIndex": "0xa7",
          "logIndex": "0x13f",
          "removed": false
        },
        {
          "address": "0x98442AEE6fA0D6cfee1c946D05b237bB8235edec",
          "topics": [
            "0x29b8cd3b4433db59dcfbf8ab8ca612f43329533f0c89eb9a07510bf901d28d0e",
            "0x00000000000000000000000009c48ca286972f72b8290c4e1f01cb0ec6185ca0",
            "0x00000000000000000000000008ca4dca530a7c02d7755455aeb24b63a41c8608"
          ],
          "data": "0x00000000000000000000000000000000000000000000000000009f612cbfdb40",
          "blockHash": "0x7a9789cbf0a08ceb15a71d2ca0dbabe2c67e12081373d3d6a769d3a79b9f912a",
          "blockNumber": "0x4b93e6",
          "transactionHash": "0x7c71e0c7193c128db8c08ff90fdeb7a42d1152b76821d32688682456d293e79c",
          "transactionIndex": "0xa7",
          "logIndex": "0x140",
          "removed": false
        },
        {
          "address": "0x98442AEE6fA0D6cfee1c946D05b237bB8235edec",
          "topics": [
            "0xc655c9e658fa20c26ca4e095cb3e093e268995fd1afa326c26a839e20f160d5c"
          ],
          "data": "0x0000000000000000000000000000000000000000000000000000000000005b41",
          "blockHash": "0x7a9789cbf0a08ceb15a71d2ca0dbabe2c67e12081373d3d6a769d3a79b9f912a",
          "blockNumber": "0x4b93e6",
          "transactionHash": "0x7c71e0c7193c128db8c08ff90fdeb7a42d1152b76821d32688682456d293e79c",
          "transactionIndex": "0xa7",
          "logIndex": "0x141",
          "removed": false
        }
      ],
      "status": "0x1",
      "logsBloom": "0x00000000000000000000000008008000000000000000000000000000000000000000000000000000000000000000000000000000000800000000000000100000000000000000000000000008000000000000000000000000000000000000040000000000020000000000008000020c00000000000000000000000010000000000000000000000000000000000000001000000000000004000000000000000000000000000000000000000000000000000002000000000000000000000000000000000002000000000000000000000008000000020000000000000000000020000000200000000000000000000000000200000000000000000000000000000000",
      "type": "0x0",
      "effectiveGasPrice": "0xb1877190"
    },
    {
      "transactionHash": "0xb2565a4c98f22df97ce0753fe173e66fb1a6cd17c28621afab967df479032e85",
      "transactionIndex": "0x3c",
      "blockHash": "0xa0fbcf90590608d9ba9d10064865d74ddf79b1b90ba1c2b1dd05a380a0ebf8a9",
      "blockNumber": "0x4b93e9",
      "from": "0x09C48Ca286972F72B8290C4e1F01CB0eC6185Ca0",
      "to": "0x98442AEE6fA0D6cfee1c946D05b237bB8235edec",
      "cumulativeGasUsed": "0x96df2d",
      "gasUsed": "0x11f7c",
      "contractAddress": null,
      "logs": [
        {
          "address": "0x98442AEE6fA0D6cfee1c946D05b237bB8235edec",
          "topics": [
            "0x8c5be1e5ebec7d5bd14f71427d1e84f3dd0314c0f7b2291e5b200ac8c7c3b925",
            "0x00000000000000000000000009c48ca286972f72b8290c4e1f01cb0ec6185ca0",
            "0x000000000000000000000000cb1d8dbbd067ff81b6083d0dfce6eb2d968f943e"
          ],
          "data": "0x0000000000000000000000000000000000000000000000001bc16d674ec80000",
          "blockHash": "0xa0fbcf90590608d9ba9d10064865d74ddf79b1b90ba1c2b1dd05a380a0ebf8a9",
          "blockNumber": "0x4b93e9",
          "transactionHash": "0xb2565a4c98f22df97ce0753fe173e66fb1a6cd17c28621afab967df479032e85",
          "transactionIndex": "0x3c",
          "logIndex": "0xa5",
          "removed": false
        },
        {
          "address": "0x98442AEE6fA0D6cfee1c946D05b237bB8235edec",
          "topics": [
            "0xc655c9e658fa20c26ca4e095cb3e093e268995fd1afa326c26a839e20f160d5c"
          ],
          "data": "0x00000000000000000000000000000000000000000000000000000000000070c3",
          "blockHash": "0xa0fbcf90590608d9ba9d10064865d74ddf79b1b90ba1c2b1dd05a380a0ebf8a9",
          "blockNumber": "0x4b93e9",
          "transactionHash": "0xb2565a4c98f22df97ce0753fe173e66fb1a6cd17c28621afab967df479032e85",
          "transactionIndex": "0x3c",
          "logIndex": "0xa6",
          "removed": false
        },
        {
          "address": "0x98442AEE6fA0D6cfee1c946D05b237bB8235edec",
          "topics": [
            "0xc655c9e658fa20c26ca4e095cb3e093e268995fd1afa326c26a839e20f160d5c"
          ],
          "data": "0x000000000000000000000000000000000000000000000000000000000000a3c3",
          "blockHash": "0xa0fbcf90590608d9ba9d10064865d74ddf79b1b90ba1c2b1dd05a380a0ebf8a9",
          "blockNumber": "0x4b93e9",
          "transactionHash": "0xb2565a4c98f22df97ce0753fe173e66fb1a6cd17c28621afab967df479032e85",
          "transactionIndex": "0x3c",
          "logIndex": "0xa7",
          "removed": false
        },
        {
          "address": "0x98442AEE6fA0D6cfee1c946D05b237bB8235edec",
          "topics": [
            "0xc655c9e658fa20c26ca4e095cb3e093e268995fd1afa326c26a839e20f160d5c"
          ],
          "data": "0x0000000000000000000000000000000000000000000000000000000000009f88",
          "blockHash": "0xa0fbcf90590608d9ba9d10064865d74ddf79b1b90ba1c2b1dd05a380a0ebf8a9",
          "blockNumber": "0x4b93e9",
          "transactionHash": "0xb2565a4c98f22df97ce0753fe173e66fb1a6cd17c28621afab967df479032e85",
          "transactionIndex": "0x3c",
          "logIndex": "0xa8",
          "removed": false
        },
        {
          "address": "0x98442AEE6fA0D6cfee1c946D05b237bB8235edec",
          "topics": [
            "0xc655c9e658fa20c26ca4e095cb3e093e268995fd1afa326c26a839e20f160d5c"
          ],
          "data": "0x0000000000000000000000000000000000000000000000000000000000008322",
          "blockHash": "0xa0fbcf90590608d9ba9d10064865d74ddf79b1b90ba1c2b1dd05a380a0ebf8a9",
          "blockNumber": "0x4b93e9",
          "transactionHash": "0xb2565a4c98f22df97ce0753fe173e66fb1a6cd17c28621afab967df479032e85",
          "transactionIndex": "0x3c",
          "logIndex": "0xa9",
          "removed": false
        },
        {
          "address": "0x98442AEE6fA0D6cfee1c946D05b237bB8235edec",
          "topics": [
            "0xddf252ad1be2c89b69c2b068fc378daa952ba7f163c4a11628f55a4df523b3ef",
            "0x00000000000000000000000009c48ca286972f72b8290c4e1f01cb0ec6185ca0",
            "0x00000000000000000000000008ca4dca530a7c02d7755455aeb24b63a41c8608"
          ],
          "data": "0x0000000000000000000000000000000000000000000000000000becb61735390",
          "blockHash": "0xa0fbcf90590608d9ba9d10064865d74ddf79b1b90ba1c2b1dd05a380a0ebf8a9",
          "blockNumber": "0x4b93e9",
          "transactionHash": "0xb2565a4c98f22df97ce0753fe173e66fb1a6cd17c28621afab967df479032e85",
          "transactionIndex": "0x3c",
          "logIndex": "0xaa",
          "removed": false
        },
        {
          "address": "0x98442AEE6fA0D6cfee1c946D05b237bB8235edec",
          "topics": [
            "0x29b8cd3b4433db59dcfbf8ab8ca612f43329533f0c89eb9a07510bf901d28d0e",
            "0x00000000000000000000000009c48ca286972f72b8290c4e1f01cb0ec6185ca0",
            "0x00000000000000000000000008ca4dca530a7c02d7755455aeb24b63a41c8608"
          ],
          "data": "0x0000000000000000000000000000000000000000000000000000becb61735390",
          "blockHash": "0xa0fbcf90590608d9ba9d10064865d74ddf79b1b90ba1c2b1dd05a380a0ebf8a9",
          "blockNumber": "0x4b93e9",
          "transactionHash": "0xb2565a4c98f22df97ce0753fe173e66fb1a6cd17c28621afab967df479032e85",
          "transactionIndex": "0x3c",
          "logIndex": "0xab",
          "removed": false
        },
        {
          "address": "0x98442AEE6fA0D6cfee1c946D05b237bB8235edec",
          "topics": [
            "0xc655c9e658fa20c26ca4e095cb3e093e268995fd1afa326c26a839e20f160d5c"
          ],
          "data": "0x0000000000000000000000000000000000000000000000000000000000005437",
          "blockHash": "0xa0fbcf90590608d9ba9d10064865d74ddf79b1b90ba1c2b1dd05a380a0ebf8a9",
          "blockNumber": "0x4b93e9",
          "transactionHash": "0xb2565a4c98f22df97ce0753fe173e66fb1a6cd17c28621afab967df479032e85",
          "transactionIndex": "0x3c",
          "logIndex": "0xac",
          "removed": false
        }
      ],
      "status": "0x1",
      "logsBloom": "0x00000000000000000000000008008000000100000000000000000000000000000000000000000000000000000000000000000000000800000000000000300000000000000020000000000008000000000000000000000000000000000000040000000000000000000000008000020400000000000000000000000010000000000000000000000000000000000000001000000000000004000000000000000000020000000000000000000000000000000002000000000020000000000000000000000002000000000000000000000008000000020000000000000000000000000010200000000000000000000000000200000000000000000000000000000000",
      "type": "0x0",
      "effectiveGasPrice": "0xb1877190"
    },
    {
      "transactionHash": "0x7a211ecc80414f44fd8bb658add12d717c5a01f17abc16429b78e835aee7f171",
      "transactionIndex": "0x6b",
      "blockHash": "0xf815a6b10631435a853c343adf39b3b9a9e95f661477715d840301820157e068",
      "blockNumber": "0x4b93ea",
      "from": "0x09C48Ca286972F72B8290C4e1F01CB0eC6185Ca0",
      "to": "0x98442AEE6fA0D6cfee1c946D05b237bB8235edec",
      "cumulativeGasUsed": "0x816039",
      "gasUsed": "0xdcb0",
      "contractAddress": null,
      "logs": [
        {
          "address": "0x98442AEE6fA0D6cfee1c946D05b237bB8235edec",
          "topics": [
            "0x8c5be1e5ebec7d5bd14f71427d1e84f3dd0314c0f7b2291e5b200ac8c7c3b925",
            "0x00000000000000000000000009c48ca286972f72b8290c4e1f01cb0ec6185ca0",
            "0x000000000000000000000000cb1d8dbbd067ff81b6083d0dfce6eb2d968f943e"
          ],
          "data": "0x0000000000000000000000000000000000000000000000000de0b6b3a7640000",
          "blockHash": "0xf815a6b10631435a853c343adf39b3b9a9e95f661477715d840301820157e068",
          "blockNumber": "0x4b93ea",
          "transactionHash": "0x7a211ecc80414f44fd8bb658add12d717c5a01f17abc16429b78e835aee7f171",
          "transactionIndex": "0x6b",
          "logIndex": "0x78",
          "removed": false
        },
        {
          "address": "0x98442AEE6fA0D6cfee1c946D05b237bB8235edec",
          "topics": [
            "0xc655c9e658fa20c26ca4e095cb3e093e268995fd1afa326c26a839e20f160d5c"
          ],
          "data": "0x0000000000000000000000000000000000000000000000000000000000002df7",
          "blockHash": "0xf815a6b10631435a853c343adf39b3b9a9e95f661477715d840301820157e068",
          "blockNumber": "0x4b93ea",
          "transactionHash": "0x7a211ecc80414f44fd8bb658add12d717c5a01f17abc16429b78e835aee7f171",
          "transactionIndex": "0x6b",
          "logIndex": "0x79",
          "removed": false
        },
        {
          "address": "0x98442AEE6fA0D6cfee1c946D05b237bB8235edec",
          "topics": [
            "0xc655c9e658fa20c26ca4e095cb3e093e268995fd1afa326c26a839e20f160d5c"
          ],
          "data": "0x0000000000000000000000000000000000000000000000000000000000008a4c",
          "blockHash": "0xf815a6b10631435a853c343adf39b3b9a9e95f661477715d840301820157e068",
          "blockNumber": "0x4b93ea",
          "transactionHash": "0x7a211ecc80414f44fd8bb658add12d717c5a01f17abc16429b78e835aee7f171",
          "transactionIndex": "0x6b",
          "logIndex": "0x7a",
          "removed": false
        },
        {
          "address": "0x98442AEE6fA0D6cfee1c946D05b237bB8235edec",
          "topics": [
            "0xc655c9e658fa20c26ca4e095cb3e093e268995fd1afa326c26a839e20f160d5c"
          ],
          "data": "0x0000000000000000000000000000000000000000000000000000000000008611",
          "blockHash": "0xf815a6b10631435a853c343adf39b3b9a9e95f661477715d840301820157e068",
          "blockNumber": "0x4b93ea",
          "transactionHash": "0x7a211ecc80414f44fd8bb658add12d717c5a01f17abc16429b78e835aee7f171",
          "transactionIndex": "0x6b",
          "logIndex": "0x7b",
          "removed": false
        },
        {
          "address": "0x98442AEE6fA0D6cfee1c946D05b237bB8235edec",
          "topics": [
            "0xc655c9e658fa20c26ca4e095cb3e093e268995fd1afa326c26a839e20f160d5c"
          ],
          "data": "0x00000000000000000000000000000000000000000000000000000000000069ab",
          "blockHash": "0xf815a6b10631435a853c343adf39b3b9a9e95f661477715d840301820157e068",
          "blockNumber": "0x4b93ea",
          "transactionHash": "0x7a211ecc80414f44fd8bb658add12d717c5a01f17abc16429b78e835aee7f171",
          "transactionIndex": "0x6b",
          "logIndex": "0x7c",
          "removed": false
        },
        {
          "address": "0x98442AEE6fA0D6cfee1c946D05b237bB8235edec",
          "topics": [
            "0xddf252ad1be2c89b69c2b068fc378daa952ba7f163c4a11628f55a4df523b3ef",
            "0x00000000000000000000000009c48ca286972f72b8290c4e1f01cb0ec6185ca0",
            "0x00000000000000000000000008ca4dca530a7c02d7755455aeb24b63a41c8608"
          ],
          "data": "0x00000000000000000000000000000000000000000000000000009078fe3db4d0",
          "blockHash": "0xf815a6b10631435a853c343adf39b3b9a9e95f661477715d840301820157e068",
          "blockNumber": "0x4b93ea",
          "transactionHash": "0x7a211ecc80414f44fd8bb658add12d717c5a01f17abc16429b78e835aee7f171",
          "transactionIndex": "0x6b",
          "logIndex": "0x7d",
          "removed": false
        },
        {
          "address": "0x98442AEE6fA0D6cfee1c946D05b237bB8235edec",
          "topics": [
            "0x29b8cd3b4433db59dcfbf8ab8ca612f43329533f0c89eb9a07510bf901d28d0e",
            "0x00000000000000000000000009c48ca286972f72b8290c4e1f01cb0ec6185ca0",
            "0x00000000000000000000000008ca4dca530a7c02d7755455aeb24b63a41c8608"
          ],
          "data": "0x00000000000000000000000000000000000000000000000000009078fe3db4d0",
          "blockHash": "0xf815a6b10631435a853c343adf39b3b9a9e95f661477715d840301820157e068",
          "blockNumber": "0x4b93ea",
          "transactionHash": "0x7a211ecc80414f44fd8bb658add12d717c5a01f17abc16429b78e835aee7f171",
          "transactionIndex": "0x6b",
          "logIndex": "0x7e",
          "removed": false
        },
        {
          "address": "0x98442AEE6fA0D6cfee1c946D05b237bB8235edec",
          "topics": [
            "0xc655c9e658fa20c26ca4e095cb3e093e268995fd1afa326c26a839e20f160d5c"
          ],
          "data": "0x0000000000000000000000000000000000000000000000000000000000003ac0",
          "blockHash": "0xf815a6b10631435a853c343adf39b3b9a9e95f661477715d840301820157e068",
          "blockNumber": "0x4b93ea",
          "transactionHash": "0x7a211ecc80414f44fd8bb658add12d717c5a01f17abc16429b78e835aee7f171",
          "transactionIndex": "0x6b",
          "logIndex": "0x7f",
          "removed": false
        }
      ],
      "status": "0x1",
      "logsBloom": "0x00000000000000000000000008008000000100000000000000000000000000000000000000000000000000000000000000000000000800000000000000300000000000000020000000000008000000000000000000000000000000000000040000000000000000000000008000020400000000000000000000000010000000000000000000000000000000000000001000000000000004000000000000000000020000000000000000000000000000000002000000000020000000000000000000000002000000000000000000000008000000020000000000000000000000000010200000000000000000000000000200000000000000000000000000000000",
      "type": "0x0",
      "effectiveGasPrice": "0xb1877190"
    }
  ],
  "libraries": [],
  "pending": [],
  "returns": {},
  "timestamp": 1703481003,
  "chain": 11155111,
  "multi": false,
  "commit": "709cba2"
}